:020000040800F2
:1000000050040020C1130008711200087312000888
:10001000751200087712000879120008000000002D
:100020000000000000000000000000007B1200083B
:100030007D120008000000007F12000881120008F5
:10004000DD130008E1130008E5130008E9130008B8
:10005000ED130008F113000885120008F5130008DD
:100060008B1200089112000897120008F91300087B
:10007000FD13000801140008051400080914000805
:100080000D140008111400081514000819140008B4
:100090001D14000821140008251400082914000864
:1000A0002D14000831140008351400083914000814
:1000B0003D1400089D120008411400084514000872
:1000C000491400084D140008511400085514000884
:1000D000591400085D140008611400086514000834
:1000E000691400086D1400087114000875140008E4
:1000F000791400087D140008811400088514000894
:10010000891400088D140008911400089514000843
:10011000991400089D140008A1140008A5140008F3
:10012000A9140008AD140008B1140008B5140008A3
:10013000B9140008BD140008C1140008C514000853
:10014000C9140008CD140008D1140008D514000803
:10015000D9140008DD140008E1140008E5140008B3
:10016000E9140008ED140008F1140008F514000863
:10017000F9140008FD140008011500080000000033
:1001800005150008091500080D15000811150008CF
:1001900015150008191500081D150008211500087F
:1001A00025150008291500082D15000838B504008C
:1001B00001D1012032BD00F024F818B900F01DF87B
:1001C00000F0D8F90FE00068C16841F00101C1609A
:1001D000816801F00701062903D0016841F001019F
:1001E00001600020704702206870211D206800F027
:1001F0000DF901206870002032BD002129702046D1
:10020000704704F13C056878704710B504462068D3
:1002100001698A0715D5C1688A0712D56FF00201F6
:10022000016101222277806910F0030F204602D07D
:1002300000F0B8F903E000F0B6F900F087F800200C
:100240002077206801694A0715D5C1684A0712D589
:100250006FF00401016102222277806910F4407F6F
:10026000204602D000F09EF903E000F09CF900F077
:100270006DF800202077206801690A0715D5C1684C
:100280000A0712D56FF00801016104222277C069C4
:1002900010F0030F204602D000F084F903E000F0D4
:1002A00082F900F053F80020207720680169CA061F
:1002B00015D5C168CA0612D56FF010010161082278
:1002C0002277C06910F4407F204602D000F06AF91E
:1002D00003E000F068F900F039F80020207720688A
:1002E0000169CA0708D5C168CA0705D56FF00101C1
:1002F0000161204600F096FA206801690A0608D5D7
:10030000C1680A0605D56FF080010161204600F042
:10031000B9FA206801694A0608D5C1684A0605D5B8
:100320006FF040010161204600F0ADFA20680169DC
:100330008A060AD5C1688A0607D56FF020010161D7
:100340002046BDE8104000F09FBA10BD204600F0E6
:100350009CBA38B500F04EF801D1022032BD012020
:10036000207002226270DFF83C012A689368034023
:1003700093600868020018BF10282DD0202818BFED
:10038000302829D0402823D0502816D0602818D0F3
:10039000702803D0B0F5005F07D021E000F025F809
:1003A0002868816841F0770105E000F01EF82868B0
:1003B000816841F48041816012E000F012F8502120
:1003C0000BE0CA684968286800F093F8602104E0EF
:1003D00000F007F8402100E00146286800F09BF893
:1003E0000EE0CA684968286874E0CB684A68896882
:1003F000286898E0054605F13C04207801287047FC
:100400000120607000212170002032BDF0B5264C23
:100410000568264B264E274FDFF89CC0A04218BF28
:10042000B0F1804F07D0604518BFB84203D0B0424A
:1004300018BF98420DD14A6825F070051543A042B7
:1004400018BFB0F1804F17D060451CBFB842B04212
:1004500012D098421CBF194A90420DD0184EB0429B
:100460001CBF184A904207D0174EB0421FBF174A10
:100470009042174EB04203D1CA6825F44075154327
:100480004A6925F0800515430560A0428D68C56264
:100490000A68826212BF98420969016301224261BF
:1004A000F0BD00008800FFFF000001400004014093
:1004B000000C0040000800400004004000400140E3
:1004C000004401400048014000180040001C00406A
:1004D0000020004010B5036A046A640864000462E6
:1004E00023F00A03846924F0F00444EA02148461CE
:1004F00023E010B5036A23F0100303628369046AE2
:1005000023F4704343EA023324F0A004836144EAF5
:100510000114046210BD826822F07002114341F0A0
:1005200007018160704710B5846824F47F4421433B
:10053000114341EA0321816010BD1943016210BDDE
:1005400081B00020009000221448416841F48041AD
:100550004160416801F48041009100990092036874
:1005600043F080530360006800F0805000900098D2
:1005700001B0704781B00068094988420BD1002260
:1005800006480092016841F002010160006800F035
:1005900002000090009801B070470000403802400F
:1005A000000400407047704738B586B000F06EF91F
:1005B00000F055F800F09DF802A8102100F080F935
:1005C000AEA042F2CF01D0E90045CDE900459F48F9
:1005D0009F4C206041F287300022E0606160A260A1
:1005E0002261A2612046FFF7E1FD4FF480500290A6
:1005F00002A92046FFF7ADFE00210091019120469F
:10060000694600F061F900220021062000F0BCF9E3
:10061000062000F0D6F900220021082000F0B4F9ED
:10062000082000F0CEF900220021092000F0ACF9EA
:10063000092000F0C6F9002200210A2000F0A4F9E8
:100640000A2000F0BEF9002200211D2000F09CF9D4
:100650001D2000F0B6F92046FFF7B5FDFEE780B596
:1006600092B006A8302100F02BF901A8142100F067
:1006700027F9002000904FF480337648016841F05C
:10068000805101600021006800F0805000900098C7
:1006900071480091026842F4404202600122006801
:1006A00000F44040009006A80099069202214FF401
:1006B00080020C910D9208214FF4A8720E910F92B6
:1006C0000221042207931091119200F0A5F9022152
:1006D0000291002203920F204FF4A0510190049147
:1006E0004FF480520592052101A800F027FB13B0BA
:1006F00000BD38B586B06846142100F0E1F800244A
:100700005648574D05940168564C41F01001016060
:10071000026802F010020592002205990592036812
:1007200043F080030360016801F0800100F052F89B
:1007300043F001030360016801F0010100F04AF891
:1007400043F002030360016801F0020100F042F887
:1007500043F008030360016801F008010591059961
:100760000592B021036843F040030360006800F085
:10077000400005900598204600F083FC00224FF4CD
:10078000C041284600F07DFC1C20374900F027F8C6
:10079000364800F093FB0120354900F020F8354839
:1007A00000F08CFB04200021009001910291694629
:1007B000314800F083FBB02100F017F8204600F02C
:1007C0007DFB4FF4C04100F010F8284600F076FBA6
:1007D00007B030BD059105990592036870470090F8
:1007E0000191002202926946704700910122019214
:1007F0000021029103220392694670470128194A99
:1008000008BFB0210AD0042808BF102106D008284C
:1008100008BF202102D0102803D18021104600F00B
:1008200034BC70470068094A904200D0704710B548
:100830000B4C4FF40051204600F027FC2046BDE849
:1008400010404FF4804100F020BC00000004004044
:100850001000002040380240007000403038024054
:1008600000180240000C024000002110001002405D
:1008700000001110000002400004024000000000CF
:1008800000000000704770477047704780B50B4804
:10089000016841F400710160026842F48062026004
:1008A000016841F480710160032000F060F80020CD
:1008B00000F018FCFFF744FE002002BD003C02409F
:1008C000002200F02FBC000070B500F13C031A7844
:1008D000012A01D1022070BD01221A7002245C702D
:1008E00005686E68AC680A6826F0700616436E608C
:1008F00002681148824218BFB2F1804F11D00F48F0
:1009000082421CBF0E4DAA420BD00E4882421CBF31
:100910000D4DAA4205D00D4882421CBF0C4DAA4283
:1009200004D1486824F08004044394600121597084
:100930000020187070BD000000000140000400405D
:1009400000080040000C004000040140004001404D
:10095000001800400901020002D429488154704760
:10096000284B02F00F021A4402F8041C7047264B71
:1009700019684FF6FF020002114000F4E0600843DE
:10098000224908431860704738B51F4B1C68C4F3F0
:100990000223C3F10704052C28BF04241D1D072DC5
:1009A00034BF0023DB1E012505FA04F4641E214038
:1009B000994005FA03F35B1E1A401143BDE8344029
:1009C000C8E7010007D4012200F01F01104B8A4044
:1009D000400943F82020704710B5401EB0F1807FD9
:1009E00001D3012010BD0B4C60600F214FF0FF3090
:1009F000FFF7B0FF0021A16007202060002010BD9C
:100A000000E400E018ED00E00CED00E00000FA0565
:100A100000E100E010E000E02DE9F843040016D00A
:100A20002078DFF80863C10713D5B06800F00C0028
:100A3000042807D0B06800F00C0008283ED1706888
:100A400041023BD53068810303D56068002800F07F
:100A5000FF802078B64F810719D5B06810F00C0FD1
:100A600007D0B06800F00C0008285CD17068410223
:100A700059D43068810703D5E068012840F0E88048
:100A80003168206921F0F80141EAC0013160217824
:100A900008076CD56069A749002862D001220A6066
:100AA00000F05AFB0546706F810700F1D38000F01B
:100AB00053FB401B0228F6D9032034E16068B0F5EF
:100AC000803F04D1306840F48030306011E0B0F5F0
:100AD000A02F306806D140F480203060316841F4A6
:100AE000803105E020F480303060316821F48021CD
:100AF0003160606858B100F02FFB05463068810313
:100B0000A7D400F029FB401B6528F7D3D4E700F0F9
:100B100023FB0546306881039BD500F01DFB401B7D
:100B20006528F7D3C8E7E06870B10121396000F0AB
:100B300013FB05463068810700F1B88000F00CFB1C
:100B4000401B0228F6D9B7E7386000F005FB0546E0
:100B5000316888079BD500F0FFFA401B0228F7D9BF
:100B6000AAE7086000F0F8FA0546706F810771D5B2
:100B700000F0F2FA401B0228F7D99DE70528306FF4
:100B800006D140F004003067306F40F0010005E00E
:100B9000400840003067306F20F00400306741F2B9
:100BA0008938A06868B100F0D7FA8146306F8107B4
:100BB00000F1898000F0D0FAA0EB09004045F5D3A0
:100BC0007AE700F0C9FA8146306F81077BD500F0E3
:100BD000C3FAA0EB09004045F6D36DE700F0BCFA7C
:100BE000401B022840F2828066E700F0B5FA001B45
:100BF000022840F293805FE70020386600F0ACFAEC
:100C000004463068810140F18D8000F0A5FA001B98
:100C10000228F6D950E701281AD07068E26900F47A
:100C20008001914202BF00F03F01226A91420FD140
:100C300047F6C071626A0140914202BF00F4403140
:100C4000A26A914202BF00F07060E16A884269D0F6
:100C5000012068E0207841073AD5306C0025C100BA
:100C60000AD400950125316C41F080513164306C1B
:100C700000F0805000900098DFF8BC80D8F80000A9
:100C8000C1051BD4D8F8000040F48070C8F80000FB
:100C900000F062FA8146D8F80000C1050ED400F0D9
:100CA0005BFAA0EB09000228F5D905E73068216955
:100CB00020F0F80040EAC1003060E8E6A0680128B2
:100CC0007FF45CAF60E71DB1306C20F08050306481
:100CD000A06938B3B16801F00C0108299BD0022843
:100CE0008AD10020386600F037FA05463068810165
:100CF0003FF574AFE269206A616A0243A06A400866
:100D000042EA8112401E42EA0042E06A42EA006280
:100D100072600121396600F01FFA044630688101D3
:100D20007FF563AF0020BDE8F28300BF00380240CA
:100D300000004742800E4742007000402DE9F0411C
:100D400004000F4678D0404E306800F00F00B842E3
:100D500002D200F073F86FD120683C4D810712D5A4
:100D6000400703D5A96841F4E051A9602078010744
:100D700003D5A86840F46040A860A968A06821F085
:100D8000F0010143A9602178C8074DD560680128AA
:100D900002D129688A0305E0022818BF032803D17D
:100DA00029688A0103D447E029688A0744D5A968DD
:100DB000890840EA8100A86000F0CEF98046A86862
:100DC000616800F00C00B0EB810F2DD000F0C4F989
:100DD000A0EB080041F289318842F0D3032021E0E2
:100DE0002078410705D5AA68E06822F4E052024362
:100DF000AA602178080706D5A968206921F4604116
:100E000041EAC001A96000F029F8AA681049114B15
:100E1000C2F30312895CC84018600F48006800F0F4
:100E200061F90020BDE8F081306800F00F008742D2
:100E3000D6D200F003F8D3D00120F3E73770316841
:100E400001F00F01B9427047003C024000380240F7
:100E50000C1300080C0000200800002030B5144CD2
:100E6000606800F00C00042802D0082802D01DE0C1
:100E7000104830BD226820680023410202F03F0282
:100E800004D525680B49C5F3881003E020680A499A
:100E9000C0F38810A1FB000100F064F92168C1F3E0
:100EA0000141491C4900B0FBF1F030BD024830BDA2
:100EB0000438024000127A000024F4002DE9F84FB3
:100EC0000D464FF0000879490F22012304462E6891
:100ED00003FA08F000EA0609814540F0CA804FEAAB
:100EE000480C032606FA0CF66FEA060E6E68012E11
:100EF00018BF022E03D0112E18BF122E11D1A668D2
:100F0000EF680EEA060607FA0CF73E43A66066682D
:100F100026EA00006E68C6F3001606FA08F63043AB
:100F20006060E068AE680EEA000006FA0CF6304336
:100F3000E0604FEA88006E68022E18BF122E12D1B0
:100F40004FEAD80604EB860600F01C07D6F820A06E
:100F500002FA07FB2AEA0B0AD5F810B00BFA07F7DA
:100F600047EA0A07376226680EEA06072E7906F076
:100F7000030606FA0CF63E4326606E68F60078D546
:100F8000002600964FEA980C0E68DFF824E146F43C
:100F900080460E6000F00C000E6806F48046009655
:100FA000009E5EF82C7002FA00F627EA0606414F12
:100FB000BC4208BF00272CD03F4FBC4208BF0127CE
:100FC00027D03E4FBC4208BF022722D03C4FBC4234
:100FD00008BF03271DD03B4FBC4208BF042718D0D1
:100FE000394FBC4208BF052713D0384FBC4208BF59
:100FF00006270ED0364FBC4208BF072709D0354F11
:10100000BC4208BF082704D0334FBC420CBF09279D
:101010000A2707FA00F030434EF82C006FEA090C5B
:101020002E4806680CEA060E6E68F70348BF49EAC8
:101030000E0EC0F800E046680CEA060E6E68B703B4
:1010400048BF49EA0E0EC0F804E086680CEA060EB6
:101050006E68F70248BF49EA0E0EC0F808E0C6689D
:101060000CEA060E6E68B60248BF49EA0E0EC0F8DA
:101070000CE008F10108B8F10F0F7FF628AFBDE8CA
:10108000F18F02B909048161704742690A408A42BE
:1010900008BF090481617047114A136803421CBFED
:1010A0001060FFF7ABBB70470000000044380240FF
:1010B00008380140000002400004024000080240DD
:1010C000000C0240001002400014024000180240D0
:1010D000001C02400020024000240240003C01406D
:1010E000143C014038B50D4D0D4B2A7804464FF4A1
:1010F0007A711868B1FBF2F2B0FBF2F0FFF76CFC0A
:1011000050B9102C08D2002221464FF0FF30FFF7D3
:101110003BFCAC60002032BD012032BD000000204D
:101120000C00002000B500BF13009646944610390D
:1011300028BFA0E80C50FAD85FEA417C28BF0CC059
:1011400048BF40F8042BC90728BF20F8022B48BF2E
:1011500000F8012B00BD000001484068704700BF47
:1011600000000020D3BBD9B1B2F5803F5BD2022A88
:101170001ED98C46B1FBF2F102FB11C31B0443EAFA
:101180001043B3FBF2FC02FB1C3380B240EA034382
:10119000B3FBF2F002FB103240EA0C400023704730
:1011A000022A05D98446B0FBF2F002FB10C2704758
:1011B0004AB105D100F0010249085FEA30007047EA
:1011C00000220023704700F051B80B0002000021FC
:1011D00000207047F7D3002200237047904271EB44
:1011E000030CF2D370B5B1FA81F4B3FA83F52C1B7A
:1011F000A340C4F1200532FA05F63343A2405FF064
:101200000046E64002E05B085FEA3202841A71EBB6
:10121000030524BF204629467641F4D302000B0083
:101220003000002170BD70B5B1FA81F4B2FA82F5D8
:10123000C4F120046419B4F12006DAD3B2405FF09F
:101240000044F440002502E052085FEA3303C61A66
:1012500071EB020E24BF3046714664416D41F3D3F9
:1012600002000B002000290070BD00007047000044
:101270007047FEE7FEE7FEE7FEE7704770477047FE
:1012800000F012B80120FFF707BF0420FFF704BFEA
:101290000820FFF701BF1020FFF7FEBE0148FEF750
:1012A000B4BF0000100000200248416802788A188C
:1012B000426070470000002030B501688468421821
:1012C000416802EB5103C9070BD54C4409E012F900
:1012D000011B12F8015B002904F8015B05D5491CCC
:1012E000F9D19A42F3D10C3030BD491EF1D5F8E75F
:1012F0000448054A016841F4700101604FF0006044
:101300001060704788ED00E008ED00E0000000008C
:1013100000000000010203040607080910B5074990
:1013200079441831064C7C44163404E00A68081DE0
:10133000114488470146A142F8D110BD2C0000009D
:10134000380000004EF68851CEF20001086840F4E3
:1013500070000860BFF34F8FBFF36F8F4FF00070C6
:10136000E1EE100A7047000051FFFFFFC4010000CA
:101370001A0000000000002000F00DF8002801D045
:10138000FFF7CCFFAFF300800020AFF30080FFF742
:101390000BF900F002F80120704700F001B80000DE
:1013A0000746384600F002F8FBE7000080B5AFF3CF
:1013B0000080024A11001820ABBEFBE726000200A5
:1013C0000148804701480047F1120008D113000886
:1013D000AFF30080FFF7B6FFFFF7CEFFFFF7FEBFCA
:1013E000FFF7FEBFFFF7FEBFFFF7FEBFFFF7FEBF31
:1013F000FFF7FEBFFFF7FEBFFFF7FEBFFFF7FEBF21
:10140000FFF7FEBFFFF7FEBFFFF7FEBFFFF7FEBF10
:10141000FFF7FEBFFFF7FEBFFFF7FEBFFFF7FEBF00
:10142000FFF7FEBFFFF7FEBFFFF7FEBFFFF7FEBFF0
:10143000FFF7FEBFFFF7FEBFFFF7FEBFFFF7FEBFE0
:10144000FFF7FEBFFFF7FEBFFFF7FEBFFFF7FEBFD0
:10145000FFF7FEBFFFF7FEBFFFF7FEBFFFF7FEBFC0
:10146000FFF7FEBFFFF7FEBFFFF7FEBFFFF7FEBFB0
:10147000FFF7FEBFFFF7FEBFFFF7FEBFFFF7FEBFA0
:10148000FFF7FEBFFFF7FEBFFFF7FEBFFFF7FEBF90
:10149000FFF7FEBFFFF7FEBFFFF7FEBFFFF7FEBF80
:1014A000FFF7FEBFFFF7FEBFFFF7FEBFFFF7FEBF70
:1014B000FFF7FEBFFFF7FEBFFFF7FEBFFFF7FEBF60
:1014C000FFF7FEBFFFF7FEBFFFF7FEBFFFF7FEBF50
:1014D000FFF7FEBFFFF7FEBFFFF7FEBFFFF7FEBF40
:1014E000FFF7FEBFFFF7FEBFFFF7FEBFFFF7FEBF30
:1014F000FFF7FEBFFFF7FEBFFFF7FEBFFFF7FEBF20
:10150000FFF7FEBFFFF7FEBFFFF7FEBFFFF7FEBF0F
:10151000FFF7FEBFFFF7FEBFFFF7FEBFFFF7FEBFFF
:10152000FFF7FEBFFFF7FEBFFFF7FEBFFFF7FEBFEF
:0D1530000001F9000010FC000124F4BF00D0
:04000005080013D10B
:00000001FF
