:020000040800F2
:1000000050040020391300080D1300080F130008D6
:100010001113000813130008151300080000000056
:10002000000000000000000000000000171300089E
:1000300019130008000000001B1300081D1300081E
:100040005D130008611300086513000869130008B8
:100050006D130008711300082113000875130008C0
:10006000791300087D130008811300088513000828
:10007000891300088D1300089113000895130008D8
:10008000991300089D130008A1130008A513000888
:10009000A9130008AD130008B1130008B513000838
:1000A000B9130008BD130008C1130008C5130008E8
:1000B000C9130008CD130008D1130008D513000898
:1000C000D9130008DD130008E1130008E513000848
:1000D000E9130008ED130008F1130008F5130008F8
:1000E000F9130008FD1300080114000805140008A6
:1000F000091400080D140008111400081514000854
:10010000191400081D140008211400082514000803
:10011000291400082D1400083114000835140008B3
:10012000391400083D140008411400084514000863
:10013000491400084D140008511400085514000813
:10014000591400085D1400086114000865140008C3
:10015000691400086D140008711400087514000873
:10016000791400087D140008811400088514000823
:10017000891400088D140008911400080000000084
:1001800095140008991400089D140008A114000893
:10019000A5140008A9140008AD140008B114000843
:1001A000B5140008B9140008BD1400082DE9F8437F
:1001B000040016D02078DFF80063C10713D5B068BB
:1001C00000F00C00042807D0B06800F00C000828EC
:1001D0003ED1706841023BD53168880303D5606821
:1001E000002800F0FB802178B44F880719D5B0684B
:1001F00010F00C0F07D0B06800F00C00082858D1A0
:100200007068410255D43168880703D5E068012839
:1002100040F0E4803168206921F0F80141EAC00132
:1002200031602178080768D56069A54900285ED04B
:1002300001220A6000F048F90546706F810700F15D
:10024000CF8000F041F9401B0228F6D9032030E1AD
:100250006068B0F5803F06D0B0F5A02F316807D1B7
:1002600041F480213160306840F48030306006E035
:1002700021F480313160326822F48022326060687B
:1002800058B100F021F9054631688803ABD400F07D
:100290001BF9401B6528F7D3D8E700F015F9054690
:1002A000306881039FD500F00FF9401B6528F7D314
:1002B000CCE7E06870B10121396000F005F905462E
:1002C0003068810700F1B88000F0FEF8401B02287A
:1002D000F6D9BBE7386000F0F7F8054630688107CB
:1002E0009FD500F0F1F8401B0228F7D9AEE708606F
:1002F00000F0EAF80546706F810771D500F0E4F868
:10030000401B0228F7D9A1E70528306F06D140F03D
:1003100004003067306F40F0010005E04008400005
:100320003067306F20F00400306741F28938A068F0
:1003300068B100F0C9F88146306F810700F189800B
:1003400000F0C2F8A0EB09004045F5D37EE700F0CD
:10035000BBF88146306F81077BD500F0B5F8A0EB84
:1003600009004045F6D371E700F0AEF8401B0228C3
:1003700040F282806AE700F0A7F8001B022840F2F2
:10038000938063E70020386600F09EF804463068EA
:10039000810140F18D8000F097F8001B0228F6D90A
:1003A00054E701281AD07068E26900F48001914294
:1003B00002BF00F03F01226A91420FD147F6C0719F
:1003C000626A0140914202BF00F44031A26A914248
:1003D00002BF00F07060E16A884269D0012068E0E5
:1003E000207841073AD5306C0025C1000AD4009529
:1003F0000125306C40F080503064306C00F080504B
:1004000000900098DFF8BC80D8F80010C8051BD415
:10041000D8F8000040F48070C8F8000000F054F8EC
:100420008146D8F80010C8050ED400F04DF8A0EBB6
:1004300009000228F5D909E73068216920F0F800A1
:1004400040EAC1003060ECE6A06801287FF45CAFB0
:1004500060E71DB1306C20F080503064A06938B383
:10046000B16801F00C0108299BD002288AD1002034
:10047000386600F029F80546306881013FF574AF11
:10048000E169206AA26A0143606A520841EA801168
:10049000521EE06A41EA024141EA006171600121B5
:1004A000396600F011F80446306881017FF563AFCA
:1004B0000020BDE8F28300BF003802400000474240
:1004C000800E47420070004001484068704700BFFE
:1004D0000000002038B5040001D1012032BD00F039
:1004E00022F808B900F023F800F013F800F024F81F
:1004F000FFE7416100F001F832BD2068C16841F4B6
:100500000051C1600020686020206870A870002041
:100510007047242068702068C16821F40051C160D0
:10052000204600F09FB804F1380568787047002134
:100530002970204600F022B92068016921F4904119
:1005400001612068416921F02A0170472DE9F843D3
:10055000054605F138070C46787820281646984657
:100560003DD1002C14BF002E012039D0387801284D
:1005700035D0012139702120002179607870FFF792
:10058000A3FF8146AE84EE840020387003E0296822
:1005900014F8010B4860E88C20B3E98C481EE8840D
:1005A0004B46A868CDF80080B0F5805F0DD100F013
:1005B00023F870B920882968C0F3080048602869CA
:1005C000002814BF641CA41CE5E700F015F80028FF
:1005D000DDD0032004E020207870002000E002201D
:1005E000BDE8F283CDF800804B460022402100F0A8
:1005F00005F80028EFD0ECE7002280212846FFE72D
:100600002DE9F041069C05460E4690461F46286897
:1006100001683140B1420CBF01200020404517D194
:1006200014F1010FF3D024B1FFF74EFFC01B844239
:10063000EDD22868C16821F4D07100F00CF805F102
:10064000380020214170817000210170032000E0FA
:100650000020BDE8F081C16028684169490849006F
:1006600041617047D0B50646642731680A69F06871
:1006700022F4405202430A611924CA682C480240FD
:10068000B06802433069024370690243F069024373
:10069000CA604A69B06922F4407202434A61F36950
:1006A0002448254AB3F5004F1FD1914218BF81421B
:1006B00002D100F047F901E000F03CF90246A4FB4A
:1006C00002017268D30F520000F080F900F036F892
:1006D000FF0032376420B7FBF0F0420002F4F872FA
:1006E00002EB011200F007001DE0914218BF8142A9
:1006F00002D100F027F901E000F01CF90246A4FB4A
:1007000002017268930F920000F060F900F016F891
:100710003F0132376420B7FBF0F000F0F00202EB4B
:10072000011200F00F00316880188860D0BD000011
:10073000F369FFFF00140140001001406421B0FB89
:10074000F1F107FB1107704781B0002000900022F3
:100750003048416841F480414160416801F4804182
:10076000009100990092036843F080530360006891
:1007700000F080500090009801B0704710B586B02E
:10078000044601A8142100F039FA2168224A914256
:1007900037D10020009000222048016941F48011E7
:1007A0000161016901F480110091009900920368D0
:1007B00043F004030360016801F004010091009913
:1007C00000924FF48051036843F008030360022253
:1007D000006800F00800009000980191012000F0EE
:1007E00012F8029201A90E4800F00CFA04200190C0
:1007F00002210120029100F006F801A9094800F049
:1008000001FA06B010BD0390032108200491059061
:10081000704700004038024000500040303802402D
:1008200000080240000C02402DE9F84304000F4686
:1008300078D0494E306800F00F00B84202D200F084
:1008400073F86FD12068454D810712D5400703D555
:10085000A86840F4E050A8602178080703D5A8688C
:1008600040F46040A860A968A06821F0F00101434D
:10087000A9602078C1074DD56068012802D1296898
:100880008A0305E0022818BF032803D129688A01DA
:1008900003D447E02A68910744D5A968890840EA4B
:1008A0008100A86041F28939FFF70EFE8046A868F2
:1008B000616800F00C00B0EB810F2BD0FFF704FE55
:1008C000A0EB08004845F2D3032021E0207841073F
:1008D00005D5A968E06821F4E0510143A9602078BA
:1008E000010706D5A868216920F4604040EAC100EC
:1008F000A86000F03FF8AA681949C2F30312895CA6
:10090000184AC84010601848006800F08DFA0020AE
:10091000BDE8F283306800F00F008742D6D200F0C5
:1009200003F8D3D00120F3E73770316801F00F01ED
:10093000B94270470B480D4A006813680C49C3F36D
:10094000822206E00748094A006813680849C3F391
:100950004232895CC8407047003C02400038024087
:10096000581200080C00002008000020083802403F
:100970005413000818B5124C606800F00C000428ED
:1009800002D0082802D019E00E4812BD00232268C8
:10099000206841022068C0F388104CBF09490A4909
:1009A00002F03F02A1FB000100F010F82168C1F342
:1009B0000141491C4900B0FBF1F012BD024812BDD3
:1009C0000438024000127A000024F400B3BBD9B10D
:1009D000B2F5803F7DD2022A1ED98C46B1FBF2F1DE
:1009E00002FB11C31B0443EA1043B3FBF2FC02FBFE
:1009F0001C3380B240EA0343B3FBF2F002FB103237
:100A000040EA0C4000237047022A05D98446B0FB17
:100A1000F2F002FB10C270474AB105D100F00102AA
:100A200049085FEA3000704700220023704700F059
:100A30001BBA0B000200002100207047904271EBAE
:100A4000030CF6D3B3F5803F2FD2F0B5B3FA83F79A
:100A5000B1FA81F4A7F10F0E3D1B5340CEF12006F1
:100A600002FA0EF2F3415340B5F10F0746D80F3C9E
:100A70002C444140C4F12006A040F1414140B1FB6B
:100A8000F3F603FB1611A2FB0645001BA94102D297
:100A9000761E8018594180EA010221FA0EF362FAAB
:100AA0000EF200215A403046F0BD30B4B1FBF3FCE9
:100AB00003FB1C11A2FB0C45001BA94103D2ACF1A6
:100AC000010C8018594130BC02460B46604600219B
:100AD0007047B2F1807F65D3F0B5B2FA82F7B1FA10
:100AE00081F4C7F10F063D1B22FA06F307F1110E40
:100AF000F24120355A40B5F10F07B8D94140C4F151
:100B00002006A040F1414140B1FBF3FC03FB1C1166
:100B1000A2FB0C45001BA94103D2BCF1010C8018BB
:100B200059410F2F12D30F3FC90341EA5041B1FB86
:100B3000F3F603FB1611A2FB0645D4EBC030A94126
:100B400002D2761E8018594146EACC3C07B3414098
:100B5000C7F12006B840F1414140B1FBF3F603FB79
:100B60001611A2FB0645001BA94102D2761E801871
:100B7000594180EA010221FA0EF3C7F1200462FA1A
:100B80000EF20CFA07F05A402CFA04F13043F0BD93
:100B900080EA010221FA0EF3002162FA0EF26046A9
:100BA0005A40F0BD8C46B1FBF2F102FB11C31B02AF
:100BB00043EA1063B3FBF2FC02FB1C331B024CEA5A
:100BC000002043EA1063B3FBF2FC02FB1C331B0260
:100BD0004CEA002043EA1063B3FBF2FC02FB1C3337
:100BE0001B024CEA002043EA1063B3FBF2FC02FB59
:100BF0001C324CEA0020002370470000002200F065
:100C000035B900002DE9F84F0D464FF0000877493F
:100C1000774A0F23044601202E6800FA08F000EA04
:100C20000609814540F0C9804FEA480C032606FAC0
:100C30000CF66FEA060E6E68012E18BF022E03D066
:100C4000112E18BF122E11D1A668EF680EEA060603
:100C500007FA0CF73E43A660666826EA00006E6855
:100C6000C6F3001606FA08F630436060E068AE6826
:100C70000EEA000006FA0CF63043E0604FEA880006
:100C80006E68022E18BF122E12D14FEAD80604EB5E
:100C9000860600F01C07D6F820A003FA07FB2AEA14
:100CA0000B0AD5F810B00BFA07F747EA0A073762C4
:100CB00026680EEA06072E7906F0030606FA0CF6F9
:100CC0003E4326606E68F60077D5002600964FEA10
:100CD000980C1668DFF81CE146F48046166000F0B8
:100CE0000C00166806F480460096009E5EF82C7094
:100CF00003FA00F627EA06063F4FBC4208BF00276A
:100D00002CD03E4FBC4208BF012727D03C4FBC42ED
:100D100008BF022722D03B4FBC4208BF03271DD08B
:100D2000394FBC4208BF042718D0384FBC4208BF17
:100D3000052713D0364FBC4208BF06270ED0354FCB
:100D4000BC4208BF072709D0334FBC4208BF082761
:100D500004D0324FBC420CBF09270A2707FA00F023
:100D600030434EF82C006FEA09000E6800EA060CCA
:100D70006E68F60348BF49EA0C0CC1F800C04E6823
:100D800000EA060C6E68B60348BF49EA0C0CC1F8CD
:100D900004C08E6800EA060C6E68F60248BF49EA95
:100DA0000C0CC1F808C0CE6800EA060C6868800226
:100DB00048BF49EA0C0CC1F80CC008F10108B8F1B1
:100DC0000F0F7FF628AFBDE8F18F81B002B909049B
:100DD000FFE7816101B07047114A136803421CBFED
:100DE000106000F01FB8704700000000003C014098
:100DF000443802400838014000000240000402402C
:100E000000080240000C02400010024000140240A2
:100E100000180240001C0240002002400024024052
:100E2000143C01407047000038B50D4D0D4A29783B
:100E300004464FF47A70B0FBF1F11068B0FBF1F0AA
:100E400000F072F850B9102C08D2002221464FF061
:100E5000FF3000F041F8AC60002032BD012032BD0F
:100E6000000000200C0000207047000000B500BF0B
:100E7000130096469446103928BFA0E80C50FAD8C3
:100E80005FEA417C28BF0CC048BF40F8042BC9076B
:100E900028BF20F8022B48BF00F8012B00BD00003E
:100EA0000901020081B002D42948815405E0294893
:100EB00002F00F02104400F8041C01B07047264AEB
:100EC00013684FF6FF0100020B4000F4E060184386
:100ED000224908431060704738B51F4B1C68C4F3A3
:100EE0000223C3F10704052C28BF04241D1D072D70
:100EF00034BF0023DB1E012505FA04F4641E2140E3
:100F0000994005FA03F35B1E1A401143BDE83440D3
:100F1000C6E7010007D4012200F01F01104B8A40F0
:100F2000400943F82020704710B5401EB0F1807F83
:100F300001D3012010BD0B4C60600F214FF0FF303A
:100F4000FFF7AEFF0022A26007202060002010BD46
:100F500000E400E018ED00E00CED00E00000FA0510
:100F600000E100E010E000E070B500F01DF900F0D5
:100F700021F800F069F87B4C7B48206078A54FF49D
:100F8000E13060604FF6FF760020A060E0602061F5
:100F90000C2060610020A061E0612046FFF79AFA12
:100FA0003346012229462046FFF7D0FA632000F09D
:100FB00015F9F5E780B592B006A83021FFF71EFEBF
:100FC00001A81421FFF71AFE00200090674801686D
:100FD00041F0805101600021006800F080500090D5
:100FE0000098634800910121026842F44042026087
:100FF0004FF4A022006800F4404000900098069151
:1010000002200C904FF480010D9108200E904FF4B7
:10101000A8710F910220109004210792119106A847
:10102000FFF7C4F80F2001900221002002910390E5
:101030004FF4A0514FF4805004910590052101A870
:10104000FFF7F2FB13B000BD38B586B06846142137
:10105000FFF7D4FD00244748474D05940168474CED
:1010600041F010010160026802F0100205920022B6
:1010700005990592036843F080030360016801F05D
:10108000800100F08BF843F001030360016801F078
:10109000010100F083F843F002030360016801F0EE
:1010A000020100F07BF843F004030360016801F0E3
:1010B000040100F073F843F008030360016801F0D5
:1010C0000801059105990592B021036843F040039A
:1010D0000360006800F04000059005982046FFF787
:1010E00074FE00224FF4C0412846FFF76EFE1C201C
:1010F00000F04EF82248FFF785FD01200090002007
:1011000020490191029069461F48FFF77BFD0420AA
:1011100000F03EF81D48FFF775FDB020012100905A
:101120000191002003210290039120466946FFF7B8
:1011300069FD4FF4C0400090012100200191029010
:10114000039069462846FFF75DFD00220021062036
:10115000FFF7C2FE0620FFF7DCFE07B030BD00003F
:1011600055000000100000200050004040380240B0
:10117000007000403038024000180240000C02406D
:101180000010024000001110000002400004024064
:1011900000210090019102916946704705910599DF
:1011A000059203687047000080B50B48016841F460
:1011B00000710160026842F480620260016841F4DB
:1011C000807101600320FFF77AFE0020FFF72CFEFC
:1011D000FFF7BAFA002002BD003C024038B50446D1
:1011E000FFF772F914F1010F054602D004480178A7
:1011F0006418FFF769F9401BA042FAD331BD00BF64
:101200000000002030B5016884684218416802EB94
:101210005103C9070BD54C4409E012F9011B12F820
:10122000015B002904F8015B05D5491CF9D19A42FC
:10123000F3D10C3030BD491EF1D5F8E70448054A1A
:10124000016841F4700101604FF000601060704768
:1012500088ED00E008ED00E0000000000000000064
:10126000010203040607080910B50749794418313B
:10127000064C7C44163404E00A68081D1144884773
:101280000146A142F8D110BD2C000000380000003A
:101290004EF68851CEF20001086840F470000860F4
:1012A000BFF34F8FBFF36F8F4FF00070E1EE100A66
:1012B0007047000051FFFFFF080200001A00000005
:1012C0000000002000F00DF8002801D0FFF7CCFF4F
:1012D000AFF300800020AFF30080FFF745FE00F081
:1012E00002F80120704700F001B8000007463846B8
:1012F00000F002F8FBE7000080B5AFF30080024A7F
:1013000011001820ABBEFBE7260002007047FEE785
:10131000FEE7FEE7FEE770477047704700F004B84D
:101320000120FFF759BD0000024841680278891882
:101330004160704700000020014880470148004795
:101340003D12000849130008AFF30080FFF7A0FF2B
:10135000FFF7B8FF0000000001020304FFF7FEBF23
:10136000FFF7FEBFFFF7FEBFFFF7FEBFFFF7FEBFB1
:10137000FFF7FEBFFFF7FEBFFFF7FEBFFFF7FEBFA1
:10138000FFF7FEBFFFF7FEBFFFF7FEBFFFF7FEBF91
:10139000FFF7FEBFFFF7FEBFFFF7FEBFFFF7FEBF81
:1013A000FFF7FEBFFFF7FEBFFFF7FEBFFFF7FEBF71
:1013B000FFF7FEBFFFF7FEBFFFF7FEBFFFF7FEBF61
:1013C000FFF7FEBFFFF7FEBFFFF7FEBFFFF7FEBF51
:1013D000FFF7FEBFFFF7FEBFFFF7FEBFFFF7FEBF41
:1013E000FFF7FEBFFFF7FEBFFFF7FEBFFFF7FEBF31
:1013F000FFF7FEBFFFF7FEBFFFF7FEBFFFF7FEBF21
:10140000FFF7FEBFFFF7FEBFFFF7FEBFFFF7FEBF10
:10141000FFF7FEBFFFF7FEBFFFF7FEBFFFF7FEBF00
:10142000FFF7FEBFFFF7FEBFFFF7FEBFFFF7FEBFF0
:10143000FFF7FEBFFFF7FEBFFFF7FEBFFFF7FEBFE0
:10144000FFF7FEBFFFF7FEBFFFF7FEBFFFF7FEBFD0
:10145000FFF7FEBFFFF7FEBFFFF7FEBFFFF7FEBFC0
:10146000FFF7FEBFFFF7FEBFFFF7FEBFFFF7FEBFB0
:10147000FFF7FEBFFFF7FEBFFFF7FEBFFFF7FEBFA0
:10148000FFF7FEBFFFF7FEBFFFF7FEBFFFF7FEBF90
:10149000FFF7FEBFFFF7FEBFFFF7FEBFFFF7FEBF80
:1014A000FFF7FEBFFFF7FEBFFFF7FEBFFFF7FEBF70
:1014B000FFF7FEBFFFF7FEBFFFF7FEBFFFF7FEBF60
:0D14C0000001F9000010FC000124F4BF0041
:040000050800134993
:00000001FF
