:020000040800F2
:100000005004002045140008CD130008CF13000849
:10001000D1130008D3130008D51300080000000016
:10002000000000000000000000000000D7130008DE
:10003000D913000800000000DB130008DD130008DE
:10004000691400086D140008711400087514000884
:10005000791400087D140008811400088514000834
:10006000891400088D1400089114000895140008E4
:10007000991400089D140008A1140008A514000894
:10008000A9140008AD140008B1140008B514000844
:10009000B9140008BD140008C1140008C5140008F4
:1000A000C9140008CD140008D1140008D5140008A4
:1000B000D9140008DD140008E1140008E514000854
:1000C000E9140008ED140008F1140008F514000804
:1000D000F9140008FD1400080115000805150008B2
:1000E000091500080D150008111500081515000860
:1000F000191500081D150008211500082515000810
:10010000291500082D1500083115000835150008BF
:1001100039150008E11300083D15000841150008D5
:1001200045150008491500084D150008511500082F
:1001300055150008591500085D15000861150008DF
:1001400065150008691500086D150008711500088F
:1001500075150008791500087D150008811500083F
:1001600085150008891500088D15000891150008EF
:1001700095150008991500089D150008000000005D
:10018000A1150008A5150008A9150008AD1500085F
:10019000B1150008B5150008B9150008BD1500080F
:1001A000C1150008C5150008C915000838B50400B8
:1001B00001D1012032BD00F021F808B900F022F889
:1001C00000F012F800F023F8FFE7416100F001F8B9
:1001D00032BD2068C16841F40051C16000206860F0
:1001E00020216970A9707047242068702068C16858
:1001F00021F40051C160204600F0ABB904F138058C
:100200006878704700212970204600F02FBA2068D6
:10021000016921F4904101612068416921F02A01BE
:1002200070472DE9F843054605F138070C46787804
:100230002028164698463DD1002C14BF002E0120E0
:1002400039D03878012835D0012139700020786004
:1002500021227A7000F068FA8146AE84EE84002094
:10026000387003E02A6814F8011B5160E88C20B351
:10027000E88C411EE9844B46A868CDF80080B0F5B3
:10028000805F0DD100F023F870B920882968C0F391
:10029000080048602869002814BF641CA41CE5E716
:1002A00000F015F80028DDD0032004E0202078704D
:1002B000002000E00220BDE8F283CDF800804B462C
:1002C0000022402100F005F80028EFD0ECE70022E2
:1002D00080212846AEE0416921F040014161606B18
:1002E000704738B5044625682968EA686B6911F0DB
:1002F0000F0007D188065FD593065DD52046BDE87F
:100300003240DDE0D80702D412F4907F54D0C80701
:1003100005D5D50503D5E06B40F00100E063480743
:1003200005D5DD0703D5E06B40F00200E0638807E8
:1003300005D5DD0703D5E06B40F00400E063080756
:1003400007D5950601D4D80703D5E36B43F008031E
:10035000E363E06B00286CD0880604D5910644BFA7
:10036000204600F0ADF820684069E16B0A0701D42F
:1003700040061BD5204600F08FF8206841694A06E8
:100380000FD5FFF7A8FF60B10FF229110165606B6F
:1003900000F0D0F900284CD0606B016DBDE834400E
:1003A00008472046BDE8324000F0D6B9204600F0AC
:1003B000D3F90020E06331BD08062AD5130628D5FD
:1003C00094F83900212834D1A068B0F5805F206A04
:1003D0000BD10188C1F30801696020690028206AF7
:1003E0000CBF811C411C216203E0411C216200788A
:1003F0006860E08C401EE08480B2D0B92068C1689B
:1004000021F08001C1602068C16841F04001C160F5
:1004100031BD48060DD551060BD5E86820F04000E7
:10042000E860202184F839102046BDE8324000F011
:1004300094B931BD2DE9F041069C05460E46904623
:100440001F46286801683140B1420CBF01200020DE
:10045000404517D114F1010FF3D024B100F064F935
:10046000C01B8442EDD22868C16821F4D07100F02D
:100470000CF805F1380020214170817000210170D5
:10048000032000E00020BDE8F081C16028684169D8
:1004900049084900416170470168CA6822F49072B6
:1004A000CA6001684A69520852004A61202180F8F6
:1004B0003A107047806B0021C185C18400F04CB9AF
:1004C00080B590F83A10222941D18168B1F5805F5A
:1004D00012D101690368826A0029596805D1C1F304
:1004E00008011180826A911C04E001F0FF01118073
:1004F000826A511C81620FE001690029816A04D17E
:100500004A1C826203685A6805E04A1C82620368DA
:100510005A6802F07F020A70C18D491EC18589B2F6
:1005200099B90168CA6822F02002CA600168CA68E5
:1005300022F48072CA6001684A69520852004A6116
:10054000202180F83A1000F009F9002002BD0220B5
:1005500002BDD0B50646642732681169F06821F4FF
:100560004051014311611924D3682D48B1680340FB
:1005700030690B4371690343F0690B430343D36054
:100580005169B06921F4407101435161F369254813
:100590002549B3F5004F1FD18A4218BF824202D1CC
:1005A00000F06CF901E000F061F90246A4FB0201E1
:1005B0007268D30F520000F0A9F900F037F8FF007D
:1005C00032376420B7FBF0F0420002F4F87202EB1D
:1005D000011200F007001DE08A4218BF824202D1DA
:1005E00000F04CF901E000F041F90246A4FB0201E1
:1005F0007268930F920000F089F900F017F83F013C
:1006000032376420B7FBF0F000F0F00202EB011289
:1006100000F00F00316880188860D0BD0000000035
:10062000F369FFFF00140140001001406421B0FB9A
:10063000F1F107FB1107704781B000200090002204
:100640003448416841F480414160416801F480418F
:10065000009100990092036843F0805303600068A2
:1006600000F080500090009801B0704738B586B017
:10067000044601A8142100F0CDF92468264DAC42AF
:1006800045D10020009000222448016941F48011E6
:100690000161016901F480110091009900920368E1
:1006A00043F004030360016801F004010091009924
:1006B00000924FF48051036843F008030360022264
:1006C000006800F00800009000981548019102921F
:1006D00001210391032208210591049201A900F050
:1006E0009DF902210291012203920420032101902D
:1006F00004910822059201A90A4800F08FF900220E
:100700000021352000F0ACFA352000F0C6FA07B021
:1007100030BD0000403802400050004030380240F8
:1007200000080240000C024001484068704700BFCA
:100730000000002090F83510022903D08022426585
:1007400001207047052180F83510006802685208C2
:1007500052000260002070477047704770470000E9
:100760002DE9F04104000F4678D0494E306800F082
:100770000F00B84202D200F073F86FD12068454DE7
:10078000810712D5400703D5A96841F4E051A9605B
:100790002078010703D5A86840F46040A860A968E4
:1007A000A06821F0F0010143A9602178C8074DD568
:1007B0006068012802D129688A0305E0022818BF71
:1007C000032803D129688A0103D447E029688A07EE
:1007D00044D5A968890840EA8100A860FFF7A4FF12
:1007E0008046A868616800F00C00B0EB810F2DD046
:1007F000FFF79AFFA0EB080041F289318842F0D35D
:10080000032021E02078410705D5AA68E06822F49A
:10081000E0520243AA602178080706D5A96820693A
:1008200021F4604141EAC001A96000F03FF8AA68E4
:1008300019491A4BC2F30312895CC8401860184862
:10084000006800F055FA0020BDE8F081306800F043
:100850000F008742D6D200F003F8D3D00120F3E78F
:100860003770316801F00F01B94270470B480D4AEB
:10087000006813680C49C3F3822206E00748094A5E
:10088000006813680849C3F34232895CC840704766
:10089000003C024000380240601300080C000020B9
:1008A00008000020083802406014000830B5144CDD
:1008B000606800F00C00042802D0082802D01DE077
:1008C000104830BD226820680023410202F03F0238
:1008D00004D525680B49C5F3881003E020680A4950
:1008E000C0F38810A1FB000100F010F82168C1F3EB
:1008F0000141491C4900B0FBF1F030BD024830BD58
:100900000438024000127A000024F400D3BBD9B1AD
:10091000B2F5803F5BD2022A1ED98C46B1FBF2F1C0
:1009200002FB11C31B0443EA1043B3FBF2FC02FBBE
:100930001C3380B240EA0343B3FBF2F002FB1032F7
:1009400040EA0C4000237047022A05D98446B0FBD8
:10095000F2F002FB10C270474AB105D100F001026B
:1009600049085FEA3000704700220023704700F01A
:10097000DFB90B000200002100207047F7D30022EE
:1009800000237047904271EB030CF2D370B5B1FABB
:1009900081F4B3FA83F52C1BA340C4F1200532FA8D
:1009A00005F63343A2405FF00046E64002E05B08F4
:1009B0005FEA3202841A71EB030524BF2046294600
:1009C0007641F4D302000B003000002170BD70B5F9
:1009D000B1FA81F4B2FA82F5C4F120046419B4F1D9
:1009E0002006DAD3B2405FF00044F440002502E074
:1009F00052085FEA3303C61A71EB020E24BF304679
:100A0000714664416D41F3D302000B0020002900C0
:100A100070BD0000002200F08DB900002DE9F84FF4
:100A20000D464FF0000874490F22012304462E683A
:100A300003FA08F000EA0609814540F0CA804FEA4F
:100A4000480C032606FA0CF66FEA060E6E68012EB5
:100A500018BF022E03D0112E18BF122E11D1A66876
:100A6000EF680EEA060607FA0CF73E43A6606668D2
:100A700026EA00006E68C6F3001606FA08F6304350
:100A80006060E068AE680EEA000006FA0CF63043DB
:100A9000E0604FEA88006E68022E18BF122E12D155
:100AA0004FEAD80604EB860600F01C07D6F820A013
:100AB00002FA07FB2AEA0B0AD5F810B00BFA07F77F
:100AC00047EA0A07376226680EEA06072E7906F01B
:100AD000030606FA0CF63E4326606E68F60078D5EB
:100AE000002600964FEA980C0E68DFF810E146F4F5
:100AF00080460E6000F00C000E6806F480460096FA
:100B0000009E5EF82C7002FA00F627EA06063C4FBB
:100B1000BC4208BF00272CD03A4FBC4208BF012777
:100B200027D0394FBC4208BF022722D0374FBC42E2
:100B300008BF03271DD0364FBC4208BF042718D07A
:100B4000344FBC4208BF052713D0334FBC4208BF07
:100B500006270ED0314FBC4208BF072709D0304FBF
:100B6000BC4208BF082704D02E4FBC420CBF092747
:100B70000A2707FA00F030434EF82C006FEA090C00
:100B8000294806680CEA060E6E68F70348BF49EA72
:100B90000E0EC0F800E046680CEA060E6E68B70359
:100BA00048BF49EA0E0EC0F804E086680CEA060E5B
:100BB0006E68F70248BF49EA0E0EC0F808E0C66842
:100BC0000CEA060E6E68B60248BF49EA0E0EC0F87F
:100BD0000CE008F10108B8F10F0F7FF628AFBDE86F
:100BE000F18F02B909048161704742690A408A4263
:100BF00008BF090481617047443802400838014049
:100C0000000002400004024000080240000C0240C4
:100C1000001002400014024000180240001C024074
:100C20000020024000240240003C01400901020073
:100C300002D4294881547047284B02F00F021A440D
:100C400002F8041C7047264B19684FF6FF02000299
:100C5000114000F4E06008432249084318607047DF
:100C600038B51F4B1C68C4F30223C3F10704052CDD
:100C700028BF04241D1D072D34BF0023DB1E0125C2
:100C800005FA04F4641E2140994005FA03F35B1E43
:100C90001A401143BDE83440C8E7010007D40122DF
:100CA00000F01F01104B8A40400943F82020704794
:100CB00010B5401EB0F1807F01D3012010BD0B4C58
:100CC00060600F214FF0FF30FFF7B0FF0021A160FF
:100CD00007202060002010BD00E400E018ED00E0D7
:100CE0000CED00E00000FA0500E100E010E000E09B
:100CF00038B50D4D0D4B2A7804464FF47A711868BB
:100D0000B1FBF2F2B0FBF2F0FFF7D2FF50B9102CBA
:100D100008D2002221464FF0FF30FFF7A1FFAC6060
:100D2000002032BD012032BD000000200C00002058
:100D30007047000000B500BF130096469446103976
:100D400028BFA0E80C50FAD85FEA417C28BF0CC04D
:100D500048BF40F8042BC90728BF20F8022B48BF22
:100D600000F8012B00BD00002DE9F843040016D067
:100D70002078DFF80863C10713D5B06800F00C00D5
:100D8000042807D0B06800F00C0008283ED1706835
:100D900041023BD53068810303D56068002800F02C
:100DA000FF802078B64F810719D5B06810F00C0F7E
:100DB00007D0B06800F00C0008285CD170684102D0
:100DC00059D43068810703D5E068012840F0E880F5
:100DD0003168206921F0F80141EAC00131602178D1
:100DE00008076CD56069A749002862D001220A6013
:100DF000FFF79AFC0546706F810700F1D380FFF77B
:100E000093FC401B0228F6D9032034E16068B0F55A
:100E1000803F04D1306840F48030306011E0B0F59C
:100E2000A02F306806D140F480203060316841F452
:100E3000803105E020F480303060316821F4802179
:100E40003160606858B1FFF76FFC05463068810378
:100E5000A7D4FFF769FC401B6528F7D3D4E7FFF759
:100E600063FC0546306881039BD5FFF75DFC401BA2
:100E70006528F7D3C8E7E06870B101213960FFF752
:100E800053FC05463068810700F1B880FFF74CFC41
:100E9000401B0228F6D9B7E73860FFF745FC054646
:100EA000316888079BD5FFF73FFC401B0228F7D924
:100EB000AAE70860FFF738FC0546706F810771D517
:100EC000FFF732FC401B0228F7D99DE70528306F59
:100ED00006D140F004003067306F40F0010005E0BB
:100EE000400840003067306F20F00400306741F266
:100EF0008938A06868B1FFF717FC8146306F810719
:100F000000F18980FFF710FCA0EB09004045F5D304
:100F10007AE7FFF709FC8146306F81077BD5FFF741
:100F200003FCA0EB09004045F6D36DE7FFF7FCFB9F
:100F3000401B022840F2828066E7FFF7F5FB001BAA
:100F4000022840F293805FE700203866FFF7ECFB51
:100F500004463068810140F18D80FFF7E5FB001BFE
:100F60000228F6D950E701281AD07068E26900F427
:100F70008001914202BF00F03F01226A91420FD1ED
:100F800047F6C071626A0140914202BF00F44031ED
:100F9000A26A914202BF00F07060E16A884269D0A3
:100FA000012068E0207841073AD5306C0025C10067
:100FB0000AD400950125316C41F080513164306CC8
:100FC00000F0805000900098DFF8BC80D8F8000056
:100FD000C1051BD4D8F8000040F48070C8F80000A8
:100FE000FFF7A2FB8146D8F80000C1050ED4FFF739
:100FF0009BFBA0EB09000228F5D905E730682169C1
:1010000020F0F80040EAC1003060E8E6A06801285E
:101010007FF45CAF60E71DB1306C20F0805030642D
:10102000A06938B3B16801F00C0108299BD00228EF
:101030008AD100203866FFF777FB054630688101CA
:101040003FF574AFE269206A616A0243A06A400812
:1010500042EA8112401E42EA0042E06A42EA00622D
:10106000726001213966FFF75FFB04463068810139
:101070007FF563AF0020BDE8F28300BF0038024077
:1010800000004742800E47420070004038B500F033
:101090000FF900F025F800F06DF8714C71482060F0
:1010A0004FF4E1310C20002260616160A260E260D7
:1010B0002261A261E2612046FFF778F867A54FF64A
:1010C000FF73012229462046FFF7ABF84FF4005189
:1010D0006548FFF78AFD40F2E73000F003F9EEE7DC
:1010E00080B592B006A83021FFF794FC01A8142126
:1010F000FFF790FC002000904FF480335B480168BC
:1011000041F0805101600021006800F080500090A3
:10111000009857480091026842F440420260012260
:10112000006800F44040009006A800990692022151
:101130004FF480020C910D9208214FF4A8720E9189
:101140000F9202210422079310911192FFF70CFED7
:1011500002210291002203920F204FF4A05101902E
:1011600004914FF480520592052101A8FFF7F8FA87
:1011700013B000BD38B586B068461421FFF74AFCAD
:1011800000243C48384D059401683B4C41F0100167
:101190000160026802F01002059200220599059292
:1011A000036843F080030360016801F0800100F0F0
:1011B0006BF843F001030360016801F0010100F0E6
:1011C00063F843F002030360016801F0020100F0DC
:1011D0005BF843F004030360016801F0040100F0D0
:1011E00053F843F008030360016801F0080105911A
:1011F00005990592B021036843F04003036000683D
:1012000000F04000059005982046FFF7EAFC002218
:101210004FF4C0412846FFF7E4FC1C2000F042F8E0
:101220001648FFF7FBFB012000F03CF81448FFF7DD
:10123000F5FB042000F036F81248FFF7EFFBB02171
:1012400000F027F82046FFF7E9FB4FF4C04100F01B
:1012500020F82846FFF7E2FB07B030BD550000003C
:1012600010000020005000400018024040380240AA
:101270000070004030380240000C02400010024074
:1012800000000240000402400591059905920368A0
:1012900070470091012201920021029103220392E2
:1012A000694670470021009001910291694670479C
:1012B00080B50B48016841F400710160026842F496
:1012C00080620260016841F4807101600320FFF7D1
:1012D000BAFC0020FFF70CFDFFF7AEF9002002BDBD
:1012E000003C024038B50446FFF71EFA14F1010F26
:1012F000054602D0044801786418FFF715FA401B30
:10130000A042FAD331BD00BF0000002030B5016813
:1013100084684218416802EB5103C9070BD54C445D
:1013200009E012F9011B12F8015B002904F8015BC6
:1013300005D5491CF9D19A42F3D10C3030BD491E74
:10134000F1D5F8E70448054A016841F470010160ED
:101350004FF000601060704788ED00E008ED00E09D
:101360000000000000000000010203040607080955
:1013700010B5074979441831064C7C44163404E012
:101380000A68081D114488470146A142F8D110BDE2
:101390002C000000380000004EF68851CEF200010B
:1013A000086840F470000860BFF34F8FBFF36F8F81
:1013B0004FF00070E1EE100A7047000051FFFFFF90
:1013C0000C0200001A000000000000207047FEE739
:1013D000FEE7FEE7FEE770477047704700F006B88B
:1013E0000148FEF77EBF000010000020024841685F
:1013F00002788A18426070470000002000F00DF863
:10140000002801D0FFF7B4FFAFF300800020AFF356
:101410000080FFF73BFE00F002F80120704700F06B
:1014200001B800000746384600F002F8FBE700006C
:1014300080B5AFF30080024A11001820ABBEFBE775
:101440002600020001488047014800474513000874
:1014500055140008AFF30080FFF79EFFFFF7CEFFA3
:101460000000000001020304FFF7FEBFFFF7FEBF0C
:10147000FFF7FEBFFFF7FEBFFFF7FEBFFFF7FEBFA0
:10148000FFF7FEBFFFF7FEBFFFF7FEBFFFF7FEBF90
:10149000FFF7FEBFFFF7FEBFFFF7FEBFFFF7FEBF80
:1014A000FFF7FEBFFFF7FEBFFFF7FEBFFFF7FEBF70
:1014B000FFF7FEBFFFF7FEBFFFF7FEBFFFF7FEBF60
:1014C000FFF7FEBFFFF7FEBFFFF7FEBFFFF7FEBF50
:1014D000FFF7FEBFFFF7FEBFFFF7FEBFFFF7FEBF40
:1014E000FFF7FEBFFFF7FEBFFFF7FEBFFFF7FEBF30
:1014F000FFF7FEBFFFF7FEBFFFF7FEBFFFF7FEBF20
:10150000FFF7FEBFFFF7FEBFFFF7FEBFFFF7FEBF0F
:10151000FFF7FEBFFFF7FEBFFFF7FEBFFFF7FEBFFF
:10152000FFF7FEBFFFF7FEBFFFF7FEBFFFF7FEBFEF
:10153000FFF7FEBFFFF7FEBFFFF7FEBFFFF7FEBFDF
:10154000FFF7FEBFFFF7FEBFFFF7FEBFFFF7FEBFCF
:10155000FFF7FEBFFFF7FEBFFFF7FEBFFFF7FEBFBF
:10156000FFF7FEBFFFF7FEBFFFF7FEBFFFF7FEBFAF
:10157000FFF7FEBFFFF7FEBFFFF7FEBFFFF7FEBF9F
:10158000FFF7FEBFFFF7FEBFFFF7FEBFFFF7FEBF8F
:10159000FFF7FEBFFFF7FEBFFFF7FEBFFFF7FEBF7F
:1015A000FFF7FEBFFFF7FEBFFFF7FEBFFFF7FEBF6F
:1015B000FFF7FEBFFFF7FEBFFFF7FEBFFFF7FEBF5F
:1015C000FFF7FEBFFFF7FEBFFFF7FEBF0001F90008
:0915D0000010FC000124F4BF002E
:040000050800145586
:00000001FF
