:020000040800F2
:10000000900800202D6A0008096A00080B6A0008A1
:100010000D6A00080F6A0008116A0008000000005D
:10002000000000000000000000000000136A00084B
:10003000156A000800000000176A0008196A000825
:10004000516A0008556A0008596A00085D6A00088C
:10005000616A0008656A0008696A00086D6A00083C
:10006000716A0008756A0008796A00087D6A0008EC
:10007000816A0008856A0008896A00088D6A00089C
:10008000916A0008956A0008996A00089D6A00084C
:10009000A16A0008A56A0008A96A0008AD6A0008FC
:1000A000B16A0008B56A0008B96A0008BD6A0008AC
:1000B000C16A0008C56A0008C96A0008CD6A00085C
:1000C000D16A0008D56A0008D96A0008DD6A00080C
:1000D000E16A0008E56A0008E96A0008ED6A0008BC
:1000E000F16A0008F56A0008F96A0008FD6A00086C
:1000F000016B0008056B0008096B00080D6B000818
:10010000116B0008156B0008196B00081D6B0008C7
:10011000216B0008256B0008296B00082D6B000877
:10012000316B0008356B0008396B00083D6B000827
:10013000416B0008456B0008496B00084D6B0008D7
:10014000516B0008556B0008596B00085D6B000887
:10015000616B0008656B0008696B00086D6B000837
:10016000716B0008756B0008796B00087D6B0008E7
:10017000816B0008856B0008896B00080000000097
:100180008D6B0008916B0008956B0008996B000857
:100190009D6B0008A16B0008A56B0008A96B000807
:1001A000AD6B0008B16B0008B56B000800000000E3
:1001B000000000000000000000000000000000003F
:1001C000000000000000000000000000000000002F
:1001D000000000000000000000000000000000001F
:1001E000000000000000000000000000000000000F
:1001F00000000000000000000000038000038000F9
:10020000038000038000038000038000038000035C
:1002100080000380000100000100000000000000D9
:1002200000038000038000000000000000000000C8
:1002300000000000000000000000000000000000BE
:1002400000000000000E70000E70000E7000042010
:100250000004200004200004200000000000000032
:10026000000000000000000000000000000000008E
:10027000000000000000000000000000000000007E
:1002800000000000000000000000066000066000A2
:100290000660000660000660003FF8003FF80006B8
:1002A00060000CC0003FF8003FF8000CC0000CC01C
:1002B000000CC0000CC0000CC000000000000000DA
:1002C000000000000000000000000000000000012D
:1002D000800001800007B0000FF000187000187057
:1002E000001C00000F800007E00000F00018300044
:1002F0001C30001C70001FE0001BC00001800001CA
:10030000800001800001800000000000000000006B
:10031000000000000000000000000780000FC00087
:100320001CE0001860001860001CE0000FF80007D7
:10033000E0001FF000073800061800061800073814
:100340000003F00001E000000000000000000000D9
:10035000000000000000000000000000000000009D
:10036000000000000000000003F00007F0000C6037
:10037000000C00000C00000600000700000F9C00AD
:100380001DFC0018F0001870000FFC0007DC0000D6
:10039000000000000000000000000000000000005D
:1003A00000000000000000000000000000038000CA
:1003B0000380000380000100000100000100000133
:1003C000000000000000000000000000000000002D
:1003D000000000000000000000000000000000001D
:1003E000000000000000000000000000000000000D
:1003F000000000180000380000700000F00000E06D
:100400000000E00001C00001C00001C00001C00008
:1004100001C00001C00000E00000E000007000002A
:10042000700000380000180000000000000000000C
:10043000000000000000000000001800001C000088
:100440000E00000E000007000007000003800003FC
:100450008000038000038000038000038000070009
:10046000000700000F00000E00001C000018000034
:10047000000000000000000000000000000000007C
:1004800000000180000180000180001DB8001FF8FD
:100490000007E00003C00003C00006600006600023
:1004A000000000000000000000000000000000004C
:1004B000000000000000000000000000000000003C
:1004C000000000000000000000000000000000002C
:1004D0000180000180000180000180000180003F58
:1004E000FC003FFC000180000180000180000180D1
:1004F000000180000000000000000000000000007B
:1005000000000000000000000000000000000000EB
:1005100000000000000000000000000000000000DB
:1005200000000000000000000000000000000000CB
:1005300000000000000000E00000C00001C0000159
:1005400080000180000300000300000000000000A4
:10055000000000000000000000000000000000009B
:100560000000000000000000000000000000001F6C
:10057000F8001FF80000000000000000000000006C
:10058000000000000000000000000000000000006B
:10059000000000000000000000000000000000005B
:1005A000000000000000000000000000000000004B
:1005B000000000000000000000000000000000003B
:1005C00000000000000003C00003C00003C00000E2
:1005D000000000000000000000000000000000001B
:1005E0000000000000180000180000380000300073
:1005F00000700000600000600000C00000C000014A
:1006000080000180000300000300000600000600D7
:10061000000E00000C00001C000018000018000074
:1006200000000000000000000000000000000000CA
:10063000000003C00007E0000C30000C3000181868
:1006400000181800181800181800181800181800BA
:100650001818000C30000C300007E00003C0000048
:10066000000000000000000000000000000000008A
:100670000000000000000000000000800007800073
:100680001F80001D800001800001800001800001AA
:100690008000018000018000018000018000018055
:1006A000001FF8001FF8000000000000000000001C
:1006B000000000000000000000000000000000003A
:1006C000000007C0001FF00038300030180030185C
:1006D0000000180000300000600001C0000380002E
:1006E0000600000C00001800003FF8003FF8000072
:1006F00000000000000000000000000000000000FA
:100700000000000000000000000003C0000FE00037
:100710000C700000300000300000600003C00003D7
:10072000E0000070000018000018000018001838E1
:10073000001FF0000FC000000000000000000000DB
:1007400000000000000000000000000000000000A9
:10075000000000E00001E00001E00003600006602E
:10076000000660000C60000C600018600030600043
:100770003FF8003FF80000600003F80003F80000B5
:100780000000000000000000000000000000000069
:10079000000000000000000000001FF0001FF0003B
:1007A0001800001800001800001BC0001FF0001CFB
:1007B0003000001800001800001800001800303049
:1007C000003FF0000FC0000000000000000000002B
:1007D0000000000000000000000000000000000019
:1007E000000000F80003F8000700000E00000C00F5
:1007F000001800001BC0001FF0001C30001818007B
:100800001818001818000C38000FF00003E0000062
:1008100000000000000000000000000000000000D8
:10082000000000000000000000001FF8001FF8009A
:100830001818001838000030000030000070000068
:10084000600000600000E00000C00000C00001C0C7
:100850000001800001800000000000000000000096
:100860000000000000000000000000000000000088
:10087000000007E0000FF0001C38001818001818DE
:10088000000C300007E00007E0000C3000181800F2
:100890001818001818001C38000FF00007E00000BE
:1008A0000000000000000000000000000000000048
:1008B0000000000000000000000007C0000FF00072
:1008C0001C30001818001818001818000C38000FF9
:1008D000F80003D80000180000300000700000E0AD
:1008E000001FC0001F00000000000000000000000A
:1008F00000000000000000000000000000000000F8
:10090000000000000000000000000000000003C024
:100910000003C00003C00000000000000000000051
:1009200000000000000003C00003C00003C000007E
:1009300000000000000000000000000000000000B7
:1009400000000000000000000000000000000000A7
:1009500000000000000000F00000F00000F00000C7
:10096000000000000000000000000000E00001C0E6
:100970000001800001800003000002000000000070
:100980000000000000000000000000000000000067
:100990000000000000000000001C00003C0000F00F
:1009A0000003C0000F00003C0000F000003C00000D
:1009B0000F000003C00000F000003C00001C00001D
:1009C0000000000000000000000000000000000027
:1009D0000000000000000000000000000000000017
:1009E0000000000000000000007FFC007FFC000011
:1009F00000000000007FFC007FFC00000000000001
:100A000000000000000000000000000000000000E6
:100A100000000000000000000000000000000000D6
:100A200000000000000000007000007800001E00C0
:100A30000007800001E000007800001E0000780040
:100A400001E0000780001E00007800007000000038
:100A50000000000000000000000000000000000096
:100A60000000000000000000000000000007C000BF
:100A70000FE00018700018300018300000700000FF
:100A8000E00003C00003800003000000000000003D
:100A90000007000007000000000000000000000048
:100AA0000000000000000000000000000000000046
:100AB000000003E00007F0000E38000C1800187862
:100AC0000018F80019D80019980019980019980012
:100AD00018F8001878001800000C00000E18000725
:100AE000F80003E00000000000000000000000002B
:100AF000000000000000000000000000001F800057
:100B00001FC00001C0000360000360000630000643
:100B100030000C30000FF8001FF800180C00300CEB
:100B200000FC7F00FC7F00000000000000000000CF
:100B300000000000000000000000000000000000B5
:100B400000000000007FE0007FF000183800181857
:100B5000001818001838001FF0001FF800181C00BB
:100B6000180C00180C00180C007FF8007FF0000033
:100B70000000000000000000000000000000000075
:100B80000000000000000000000000000003EC0076
:100B90000FFC001C1C00180C00300C003000003052
:100BA0000000300000300000300000180C001C1C59
:100BB000000FF80003F0000000000000000000003B
:100BC0000000000000000000000000000000000025
:100BD00000000000007FC0007FF0001838001818E7
:100BE00000180C00180C00180C00180C00180C0051
:100BF000180C001818001838007FF0007FE0000083
:100C000000000000000000000000000000000000E4
:100C1000000000000000000000000000007FF8005D
:100C20007FF8001818001818001998001980001F84
:100C300080001F80001980001998001818001818EB
:100C4000007FF8007FF800000000000000000000B6
:100C50000000000000000000000000000000000094
:100C600000000000003FFC003FFC000C0C000C0CDE
:100C7000000CCC000CC0000FC0000FC0000CC00066
:100C80000CC0000C00000C00003FC0003FC0000082
:100C90000000000000000000000000000000000054
:100CA0000000000000000000000000000003EC0055
:100CB0000FFC001C1C00180C00300C003000003031
:100CC000000030FE0030FE00300C00380C001C1C10
:100CD000000FFC0003F00000000000000000000016
:100CE0000000000000000000000000000000000004
:100CF00000000000007E7E007E7E0018180018189C
:100D0000001818001818001FF8001FF80018180025
:100D10001818001818001818007E7E007E7E00004B
:100D200000000000000000000000000000000000C3
:100D3000000000000000000000000000001FF8009C
:100D40001FF8000180000180000180000180000187
:100D5000800001800001800001800001800001808E
:100D6000001FF8001FF80000000000000000000055
:100D70000000000000000000000000000000000073
:100D8000000000000007FE0007FE000030000030F9
:100D90000000300000300000300030300030300003
:100DA0003030003030003060003FE0000F80000045
:100DB0000000000000000000000000000000000033
:100DC000000000000000000000000000007F3E0066
:100DD0007F3E0018300018600018C0001980001B0A
:100DE00080001FC0001CE000187000183000183888
:100DF000007F1F007F1F00000000000000000000B7
:100E000000000000000000000000000000000000E2
:100E100000000000007F80007F80000C00000C00BC
:100E2000000C00000C00000C00000C00000C0C007A
:100E30000C0C000C0C000C0C007FFC007FFC000074
:100E400000000000000000000000000000000000A2
:100E500000000000000000000000000000F00F0093
:100E6000F81F00381C003C3C003C3C00366C00364F
:100E70006C0033CC0033CC00318C00300C00300CD3
:100E800000FE7F00FE7F0000000000000000000068
:100E90000000000000000000000000000000000052
:100EA000000000000078FE0078FE001C18001E18EC
:100EB000001F18001B18001B980019D80018D80034
:100EC00018F8001878001838007F18007F18000004
:100ED0000000000000000000000000000000000012
:100EE0000000000000000000000000000003C0003F
:100EF0000FF0001C3800181800381C00300C0030AF
:100F00000C00300C00300C00381C001818001C3885
:100F1000000FF00003C0000000000000000000000F
:100F200000000000000000000000000000000000C1
:100F300000000000003FF0003FF8000C1C000C0C0B
:100F4000000C0C000C0C000C18000FF8000FE00057
:100F50000C00000C00000C00003FC0003FC000006F
:100F60000000000000000000000000000000000081
:100F70000000000000000000000000000003C000AE
:100F80000FF0001C3800181800381C00300C00301E
:100F90000C00300C00300C00381C001818001C38F5
:100FA000000FF00007C00007CC000FFC000C380059
:100FB0000000000000000000000000000000000031
:100FC00000000000007FE0007FF0001838001818D3
:100FD000001818001838001FF0001FC00018E000AB
:100FE0001870001830001838007F1E007F0E0000B7
:100FF00000000000000000000000000000000000F1
:101000000000000000000000000000000007D80001
:101010000FF8001C38001818001818001E00000FE8
:10102000C00003F0000078001818001818001C38E1
:10103000001FF0001BE000000000000000000000A6
:1010400000000000000000000000000000000000A0
:1010500000000000003FFC003FFC00318C00318CA0
:1010600000318C00318C0001800001800001800083
:101070000180000180000180000FF0000FF00000EF
:101080000000000000000000000000000000000060
:10109000000000000000000000000000007E7E0054
:1010A0007E7E00181800181800181800181800186C
:1010B00018001818001818001818001818000C301C
:1010C000000FF00003C0000000000000000000005E
:1010D0000000000000000000000000000000000010
:1010E00000000000007F7F007F7F00180C000C18BC
:1010F000000C18000C1800063000063000036000D9
:1011000003600003600001C00001C0000080000017
:1011100000000000000000000000000000000000CF
:1011200000000000000000000000000000FE3F8002
:10113000FE3F8030060030060030860019CC0019D2
:10114000CC001B6C001B6C001E7C000E38000E389F
:10115000000C18000C180000000000000000000047
:10116000000000000000000000000000000000007F
:1011700000000000007E7E007E7E001818000C300B
:101180000006600003C00001800001800003C00071
:101190000660000C30001818007E7E007E7E000085
:1011A000000000000000000000000000000000003F
:1011B000000000000000000000000000007C7E0035
:1011C0007C7E001818000C300006600006600003EA
:1011D000C0000180000180000180000180000180CA
:1011E000000FF0000FF00000000000000000000001
:1011F00000000000000000000000000000000000EF
:1012000000000000001FF8001FF800181800183038
:101210000018600018C000018000030000061800DC
:101220000C18001818003018003FF8003FF80000B4
:1012300000000000000000000000000000000000AE
:101240000000000000000000000001F00001F000BC
:101250000180000180000180000180000180000108
:101260008000018000018000018000018000018079
:101270000001800001800001800001F00001F00009
:10128000000000000000000000000000180000182E
:1012900000001C00000C00000E000006000006000C
:1012A0000003000003000001800001800000C00076
:1012B00000C000006000006000007000003000000E
:1012C00038000018000018000000000000000000B6
:1012D000000000000000000000000F80000F8000F0
:1012E0000180000180000180000180000180000178
:1012F00080000180000180000180000180000180E9
:10130000000180000180000180000F80000F80003C
:1013100000000000000000000000000000000000CD
:10132000800001C00003E0000770000630000C18C8
:1013300000180C0010040000000000000000000075
:10134000000000000000000000000000000000009D
:10135000000000000000000000000000000000008D
:10136000000000000000000000000000000000007D
:10137000000000000000000000000000000000006D
:10138000000000000000000000000000000000005D
:10139000000000000000000000000000000000004D
:1013A000000000000000FFFF00FFFF00000000033E
:1013B000000003800000E00000600000000000006A
:1013C000000000000000000000000000000000001D
:1013D000000000000000000000000000000000000D
:1013E00000000000000000000000000000000000FD
:1013F00000000000000000000000000000000000ED
:101400000000000000000FC0001FE00000300000DE
:10141000300007F0001FF00038300030300030702E
:10142000001FFC000FBC00000000000000000000D6
:1014300000000000000000000000000000000000AC
:1014400000007800007800001800001800001BE081
:10145000001FF8001C1800180C00180C00180C00D5
:10146000180C00180C001C18007FF8007BE000002E
:10147000000000000000000000000000000000006C
:10148000000000000000000000000000000000005C
:1014900000000000000003EC000FFC001C1C0038E2
:1014A0000C00300C00300000300000380C001C1C18
:1014B000000FF80003F00000000000000000000032
:1014C000000000000000000000000000000000001C
:1014D000000000780000780000180000180007D80D
:1014E000001FF800183800301800301800301800BD
:1014F0003018003018001838001FFE0007DE00000A
:1015000000000000000000000000000000000000DB
:1015100000000000000000000000000000000000CB
:1015200000000000000007E0001FF800181800305D
:101530000C003FFC003FFC00300000300000180CA5
:10154000001FFC0007F00000000000000000000089
:10155000000000000000000000000000000000008B
:10156000000001FC0003FC000600000600003FF83C
:10157000003FF8000600000600000600000600001C
:101580000600000600000600003FF0003FF00000EB
:10159000000000000000000000000000000000004B
:1015A000000000000000000000000000000000003B
:1015B00000000000000007DE001FFE0018380030A9
:1015C0001800301800301800301800301800183893
:1015D000001FF80007D800001800001800003800AD
:1015E0000FF0000FC000000000000000000000002D
:1015F00000007800007800001800001800001BE0D0
:10160000001FF0001C3800181800181800181800E7
:101610001818001818001818007E7E007E7E000042
:1016200000000000000000000000000000000000BA
:1016300000000000000000000000018000018000A8
:101640000000000000001F80001F800001800001DA
:101650008000018000018000018000018000018085
:10166000003FFC003FFC0000000000000000000004
:10167000000000000000000000000000000000006A
:10168000000000C00000C0000000000000001FF0CB
:10169000001FF0000030000030000030000030007B
:1016A000003000003000003000003000003000004A
:1016B00030000030000070001FE0001F80000000BC
:1016C000000000000000000000003C00003C0000A2
:1016D0000C00000C00000CF8000CF8000CC0000D11
:1016E00080000F80000F00000F80000DC0000CE094
:1016F000003C7C003C7C000000000000000000007A
:1017000000000000000000000000000000000000D9
:1017100000001F80001F8000018000018000018008
:101720000001800001800001800001800001800034
:101730000180000180000180003FFC003FFC0000B0
:101740000000000000000000000000000000000099
:101750000000000000000000000000000000000089
:10176000000000000000F77800FFFC0039CC0031D9
:101770008C00318C00318C00318C00318C00318C2C
:1017800000FDEF00FDEF0000000000000000000081
:101790000000000000000000000000000000000049
:1017A00000000000000000000000000000007BE0DE
:1017B000007FF0001C3800181800181800181800D6
:1017C0001818001818001818007E7E007E7E000091
:1017D0000000000000000000000000000000000009
:1017E00000000000000000000000000000000000F9
:1017F00000000000000003C0000FF0001C3800389B
:101800001C00300C00300C00300C00381C001C3860
:10181000000FF00003C00000000000000000000006
:1018200000000000000000000000000000000000B8
:1018300000000000000000000000000000007BE04D
:10184000007FF8001C1800180C00180C00180C0081
:10185000180C00180C001C18001FF8001BE00018E2
:1018600000001800001800007F00007F000000004A
:101870000000000000000000000000000000000068
:1018800000000000000007DE001FFE0018380030D6
:1018900018003018003018003018003018001838C0
:1018A000001FF80007D800001800001800001800FA
:1018B00000FE0000FE00000000000000000000002C
:1018C00000000000000000000000000000003E7862
:1018D000003EFC0007CC00070000060000060000E8
:1018E0000600000600000600003FF0003FF0000088
:1018F00000000000000000000000000000000000E8
:1019000000000000000000000000000000000000D7
:1019100000000000000007F8000FF8001818001879
:1019200018001F80000FF00000F800181800183889
:10193000001FF0001FE00000000000000000000099
:101940000000000000000000000000000000000097
:1019500000000C00000C00000C00000C00003FF028
:10196000003FF0000C00000C00000C00000C000018
:101970000C00000C00000C1C0007FC0003F0000031
:101980000000000000000000000000000000000057
:101990000000000000000000000000000000000047
:1019A000000000000000787800787800181800180F
:1019B00018001818001818001818001818001838FF
:1019C000000FFE0007DE0000000000000000000025
:1019D0000000000000000000000000000000000007
:1019E00000000000000000000000000000007C3E3D
:1019F000007C3E001818001818000C30000C300055
:101A000006600006600007E00003C00003C000009D
:101A100000000000000000000000000000000000C6
:101A200000000000000000000000000000000000B6
:101A3000000000000000783C00783C0031180033C2
:101A400098003398001AB0001EF0001EF0001C60D1
:101A5000000C60000C6000000000000000000000AE
:101A60000000000000000000000000000000000076
:101A700000000000000000000000000000003E7CAC
:101A8000003E7C000C300006600003C000018000B6
:101A900003C0000660000C30003E7C003E7C00006D
:101AA0000000000000000000000000000000000036
:101AB0000000000000000000000000000000000026
:101AC0000000000000007E1F007E1F00180C000CAC
:101AD00018000C180006300006300003600003E018
:101AE0000001C00000C00001800001800003000070
:101AF0003FC0003FC00000000000000000000000E8
:101B000000000000000000000000000000001FF8BE
:101B1000001FF80018300018600000C000018000AD
:101B20000300000618000C18001FF8001FF8000042
:101B300000000000000000000000000000000000A5
:101B40000000000000000000000000E00001E000D4
:101B500001800001800001800001800001800001FF
:101B600080000380000700000380000180000180E6
:101B70000001800001800001800001E00000E00021
:101B80000000000000000000000000000000000055
:101B900000000180000180000180000180000180C0
:101BA00000018000018000018000018000018000B0
:101BB000018000018000018000018000018000019F
:101BC0008000018000018000000000000000000093
:101BD0000000000000000000000007000007800077
:101BE000018000018000018000018000018000016F
:101BF000800001C00000E00001C000018000018001
:101C000000018000018000018000078000070000C3
:101C100000000000000000000000000000000000C4
:101C200000000000000000000000000000000000B4
:101C3000000000000E00001F18003BB80031F0004B
:101C400000E00000000000000000000000000000B4
:101C50000000000000000000000000000000000084
:101C60000000000000000000000000000000000074
:101C70000000000000000000000000000000000064
:101C80000000000000000C000C000C000C000C0018
:101C90000C000C000C0000000C0000000000000014
:101CA00000000000000000001DC01DC0088008806A
:101CB000088000000000000000000000000000009C
:101CC0000000000000000D800D800D800D803FC0E1
:101CD0001B003FC01B001B001B001B00000000007E
:101CE0000000000004001F803180318038001E0099
:101CF0000F000380318031803F00040004000000A9
:101D000000000000000018002400240018C0078014
:101D10001E003180024002400180000000000000EF
:101D200000000000000000000F001800180018005C
:101D30000C001D80370033001D80000000000000F3
:101D40000000000000000000070007000200020081
:101D50000200000000000000000000000000000081
:101D60000000000000000300030006000E000C004D
:101D70000C000C000C000E00060003000300000025
:101D8000000000000000180018000C00060006000B
:101D900006000600060006000C001C0018000000EB
:101DA000000000000000060006003FC03FC00F001A
:101DB0001F801980000000000000000000000000EB
:101DC0000000000000000000000004000400040007
:101DD0003F80040004000400000000000000000038
:101DE00000000000000000000000000000000000F3
:101DF000000000000000060004000C0008000800BD
:101E000000000000000000000000000000000000D2
:101E10003F80000000000000000000000000000003
:101E200000000000000000000000000000000000B2
:101E30000000000000000C000C000000000000008A
:101E40000000000000C000C001800180030003000A
:101E500006000C000C0018001800300030000000D4
:101E60000000000000000E001B0031803180318036
:101E70003180318031801B000E0000000000000026
:101E800000000000000006003E00060006000600FC
:101E900006000600060006003FC00000000000002B
:101EA0000000000000000F00198031803180030025
:101EB00006000C00180030003F8000000000000009
:101EC0000000000000003F006180018003001F004F
:101ED00003800180018061803F000000000000005D
:101EE000000000000000070007000F000B001B00AF
:101EF000130033003F8003000F800000000000004B
:101F00000000000000001F801800180018001F00CB
:101F100011800180018021801F000000000000006E
:101F200000000000000007801C001800300037008F
:101F300039803180318019800F00000000000000DE
:101F40000000000000007F004300030006000600C0
:101F5000060006000C000C000C0000000000000051
:101F60000000000000001F003180318031801F0020
:101F700031803180318031801F000000000000007E
:101F80000000000000001E003300318031803380EB
:101F90001D800180030007003C00000000000000DD
:101FA0000000000000000000000000000C000C0019
:101FB0000000000000000C000C0000000000000009
:101FC000000000000000000000000000030003000B
:101FD00000000000000006000400080008000000E7
:101FE000000000000000000000C003000400180012
:101FF000600018000400030000C0000000000000A2
:1020000000000000000000000000000000007FC091
:1020100000007FC000000000000000000000000081
:102020000000000000000000600018000400030031
:1020300000C0030004001800600000000000000061
:1020400000000000000000001F003180318001808E
:1020500007000C000C0000000C0000000000000055
:102060000000000000000E001100210021002700E8
:10207000290029002700200011000E0000000000A8
:1020800000000000000000003F000F000900198060
:1020900019801F8030C030C079E0000000000000CF
:1020A00000000000000000007F003180318031809E
:1020B0003F003180318031807F000000000000004F
:1020C00000000000000000001F4030C060406000C1
:1020D00060006000604030801F00000000000000D1
:1020E00000000000000000007F00318030C030C0E0
:1020F00030C030C030C031807F00000000000000E0
:1021000000000000000000007F803080308032003E
:102110003E003200308030807F80000000000000F0
:1021200000000000000000007FC03040304032005E
:102130003E003200300030007C0000000000000053
:1021400000000000000000001E8031806080600000
:10215000600067C0618031801F0000000000000047
:1021600000000000000000007BC031803180318021
:102170003F803180318031807BC000000000000052
:1021800000000000000000003FC00600060006003E
:1021900006000600060006003FC000000000000028
:1021A00000000000000000001FC003000300030047
:1021B00003006300630063003E00000000000000B5
:1021C00000000000000000007BC0318033003600BA
:1021D0003C003E003300318079C000000000000068
:1021E00000000000000000007E0018001800180029
:1021F00018001840184018407FC000000000000080
:102200000000000000000000E0E060C071C07BC082
:102210006AC06EC064C060C0FBE000000000000047
:10222000000000000000000073C0318039803D8054
:1022300035803780338031807980000000000000D5
:1022400000000000000000001F00318060C060C07E
:1022500060C060C060C031801F000000000000004E
:1022600000000000000000007F00318031803180DC
:1022700031803F00300030007E0000000000000090
:1022800000000000000000001F00318060C060C03E
:1022900060C060C060C031801F000CC01F800000A3
:1022A00000000000000000007F003180318031809C
:1022B0003E003300318031807CE0000000000000EF
:1022C00000000000000000001F80318031803800D5
:1022D0001F000380318031803F00000000000000BB
:1022E00000000000000000007F804C804C804C808B
:1022F0000C000C000C000C003F000000000000006F
:1023000000000000000000007BC03180318031807F
:1023100031803180318031801F00000000000000DA
:1023200000000000000000007BC0318031801B00F5
:102330001B001B000A000E000E0000000000000041
:102340000000000000000000FBE060C064C06EC040
:102350006EC02A803B803B8031800000000000007E
:1023600000000000000000007BC031801B000E0058
:102370000E000E001B0031807BC00000000000003A
:10238000000000000000000079E030C019800F005C
:1023900006000600060006001F8000000000000086
:1023A00000000000000000003F80218023000600A4
:1023B00004000C00188030803F8000000000000006
:1023C000000000000000078006000600060006006E
:1023D0000600060006000600060006000780000052
:1023E0000000000030003000180018000C000C0045
:1023F0000600030003000180018000C000C000004F
:102400000000000000001E00060006000600060096
:102410000600060006000600060006001E0000007A
:102420000000000004000A000A0011002080208043
:10243000000000000000000000000000000000009C
:10244000000000000000000000000000000000008C
:10245000000000000000000000000000000000007C
:102460000000FFE00800040002000000000000007F
:10247000000000000000000000000000000000005C
:102480000000000000000000000000001F000180AC
:1024900001801F80318033801DC0000000000000DB
:1024A000000000000000700030003000370039806C
:1024B00030C030C030C0398077000000000000001C
:1024C0000000000000000000000000001E803180BD
:1024D00060806000608031801F000000000000000C
:1024E0000000000000000380018001801D80338017
:1024F00061806180618033801DC0000000000000A9
:102500000000000000000000000000001F003180FB
:1025100060C07FC0600030C01F800000000000006D
:1025200000000000000007E00C000C003F800C00E1
:102530000C000C000C000C003F80000000000000AC
:102540000000000000000000000000001DC03380FB
:1025500061806180618033801D80018001801F0067
:1025600000000000000070003000300037003980AB
:1025700031803180318031807BC00000000000005C
:102580000000000000000600060000001E0006001B
:1025900006000600060006003FC000000000000024
:1025A0000000000000000600060000003F000300DD
:1025B00003000300030003000300030003003E00C8
:1025C000000000000000700030003000378036004E
:1025D0003C003C003600330077C0000000000000E3
:1025E0000000000000001E000600060006000600B5
:1025F00006000600060006003FC0000000000000C4
:102600000000000000000000000000007F8036C0D5
:1026100036C036C036C036C076E00000000000008C
:10262000000000000000000000000000770039807A
:1026300031803180318031807BC00000000000009B
:102640000000000000000000000000001F003180BA
:1026500060C060C060C031801F000000000000004A
:10266000000000000000000000000000770039803A
:1026700030C030C030C039803700300030007C00BE
:102680000000000000000000000000001DC03380BA
:1026900061806180618033801D800180018007C07E
:1026A0000000000000000000000000007B801CC053
:1026B00018001800180018007F000000000000003B
:1026C0000000000000000000000000001F803180BA
:1026D0003C001F00038031803F000000000000002C
:1026E0000000000000001800180018007F0018000B
:1026F00018001800180018800F00000000000000EB
:102700000000000000000000000000007380318025
:1027100031803180318033801DC000000000000016
:102720000000000000000000000000007BC03180BD
:1027300031801B001B000E000E0000000000000096
:10274000000000000000000000000000F1E060C098
:1027500064C06EC03B803B80318000000000000000
:102760000000000000000000000000007BC01B0013
:102770000E000E000E001B007BC0000000000000D9
:1027800000000000000000000000000079E030C000
:10279000198019800B000F00060006000C003E0097
:1027A0000000000000000000000000003F802180C9
:1027B00003000E00180030803F8000000000000081
:1027C00000000000000006000C000C000C000C00D3
:1027D0000C0018000C000C000C000C00060000009F
:1027E00000000000000006000600060006000600CB
:1027F00006000600060006000600060006000000AF
:102800000000000000000C000600060006000600A4
:102810000600030006000600060006000C0000008B
:102820000000000000000000000000000000180090
:1028300024800300000000000000000000000000F1
:102840000000000038B5DFF85444DFF80005DFF879
:102850000055206009211D20E061616140F20D10EA
:1028600060620321216240F217100122E062A2613E
:1028700040F24311A16204F13400002240F24711FA
:102880008270028021630820C0212961286004220F
:102890004FF40031AA616962284600F031FB002143
:1028A0006160A160E160216100F084FA204600F0DF
:1028B00041FCDFF8F40428630068804700F072FDF3
:1028C00004F1A80000F05EF8002032BDDFF88004BB
:1028D000016B886A0047DFF87804016BC86A00471B
:1028E00030B58DB00446002000900D46FFF7EEFF96
:1028F000002101900291FFF7EEFF0390FF220020DC
:102900000490069005920CA80022ADF83020827049
:102910004FF4C0610722079108920995FFF7D6FF8F
:102920000A90FFF7D8FF0B902246DFF870536946F4
:10293000284600F072FC0C20DFF87014444308199C
:102940004FF0FF32426405F1A8014FF07F428164ED
:102950000264284600F083FC0DB030BDDFF84C1453
:1029600088657047DFF84424936D0C214B43D118E0
:1029700008647047DFF83424936D0C214B43D11861
:1029800048647047DFF82424936D0C214B43D11821
:10299000886470473EB50446FFF79DFF0546FFF784
:1029A00095FF0246DFF8040401942B46806DDFF8A2
:1029B000EC4234250021454300912544E96D00F0A7
:1029C000C9F937BD70B5DFF8E443A56D0C235D434D
:1029D0006319203A9B6C9C881D68DB88E41DA61057
:1029E00004EB56745A43E41062432A44BDE8704035
:1029F00000F056B92DE9F84F894690464FF0000A8D
:102A00000026414600E0761C11F8012B002AFAD17D
:102A10001D468346FFF75AFFDFF89073BA6D0C240A
:102A200007F148016243012D8B589988B0FBF1F200
:102A3000584606D0022D02BF961B01FB0606304603
:102A400003E0961B4E4300EB56004E4605460EE053
:102A500018F8012B3146A8B2FFF7B4FFB96D07F1A2
:102A6000480061430AF1010A42589088451998F8D4
:102A70000090B9F1000F18BF4FF00109FFF726FFD2
:102A8000BA6D07F1480162438B5899881FFA8AF2A0
:102A900001FB120080B288428041C04319EAD07F16
:102AA000D6D1BDE8F18FFEB505460E461446FFF7B8
:102AB0000DFFDFF8F8220146906D0C2343431A44C2
:102AC00006FB0155176C019700220092342722461D
:102AD000DFF8C841474327440123FC6D04EB85011F
:102AE00000F038F9F7BD2DE9FC41DFF8C052064689
:102AF00088461446FFF7EAFE00F0B4F808FB0066CB
:102B0000CF6DFFF7E3FE00F0A7F8491E136C0193A9
:102B1000009107EB860723460122394600F01AF997
:102B2000BDE8F381F8B504460D4616461F46FFF78B
:102B3000BAFF7919324689B22046FFF7B4FF3A4608
:102B400029462046FFF7CFFF34193A462946A0B25E
:102B5000BDE8F840C7E72DE9FE4F5600C6F1030671
:102B60004FF000090C24DFF8445280468B46924611
:102B7000CA4555D309EB0800ADF8060005F1400041
:102B8000AB6D6343ABEB0A07C25800F04BF8A8EB00
:102B90000900ADF8040000F04EF8BDF8040000F0A4
:102BA00043F80AEB0800ADF8020005F14000A96DFA
:102BB0006143ABEB090700F039F8A8EB0A00ADF868
:102BC000000000F038F8BDF8000000F02DF800F02B
:102BD00038F80AEB0B07425800F024F800F036F8FA
:102BE000BDF8040000F020F800F02BF809EB0B070B
:102BF00000F01CF800F02AF8BDF8000000F014F80E
:102C0000002E07D4A9EB0A0006EB80060A36AAF1CB
:102C1000010A02E006EB8906B61D09F10109A7E7E2
:102C2000BDE8F78FBDF80600B9B224E04258BDF800
:102C30000200B9B21FE005F14000A96D614342589E
:102C40007047A96D05F1400061437047A96D05F11A
:102C500040006143425870470146A86D0C22424330
:102C60002A447047AB6D0D4A34214B43D11870474D
:102C700005B0BDE8F08FF8B504460D461646FFF7DF
:102C800025FE4A4B054A9F6D34214F43D11900FB65
:102C90000544CA6D02EB84021660F1BD9400002069
:102CA0002DE9F64F414D0F468246A96D0C20414358
:102CB000681883B0806CC18802910024B0F8048049
:102CC00008F107000190811000EB5170C0100090D6
:102CD000C8EBC0092AE00178467846EA012606E0FA
:102CE000467801788078360246EA014606434FF07E
:102CF000000BC34518D208EB0902A86D531E0C2126
:102D0000A3EB0B03484326FA03F22918D2070BEB77
:102D10000A0054BF4A6C0A6CB9B280B2FFF7ABFF2D
:102D20000BF1010BE5E7A3E77F1C641C02988442CA
:102D3000F9D200990498614308440099012902D00E
:102D40000229C8D0CCE70678D1E70000006801402E
:102D5000540400202DE9FC4180460898134FF86088
:102D60000C461546124838604FF440310022796015
:102D7000BA601E46384600F057FC90B941463846C6
:102D800000F012FD68B9099900962B462246384694
:102D900000F075FC28B93846BDE8FC410A2100F076
:102DA0008EBCBDE8F381000000000020F803002085
:102DB00000B0024038B586B0002005900022494896
:102DC000494C4169494D41F080614161416901F0DF
:102DD0008061059105990592036843F4000303603F
:102DE000016801F40001059105990592036843F01B
:102DF00001030360016801F0010105910599059245
:102E0000036843F002030360016801F002010591C9
:102E100005990592036843F004030360016801F01B
:102E20000401059105990592036843F008030360C6
:102E3000016801F00801059105990592036843F0C6
:102E400020030360016801F02001059105990592B6
:102E500041F65801036843F0400303600222006812
:102E600000F0400005900E23059821480091019242
:102E70000021029103920493694600F047FD4FF44C
:102E8000706100912046694600F040FD4FF4986063
:102E900000906946174800F039FD482000906946C7
:102EA000154800F033FD4FF48060009069461348E8
:102EB00000F02CFD4FF40C6000906946284600F0AD
:102EC00025FD03210091092204926946204600F065
:102ED0001DFD4FF4A05000906946284600F016FDF5
:102EE00007B030BD303802400004024000180240F4
:102EF0000000024000080240000C024000140240A2
:102F00002DE9FC410446DFF810622078DFF80C520E
:102F1000DFF80C8210F0430F75D00020C8F80000D5
:102F200000F07EFE0746296808013ED500F078FED5
:102F3000C01B0228F7D9032035E000F071FEC01B4A
:102F400002285DD9F7E700F06BFEC01B022864D9A8
:102F5000F1E700F065FEC01B022840F28B80EAE733
:102F600000F05EFE801B022840F29F80E3E700F045
:102F700057FEC01B41F289318842C0F0B380DAE7C6
:102F8000A86820F4F810A860286FA16AC1F30B01AB
:102F9000084328672078C10604D594F82C00DFF890
:102FA000841108600020BDE8F6812078C10705D5AE
:102FB000A1686068090741EA8011316020788107C3
:102FC0000CD53068E268616800F09FF83060B06846
:102FD000E1694009491E41EA4010B060207841068D
:102FE00008D5E1686068090641EA8011A06841EAF5
:102FF000007131600121C8F8001000F011FE074691
:103000002868010199D5207810F00C0F36D00020E7
:10301000C8F8080000F004FE07462868810092D432
:10302000207841070DD570686269216900F06DF85C
:103030007060B068216A20F4F850491E40EA01200F
:10304000B060207801070FD57068216900F07060CA
:1030500040EA8110A16940EA01707060B168606A5D
:1030600021F440310143B1600121C8F8081000F09B
:10307000D7FD0746286881007FF56BAF2078810671
:1030800088D500200090296CDFF89C7041F08051B9
:103090002964286C00F0805000900098396841F451
:1030A0008071396000F0BCFD06463868C1057FF5C7
:1030B00057AF286F10F440701EBFA16A01F4407131
:1030C000884213D0286FDFF8641001220A600023C1
:1030D0000B6020F440702867286FC10706D500F008
:1030E0009FFD0746286F81077FF541AFA16A01F474
:1030F0004070B0F5407F7FF443AFAA680C4822F4DB
:10310000F81201401143A9603EE7120642EA81121B
:1031100000F0E0401043704784380240003802401D
:1031200068004742E011474200700040400E4742AD
:10313000FFFCFF0F70B5040001D1012070BD04F148
:10314000A005687820B900212970204600F0E9FD2B
:10315000022068702068816921F0704181612268D5
:1031600093696668A068E168064320690E430643D8
:10317000334393612168DFF820028A6802408A6045
:1031800021688A686369A66946EA034632438A6011
:103190002168CA680240CA602168CA68E369266A71
:1031A00046EA03463243CA6021680A6902400A615E
:1031B00021680A69636AA66A46EA034632430A61DD
:1031C00021684A691040486120684169E26A236BBE
:1031D00043EA02431943416104F134002368417812
:1031E0008278DE6A06F07F46DE6212042368DE6AB9
:1031F000007842EA012101433143D9622068416BE2
:1032000041F0060141632068816941F0010181615B
:10321000002068600121697070BD2DE9F843044603
:1032200004F1A005884628780128914608BF0220AD
:1032300013D03427012007FB09F728700226E7196D
:103240006E7007F13800342200F0E2FE4A46414633
:10325000204600F022F800F019F8BDE8F28310F8DB
:10326000A01F012901D10220704701210170022213
:10327000DFF82811427000220B6843F48033FFE727
:103280000B6001214170027000207047216801200D
:1032900048626870002028707047F0B503684C6879
:1032A000D86803EBC212C0F30B4084320419506893
:1032B00000F47040506000270D68D868C0F30B40E0
:1032C00045196D1C45EA04445460C868DC68C4F3C1
:1032D0000A042018946804F4704494608C68DB68D5
:1032E000C3F30A031C19641C44EA0040906001F116
:1032F00030031069C008C0001061086910619C7833
:1033000058788D69966997611B7843EA002040EAF6
:10331000044040EA056090615069000A0002506173
:1033200048695061D3691E480340D361086ACB697C
:103330000343D361936A97624B6A9362086908B941
:1033400004230EE0012808BF03230AD0042818BF75
:10335000022803D0032818BF072801D1022300E068
:103360000123D06A00F0E020D0628C6A4D680868C2
:103370005C432D1A6B43DB1C43EA0443D362106B9E
:10338000C00AC0021063C86A1063116841F00101ED
:103390001160F0BD0000000000F800F01868014066
:1033A000F8F8FFFF10B50221394C3A48A16360607C
:1033B0000421216407200221E0636064A164E164C8
:1033C000216501200021A060E1600420102120611E
:1033D000616140204FF4C071A061E16100204FF4B1
:1033E000006120626162A0624FF40052E26200213B
:1033F000201D00F051F804F13801201D00F014FEEA
:1034000000B10120207040F26A5000F002F82078EC
:1034100010BD7CB5044600201D4D00900121082000
:10342000A86569650020E96528664FF6FF7600F01B
:1034300028F8012000F046FE022008216865A965F1
:10344000012000F01BF8032008216865A96504200D
:1034500000F014F84FF40C70009004216965082006
:10346000A8650121E96532460098286600F00AF84F
:103470002146281DBDE87C4000F00ABE0021E86519
:103480002966324605F15401281D00F0EBBD00000D
:103490004C010020400100A038B5040086B000F0C7
:1034A000AF800020009000225648574D816841F0BF
:1034B00001018160816801F0010100910099009291
:1034C000036843F480030360016801F48001009104
:1034D00000990092036843F002030360016801F061
:1034E0000201009100990092036843F00403036015
:1034F000016801F00401009100990092036843F013
:1035000008030360016801F008010091009900922E
:10351000036843F010030360016801F0100100919B
:1035200000990092036843F020030360016801F0F2
:1035300020010091009900920221036843F04003AA
:1035400003600C22006800F04000009060230098A7
:1035500002910491059200210391019301A92B4846
:1035600000F0D4F90121019101A9294800F0CEF918
:103570004CF20370019001A9264800F0C7F94FF6FC
:103580008370019001A9244800F0C0F94FF63F0074
:10359000019001A9214800F0B9F948F233100190D7
:1035A00001A91F4800F0B2F9002080216860A960DD
:1035B0004FF400704FF48061E86029614FF480504F
:1035C0004FF480416861A96100204FF40031E86147
:1035D00029626862E862286303211248A9622860B0
:1035E0002563AC63284600F0F8FD284600F07EFD18
:1035F00000220F21382000F057FE382000F071FE25
:1036000007B030BD3038024098030020000402406B
:1036100000080240000C024000100240001402406A
:10362000001802401064024038B5040001D10120A6
:1036300032BD04F13805687820B900212970204690
:1036400000F00FFB0220687021680A68606822F4AD
:10365000403202430A6021684A6BA068D20840EAFF
:10366000C2024A6321680A6CE068920B40EA823227
:103670000A640021696001206870002032BDF8B53D
:1036800000F00DF801D10220F2BD00F001F80CE0CD
:10369000069801262E7002276F700090704704462E
:1036A00004F13805287801287047204600F0CDF84D
:1036B0002068016841F0010101600020F2BDF8B509
:1036C000054600200C46009005F138062968086878
:1036D000C20745D500F0A4FA0746286841688A0762
:1036E0003ED441680091009A12F0210F03D000F0FF
:1036F0004CF821211AE014F1010FEED000F090FAFD
:10370000C01B844222D3002CE7D11FE04168009106
:10371000009A12F0290F10D000990A0703D571689A
:1037200041F00401716000F030F82921816004202B
:103730007070002131700120F2BD14F1010F18D01A
:1037400000F06EFAC01B844200D394B9706840F058
:103750002000706003217170002030700320F2BDE2
:103760002868C169406A0143880606D500F058FA06
:10377000074628684168CA06C8D5296812208860AB
:103780000122727000203070F2BD00998A0603D5C4
:10379000716841F0020171600099CA0703D5716830
:1037A00041F001017160704770B500F049F801D136
:1037B000022070BD01231370022400EB0115547028
:1037C00005F118035C689D680A2C18BF092C44EAAF
:1037D000054504D1DC6804F07F44254302E0DC6841
:1037E00045EA04650468154E89B9616A0E4035439F
:1037F000656205681C68AC6159680A2918BF092907
:1038000016D1D968006821F07F41816210E0E1693A
:103810000E403543E56105681C682C6159680A292A
:1038200018BF092904D1D968006821F07F410162DD
:10383000012151700020107070BD0000F0FFFC00ED
:1038400000F138021378012B7047F0B50468059D2C
:10385000666C06F0404645EA034535436564E2631D
:103860004268B2F5403F32D101F07F4201F47F035C
:1038700001F47F45806801F0FF0143EA050610B9B5
:103880003243114321E0012808BF31431DD0CE0847
:10389000DF0C022804D1AD0AF90241EA451108E023
:1038A000032808D1ED0AB90241EA4511D20F41EAD5
:1038B000C231314309E01B0D2D0B1B0243EA0513F6
:1038C000120F43EA023343EA1111A163F0BDE16034
:1038D000F0BD30B4002513E050F8042BD30744BFEB
:1038E000A9F101039A18091F042942F8045BFAD2CE
:1038F00013468C0744BF15809B1CC90748BF1D7029
:1039000050F8041B0029E7D130BC70472DE9F84F6F
:103910000D464FF00008B5490F22012304462E68DA
:1039200003FA08F000EA0609814540F0CA804FEA30
:10393000480C032606FA0CF66FEA060E6E68012E96
:1039400018BF022E03D0112E18BF122E11D1A66857
:10395000EF680EEA060607FA0CF73E43A6606668B3
:1039600026EA00006E68C6F3001606FA08F6304331
:103970006060E068AE680EEA000006FA0CF63043BC
:10398000E0604FEA88006E68022E18BF122E12D136
:103990004FEAD80604EB860600F01C07D6F820A0F4
:1039A00002FA07FB2AEA0B0AD5F810B00BFA07F760
:1039B00047EA0A07376226680EEA06072E7906F0FC
:1039C000030606FA0CF63E4326606E68F60078D5CC
:1039D000002600964FEA980C0E68DFF814E246F4D1
:1039E00080460E6000F00C000E6806F480460096DB
:1039F000009E5EF82C7002FA00F627EA06067D4F5C
:103A0000BC4208BF00272CD07B4FBC4208BF012717
:103A100027D07A4FBC4208BF022722D0784FBC4241
:103A200008BF03271DD0774FBC4208BF042718D01A
:103A3000754FBC4208BF052713D0744FBC4208BF66
:103A400006270ED0724FBC4208BF072709D0714F1E
:103A5000BC4208BF082704D06F4FBC420CBF0927E7
:103A60000A2707FA00F030434EF82C006FEA090CE1
:103A70006A4806680CEA060E6E68F70348BF49EA12
:103A80000E0EC0F800E046680CEA060E6E68B7033A
:103A900048BF49EA0E0EC0F804E086680CEA060E3C
:103AA0006E68F70248BF49EA0E0EC0F808E0C66823
:103AB0000CEA060E6E68B60248BF49EA0E0EC0F860
:103AC0000CE008F10108B8F10F0F7FF628AFBDE850
:103AD000F18F2DE9F84F03460D4600244F48444925
:103AE00000950122009E02FA04F909EA06064E45F5
:103AF00072D14FEA940C4FEA840A51F82C503D4F92
:103B00000AF00C0E4FF00F0B0BFA0EF8BB4208EA4E
:103B1000050508BF00272CD0374FBB4208BF01273F
:103B200027D0364FBB4208BF022722D0344FBB42BA
:103B300008BF03271DD0334FBB4208BF042718D04E
:103B4000314FBB4208BF052713D0304FBB4208BFDF
:103B500006270ED02E4FBB4208BF072709D02D4F96
:103B6000BB4208BF082704D02B4FBB420CBF09271C
:103B70000A2707FA0EF7BD4212D10568F643354011
:103B80000560456835404560856835408560C56895
:103B90002E40C66051F82C5025EA080541F82C50FB
:103BA00003256600B540EE431D6835401D600AF0F0
:103BB0001C0AE50803EB85050BFA0AFA2F6A27EAC7
:103BC0000A072F62DD683540DD605D6825EA09057A
:103BD0005D609D6835409D60641C0F2C82D9BDE8F6
:103BE000F18F02B909048161704700004438024036
:103BF0000838014000000240000402400008024072
:103C0000000C024000100240001402400018024064
:103C1000001C02400020024000240240003C014001
:103C200001484068704700BFB001002081B000200B
:103C300000900022DFF89803416841F48041416020
:103C4000416801F48041009100990092036843F0BB
:103C500080530360006800F080500090009801B02D
:103C6000704781B00068DFF86C1388420CD10022E5
:103C7000DFF864030092016841F40001016000680C
:103C800000F400000090009801B0704738B586B08D
:103C900000F026F92468DFF84453AC423FD10020FD
:103CA000DFF834430090216841F0040121600021D5
:103CB000206800F004000090009800914FF400711B
:103CC000226842F0010222601222206800F0010006
:103CD00000900098DFF808030191029201210391FE
:103CE0000322042100F0F7F812210291012203922D
:103CF0004FF480700321019004910422059201A9E0
:103D0000DFF8E002FFF702FE00200090216941F495
:103D100000012161206900F400000090009807B0C4
:103D200030BD38B586B004466846142100F004FB67
:103D30002468AD4DAC4240F0868000200590002202
:103D4000A548AA4C416941F080614161416901F097
:103D5000806100F07EF843F020030360016801F009
:103D6000200100F076F843F001030360016801F0E0
:103D7000010100F06EF843F002030360016801F0F6
:103D8000020100F066F843F040030360016801F0AF
:103D9000400100F05EF843F004030360016801F0A5
:103DA00004010591059905924FF48061036843F081
:103DB000080303600222006800F0080000F0F2F837
:103DC00003910E2104916946FFF7A0FD00F03DF834
:103DD00041F6580000F04BF88248FFF797FD00F0DD
:103DE00034F8032000F03AF800F02FF84FF4706038
:103DF00000F03DF82046FFF789FD00F026F84FF46B
:103E00000C6000F034F87A4C2046FFF77FFD4FF449
:103E100098600221002200900191029203920E22EA
:103E2000049269466E48FFF771FD00F00EF84820D5
:103E300000F01DF86F48FFF769FD00F006F84FF439
:103E4000A05000F00BF807B030BD002202920392A0
:103E5000704705910599059203687047022100900B
:103E600001910922049269462046FFF74FBD0221C5
:103E7000009001910E2204926946704738B586B0D1
:103E800000F02EF824685E4DAC4222D10020009054
:103E900000225148416941F480114161416901F4B6
:103EA00080110091009900924FF46071036843F013
:103EB000200303600222006800F0200000900098B8
:103EC0004E4801910292002103910322052100F046
:103ED00002F807B030BD0591049201A9FFF716BDA5
:103EE000044601A8142100F027BA0068444988421A
:103EF00009D14148026822F4801202604FF46071D7
:103F00003E48FFF7E6BD704780B586B0684614218D
:103F100000F012FA3B490868002841D101220A60EA
:103F2000059002223848016841F0010101604FF616
:103F30003F01006800F0010000F034F803220C217A
:103F4000049103926946FFF7E1FC00F033F8012089
:103F500000F035F82248FFF7D9FC00F02BF848F2C2
:103F6000371000F02CF82248FFF7D0FC00F022F8C0
:103F70004FF6837000F023F82448FFF7C7FC00F0E9
:103F800019F84CF2037000F01AF81A48FFF7BEFC5B
:103F900000F010F8602000F012F81448FFF7B6FCAB
:103FA00007B000BD059005981448009101920021CA
:103FB0000291704702210191002202927047032171
:103FC000009003910C220492694670479CE7000020
:103FD0004038024000B0024030380240005C0040EF
:103FE0000008024000000240006801400004024056
:103FF00000180240000C0240443802400014024005
:10400000005001408804002038380240001002406F
:104010004AB1000011F8013B521E00F8013B1CBFE1
:1040200011F8013BF8E7704770B504000D4601D167
:10403000012070BD04F12C06307820B90021717088
:104040002046FFF7C3FF02203070211D206800F0DA
:1040500077F962682068294600F0ADF901203070D8
:10406000002070BD38B504460D4694F82C00022897
:104070000DD000F018F800F0DFF92868022807BF1B
:10408000052184F82C10012084F82C00002032BD7A
:1040900010B500F012F805D000F005F800F0F1F9C5
:1040A00000F006F810BD022084F82C00206870474C
:1040B000012084F82C0000207047044694F82C005E
:1040C0000228704738B50446FFF7AAFD14F1010F26
:1040D000054602D0044801786418FFF7A1FD401B93
:1040E000A042FAD331BD00BFB001002070B5044634
:1040F000FFF796FD06460CB9012070BD04F13405AA
:10410000002028700221697020680268520852005D
:10411000026022681068C10722D5FFF781FD801B6D
:104120000628F6D32020286203216970032070BD81
:10413000B0F5005F09D1032E42D8DFE806F00C0A83
:104140000C02B1F1C07F3BD105E0022E03D9F61E6F
:1041500036D1C80134D5402129620120687070BD74
:104160001368DFF8DC0061680340A0680B43E16876
:10417000034320690B4361690343A0690B43E16971
:104180000343206A0B43616A0343042903D1E16AB4
:10419000206B01430B43136023685A69606AD2089D
:1041A000042840EAC2020BD1A66AE16A324339B15F
:1041B000A0690028BCD1002E18BF022EC9D0C0D3E0
:1041C0005A61204600F03EF8A96A3F228A40826088
:1041D000002028620121697070BD38B508B901203E
:1041E00032BD00F134046178022901D1022032BDD0
:1041F00001680A68520852000A60002103681960C9
:104200000023056869600268916000220168CB6044
:10421000212103681A610268516100F013F800213E
:10422000A1602161A1610022A16AE2603F23626175
:10423000E2618B408360002020626070207032BD9C
:104240003F8010F030B5016808A401F0FF02103A79
:104250001823B2FBF3F2890A8902A55CC565042A1A
:1042600028BF091D8165084630BD000000061016F4
:10427000000610160901020002D429488154704733
:10428000284B02F00F021A4402F8041C7047264B18
:1042900019684FF6FF020002114000F4E060084385
:1042A000224908431860704738B51F4B1C68C4F397
:1042B0000223C3F10704052C28BF04241D1D072D6C
:1042C00034BF0023DB1E012505FA04F4641E2140DF
:1042D000994005FA03F35B1E1A401143BDE83440D0
:1042E000C8E7010007D4012200F01F01104B8A40EB
:1042F000400943F82020704710B5401EB0F1807F80
:1043000001D3012010BD0B4C60600F214FF0FF3036
:10431000FFF7B0FF0021A16007202060002010BD42
:1043200000E400E018ED00E00CED00E00000FA050C
:1043300000E100E010E000E0002200F0A9B8000079
:104340002DE9F0434A6A0B6ACC698D694E69D1F850
:104350001090D1F80CC0D1F808E0D1F804800968B9
:10436000012911D048EA02024EEA02024CEA020296
:1043700049EA0202324307682A432243FF0B1A43E9
:1043800042EAC732026013E001684768FF0B48EA5F
:10439000C7374EEA070721F4F8414CEA07070C43F8
:1043A00049EA070723433E431A4335430260456009
:1043B0000020BDE8F083F0B58B694C690D69CE68CB
:1043C0008F685B1E641E6D1E761E7F1ED1F804C0B2
:1043D0000968491E012A8268ACF1010C10D041EA3B
:1043E000036343EA0C1343EA072343EA063343EA31
:1043F000054302F0704243EA04531343836015E01F
:10440000D0F80CE00EF0704E41EA0E0141EA0C11BA
:1044100041EA072707490A4042EA063647EA0545C6
:1044200046EA045445EA03638460C3600020F0BD9B
:1044300000000000FF0F0FFF7CB50546002014466A
:1044400000900A6848688B6802435B1EC86842EAAD
:10445000431242EA4022009200982861FFF7E0FBF5
:104460000646A86981060AD514F1010FF9D024B1D6
:10447000FFF7D6FB801B8442F3D2032076BD0020D9
:1044800076BD426942EA4102426100207047000065
:1044900000B500BF130096469446103928BFA0E827
:1044A0000C50FAD85FEA417C28BF0CC048BF40F8E6
:1044B000042BC90728BF20F8022B48BF00F8012BA6
:1044C00000BD000038B5040001D1012032BD00203C
:1044D000A06204F15005687820B9002129702046B7
:1044E000FFF7CCFC0220687000F071FA6268A168E6
:1044F000E06823680A432169024360690A43A169AD
:10450000024301F40071E0690A43216A0243A06A90
:104510000A4302431A60A169606A2268090C01F02B
:104520000401014351602068C16921F40061C16147
:10453000002068600121697032BD10B508B9012002
:1045400010BD00F150040221617001680A6822F078
:1045500040020A60FFF7C9FC0020606060702070B4
:1045600010BD2DE9F84300F00EFA984608BF02206E
:1045700000F0888001203870FFF752FB797801291C
:1045800018BF02267CD1002C18BFB9F1000F76D0DD
:10459000032179707E602C63A5F83490A5F83690DD
:1045A000AE63AE87EE876E642E64AB68B3F5004FE2
:1045B00004D129680B6843F480430B6029680B68B9
:1045C0005C0603D40B6843F040030B604446E96883
:1045D000B1F5006F696821D1002918BFB9F1010F49
:1045E00000F0E6F9804604E0296B0A88C26000F01A
:1045F000BCF9E88E002833D0286881688A07F3D494
:10460000FFF70EFBA0EB0800A04204D314F1010F4A
:10461000EFD0032634E0002CEBD1FAE7002918BFD5
:10462000B9F1010F00F0B8F9804606E0296B0A786D
:104630000273286B411C00F09AF9E88E80B128685B
:1046400081688A07F2D4FFF7EBFAA0EB0800A042DA
:1046500003D314F1010FF0D0DBE7002CEDD1D8E744
:1046600042462146284600F02BFA08B12020786007
:10467000A86810B900F080F9009A786800B10126A6
:1046800000F09AF8BDE8F2832DE9F84300260446CD
:104690000D466068B0F5827F04BFA068002891468F
:1046A000984604F1500709D104267E70CDF80080A9
:1046B0004B462A46204600F085F87BE038780128F2
:1046C00008BF022076D001203870FFF7A9FA797868
:1046D000012918BF02266BD1002D18BFB9F1000FB8
:1046E00065D0042179707E60A563A4F83C90A4F89D
:1046F0003E902663A686E68626646664A268B2F5C6
:10470000004F04D121680A6822F480420A602168BF
:104710000A68530603D40A6842F040020A6005465C
:10472000E168002926D108E0007BA16B0870A06B2E
:10473000421CA263E08F411EE187E08F68B32068CE
:104740008168CA07F0D4FFF76BFA401B404504D3D9
:1047500018F1010FF1D003262AE0B8F1000FECD1D7
:10476000F9E7C068A16B0880A06B821CA263E08F90
:10477000411EE187E08F80B120688168CA07F0D4CC
:10478000FFF74EFA401B404503D318F1010FF1D05B
:10479000E1E7B8F1000FEDD1DDE72A4641462046BA
:1047A00000F066F908B120207860786800B1012631
:1047B00000F002F8BDE8F283012078700021397022
:1047C000304670472DE9FC4700F0DDF84FF0010856
:1047D00008BF022000F0BC809A4687F80080FFF7EF
:1047E0001FFA7B78012B09D06968B1F5827F02BF7F
:1047F000A9680029042B01D00226A4E0002C1CBFCC
:10480000B9F1000FBAF1000F01D101269BE07B78CE
:10481000042B1CBF052179707E60C5F83890A5F87F
:104820003EA0A5F83CA02C63A5F836A0A5F834A0BE
:104830002E646E6429680C68630603D40C6844F027
:1048400040040C60E9680A9CB1F5006F696838D1D2
:10485000002918BFBAF1010F00F0AAF88146E88ECE
:10486000002804BFE88F002874D029688868820770
:104870000BD5E88E002818BFB8F1000F05D0286BC3
:104880000288CA60B04600F070F829688868C207DC
:104890000CD5E88F50B1C868A96B08804FF00108AB
:1048A000A86B821CAA63E88F411EE987FFF7B8F95D
:1048B000A0EB0900A042D2D314F1010FCFD0032600
:1048C00041E0002918BFBAF1010F00F065F88146F8
:1048D000E88E002804BFE88F00283BD0296888684C
:1048E00082070DD5E88E002818BFB8F1000F07D059
:1048F000286B02780A73B046286B411C00F037F829
:1049000029688868C2070CD5E88F50B1C868A96BC0
:1049100008704FF00108A86B421CAA63E88F411E83
:10492000E987FFF77DF9A0EB0900A04203D314F15A
:10493000010FCDD0C3E7002CCAD1C0E7A86810B9D9
:1049400000F01AF800980121797000203870304684
:10495000BDE8F68721464A46284600F0B1F800280F
:10496000ECD0202101267960EDE7286B811C2963BA
:10497000E88E411EE986704700962968CA68009251
:10498000896800917047054605F150070026387880
:1049900001280C469146704709D1296B2B680A788B
:1049A0001A73296B4A1C2A63E98E4A1EEA867047ED
:1049B00009D1296B2B680A88DA60296B8A1C2A6363
:1049C000E98E4A1EEA86704790F8510070472068C9
:1049D000016821F04001016070472DE9F041069F18
:1049E00005460E4690461C46286881683140B14213
:1049F0000CBF01200020404531D014F1010FF3D04D
:104A0000FFF70EF9C01BA04201D2002CECD12868A0
:104A1000416821F0E00141606868B0F5827F08D10B
:104A2000A868B0F5004F18BFB0F5806F01D100F055
:104A300019F8A86AB0F5005F09D12868016821F467
:104A4000005101602868026842F40052026005F1DA
:104A500050000121417000220270032000E000207C
:104A6000BDE8F0812868016821F0400101607047CD
:104A70001CB504460B466068B0F5827F08D1A0687B
:104A8000B0F5004F18BFB0F5806F05D1FFF79FFF5D
:104A90006068B0F5827F07D1A0680092B0F5806FA2
:104AA00003D00022802102E0009200220121204652
:104AB000FFF793FF10B100F02BF816BD002016BDD4
:104AC0007CB504461548164E0B4601681825B1FB07
:104AD000F5F5B5FBF6F64FF47A704643009661683B
:104AE000B1F5827F09D10092802100222046FFF794
:104AF00074FF58B100F00CF876BD009830B1009802
:104B0000401E0090216888680106F6D4002076BD1A
:104B1000606D40F02000606503207047BC010020FC
:104B200040420F002DE9F84187B000F087FAFDF709
:104B300089FE00F01CF900F015F900F01DF900F0F5
:104B4000DFF9DFF89844DFF89804206000210222A2
:104B50006160A260E160A162E2622163616320465C
:104B6000FEF762FD01212046FEF71EFE68461C216D
:104B7000FFF7E2FB04F19805DFF86804DFF86884CA
:104B80002860012108206960E86010214020296127
:104B90006861802110200022A9610090019002909C
:104BA0000390049005900690AA60EA612A626A6206
:104BB000AA6269462846FFF737FADFF83004DFF8C3
:104BC00030146863A9630020E86300214FF480403B
:104BD00029646864A964E9642965696504F1CC0500
:104BE000284600F045FA0021284600F0E9FA0021A5
:104BF000284600F0FDFA00F01DF9DFF8F803206404
:104C00004FF4827161640020A06400212065E1649A
:104C10006165E16521666166A1664FF40070A0657B
:104C20000A21E16604F14000FFF74CFC04F59074A2
:104C3000B2A5FDF707FE00F09AF800F093F8012006
:104C4000FDF78CFE4FF07F40FDF794FE4FF07F4064
:104C5000FDF7A0FE4FF0FF30FDF784FE32229621D3
:104C60009620FDF778FF3223322296219620FDF719
:104C700059FF4FF47A70FFF725FA0120FDF78AFEFD
:104C8000FDF724FE20600027FDF725FE606040F25E
:104C90002B13C72200210020FDF744FF384600F007
:104CA000CDFAD54AD54B00F0DBFA0022D44B00F008
:104CB000A9FB41EC100B00F0CCFC51EC100B0022D6
:104CC000D04B00F0CDFA0022CF4B00F0C9FC00F031
:104CD00085FD00B26430A060E7606FF47F42A36896
:104CE000B9B298B2FDF7C7FF7F1CB7F5967FD5DB49
:104CF00040F6B8373846FFF7E5F90120FDF74AFEE0
:104D00004046FDF73FFE0026B8F80400704306F168
:104D100041020A30D2B2142180B2FDF753FE761C54
:104D20000A2EF1DB03232A4628213220FDF762FEFA
:104D3000B8F80410283101232A4689B23220FDF741
:104D400059FEB8F804004000283081B202232A46F8
:104D50003220FDF74FFE3846FFF7B4F90120FDF78A
:104D600019FE66E74FF050410120FDF7B9BD4FF045
:104D700050410020FDF7B4BD10B59EB0A34C12A861
:104D800021463022FFF744F901A81421FFF7D4FA95
:104D900006A804F130013022FFF73AF90020009014
:104DA0004FF4A0239A48016841F08051016000212E
:104DB000006800F0805000900098964800910268CA
:104DC00042F4404202600122006800F4404000903A
:104DD00012A80099129202214FF4800218911992A0
:104DE00008214FF4A8721A911B92022104221393F6
:104DF0001C911D9200F010FD0221029100220392ED
:104E00000F204FF4A051019004914FF4805205926D
:104E1000052101A800F092FE08214FF4D8720691F6
:104E20000A92022100220C910F9206A8FEF768F860
:104E30001EB010BD38B59AB0774C0DA8214634226B
:104E4000FFF7E6F8684604F134013422FFF7E0F892
:104E5000724C734820600021072060616160E1604E
:104E600021610E200321E061A1614FF4A7700521AB
:104E7000606221624FF4AA70F521E062A16204F140
:104E800034000022F721A260216302808270204654
:104E9000FEF750F900200D900E9010901290052111
:104EA000159119A80021002217918DF86410417006
:104EB0000F92119213924FF480651692189282709D
:104EC00014950DA92046FEF7A8F90CA8002105228B
:104ED000009101910291039104910591069108922C
:104EE00009910A910B91ADF830108170079501225C
:104EF00069462046FEF791F91BB030BD4B50550076
:104F000010B586B001A81421FFF716FA0024454811
:104F100000940168444C41F004010160026802F011
:104F200004020092002200990092036843F02003DB
:104F30000360016801F0200100F07AF843F080037B
:104F40000360016801F0800100F072F843F0010392
:104F50000360016801F0010100F06AF843F0020308
:104F60000360016801F0020100F062F843F04003C1
:104F70000360016801F0400100F05AF843F01003AB
:104F80000360016801F010010091009900924FF454
:104F9000C041036843F008030360006800F00800A4
:104FA000009000982046FEF71CFE0420002101908E
:104FB0000291039101A91D48FEF7A8FC4FF4C041DE
:104FC000019101220292002103910322049201A97E
:104FD0002046FEF79BFC06B010BD0000C00100207B
:104FE00000B00240400100A044010020005C0040ED
:104FF000A086010000500140182D4454FB211940A7
:1050000000C07240000059400000E03F9068000876
:10501000403802400070004028680008F00200207C
:10502000006801403038024000180240000402408D
:1050300000910099009203687047000080B50B480A
:10504000016841F400710160026842F4806202600C
:10505000016841F4807101600320FFF718F9002016
:1050600000F03CFEFEF7E2FD002002BD003C0240E5
:10507000F8B5040025D004F13C05697821B9002079
:1050800028702046FEF702FE24216970206802681D
:105090005208520002602068016841F4004101603A
:1050A0002068026822F40042026000F0CDFD014653
:1050B0006068DFF8F420904205D2DFF8F0309942C2
:1050C00005D20120F2BDDFF8E8008142F9D3206863
:1050D000DFF8E0304668B1FBF3F3B60943EA861621
:1050E00046602668376A6068904206D34FF496702F
:1050F00043434FF47A70B3FBF0F35B1CBF0943EA00
:1051000087133362491E2368DE696768974206D2B7
:105110007F0000F043F8042913D2042111E0A068B5
:1051200020B907EB470700F039F805E0192047439D
:1051300000F034F841F4804108050CBF012141F42E
:105140000041DFF8740006400E43DE6122681368F8
:10515000E169206A23F0C0030B4303431360226814
:10516000DFF85800936821690340E0680B4303436C
:1051700093602168CA68A3696069120A034343EA1D
:105180000222CA602068016841F00101016000202C
:105190006860202169702063A870F2BDB1FBF7F14F
:1051A000491CC1F30B017047A186010080841E00D9
:1051B00000093D0040420F000030FFFF007CFFFF70
:1051C00010B590F83D20202A10D100F028F8026890
:1051D000536A23F0100353620268536A1943516201
:1051E00001680A6842F001020A6021E0022010BD55
:1051F00010B590F83D20202A0FD100F010F84FF69E
:10520000F07203685C6A1440214389B259620168F4
:105210000B6843F001030B600AE0022010BD242359
:1052200080F83D30026814686408640014607047B8
:10523000202180F83D10002010BD0000C11768B18A
:105240004840401AB0FA80F29040D21CC907C2F51B
:10525000846241EA025202EBD0214005704700000F
:10526000B0B581EA030C0CF0004C40F2FF7515EA72
:1052700011541DBF15EA1357AC42AF4239E0E4198F
:1052800023EA455343F48013C90241F0004141EA47
:10529000505EC7021100A7FB020200284FF0000079
:1052A000EEFB01204FF00001E3FB072118BF42F0A5
:1052B0000102401800214941E3FB0E01A4F580647E
:1052C0000F0302D252004041494154F101046CDD08
:1052D000470872F1004250F1000051EB0451A1F572
:1052E00080115CBF41EA0C01B0BD4CEA05510020C1
:1052F000B0BD05EA1357AC4214BFAF4241E050EADB
:10530000410E1CBF52EA430E02E061460020B0BDD0
:1053100024423C441BD15FEA070EF6D0090302BFCA
:1053200001460020AEF1140EB1FA81F7AEEB07048E
:1053300001FA07FE0C37C7F1200100FA07F7C84051
:105340004EEA000E23EA455343F48013A2E733F0FC
:105350000043B3FA83F704BFB2FA82FE77440B3FEF
:10536000E41BB7F1200E2FBF02FA0EF3BB40C7F1CA
:10537000200E22FA0EFE38BF43EA0E03BA40641C28
:1053800082E750EA410E14BF52EA430E6FF000016B
:105390004FF4001717EB430F8ABF194617EB410F65
:1053A000B5E74CEA05510020B0BDD4F10104B4F1D9
:1053B00020070FDAC4F12007520828BF42F001028B
:1053C00010FA07F501FA07F7E1BF2A43E040384336
:1053D000E1400FE0352C98DCC7F1200452EA40028E
:1053E00020FA07F218BF42F0010231FA07F0A1409B
:1053F0000A43002172F1004250F1000051EB0C0110
:10540000B0BD0000F0B540F2FF7581EA030C0CF06E
:10541000004C15EA11541DBF15EA1357AC42AF42B8
:10542000E5E0BC41C1F31301C3F31303801A9941B2
:1054300043F4801304D2641E40004941801859414E
:10544000C90241EA5051B1FBF3F603FB1611A2FB6E
:105450000675D7EBC020A94102D2761E80185941AB
:10546000C90241EA5051B1FBF3FE03FB1E11A2FB3E
:105470000E75D7EBC020A94103D2AEF1010E801802
:105480005941890241EA9051760546EA8E2EB1FBD8
:10549000F3F603FB1611A2FB0675D7EB8020A9419A
:1054A00002D2761E80185941C90241EA50514EEA93
:1054B000060EB1FBF3F603FB1611A2FB0675D7EB44
:1054C000C020A94102D2761E80185941C90241EA82
:1054D0005051B1FBF3F703FB1711A2FB0735D3EBD8
:1054E000C020A94167F100070CBF004247F0010747
:1054F00066F3D5274FEA1E31B80814F5806412DD33
:10550000BD0775F1004250EB0E5051EB045111F5FF
:10551000801F5CBF41EA0C01F0BD4CF07F6141F09F
:10552000E0410020F0BDBD076D0840EA0E5041F497
:105530008011D4F10104B4F120060ADAC4F1200686
:105540000200E04001FA06F3E1401843B24015437F
:105550000EE0342C13DCC6F1200445EA40056D084A
:1055600020FA06F2154321FA06F0A1400D4300216E
:1055700075F1004250F1000051EB0C01F0BD00202C
:105580005FEA0C01F0BDCFB992185B41B3FA83F723
:1055900004BFB2FA82F6BF190B3FB7F120062FBF46
:1055A00002FA06F3BB40C7F1200622FA06F638BF1E
:1055B0003343BA401CB1E419641E33E77F4231F033
:1055C0000041B1FA81F404BFB0FA80F6A4190B3C93
:1055D000B4F120062FBF00FA06F1A140C4F1200665
:1055E00020FA06F638BF3143A0403C1B1AE7AC4214
:1055F0001ABF05EA1357AF4212E050EA41061CBF3A
:1056000052EA4306BFE750EA4107304661461CBFF5
:1056100041EA0551F0BD52EA430C08BFC143F0BD59
:1056200000204FF4001616EB410F98BF16EB430F06
:1056300008BF16EB410F24BFC14305E016EB430F33
:105640000CBF61464CEA0551F0BD000041EC100B67
:1056500001BD80B551EC100B00F07EFDF6E70000B7
:1056600070B44FF0004591EA030F40F17F856B4025
:10567000841A71EB030604D26E40001BB14112196B
:1056800073414FF4001C1CEB410F34BF7CEB43060D
:1056900083E00C0DA4EB1356362E00F37C80012E14
:1056A00045EAC32341DC43EA525312BFD2029202BD
:1056B0005B08240545EAC12141EA5051D2EBC020E4
:1056C000994125D407D1B0FA80F610FA06F162D0DC
:1056D0000020203608E0B1FA81F6B140C6F1200280
:1056E00020FA02F21143B0404FEAF474B4EB46548E
:1056F00034F001064FEA74040AD8D6F50016760D88
:1057000004F00044F04061FA06F25040F140484095
:10571000C00A40EA415021F0004128BF5FEA50052D
:1057200050F1000044EBD12135E0DB0A45EAC1210C
:10573000C90AB6F120050EDD42EA0242120CC5F19B
:10574000200603FA06F6EB4042EA06056D42984150
:1057500061F100010DE062FA06F5F240554063FA8E
:1057600006FC82EA0C02F3405A406D42904161EB24
:10577000030111F4801F05D1641E620502D06D0083
:105780004041494121F48011430875F1004350F133
:10579000000041EB045170BC70471CEB410F15D267
:1057A00023F0004352EA43060BD04FEA4C0CBCEB0B
:1057B000410F04D80C0D661E342EB7DDEBE7801ABE
:1057C000994150EA410608BF0021E4E708BF1CEBFD
:1057D000430F28BF6FF00001DDE70000C1F30A535B
:1057E00040F2FE329B1A14DDD3F120034FEAE1723E
:1057F00008DDC90241EA505141F00040D84080180C
:105800005040704703F2E13010B1D24382F00040C3
:1058100070470020704700002DE9F843040016D0BF
:105820002078DFF80863C10713D5B06800F00C00DA
:10583000042807D0B06800F00C0008283ED170683A
:1058400041023BD53068810303D56068002800F031
:10585000FF802078B64F810719D5B06810F00C0F83
:1058600007D0B06800F00C0008285CD170684102D5
:1058700059D43068810703D5E068012840F0E880FA
:105880003168206921F0F80141EAC00131602178D6
:1058900008076CD56069A749002862D001220A6018
:1058A000FEF7BEF90546706F810700F1D380FEF761
:1058B000B7F9401B0228F6D9032034E16068B0F53F
:1058C000803F04D1306840F48030306011E0B0F5A2
:1058D000A02F306806D140F480203060316841F458
:1058E000803105E020F480303060316821F480217F
:1058F0003160606858B1FEF793F90546306881035E
:10590000A7D4FEF78DF9401B6528F7D3D4E7FEF73F
:1059100087F90546306881039BD5FEF781F9401B66
:105920006528F7D3C8E7E06870B101213960FEF758
:1059300077F905463068810700F1B880FEF770F905
:10594000401B0228F6D9B7E73860FEF769F905462B
:10595000316888079BD5FEF763F9401B0228F7D909
:10596000AAE70860FEF75CF90546706F810771D5FC
:10597000FEF756F9401B0228F7D99DE70528306F3E
:1059800006D140F004003067306F40F0010005E0C0
:10599000400840003067306F20F00400306741F26B
:1059A0008938A06868B1FEF73BF98146306F8107FE
:1059B00000F18980FEF734F9A0EB09004045F5D3EA
:1059C0007AE7FEF72DF98146306F81077BD5FEF728
:1059D00027F9A0EB09004045F6D36DE7FEF720F963
:1059E000401B022840F2828066E7FEF719F9001B8F
:1059F000022840F293805FE700203866FEF710F936
:105A000004463068810140F18D80FEF709F9001BE2
:105A10000228F6D950E701281AD07068E26900F42C
:105A20008001914202BF00F03F01226A91420FD1F2
:105A300047F6C071626A0140914202BF00F44031F2
:105A4000A26A914202BF00F07060E16A884269D0A8
:105A5000012068E0207841073AD5306C0025C1006C
:105A60000AD400950125316C41F080513164306CCD
:105A700000F0805000900098DFF8BC80D8F800005B
:105A8000C1051BD4D8F8000040F48070C8F80000AD
:105A9000FEF7C6F88146D8F80000C1050ED4FEF71F
:105AA000BFF8A0EB09000228F5D905E730682169A5
:105AB00020F0F80040EAC1003060E8E6A068012864
:105AC0007FF45CAF60E71DB1306C20F08050306433
:105AD000A06938B3B16801F00C0108299BD00228F5
