:020000040800F2
:100000005004002009120008911100089311000803
:1000100095110008971100089911000800000000D0
:100020000000000000000000000000009B1100081C
:100030009D110008000000009F110008A111000898
:1000400025120008291200082D120008311200089C
:1000500035120008391200083D120008411200084C
:1000600045120008491200084D12000851120008FC
:1000700055120008591200085D12000861120008AC
:1000800065120008691200086D120008711200085C
:1000900075120008791200087D120008811200080C
:1000A00085120008891200088D12000891120008BC
:1000B00095120008A5110008991200089D12000869
:1000C000A1120008A5120008A9120008AD1200082C
:1000D000B1120008B5120008B9120008BD120008DC
:1000E000C1120008C5120008C9120008CD1200088C
:1000F000D1120008D5120008D9120008DD1200083C
:10010000E1120008E5120008E9120008ED120008EB
:10011000F1120008F5120008F9120008FD1200089B
:100120000113000805130008091300080D13000847
:100130001113000815130008191300081D130008F7
:100140002113000825130008291300082D130008A7
:100150003113000835130008391300083D13000857
:100160004113000845130008491300084D13000807
:10017000511300085513000859130008000000002F
:100180005D13000861130008651300086913000877
:100190006D13000871130008751300087913000827
:1001A0007D130008811300088513000838B504008A
:1001B00001D1012032BD00F014F818B900F00DF89B
:1001C00000F0C8F9FFE702206870211D206800F0E8
:1001D0000DF901206870002032BD002129702046F1
:1001E000704704F13C056878704710B504462068F4
:1001F00001698A0715D5C1688A0712D56FF0020117
:10020000016101222277806910F0030F204602D09D
:1002100000F0C0F903E000F0BEF900F087F800201C
:100220002077206801694A0715D5C1684A0712D5A9
:100230006FF00401016102222277806910F4407F8F
:10024000204602D000F0A6F903E000F0A4F900F087
:100250006DF800202077206801690A0715D5C1686C
:100260000A0712D56FF00801016104222277C069E4
:1002700010F0030F204602D000F08CF903E000F0EC
:100280008AF900F053F80020207720680169CA0637
:1002900015D5C168CA0612D56FF010010161082298
:1002A0002277C06910F4407F204602D000F072F936
:1002B00003E000F070F900F039F8002020772068A2
:1002C0000169CA0708D5C168CA0705D56FF00101E1
:1002D0000161204600F060F9206801690A0608D52E
:1002E000C1680A0605D56FF080010161204600F063
:1002F00054F9206801694A0608D5C1684A0605D53F
:100300006FF040010161204600F048F92068016962
:100310008A060AD5C1688A0607D56FF020010161F7
:100320002046BDE8104000F03AB910BD204600F06C
:1003300037B938B500F04EF801D1022032BD0120A6
:10034000207002226270DFF83C012A689368034043
:1003500093600868020018BF10282DD0202818BF0D
:10036000302829D0402823D0502816D0602818D013
:10037000702803D0B0F5005F07D021E000F025F829
:100380002868816841F0770105E000F01EF82868D0
:10039000816841F48041816012E000F012F8502140
:1003A0000BE0CA684968286800F093F8602104E00F
:1003B00000F007F8402100E00146286800F09BF8B3
:1003C0000EE0CA684968286874E0CB684A688968A2
:1003D000286898E0054605F13C042078012870471C
:1003E0000120607000212170002032BDF0B5264C44
:1003F0000568264B264E274FDFF89CC0A04218BF49
:10040000B0F1804F07D0604518BFB84203D0B0426A
:1004100018BF98420DD14A6825F070051543A042D7
:1004200018BFB0F1804F17D060451CBFB842B04232
:1004300012D098421CBF194A90420DD0184EB042BB
:100440001CBF184A904207D0174EB0421FBF174A30
:100450009042174EB04203D1CA6825F44075154347
:100460004A6925F0800515430560A0428D68C56284
:100470000A68826212BF98420969016301224261DF
:10048000F0BD00008800FFFF0000014000040140B3
:10049000000C004000080040000400400040014003
:1004A000004401400048014000180040001C00408A
:1004B0000020004010B5036A046A64086400046206
:1004C00023F00A03846924F0F00444EA02148461EE
:1004D00023E010B5036A23F0100303628369046A02
:1004E00023F4704343EA023324F0A004836144EA16
:1004F0000114046210BD826822F07002114341F0C1
:1005000007018160704710B5846824F47F4421435B
:10051000114341EA0321816010BD1943016210BDFE
:1005200081B00020009000221848416841F48041C9
:100530004160416801F48041009100990092036894
:1005400043F080530360006800F0805000900098F2
:1005500001B0704700680E49884200D0704780B5EE
:1005600000220A480092016841F002010160002166
:10057000006800F00200009000981D2000F02CF8A8
:10058000BDE802401D2000F044B8000040380240A1
:1005900000040040704770477047704770477047CD
:1005A000704700000901020002D4294881547047B5
:1005B000284B02F00F021A4402F8041C7047264B25
:1005C00019684FF6FF020002114000F4E060084392
:1005D000224908431860704738B51F4B1C68C4F3A4
:1005E0000223C3F10704052C28BF04241D1D072D79
:1005F00034BF0023DB1E012505FA04F4641E2140EC
:10060000994005FA03F35B1E1A401143BDE83440DC
:10061000C8E7010007D4012200F01F01104B8A40F7
:10062000400943F82020704710B5401EB0F1807F8C
:1006300001D3012010BD0B4C60600F214FF0FF3043
:10064000FFF7B0FF0021A16007202060002010BD4F
:1006500000E400E018ED00E00CED00E00000FA0519
:1006600000E100E010E000E02DE9F843040016D0BE
:100670002078DFF80863C10713D5B06800F00C00DC
:10068000042807D0B06800F00C0008283ED170683C
:1006900041023BD53068810303D56068002800F033
:1006A000FF802078B64F810719D5B06810F00C0F85
:1006B00007D0B06800F00C0008285CD170684102D7
:1006C00059D43068810703D5E068012840F0E880FC
:1006D0003168206921F0F80141EAC00131602178D8
:1006E00008076CD56069A749002862D001220A601A
:1006F00000F04CF90546706F810700F1D38000F0DF
:1007000045F9401B0228F6D9032034E16068B0F5B2
:10071000803F04D1306840F48030306011E0B0F5A3
:10072000A02F306806D140F480203060316841F459
:10073000803105E020F480303060316821F4802180
:100740003160606858B100F021F9054630688103D6
:10075000A7D400F01BF9401B6528F7D3D4E700F0BD
:1007600015F90546306881039BD500F00FF9401B51
:100770006528F7D3C8E7E06870B10121396000F05F
:1007800005F905463068810700F1B88000F0FEF8F1
:10079000401B0228F6D9B7E7386000F0F7F80546A5
:1007A000316888079BD500F0F1F8401B0228F7D983
:1007B000AAE7086000F0EAF80546706F810771D576
:1007C00000F0E4F8401B0228F7D99DE70528306FB8
:1007D00006D140F004003067306F40F0010005E0C2
:1007E000400840003067306F20F00400306741F26D
:1007F0008938A06868B100F0C9F88146306F810778
:1008000000F1898000F0C2F8A0EB09004045F5D363
:100810007AE700F0BBF88146306F81077BD500F0A6
:10082000B5F8A0EB09004045F6D36DE700F0AEF84F
:10083000401B022840F2828066E700F0A7F8001B08
:10084000022840F293805FE70020386600F09EF8AF
:1008500004463068810140F18D8000F097F8001B5C
:100860000228F6D950E701281AD07068E26900F42E
:100870008001914202BF00F03F01226A91420FD1F4
:1008800047F6C071626A0140914202BF00F44031F4
:10089000A26A914202BF00F07060E16A884269D0AA
:1008A000012068E0207841073AD5306C0025C1006E
:1008B0000AD400950125316C41F080513164306CCF
:1008C00000F0805000900098DFF8BC80D8F800005D
:1008D000C1051BD4D8F8000040F48070C8F80000AF
:1008E00000F054F88146D8F80000C1050ED400F09D
:1008F0004DF8A0EB09000228F5D905E73068216919
:1009000020F0F80040EAC1003060E8E6A068012865
:100910007FF45CAF60E71DB1306C20F08050306434
:10092000A06938B3B16801F00C0108299BD00228F6
:100930008AD10020386600F029F805463068810128
:100940003FF574AFE269206A616A0243A06A400819
:1009500042EA8112401E42EA0042E06A42EA006234
:1009600072600121396600F011F804463068810197
:100970007FF563AF0020BDE8F28300BF003802407E
:1009800000004742800E4742007000400148406826
:10099000704700BF000000202DE9F84F0D464FF0D2
:1009A000000871490F22012304462E6803FA08F05B
:1009B00000EA0609814540F0CA804FEA480C032648
:1009C00006FA0CF66FEA060E6E68012E18BF022EAC
:1009D00003D0112E18BF122E11D1A668EF680EEAAF
:1009E000060607FA0CF73E43A660666826EA000092
:1009F0006E68C6F3001606FA08F630436060E068D9
:100A0000AE680EEA000006FA0CF63043E0604FEAEA
:100A100088006E68022E18BF122E12D14FEAD80637
:100A200004EB860600F01C07D6F820A002FA07FBAC
:100A30002AEA0B0AD5F810B00BFA07F747EA0A07BB
:100A4000376226680EEA06072E7906F0030606FAD4
:100A50000CF63E4326606E68F60078D500260096B8
:100A60004FEA980C0E68DFF804E146F480460E6009
:100A700000F00C000E6806F480460096009E5EF8BA
:100A80002C7002FA00F627EA0606394FBC4208BF6E
:100A900000272CD0374FBC4208BF012727D0364F44
:100AA000BC4208BF022722D0344FBC4208BF0327F4
:100AB0001DD0334FBC4208BF042718D0314FBC4271
:100AC00008BF052713D0304FBC4208BF06270ED001
:100AD0002E4FBC4208BF072709D02D4FBC4208BF8C
:100AE000082704D02B4FBC420CBF09270A2707FA5E
:100AF00000F030434EF82C006FEA090C26480668D7
:100B00000CEA060E6E68F70348BF49EA0E0EC0F8FD
:100B100000E046680CEA060E6E68B70348BF49EA73
:100B20000E0EC0F804E086680CEA060E6E68F70246
:100B300048BF49EA0E0EC0F808E0C6680CEA060E87
:100B40006E68B60248BF49EA0E0EC0F80CE008F124
:100B50000108B8F10F0F7FF628AFBDE8F18F02B999
:100B600009048161704700004438024008380140A0
:100B7000000002400004024000080240000C024055
:100B8000001002400014024000180240001C024005
:100B90000020024000240240003C01402DE9F041C9
:100BA00004000F4678D0404E306800F00F00B84285
:100BB00002D200F073F86FD120683C4D810712D546
:100BC000400703D5A96841F4E051A96020780107E6
:100BD00003D5A86840F46040A860A968A06821F027
:100BE000F0010143A9602178C8074DD5606801284C
:100BF00002D129688A0305E0022818BF032803D11F
:100C000029688A0103D447E029688A0744D5A9687E
:100C1000890840EA8100A860FFF7B8FE8046A8680E
:100C2000616800F00C00B0EB810F2DD0FFF7AEFE35
:100C3000A0EB080041F289318842F0D3032021E083
:100C40002078410705D5AA68E06822F4E052024303
:100C5000AA602178080706D5A968206921F46041B7
:100C600041EAC001A96000F029F8AA681049114BB7
:100C7000C2F30312895CC84018600F48006800F096
:100C80004DF80020BDE8F081306800F00F00874289
:100C9000D6D200F003F8D3D00120F3E737703168E3
:100CA00001F00F01B9427047003C02400038024099
:100CB000241100080C0000200800002030B5144C5E
:100CC000606800F00C00042802D0082802D01DE063
:100CD000104830BD226820680023410202F03F0224
:100CE00004D525680B49C5F3881003E020680A493C
:100CF000C0F38810A1FB000100F030F82168C1F3B7
:100D00000141491C4900B0FBF1F030BD024830BD43
:100D10000438024000127A000024F40038B50D4D6A
:100D20000D4B2A7804464FF47A711868B1FBF2F241
:100D3000B0FBF2F0FFF778FC50B9102C08D200227B
:100D400021464FF0FF30FFF747FCAC60002032BD7A
:100D5000012032BD000000200C000020D3BBD9B11F
:100D6000B2F5803F5BD2022A1ED98C46B1FBF2F16C
:100D700002FB11C31B0443EA1043B3FBF2FC02FB6A
:100D80001C3380B240EA0343B3FBF2F002FB1032A3
:100D900040EA0C4000237047022A05D98446B0FB84
:100DA000F2F002FB10C270474AB105D100F0010217
:100DB00049085FEA3000704700220023704700F0C6
:100DC00051B80B000200002100207047F7D3002229
:100DD00000237047904271EB030CF2D370B5B1FA67
:100DE00081F4B3FA83F52C1BA340C4F1200532FA39
:100DF00005F63343A2405FF00046E64002E05B08A0
:100E00005FEA3202841A71EB030524BF20462946AB
:100E10007641F4D302000B003000002170BD70B5A4
:100E2000B1FA81F4B2FA82F5C4F120046419B4F184
:100E30002006DAD3B2405FF00044F440002502E01F
:100E400052085FEA3303C61A71EB020E24BF304624
:100E5000714664416D41F3D302000B00200029006C
:100E600070BD00007047000010B586B000F0B2F809
:100E700000F056F801A8142100F0C6F800200090F8
:100E80004C4C4D48016841F080010160026802F05D
:100E9000800200920022009900924FF4C041036842
:100EA00043F040030360006800F0400000900098A9
:100EB0002046FFF754FE4FF4C041019101220292F7
:100EC000002103910322049201A92046FFF764FD4B
:100ED00002A8102100F098F83CA0384CD0E900237B
:100EE000CDE900233648206042F2CF0141F287303D
:100EF0000022E0606160A2602261A2612046FFF7EB
:100F000055F94FF48050029002A92046FFF711FADC
:100F10000021009101912046694600F079F8FEE732
:100F200080B592B006A8302100F06EF801A8142117
:100F300000F06AF8002000904FF4803321480168E7
:100F400041F0805101600021006800F08050009065
:100F500000981D480091026842F44042026001225C
:100F6000006800F44040009006A800990692022113
:100F70004FF480020C910D9208214FF4A8720E914B
:100F80000F9202210422079310911192FFF76CFB3C
:100F900002210291002203920F204FF4A0510190F0
:100FA00004914FF480520592052101A8FFF7F6FD48
:100FB00013B000BD0018024030380240100000207D
:100FC0000004004040380240007000400000000073
:100FD0000000000080B50B48016841F40071016019
:100FE000026842F480620260016841F4807101602D
:100FF0000320FFF7E4FA0020FFF790FEFFF790FAD6
:10100000002002BD003C0240002200F047B8000072
:1010100070B500F13C031A78012A01D1022070BD9D
:1010200001221A7002245C7005686E68AC680A6858
:1010300026F0700616436E6002681148824218BF9F
:10104000B2F1804F11D00F4882421CBF0E4DAA4210
:101050000BD00E4882421CBF0D4DAA4205D00D4850
:1010600082421CBF0C4DAA4204D1486824F080047F
:1010700004439460012159700020187070BD000075
:10108000000001400004004000080040000C004047
:1010900000040140004001400018004000B500BFBE
:1010A000130096469446103928BFA0E80C50FAD891
:1010B0005FEA417C28BF0CC048BF40F8042BC90739
:1010C00028BF20F8022B48BF00F8012B00BD30B527
:1010D000016884684218416802EB5103C9070BD5C7
:1010E0004C4409E012F9011B12F8015B002904F8D5
:1010F000015B05D5491CF9D19A42F3D10C3030BDC2
:10110000491EF1D5F8E700000448054A016841F49A
:10111000700101604FF000601060704788ED00E0E2
:1011200008ED00E0000000000000000001020304E0
:101130000607080910B5074979441831064C7C4464
:10114000163404E00A68081D114488470146A1428C
:10115000F8D110BD2C000000380000004EF6885178
:10116000CEF20001086840F470000860BFF34F8FB2
:10117000BFF36F8F4FF00070E1EE100A7047000070
:101180004FFFFFFF040200001A00000000000020D3
:101190007047FEE7FEE7FEE7FEE7704770477047DF
:1011A00000F006B80148FFF720B80000100000204A
:1011B0000248416802788A184260704700000020A7
:1011C00000F00DF8002801D0FFF7B4FFAFF3008066
:1011D0000020AFF30080FFF747FE00F002F8012087
:1011E000704700F001B800000746384600F002F8EA
:1011F000FBE7000080B5AFF30080024A1100182021
:10120000ABBEFBE7260002000148804701480047CB
:101210000911000819120008AFF30080FFF79EFFC4
:10122000FFF7CEFFFFF7FEBFFFF7FEBFFFF7FEBFE2
:10123000FFF7FEBFFFF7FEBFFFF7FEBFFFF7FEBFE2
:10124000FFF7FEBFFFF7FEBFFFF7FEBFFFF7FEBFD2
:10125000FFF7FEBFFFF7FEBFFFF7FEBFFFF7FEBFC2
:10126000FFF7FEBFFFF7FEBFFFF7FEBFFFF7FEBFB2
:10127000FFF7FEBFFFF7FEBFFFF7FEBFFFF7FEBFA2
:10128000FFF7FEBFFFF7FEBFFFF7FEBFFFF7FEBF92
:10129000FFF7FEBFFFF7FEBFFFF7FEBFFFF7FEBF82
:1012A000FFF7FEBFFFF7FEBFFFF7FEBFFFF7FEBF72
:1012B000FFF7FEBFFFF7FEBFFFF7FEBFFFF7FEBF62
:1012C000FFF7FEBFFFF7FEBFFFF7FEBFFFF7FEBF52
:1012D000FFF7FEBFFFF7FEBFFFF7FEBFFFF7FEBF42
:1012E000FFF7FEBFFFF7FEBFFFF7FEBFFFF7FEBF32
:1012F000FFF7FEBFFFF7FEBFFFF7FEBFFFF7FEBF22
:10130000FFF7FEBFFFF7FEBFFFF7FEBFFFF7FEBF11
:10131000FFF7FEBFFFF7FEBFFFF7FEBFFFF7FEBF01
:10132000FFF7FEBFFFF7FEBFFFF7FEBFFFF7FEBFF1
:10133000FFF7FEBFFFF7FEBFFFF7FEBFFFF7FEBFE1
:10134000FFF7FEBFFFF7FEBFFFF7FEBFFFF7FEBFD1
:10135000FFF7FEBFFFF7FEBFFFF7FEBFFFF7FEBFC1
:10136000FFF7FEBFFFF7FEBFFFF7FEBFFFF7FEBFB1
:10137000FFF7FEBFFFF7FEBFFFF7FEBFFFF7FEBFA1
:10138000FFF7FEBFFFF7FEBF0001F9000010FC00F1
:051390000124F4BF0080
:0400000508001219C4
:00000001FF
