:020000040800F2
:1000000010040020390E0008150E0008170E000815
:10001000190E00081B0E00081D0E0008000000004D
:100020000000000000000000000000001F0E00089B
:10003000210E000800000000230E0008250E000815
:10004000650E0008690E00086D0E0008710E0008AC
:10005000750E0008790E00087D0E0008810E00085C
:10006000850E0008890E00088D0E0008910E00080C
:10007000950E0008990E00089D0E0008A10E0008BC
:10008000A50E0008A90E0008AD0E0008B10E00086C
:10009000B50E0008B90E0008BD0E0008C10E00081C
:1000A000C50E0008C90E0008CD0E0008D10E0008CC
:1000B000D50E0008D90E0008DD0E0008E10E00087C
:1000C000E50E0008E90E0008ED0E0008F10E00082C
:1000D000F50E0008F90E0008FD0E0008010F0008DB
:1000E000050F0008090F00080D0F0008110F000888
:1000F000150F0008190F00081D0F0008210F000838
:10010000250F0008290F00082D0F0008310F0008E7
:10011000350F0008390F00083D0F0008410F000897
:10012000450F0008490F00084D0F0008510F000847
:10013000550F0008590F00085D0F0008610F0008F7
:10014000650F0008690F00086D0F0008710F0008A7
:10015000750F0008790F00087D0F0008810F000857
:10016000850F0008890F00088D0F0008910F000807
:10017000950F0008990F00089D0F0008000000006F
:10018000A10F0008A50F0008A90F0008AD0F000877
:10019000B10F0008B50F0008B90F0008BD0F000827
:1001A000C10F0008C50F0008C90F00082DE9F8436A
:1001B000040016D02078DFF80863C10713D5B068B3
:1001C00000F00C00042807D0B06800F00C000828EC
:1001D0003ED1706841023BD53068810303D5606829
:1001E000002800F0FF802078B64F810719D5B0684D
:1001F00010F00C0F07D0B06800F00C0008285CD19C
:100200007068410259D43068810703D5E06801283D
:1002100040F0E8803168206921F0F80141EAC0012E
:100220003160217808076CD56069A749002862D041
:1002300001220A6000F04CF90546706F810700F159
:10024000D38000F045F9401B0228F6D9032034E1A1
:100250006068B0F5803F04D1306840F48030306091
:1002600011E0B0F5A02F306806D140F48020306056
:10027000316841F4803105E020F48030306031682D
:1002800021F480213160606858B100F021F9054601
:1002900030688103A7D400F01BF9401B6528F7D311
:1002A000D4E700F015F90546306881039BD500F0CE
:1002B0000FF9401B6528F7D3C8E7E06870B101214A
:1002C000396000F005F905463068810700F1B88013
:1002D00000F0FEF8401B0228F6D9B7E7386000F0BE
:1002E000F7F80546316888079BD500F0F1F8401B08
:1002F0000228F7D9AAE7086000F0EAF80546706F0F
:10030000810771D500F0E4F8401B0228F7D99DE77A
:100310000528306F06D140F004003067306F40F0A0
:10032000010005E0400840003067306F20F0040015
:10033000306741F28938A06868B100F0C9F8814699
:10034000306F810700F1898000F0C2F8A0EB09004E
:100350004045F5D37AE700F0BBF88146306F81075E
:100360007BD500F0B5F8A0EB09004045F6D36DE76A
:1003700000F0AEF8401B022840F2828066E700F0F1
:10038000A7F8001B022840F293805FE70020386640
:1003900000F09EF804463068810140F18D8000F045
:1003A00097F8001B0228F6D950E701281AD0706888
:1003B000E26900F48001914202BF00F03F01226A2D
:1003C00091420FD147F6C071626A0140914202BF6B
:1003D00000F44031A26A914202BF00F07060E16A0D
:1003E000884269D0012068E0207841073AD5306C16
:1003F0000025C1000AD400950125316C41F08051DF
:100400003164306C00F0805000900098DFF8BC80C0
:10041000D8F80000C1051BD4D8F8000040F4807063
:10042000C8F8000000F054F88146D8F80000C10573
:100430000ED400F04DF8A0EB09000228F5D905E72D
:100440003068216920F0F80040EAC1003060E8E639
:10045000A06801287FF45CAF60E71DB1306C20F02C
:1004600080503064A06938B3B16801F00C010829EC
:100470009BD002288AD10020386600F029F8054672
:10048000306881013FF574AFE269206A616A024316
:10049000A06A400842EA8112401E42EA0042E06A35
:1004A00042EA006272600121396600F011F80446E8
:1004B000306881017FF563AF0020BDE8F28300BFA3
:1004C0000038024000004742800E47420070004062
:1004D00001484068704700BF0000002010B500F0E0
:1004E00007F900F027F800F06FF86D4803E00168A5
:1004F00041F0800101606B4A11684C0704D5026825
:1005000042F01002026003E0036823F0100303606E
:100510000A0704D5036843F02003036003E0026880
:1005200022F020020260C906E1D4026822F08002B3
:100530000260E0E780B592B006A8302100F0F2F842
:1005400001A8142100F0EEF8002000904FF4803351
:100550005548016841F0805101600021006800F0B9
:1005600080500090009851480091026842F4404247
:1005700002600122006800F44040009006A8009943
:10058000069202214FF480020C910D9208214FF443
:10059000A8720E910F9202210422079310911192DA
:1005A000FFF704FE02210291002203920F204FF474
:1005B000A051019004914FF480520592052101A8A9
:1005C00000F0B4F813B000BD38B586B06846142109
:1005D00000F0A8F800243648364D05940168364CE2
:1005E00041F010010160026802F010020592002241
:1005F00000F06BF843F080030360016801F08001B4
:1006000000F062F843F001030360016801F00101AA
:1006100000F05AF843F002030360016801F00201A0
:1006200000F052F843F008030360016801F008018C
:10063000059105990592B021036843F040030360DA
:10064000006800F0400005900598204600F011FA7F
:1006500000224FF4C041284600F00BFA1C2000F0A5
:1006600041F8164800F022F9012000F03BF8144848
:1006700000F01CF9042000F035F8124800F016F9DB
:10068000B02100F026F8204600F010F94FF4C041E8
:1006900000F01FF8284600F009F907B030BD00004F
:1006A000140C02401010024040380240007000401C
:1006B0003038024000180240000C02400010024096
:1006C000000002400004024005910599059203686C
:1006D00070470091012201920021029103220392AE
:1006E0006946704700210090019102916946704768
:1006F00080B50B48016841F400710160026842F462
:1007000080620260016841F480710160032000F0A2
:10071000DCF9002000F022FA00F040FA002002BDCF
:10072000003C0240002200F055BA00002DE9F041E3
:1007300004000F4678D0404E306800F00F00B842F9
:1007400002D200F073F86FD120683C4D810712D5BA
:10075000400703D5A96841F4E051A960207801075A
:1007600003D5A86840F46040A860A968A06821F09B
:10077000F0010143A9602178C8074DD560680128C0
:1007800002D129688A0305E0022818BF032803D193
:1007900029688A0103D447E029688A0744D5A968F3
:1007A000890840EA8100A860FFF792FE8046A868A9
:1007B000616800F00C00B0EB810F2DD0FFF788FED0
:1007C000A0EB080041F289318842F0D3032021E0F8
:1007D0002078410705D5AA68E06822F4E052024378
:1007E000AA602178080706D5A968206921F460412C
:1007F00041EAC001A96000F029F8AA681049114B2C
:10080000C2F30312895CC84018600F48006800F00A
:10081000A5F90020BDE8F081306800F00F008742A4
:10082000D6D200F003F8D3D00120F3E73770316857
:1008300001F00F01B9427047003C0240003802400D
:10084000300D00080C0000200800002030B5144CCA
:10085000606800F00C00042802D0082802D01DE0D7
:10086000104830BD226820680023410202F03F0298
:1008700004D525680B49C5F3881003E020680A49B0
:10088000C0F38810A1FB000100F0BEF92168C1F39C
:100890000141491C4900B0FBF1F030BD024830BDB8
:1008A0000438024000127A000024F4002DE9F84FC9
:1008B0000D464FF0000871490F22012304462E68AF
:1008C00003FA08F000EA0609814540F0CA804FEAC1
:1008D000480C032606FA0CF66FEA060E6E68012E27
:1008E00018BF022E03D0112E18BF122E11D1A668E8
:1008F000EF680EEA060607FA0CF73E43A660666844
:1009000026EA00006E68C6F3001606FA08F63043C1
:100910006060E068AE680EEA000006FA0CF630434C
:10092000E0604FEA88006E68022E18BF122E12D1C6
:100930004FEAD80604EB860600F01C07D6F820A084
:1009400002FA07FB2AEA0B0AD5F810B00BFA07F7F0
:1009500047EA0A07376226680EEA06072E7906F08C
:10096000030606FA0CF63E4326606E68F60078D55C
:10097000002600964FEA980C0E68DFF804E146F472
:1009800080460E6000F00C000E6806F4804600966B
:10099000009E5EF82C7002FA00F627EA0606394F30
:1009A000BC4208BF00272CD0374FBC4208BF0127EC
:1009B00027D0364FBC4208BF022722D0344FBC425A
:1009C00008BF03271DD0334FBC4208BF042718D0EF
:1009D000314FBC4208BF052713D0304FBC4208BF7F
:1009E00006270ED02E4FBC4208BF072709D02D4F37
:1009F000BC4208BF082704D02B4FBC420CBF0927BC
:100A00000A2707FA00F030434EF82C006FEA090C71
:100A1000264806680CEA060E6E68F70348BF49EAE6
:100A20000E0EC0F800E046680CEA060E6E68B703CA
:100A300048BF49EA0E0EC0F804E086680CEA060ECC
:100A40006E68F70248BF49EA0E0EC0F808E0C668B3
:100A50000CEA060E6E68B60248BF49EA0E0EC0F8F0
:100A60000CE008F10108B8F10F0F7FF628AFBDE8E0
:100A7000F18F02B9090481617047000044380240D7
:100A80000838014000000240000402400008024013
:100A9000000C024000100240001402400018024006
:100AA000001C02400020024000240240003C0140A3
:100AB0000901020002D4244881547047234B02F0FC
:100AC0000F021A4402F8041C7047214B19684FF6B4
:100AD000FF020002114000F4E06008431D49084392
:100AE0001860704738B51A4B1C68C4F30223C3F171
:100AF0000704052C28BF04241D1D072D34BF002327
:100B0000DB1E012505FA04F4641E2140994005FA14
:100B100003F35B1E1A401143BDE83440C8E710B52B
:100B2000401EB0F1807F01D3012010BD0A4C6060EF
:100B30000F214FF0FF30FFF7BBFF0021A16007201E
:100B40002060002010BD000000E400E018ED00E08F
:100B50000CED00E00000FA0510E000E038B50D4DA6
:100B60000D4B2A7804464FF47A711868B1FBF2F203
:100B7000B0FBF2F0FFF7D3FF50B9102C08D20022DF
:100B800021464FF0FF30FFF7ADFFAC60002032BDD3
:100B9000012032BD000000200C00002081B00020A8
:100BA000009000220A48416841F480414160416858
:100BB00001F48041009100990092036843F0805352
:100BC0000360006800F080500090009801B070470A
:100BD0004038024000B500BF1300964694461039D5
:100BE00028BFA0E80C50FAD85FEA417C28BF0CC0AF
:100BF00048BF40F8042BC90728BF20F8022B48BF84
:100C000000F8012B00BD0000D3BBD9B1B2F5803F85
:100C10005BD2022A1ED98C46B1FBF2F102FB11C352
:100C20001B0443EA1043B3FBF2FC02FB1C3380B20B
:100C300040EA0343B3FBF2F002FB103240EA0C40FF
:100C400000237047022A05D98446B0FBF2F002FB6C
:100C500010C270474AB105D100F0010249085FEAAD
:100C60003000704700220023704700F051B80B009D
:100C70000200002100207047F7D3002200237047B4
:100C8000904271EB030CF2D370B5B1FA81F4B3FA70
:100C900083F52C1BA340C4F1200532FA05F633433B
:100CA000A2405FF00046E64002E05B085FEA3202E5
:100CB000841A71EB030524BF204629467641F4D3FC
:100CC00002000B003000002170BD70B5B1FA81F454
:100CD000B2FA82F5C4F120046419B4F12006DAD323
:100CE000B2405FF00044F440002502E052085FEAA1
:100CF0003303C61A71EB020E24BF304671466441BD
:100D00006D41F3D302000B002000290070BD0000EC
:100D1000704700000448054A016841F47001016011
:100D20004FF000601060704788ED00E008ED00E0D3
:100D3000000000000000000001020304060708098B
:100D400030B450F8041B79B102684368024408309B
:100D5000DC0744BFA9F10104E31852F8045B43F82F
:100D6000045B091FF9D1ECE730BC704710B50749A7
:100D700079441831064C7C44163404E00A68081D96
:100D8000114488470146A142F8D110BD2C00000053
:100D90003C0000004EF68851CEF20001086840F495
:100DA00070000860BFF34F8FBFF36F8F4FF000707C
:100DB000E1EE100A7047000089FFFFFF10000000FD
:100DC00088000000000000200000000000F00DF886
:100DD000002801D0FFF7CAFFAFF300800020AFF377
:100DE0000080FFF77BFB00F002F80120704700F065
:100DF00001B800000746384600F002F8FBE70000A3
:100E000080B5AFF30080024A11001820ABBEFBE7AB
:100E1000260002007047FEE7FEE7FEE7FEE77047A8
:100E20007047704700F000B80248416802788A189D
:100E30004260704700000020014880470148004799
:100E4000150D0008590E0008010000000000000008
:100E5000100000000024F400AFF30080FFF79AFFB9
:100E6000FFF7B4FFFFF7FEBFFFF7FEBFFFF7FEBFC0
:100E7000FFF7FEBFFFF7FEBFFFF7FEBFFFF7FEBFA6
:100E8000FFF7FEBFFFF7FEBFFFF7FEBFFFF7FEBF96
:100E9000FFF7FEBFFFF7FEBFFFF7FEBFFFF7FEBF86
:100EA000FFF7FEBFFFF7FEBFFFF7FEBFFFF7FEBF76
:100EB000FFF7FEBFFFF7FEBFFFF7FEBFFFF7FEBF66
:100EC000FFF7FEBFFFF7FEBFFFF7FEBFFFF7FEBF56
:100ED000FFF7FEBFFFF7FEBFFFF7FEBFFFF7FEBF46
:100EE000FFF7FEBFFFF7FEBFFFF7FEBFFFF7FEBF36
:100EF000FFF7FEBFFFF7FEBFFFF7FEBFFFF7FEBF26
:100F0000FFF7FEBFFFF7FEBFFFF7FEBFFFF7FEBF15
:100F1000FFF7FEBFFFF7FEBFFFF7FEBFFFF7FEBF05
:100F2000FFF7FEBFFFF7FEBFFFF7FEBFFFF7FEBFF5
:100F3000FFF7FEBFFFF7FEBFFFF7FEBFFFF7FEBFE5
:100F4000FFF7FEBFFFF7FEBFFFF7FEBFFFF7FEBFD5
:100F5000FFF7FEBFFFF7FEBFFFF7FEBFFFF7FEBFC5
:100F6000FFF7FEBFFFF7FEBFFFF7FEBFFFF7FEBFB5
:100F7000FFF7FEBFFFF7FEBFFFF7FEBFFFF7FEBFA5
:100F8000FFF7FEBFFFF7FEBFFFF7FEBFFFF7FEBF95
:100F9000FFF7FEBFFFF7FEBFFFF7FEBFFFF7FEBF85
:100FA000FFF7FEBFFFF7FEBFFFF7FEBFFFF7FEBF75
:100FB000FFF7FEBFFFF7FEBFFFF7FEBFFFF7FEBF65
:0C0FC000FFF7FEBFFFF7FEBFFFF7FEBF0C
:0400000508000E5988
:00000001FF
