:030000000204D91E
:0C04D90078FFE4F6D8FD75817A0205205A
:100026000820080023536F433E20003078003058E4
:1000360000202020232323232323232323232320B9
:1000460053656C656374204D656E752023232323E9
:10005600232323232323230A00202020205B305D33
:1000660020577269746520526567697374657220DA
:100076004164642C2044617461200A002020202001
:100086005B315D2052656164202052656769737437
:1000960065722053656C6563742C20416464200A84
:1000A600002020202E2E2E2E2E2E2E2E2E2E2E2EC2
:1000B6002E2E2E2E2E2E2E2E2E2E2E2E2E2E2E2E5A
:1000C6002E2E2E2E2E2E2E0A002A2A2A205772690E
:1000D60074652052656769737465722E2E0A005224
:1000E6006561642052656769737465722E2E0A0015
:1000F6000A204572726F7220310A00307846460037
:1001060030786666000A0020000A20577269746516
:1001160020526567697374657220496E7075742024
:10012600737563636573732121210A000A20457282
:10013600726F7220320A000A20526567697374650D
:100146007220496E707574207375636365737321CD
:1001560021210A000A204572726F7220330A000AB2
:1001660020526567697374657220526561642073F5
:0B0176007563636573732121210A008B
:090A5A00010A0001270001090056
:1009DB00E4F508F55AF559F5581209FD120A11C23A
:1009EB00A8D2A9C2AAC2ABD2ACC2ADD2B9D2BCD228
:0209FB00AF2229
:1009FD00E58954F04401F589758CF8758A2FE4F575
:040A0D0008D28C225D
:100A1100E589540F4420F589759852758780758D45
:040A2100F2D28E225D
:03000B00020A6482
:090A6400758CF8758A2F05083223
:030023000209B31C
:1009B300C0E0C0D075D000C000C007309811AF5A56
:1009C300055A74172FF8A6990558535A0FC298D091
:0809D30007D000D0D0D0E032C3
:0408C4007F0A7E0029
:0408C8008E668F6742
:1008CC00AF087E00AB087A00D3EB9FEA9E4008EBA2
:1008DC009FFDEA9EFC800DC3E49FFDE49EFCED2B86
:0D08EC00FDEC3AFCC3ED9567EC956640D736
:0108F90022DC
:080003003099FD8F99C299228A
:0F0A4B00AE07BE0A057F0D120003AF06020003BF
:100A2500E55860FCAF59055974172FF8E6FF1558BE
:030A350053590F03
:010A3800229B
:0C092D008B638A6489657BFF7A01790B7B
:100939008B6A8A6B896CAB6AAA6BA96C12066060B8
:1009490013056CE56C7002056B14F9120660FF1251
:050959000A4B80E222C0
:0605E8007B007A00790B94
:0605EE008B668A67896834
:1005F400E4FDFC120A258F69E56924F8601724FBE1
:100604006004240370367F0A120A4BAB66AA67A9FA
:1006140068E4020679D3ED9400EC6480948040D3BE
:1006240074FF2568F56874FF3567F567ED1D700183
:100634001C7BFF7A00792612093980B7AF69120A48
:100644004BAB660568E568AA677002056714F9E5AF
:0B065400691206790DBD00010C8098B2
:01065F002278
:090A6D007BFF7A00792A020939A5
:100837008B738A7489757569FF756A00756B317575
:100847006C00756D021206C9EF601B7569FF756A4A
:1008570000756B34756C00756D02AB73AA74A9755E
:100867001206C9EF700EAB73E5752402F9E435740F
:0E087700FA02037CAB73AA74A9751207DF2284
:060376007B007A007934DF
:10037C00E4FFFE120660FD7003020428C36480943F
:10038C00B04023D3ED648094B9501BEFC4F8540FE4
:10039C00C868FFEEC454F048FE120660FD3395E0C9
:1003AC00FCED24D0805A120660FDC3648094C140D9
:1003BC0023D3ED648094C6501BEFC4F8540FC86867
:1003CC00FFEEC454F048FE120660FD3395E0FCEDE0
:1003DC0024C9802C120660FDC3648094E1402ED3A6
:1003EC00ED648094E65026EFC4F8540FC868FFEE15
:1003FC00C454F048FE120660FD3395E0FCED24A9D0
:10040C00FDEC34FFFCED2FFFEC3EFE80057EFF7F04
:0C041C00FF22740129F9E43AFA02037F80
:0104280022B1
:1007DF00E4F579F57A120660FF6048C3648094B03F
:1007EF004033D3EF648094B9502BAE79AF7A7C004D
:1007FF007D0A12068B8E798F7A120660FF3395E091
:10080F00FEEF24D0FFEE34FFFEEF257AF57AEE35BA
:10081F0079F57980057EFF7FFF22740129F9E43A8B
:07082F00FA80B2AE79AF7A46
:01083600229F
:10088500E4F569EFD3940F4017EFC4540FFE9409B4
:10089500500674302EFE800474322EFE8E66800360
:1008A500756630EF540FFFC39409500674302FFF5F
:0E08B500800474322FFF8F677B007A00796613
:0108C3002212
:100A3900EFC39461400BEFD3947A5005EF24E0FFA4
:020A4900222267
:10098900E4FE120A39EFC39430400CEFD394395086
:1009990006EF24D0FE8010EFC39441400AEFD394B0
:0909A900465004EF24C9FEAF061C
:0109B2002222
:10056500E4F568F569F509FE7F30FDFB7A00792829
:1005750012069DE4FFFEC3EF950A7480F86E98504D
:10058500610FEF70010E14240BF8E6756600F56730
:10059500642045667034AC090509EC75F00CA4249B
:1005A500282569F8E4F6F568F569C3EF950A7480BE
:1005B500F86E9850C10FEF70010E14240BF8E66425
:1005C5002060E7EF1F70AF1E80AC0569E56970021A
:1005D500056814FCE50975F00CA424282CF8A66719
:0205E500809400
:0105E70022F1
:10095E008B768A77897812000E8E6C8F6D8576690C
:10096E0085776A85786B7B007A00790B1206C9EF62
:0B097E0070047F0180027F007E0022D9
:100786007BFF7A0079371209397BFF7A00795F128D
:1007960009397BFF7A0079821209397BFF7A007961
:1007A600A7120939120A25EF24CF60180470D17BED
:1007B600FF7A0079CF12093912029A7F647E0012FD
:1007C60008C880BC7BFF7A0079E5120939120181DD
:0907D6007F647E001208C880A7B0
:10029A00755D01755E81755F007E007F0C7D007B58
:1002AA00007A00790B12069DE4F55CF55B120A6D83
:1002BA001205E88F0AE50BB40A097BFF7A0079F682
:1002CA000209397569FF756A01756B01756C0075EC
:1002DA006D047B007A00790B1206C9EF70030203E2
:1002EA00757569FF756A01756B06756C00756D0425
:1002FA007B007A00790B1206C9EF606F1205657BE5
:10030A00007A00792812037C8F5CEF255FF55FE4A1
:10031A00355EF55E1208858B608A6189621209333F
:10032A00120A6DAB60AA61A9621209391208C412D5
:10033A0003768F5B1208C4AB5DAA5EA95FE55B1208
:10034A000679AF5B1208858B608A6189627BFF7AC6
:10035A0001790D120939AB60AA61A9621209397BC8
:0B036A00FF7A01790F12093902029A94
:010375002265
:100429007570017571807572007E007F0C7D007B8F
:10043900007A00790B12069DE4F56FF56E120A6DCC
:100449001205E88F0AE50BB40A097BFF7A017932B4
:100459000209397569FF756A01756B01756C00755B
:100469006D047B007A00790B1206C9EF606175692A
:10047900FF756A01756B06756C00756D047B007AF2
:1004890000790B1206C9EF6046120A6D7B007A00EB
:10049900790B1209391205657B007A007928120354
:1004A9007C8F6FEF2572F572E43571F5711208C40E
:1004B9001203768F6E1208C4AB70AA71A972E56E29
:0F04C9001206797BFF7A01793D12093902042965
:0104D8002201
:10018100755D01755E81755F0075600175618075D2
:1001910062007E007F0C7D007B007A00790B1206E5
:1001A1009DE4F55CF55B120A6D1205E88F0AE50B1B
:1001B100B40A097BFF7A01795A0209397569FF7519
:1001C1006A01756B01756C00756D047B007A0079AD
:1001D1000B1206C9EF70030202997569FF756A0176
:1001E100756B06756C00756D047B007A00790B12D6
:1001F10006C9EF7003020299120565AF28120A3988
:10020100EF6449702DFB1203788F5CEF255FF55F7A
:10021100E4355EF55E12088512092D120A6DAB6395
:10022100AA64A9651209391208C4AB5DAA5EA95F67
:100231008038AF28120A39EF64526003020181FB52
:100241001203788F5CEF2562F562E43561F5611286
:10025100088512092D120A6DAB63AA64A9651209FA
:10026100391208C4AB60AA61A962120660FF1208C4
:10027100858B638A6489657BFF7A01790D1209395F
:10028100AB63AA64A9651209391208C47BFF7A011C
:080291007965120939020181AF
:010299002242
:10072C000A002B2D2D2D2D2D2D2D2D2D2D2D2D2D3F
:10073C002D2D2D2D2D2D2D2D2D2D2D2D2D2D2D2DDD
:10074C002D2D2D2D2D2D2D2D2D2D2D2B0A007C20DD
:10075C00536F432044657369676E20477569646500
:10076C00202020202020202020202020202020207D
:0A077C00202020202020207C0A000D
:1008FA001209DB7F0A7E001208C87BFF7A07792C6F
:10090A001209397BFF7A07792E1209397BFF7A0798
:10091A00795A1209397BFF7A07792E120939120797
:03092A008680FEC6
:1004E5000208FAE493A3F8E493A34003F68001F22B
:1004F50008DFF48029E493A3F85407240CC8C33318
:10050500C4540F4420C8834004F456800146F6DFE6
:10051500E4800B0102040810204080900A5AE47E12
:10052500019360BCA3FF543F30E509541FFEE493DB
:10053500A360010ECF54C025E060A840B8E493A3A2
:10054500FAE493A3F8E493A3C8C582C8CAC583CACD
:10055500F0A3C8C582C8CAC583CADFE9DEE780BE85
:010A63000092
:10066000BB010689828A83E0225002E722BBFE0298
:09067000E32289828A83E49322CB
:10067900BB010689828A83F0225002F722BBFE0160
:02068900F3225A
:10068B00EF8DF0A4A8F0CF8CF0A428CE8DF0A42E83
:02069B00FE223D
:1006C9008B668A678968AB69AA6AA96B120660FE9C
:1006D900AB66AA67A968120660FF6E702BEF600D02
:1006E900E56D156D7002156C14456C70037F002261
:1006F90074012568F568E43567F5677401256BF5BC
:100709006BE4356AF56A80BEAB66AA67A96812060A
:1007190060FFD3EE6480F8EF64809840037F012284
:030729007FFF222D
:10000E00E4FFFE120660600C0FEF70010E09E9703E
:05001E00F20A80EF2250
:10069D00EF4E6012EF60010EEDBB010B89828A8374
:1006AD00F0A3DFFCDEFA2289F05007F709DFFCA981
:0C06BD00F022BBFEFCF309DFFCA9F022D8
:00000001FF
