:020000040800F2
:1000000090040020ED1700089D1600089F160008B8
:10001000A1160008A3160008A5160008000000009D
:10002000000000000000000000000000A71600080B
:10003000A916000800000000AB160008AD16000865
:100040002118000825180008291800082D18000894
:100050003118000835180008B116000839180008D2
:100060003D18000841180008451800084918000804
:100070004D180008511800085518000859180008B4
:100080005D18000861180008651800086918000864
:100090006D18000871180008751800087918000814
:1000A0007D180008811800088518000889180008C4
:1000B0008D18000891180008951800089918000874
:1000C0009D180008A1180008A5180008A918000824
:1000D000AD180008B7160008B1180008B5180008D8
:1000E000B9180008BD180008C1180008C518000894
:1000F000C9180008CD180008D1180008D518000844
:10010000D9180008DD180008E1180008E5180008F3
:10011000E9180008ED180008BD160008F1180008DD
:10012000F5180008F9180008FD1800080119000862
:1001300005190008091900080D190008111900080F
:1001400015190008191900081D19000821190008BF
:1001500025190008291900082D190008311900086F
:1001600035190008391900083D190008411900081F
:1001700045190008491900084D1900080000000041
:100180005119000855190008591900085D1900088F
:100190006119000865190008691900086D1900083F
:1001A00071190008751900087919000838B504009C
:1001B00001D1012032BD00F021F808B900F022F889
:1001C00000F012F800F023F8FFE7416100F001F8B9
:1001D00032BD2068C16841F40051C16000206860F0
:1001E00020216970A9707047242068702068C16858
:1001F00021F40051C160204600F0ABB904F138058C
:100200006878704700212970204600F04ABA2068BB
:10021000016921F4904101612068416921F02A01BE
:1002200070472DE9F843054605F138070C46787804
:100230002028164698463DD1002C14BF002E0120E0
:1002400039D03878012835D0012139700020786004
:1002500021227A7000F06AFA8146AE84EE84002092
:10026000387003E02A6814F8011B5160E88C20B351
:10027000E88C411EE9844B46A868CDF80080B0F5B3
:10028000805F0DD100F023F870B920882968C0F391
:10029000080048602869002814BF641CA41CE5E716
:1002A00000F015F80028DDD0032004E0202078704D
:1002B000002000E00220BDE8F283CDF800804B462C
:1002C0000022402100F005F80028EFD0ECE70022E2
:1002D00080212846AEE0416921F040014161606B18
:1002E000704738B5044625682968EA686B6911F0DB
:1002F0000F0007D188065FD593065DD52046BDE87F
:100300003240DDE0D80702D412F4907F54D0C80701
:1003100005D5D50503D5E06B40F00100E063480743
:1003200005D5DD0703D5E06B40F00200E0638807E8
:1003300005D5DD0703D5E06B40F00400E063080756
:1003400007D5950601D4D80703D5E36B43F008031E
:10035000E363E06B00286CD0880604D5910644BFA7
:10036000204600F0ADF820684069E16B0A0701D42F
:1003700040061BD5204600F08FF8206841694A06E8
:100380000FD5FFF7A8FF60B10FF229110165606B6F
:1003900000F0D2F900284CD0606B016DBDE834400C
:1003A00008472046BDE8324000F0D8B9204600F0AA
:1003B000D5F90020E06331BD08062AD5130628D5FB
:1003C00094F83900212834D1A068B0F5805F206A04
:1003D0000BD10188C1F30801696020690028206AF7
:1003E0000CBF811C411C216203E0411C216200788A
:1003F0006860E08C401EE08480B2D0B92068C1689B
:1004000021F08001C1602068C16841F04001C160F5
:1004100031BD48060DD551060BD5E86820F04000E7
:10042000E860202184F839102046BDE8324000F011
:1004300096B931BD2DE9F041069C05460E46904621
:100440001F46286801683140B1420CBF01200020DE
:10045000404517D114F1010FF3D024B100F066F933
:10046000C01B8442EDD22868C16821F4D07100F02D
:100470000CF805F1380020214170817000210170D5
:10048000032000E00020BDE8F081C16028684169D8
:1004900049084900416170470168CA6822F49072B6
:1004A000CA6001684A69520852004A61202180F8F6
:1004B0003A107047806B0021C185C18400F04EB9AD
:1004C00080B590F83A10222941D18168B1F5805F5A
:1004D00012D101690368826A0029596805D1C1F304
:1004E00008011180826A911C04E001F0FF01118073
:1004F000826A511C81620FE001690029816A04D17E
:100500004A1C826203685A6805E04A1C82620368DA
:100510005A6802F07F020A70C18D491EC18589B2F6
:1005200099B90168CA6822F02002CA600168CA68E5
:1005300022F48072CA6001684A69520852004A6116
:10054000202180F83A1000F00BF9002002BD0220B3
:1005500002BDD0B50646642732681169F06821F4FF
:100560004051014311611924D3682D48B1680340FB
:1005700030690B4371690343F0690B430343D36054
:100580005169B06921F4407101435161F369254813
:100590002549B3F5004F1FD18A4218BF824202D1CC
:1005A00000F08AF901E000F07FF90246A4FB0201A5
:1005B0007268D30F520000F0C7F900F037F8FF005F
:1005C00032376420B7FBF0F0420002F4F87202EB1D
:1005D000011200F007001DE08A4218BF824202D1DA
:1005E00000F06AF901E000F05FF90246A4FB0201A5
:1005F0007268930F920000F0A7F900F017F83F011E
:1006000032376420B7FBF0F000F0F00202EB011289
:1006100000F00F00316880188860D0BD0000000035
:10062000F369FFFF00140140001001406421B0FB9A
:10063000F1F107FB1107704781B000200090002204
:100640003548416841F480414160416801F480418E
:10065000009100990092036843F0805303600068A2
:1006600000F080500090009801B0704700682B495E
:10067000884200D0704780B5002227480092016868
:1006800041F0100101600021006800F010000090AE
:100690000098362000F0F6F9BDE80240362000F060
:1006A0000EBA38B586B0044601A8142100F032FA1B
:1006B00024681B4DAC422DD1002000900022194827
:1006C000416941F010014161416901F0100100915F
:1006D000009900924FF4C061036843F00103036086
:1006E0000222006800F00100009000980E4801917D
:1006F000029200210391032207210591049201A98E
:1007000000F00CFA00220021252000F0BBF9252082
:1007100000F0D5F907B030BD40380240001000406D
:10072000001001403038024000000240014840689B
:10073000704700BF0000002090F83510022903D058
:100740008022426501207047052180F8351000683D
:1007500002685208520002600020704770477047DC
:10076000704730B4002513E050F8042BD30744BF82
:10077000A9F101039A18091F042942F8045BFAD26F
:1007800013468C0744BF15809B1CC90748BF1D70CA
:1007900050F8041B0029E7D130BC70472DE9F04127
:1007A00004000F4678D0494E306800F00F00B84280
:1007B00002D200F073F86FD12068454D810712D541
:1007C000400703D5A96841F4E051A96020780107EA
:1007D00003D5A86840F46040A860A968A06821F02B
:1007E000F0010143A9602178C8074DD56068012850
:1007F00002D129688A0305E0022818BF032803D123
:1008000029688A0103D447E029688A0744D5A96882
:10081000890840EA8100A860FFF788FF8046A86841
:10082000616800F00C00B0EB810F2DD0FFF77EFF68
:10083000A0EB080041F289318842F0D3032021E087
:100840002078410705D5AA68E06822F4E052024307
:10085000AA602178080706D5A968206921F46041BB
:1008600041EAC001A96000F03FF8AA6819491A4B93
:10087000C2F30312895CC84018601848006800F091
:1008800063FA0020BDE8F081306800F00F00874275
:10089000D6D200F003F8D3D00120F3E737703168E7
:1008A00001F00F01B94270470B480D4A0068136808
:1008B0000C49C3F3822206E00748094A006813681E
:1008C0000849C3F34232895CC8407047003C02408B
:1008D00000380240F81600080C0000200800002034
:1008E000083802401818000830B5144C606800F051
:1008F0000C00042802D0082802D01DE0104830BDAA
:10090000226820680023410202F03F0204D52568D6
:100910000B49C5F3881003E020680A49C0F388102A
:10092000A1FB000100F010F82168C1F30141491C4E
:100930004900B0FBF1F030BD024830BD0438024040
:1009400000127A000024F400D3BBD9B1B2F5803F85
:100950005BD2022A1ED98C46B1FBF2F102FB11C315
:100960001B0443EA1043B3FBF2FC02FB1C3380B2CE
:1009700040EA0343B3FBF2F002FB103240EA0C40C2
:1009800000237047022A05D98446B0FBF2F002FB2F
:1009900010C270474AB105D100F0010249085FEA70
:1009A0003000704700220023704700F0EDB90B00C3
:1009B0000200002100207047F7D300220023704777
:1009C000904271EB030CF2D370B5B1FA81F4B3FA33
:1009D00083F52C1BA340C4F1200532FA05F63343FE
:1009E000A2405FF00046E64002E05B085FEA3202A8
:1009F000841A71EB030524BF204629467641F4D3BF
:100A000002000B003000002170BD70B5B1FA81F416
:100A1000B2FA82F5C4F120046419B4F12006DAD3E5
:100A2000B2405FF00044F440002502E052085FEA63
:100A30003303C61A71EB020E24BF3046714664417F
:100A40006D41F3D302000B002000290070BD0000AF
:100A50000901020002D4294881547047284B02F052
:100A60000F021A4402F8041C7047264B19684FF60F
:100A7000FF020002114000F4E060084322490843ED
:100A80001860704738B51F4B1C68C4F30223C3F1CC
:100A90000704052C28BF04241D1D072D34BF002387
:100AA000DB1E012505FA04F4641E2140994005FA75
:100AB00003F35B1E1A401143BDE83440C8E7010050
:100AC00007D4012200F01F01104B8A40400943F86F
:100AD0002020704710B5401EB0F1807F01D3012067
:100AE00010BD0B4C60600F214FF0FF30FFF7B0FFDF
:100AF0000021A16007202060002010BD00E400E07C
:100B000018ED00E00CED00E00000FA0500E100E067
:100B100010E000E0002200F039B900002DE9F84FA4
:100B20000D464FF0000879490F22012304462E6834
:100B300003FA08F000EA0609814540F0CA804FEA4E
:100B4000480C032606FA0CF66FEA060E6E68012EB4
:100B500018BF022E03D0112E18BF122E11D1A66875
:100B6000EF680EEA060607FA0CF73E43A6606668D1
:100B700026EA00006E68C6F3001606FA08F630434F
:100B80006060E068AE680EEA000006FA0CF63043DA
:100B9000E0604FEA88006E68022E18BF122E12D154
:100BA0004FEAD80604EB860600F01C07D6F820A012
:100BB00002FA07FB2AEA0B0AD5F810B00BFA07F77E
:100BC00047EA0A07376226680EEA06072E7906F01A
:100BD000030606FA0CF63E4326606E68F60078D5EA
:100BE000002600964FEA980C0E68DFF824E146F4E0
:100BF00080460E6000F00C000E6806F480460096F9
:100C0000009E5EF82C7002FA00F627EA0606414FB5
:100C1000BC4208BF00272CD03F4FBC4208BF012771
:100C200027D03E4FBC4208BF022722D03C4FBC42D7
:100C300008BF03271DD03B4FBC4208BF042718D074
:100C4000394FBC4208BF052713D0384FBC4208BFFC
:100C500006270ED0364FBC4208BF072709D0354FB4
:100C6000BC4208BF082704D0334FBC420CBF092741
:100C70000A2707FA00F030434EF82C006FEA090CFF
:100C80002E4806680CEA060E6E68F70348BF49EA6C
:100C90000E0EC0F800E046680CEA060E6E68B70358
:100CA00048BF49EA0E0EC0F804E086680CEA060E5A
:100CB0006E68F70248BF49EA0E0EC0F808E0C66841
:100CC0000CEA060E6E68B60248BF49EA0E0EC0F87E
:100CD0000CE008F10108B8F10F0F7FF628AFBDE86E
:100CE000F18F02B909048161704742690A408A4262
:100CF00008BF090481617047114A136803421CBF91
:100D0000106000F01FB87047000000004438024037
:100D10000838014000000240000402400008024080
:100D2000000C024000100240001402400018024073
:100D3000001C02400020024000240240003C014010
:100D4000143C01407047000038B50D4D0D4B2A781A
:100D500004464FF47A711868B1FBF2F2B0FBF2F07E
:100D6000FFF7B8FE50B9102C08D2002221464FF0F0
:100D7000FF30FFF787FEAC60002032BD012032BD9E
:100D8000000000200C0000207047000000B500BFEC
:100D9000130096469446103928BFA0E80C50FAD8A4
:100DA0005FEA417C28BF0CC048BF40F8042BC9074C
:100DB00028BF20F8022B48BF00F8012B00BD00001F
:100DC0002DE9F843040016D02078DFF80863C10746
:100DD00013D5B06800F00C00042807D0B06800F00C
:100DE0000C0008283ED1706841023BD53068810371
:100DF00003D56068002800F0FF802078B64F810797
:100E000019D5B06810F00C0F07D0B06800F00C00D6
:100E100008285CD17068410259D43068810703D535
:100E2000E068012840F0E8803168206921F0F8018D
:100E300041EAC0013160217808076CD56069A74993
:100E4000002862D001220A60FFF770FC0546706F2F
:100E5000810700F1D380FFF769FC401B0228F6D917
:100E6000032034E16068B0F5803F04D1306840F47D
:100E70008030306011E0B0F5A02F306806D140F42A
:100E800080203060316841F4803105E020F480300A
:100E90003060316821F480213160606858B1FFF71B
:100EA00045FC054630688103A7D4FFF73FFC401B93
:100EB0006528F7D3D4E7FFF739FC0546306881038E
:100EC0009BD5FFF733FC401B6528F7D3C8E7E068E4
:100ED00070B101213960FFF729FC054630688107B0
:100EE00000F1B880FFF722FC401B0228F6D9B7E7D3
:100EF0003860FFF71BFC0546316888079BD5FFF774
:100F000015FC401B0228F7D9AAE70860FFF70EFC82
:100F10000546706F810771D5FFF708FC401B02285A
:100F2000F7D99DE70528306F06D140F004003067FF
:100F3000306F40F0010005E0400840003067306F3E
:100F400020F00400306741F28938A06868B1FFF7EB
:100F5000EDFB8146306F810700F18980FFF7E6FBEA
:100F6000A0EB09004045F5D37AE7FFF7DFFB8146A8
:100F7000306F81077BD5FFF7D9FBA0EB0900404517
:100F8000F6D36DE7FFF7D2FB401B022840F28280C8
:100F900066E7FFF7CBFB001B022840F293805FE778
:100FA00000203866FFF7C2FB04463068810140F13B
:100FB0008D80FFF7BBFB001B0228F6D950E7012804
:100FC0001AD07068E26900F48001914202BF00F01B
:100FD0003F01226A91420FD147F6C071626A014017
:100FE000914202BF00F44031A26A914202BF00F078
:100FF0007060E16A884269D0012068E0207841078A
:101000003AD5306C0025C1000AD400950125316C19
:1010100041F080513164306C00F0805000900098B5
:10102000DFF8BC80D8F80000C1051BD4D8F8000058
:1010300040F48070C8F80000FFF778FB8146D8F8CC
:101040000000C1050ED4FFF771FBA0EB09000228D8
:10105000F5D905E73068216920F0F80040EAC100C1
:101060003060E8E6A06801287FF45CAF60E71DB15E
:10107000306C20F080503064A06938B3B16801F062
:101080000C0108299BD002288AD100203866FFF77E
:101090004DFB0546306881013FF574AFE269206A77
:1010A000616A0243A06A400842EA8112401E42EA95
:1010B0000042E06A42EA0062726001213966FFF78D
:1010C00035FB0446306881017FF563AF0020BDE841
:1010D000F28300BF0038024000004742800E4742C2
:1010E000007000403EB500F03BF900F04AF800F017
:1010F00092F800BF98A0864CD0E900238548206470
:1011000042F2CF016164CDE900230020A06442F2E5
:101110000F71A065E16404F1400000F03BF900218B
:101120000091019104F14000694600F057FA7A48B5
:1011300020604FF4E1310C20002260616160A26008
:10114000E2602261A261E2612046FFF72FF80022EF
:1011500000210620FFF796FC0620FFF7B0FC6BA5E8
:101160004FF6FF73012229462046FFF75AF84FF445
:1011700000516A48FFF7B9FD40F2E73000F074FA19
:10118000EEE780B592B006A83021FFF7C3FC01A8B6
:101190001421FFF7BFFC002000904FF4A02360480B
:1011A000016841F0805101600021006800F080502A
:1011B000009000985B480091026842F4404202604F
:1011C0000122006800F44040009006A800990692B1
:1011D00002214FF480020C910D9208214FF4A87265
:1011E0000E910F9202210422079310911192FFF7A2
:1011F000E7FD02210291002203920F204FF4A0513B
:10120000019004914FF480520592052101A8FFF747
:10121000C5FA13B000BD38B586B068461421FFF793
:1012200079FC002440483D4D059401683F4C41F055
:1012300010010160026802F010020592002200F025
:1012400080F843F080030360016801F0800100F042
:1012500077F843F001030360016801F0010100F039
:101260006FF843F002030360016801F0020100F02F
:1012700067F843F008030360016801F00801059175
:1012800005990592B021036843F0400303600068AC
:1012900000F04000059005982046FFF722FD00224F
:1012A0004FF4C0412846FFF71CFD1C2000F04DF80C
:1012B0001F48FFF733FC01201E49009001910022D6
:1012C000029269461C48FFF729FC042000F03DF813
:1012D0001A48FFF723FCB02100910122019200215E
:1012E00002910322039269462046FFF717FC4FF450
:1012F000C0410091012200210291039101926946AF
:101300002846FFF70BFC07B030BD00005500000079
:1013100010000020001000400010014000180240A2
:10132000403802400070004030380240000C02405B
:1013300000100240000011100000024000040240B2
:10134000059105990592036870470021009001916D
:1013500002916946704770470000000000000000DD
:1013600080B50B48016841F400710160026842F4E5
:1013700080620260016841F4807101600320FFF720
:1013800074FB0020FFF7E0FCFFF756F9002002BDD8
:10139000003C024038B5040001D1012032BD00F00C
:1013A00014F818B900F00DF8FFF760F9FFE7022014
:1013B0006870211D206800F0B0F8012068700020DE
:1013C00032BD002129702046704704F13C05687841
:1013D000704710B50446206801698A0715D5C168B1
:1013E0008A0712D56FF0020101610122227780691C
:1013F00010F0030F204602D000F04AF903E000F09D
:1014000048F900F087F800202077206801694A0732
:1014100015D5C1684A0712D56FF004010161022297
:101420002277806910F4407F204602D000F030F926
:1014300003E000F02EF900F06DF80020207720681E
:1014400001690A0715D5C1680A0712D56FF00801AE
:10145000016104222277C06910F0030F204602D0F8
:1014600000F016F903E000F014F900F053F8002042
:10147000207720680169CA0615D5C168CA0612D549
:101480006FF01001016108222277C06910F4407FDB
:10149000204602D000F0FCF803E000F0FAF800F07B
:1014A00039F80020207720680169CA0708D5C1688B
:1014B000CA0705D56FF0010101612046FFF74BFF18
:1014C000206801690A0608D5C1680A0605D56FF0CB
:1014D00080010161204600F0DDF8206801694A06BC
:1014E00008D5C1684A0605D56FF040010161204664
:1014F00000F0D1F8206801698A060AD5C1688A0619
:1015000007D56FF0200101612046BDE8104000F0D2
:10151000C3B810BD204600F0C0B8F0B5244C056833
:10152000244B254E254FDFF898C0A04218BFB0F1DC
:10153000804F07D0604518BFB84203D0B04218BFF3
:1015400098420DD14A6825F070051543A04218BF96
:10155000B0F1804F17D060451CBFB842B04212D0E6
:1015600098421CBF174A90420DD0174EB0421CBF84
:10157000164A904207D0164EB0421FBF154A9042FD
:10158000154EB04203D1CA6825F4407515434A6927
:1015900025F0800515430560A0428D68C5620A6884
:1015A000826212BF98420969016301224261F0BD63
:1015B0000000014000040140000C00400008004011
:1015C0000004004000400140004401400048014048
:1015D00000180040001C00400020004070B500F1E1
:1015E0003C031A78012A01D1022070BD01221A7031
:1015F00002245C7005686E68AC680A6826F07006A4
:1016000016436E6002681148824218BFB2F1804FE3
:1016100011D00F4882421CBF0E4DAA420BD00E487B
:1016200082421CBF0D4DAA4205D00D4882421CBF0C
:101630000C4DAA4204D1486824F08004044394600D
:10164000012159700020187070BD00000000014099
:101650000004004000080040000C0040000401406D
:10166000004001400018004038B50446FFF75EF81E
:1016700014F1010F054602D0044801786418FFF701
:1016800055F8401BA042FAD331BD00BF0000002036
:101690007047704770477047704770477047FEE764
:1016A000FEE7FEE7FEE770477047704700F00EB8B0
:1016B0000120FFF721BB0348FEF713BE0248FFF7E6
:1016C00088BE000010000020500000200248416841
:1016D00002788A1842607047000000200448054ADA
:1016E000016841F4700101604FF0006010607047C4
:1016F00088ED00E008ED00E00000000000000000C0
:10170000010203040607080930B450F8041B79B13C
:101710000268436802440830DC0744BFA9F10104B1
:10172000E31852F8045B43F8045B091FF9D1ECE7B6
:1017300030BC704710B5074979441831064C7C44D9
:10174000163404E00A68081D114488470146A14286
:10175000F8D110BD2C0000004C0000004EF688515E
:10176000CEF20001086840F470000860BFF34F8FAC
:10177000BFF36F8F4FF00070E1EE100A704700006A
:10178000E3EFFFFF800000001000002000000000D9
:1017900079FFFFFF1000000064000000000000203F
:1017A0000000000000F00DF8002801D0FFF7C2FF94
:1017B000AFF300800020AFF30080FFF793FC00F050
:1017C00002F80120704700F001B8000007463846D3
:1017D00000F002F8FBE7000080B5AFF30080024A9A
:1017E00011001820ABBEFBE726000200014880472D
:1017F00001480047DD1600080D1800080100000030
:1018000000000000100000000024F400AFF300808E
:10181000FFF7A4FFFFF7C6FF00000000010203046A
:10182000FFF7FEBFFFF7FEBFFFF7FEBFFFF7FEBFEC
:10183000FFF7FEBFFFF7FEBFFFF7FEBFFFF7FEBFDC
:10184000FFF7FEBFFFF7FEBFFFF7FEBFFFF7FEBFCC
:10185000FFF7FEBFFFF7FEBFFFF7FEBFFFF7FEBFBC
:10186000FFF7FEBFFFF7FEBFFFF7FEBFFFF7FEBFAC
:10187000FFF7FEBFFFF7FEBFFFF7FEBFFFF7FEBF9C
:10188000FFF7FEBFFFF7FEBFFFF7FEBFFFF7FEBF8C
:10189000FFF7FEBFFFF7FEBFFFF7FEBFFFF7FEBF7C
:1018A000FFF7FEBFFFF7FEBFFFF7FEBFFFF7FEBF6C
:1018B000FFF7FEBFFFF7FEBFFFF7FEBFFFF7FEBF5C
:1018C000FFF7FEBFFFF7FEBFFFF7FEBFFFF7FEBF4C
:1018D000FFF7FEBFFFF7FEBFFFF7FEBFFFF7FEBF3C
:1018E000FFF7FEBFFFF7FEBFFFF7FEBFFFF7FEBF2C
:1018F000FFF7FEBFFFF7FEBFFFF7FEBFFFF7FEBF1C
:10190000FFF7FEBFFFF7FEBFFFF7FEBFFFF7FEBF0B
:10191000FFF7FEBFFFF7FEBFFFF7FEBFFFF7FEBFFB
:10192000FFF7FEBFFFF7FEBFFFF7FEBFFFF7FEBFEB
:10193000FFF7FEBFFFF7FEBFFFF7FEBFFFF7FEBFDB
:10194000FFF7FEBFFFF7FEBFFFF7FEBFFFF7FEBFCB
:10195000FFF7FEBFFFF7FEBFFFF7FEBFFFF7FEBFBB
:10196000FFF7FEBFFFF7FEBFFFF7FEBFFFF7FEBFAB
:0C197000FFF7FEBFFFF7FEBFFFF7FEBF52
:040000050800180DCA
:00000001FF
