:020000040800F2
:1000000050040020E9160008991500089B15000807
:100010009D1500089F150008A115000800000000AC
:10002000000000000000000000000000A315000810
:10003000A515000800000000A7150008A915000874
:1000400005170008091700080D1700081117000808
:100050001517000819170008AD1500081D1700082E
:10006000B3150008B9150008BF15000821170008CE
:1000700025170008291700082D1700083117000858
:1000800035170008391700083D1700084117000808
:1000900045170008491700084D17000851170008B8
:1000A00055170008591700085D1700086117000868
:1000B00065170008C5150008691700086D170008C6
:1000C0007117000875170008791700087D170008D8
:1000D0008117000885170008891700088D17000888
:1000E0009117000895170008991700089D17000838
:1000F000A1170008A5170008A9170008AD170008E8
:10010000B1170008B5170008B9170008BD17000897
:10011000C1170008C5170008C9170008CD17000847
:10012000D1170008D5170008D9170008DD170008F7
:10013000E1170008E5170008E9170008ED170008A7
:10014000F1170008F5170008F9170008FD17000857
:100150000118000805180008091800080D18000803
:100160001118000815180008191800081D180008B3
:1001700021180008251800082918000800000000B0
:100180002D18000831180008351800083918000823
:100190003D180008411800084518000849180008D3
:1001A0004D180008511800085518000838B504000B
:1001B00001D1012032BD00F054F818B900F04DF81B
:1001C00000F0EAFA1BE00068C16841F00101C1607B
:1001D000816801F00701062903D0016841F001019F
:1001E00001600020704738B5040001D1012032BD04
:1001F00000F037F818B900F030F800F029FB0220C1
:100200006870211D206800F05AF9012068700020F4
:1002100032BD10B500F017F800F01AF81CBFDFF877
:100220004C209042FFE703D1416C41F4004141640E
:10023000816801F00701062903D0016841F001013E
:100240000160002010BD04460122206800F07BBA46
:100250002068DFF81C108842704700212970204672
:10026000704704F13C0568787047000000040140C5
:100270000000014010B50446206801698A0715D5C1
:10028000C1688A0712D56FF002010161012222774D
:10029000806910F0030F204602D000F0DAFA03E084
:1002A00000F0D8FA00F087F8002020772068016974
:1002B0004A0715D5C1684A0712D56FF004010161DC
:1002C00002222277806910F4407F204602D000F09D
:1002D000C0FA03E000F0BEFA00F06DF800202077CD
:1002E000206801690A0715D5C1680A0712D56FF0A1
:1002F0000801016104222277C06910F0030F204633
:1003000002D000F0A6FA03E000F0A4FA00F053F8DF
:100310000020207720680169CA0615D5C168CA0681
:1003200012D56FF01001016108222277C06910F424
:10033000407F204602D000F08CFA03E000F08AFAF9
:1003400000F039F80020207720680169CA0708D535
:10035000C168CA0705D56FF001010161204600F0B0
:10036000F5FB206801690A0608D5C1680A0605D5AB
:100370006FF080010161204600F018FC20680169DF
:100380004A0608D5C1684A0605D56FF040010161EB
:10039000204600F00CFC206801698A060AD5C16875
:1003A0008A0607D56FF0200101612046BDE81040A4
:1003B00000F0FEBB10BD204600F0FBBB38B500F1DD
:1003C0003C042378012B01D1022032BD012323708C
:1003D000022565704AB1042A0BD0082A0DD00C2AD8
:1003E00004BF006800F041F90AE0006800F0B2F8CC
:1003F00006E0006800F0DAF802E0006800F006F9B4
:1004000000F057B838B500F04EF801D1022032BDE7
:100410000120207002226270DFF894022A6893683B
:10042000034093600868020018BF10282DD02028D0
:1004300018BF302829D0402823D0502816D0602853
:1004400018D0702803D0B0F5005F07D021E000F08D
:1004500025F82868816841F0770105E000F01EF872
:100460002868816841F48041816012E000F012F850
:1004700050210BE0CA684968286800F040F9602103
:1004800004E000F007F8402100E00146286800F091
:1004900048F90EE0CA684968286821E1CB684A68D3
:1004A0008968286845E1054605F13C042078012863
:1004B00070470120607000212170002032BDF0B52E
:1004C0007C4C05687C4B7D4E7D4FDFF8F8C1A04227
:1004D00018BFB0F1804F07D0604518BFB84203D0B5
:1004E000B04218BF98420DD14A6825F070051543F7
:1004F000A04218BFB0F1804F17D060451CBFB84272
:10050000B04212D098421CBF6F4A90420DD06F4E3D
:10051000B0421CBF6E4A904207D06E4EB0421FBF21
:100520006D4A90426D4EB04203D1CA6825F44075C1
:1005300015434A6925F0800515430560A0428D6882
:10054000C5620A68826212BF98420969016301228A
:100550004261F0BDF0B5026A564F52085200026285
:10056000066A446885690B688A6825F0730526F079
:1005700002061D431643504BB84218BF984207D19C
:10058000CA6826F008061643B84226F0040601D0D1
:10059000984205D14B698A6924F440741C43144382
:1005A00044608561496841630662F0BDF0B5026A46
:1005B000404E22F010020262B042056A436884692C
:1005C0000A6824F4E64444EA02248A6825F02005F7
:1005D00045EA0215384A18BF904208D1CF6825F085
:1005E000800545EA0715B04225F0400501D090424C
:1005F00006D14E698A6923F44063164343EA8603B1
:1006000043608461496881630562F0BDF0B5026AA8
:1006100022F480720262056A4368C4698E680A68BF
:1006200025F4007524F0730445EA06251443214E91
:10063000214AB04218BF904208D1CF6825F4006526
:1006400045EA0725B04225F4806501D0904206D1E5
:100650004E698A6923F44053164343EA0613436004
:10066000C4614968C1630562F0BD70B5026A114E8C
:1006700022F480520262B042046A4268C3690D6883
:1006800023F4E64343EA05238D6824F4005444EA46
:1006900005341CBF084DA84204D14D6922F48042A4
:1006A00042EA85124260C36149680164046270BD18
:1006B0008800FFFF0000014000040140000C0040E2
:1006C0000008004000040040004001400044014098
:1006D0000048014000180040001C0040002000407D
:1006E00010B5036A046A64086400046223F00A0314
:1006F000846924F0F00444EA021484612EE010B509
:10070000036A23F0100303628369046A23F47043CD
:1007100043EA023324F0A004836144EA0114046232
:1007200010BD826822F07002114341F00701816020
:10073000704710B5846824F47F442143114341EA93
:100740000321816010BD10B501F01F01036A01246F
:100750008C40A343036202FA01F1036A1943016268
:1007600010BD000081B00020009000223348416895
:1007700041F480414160416801F480410091009959
:100780000092036843F080530360006800F08050DB
:100790000090009801B0704781B0006828498842F5
:1007A0000BD1002225480092016841F0020101604E
:1007B000006800F002000090009801B0704738B562
:1007C00086B0044601A8142100F0F4F924681C4DF9
:1007D000AC4231D1002000901A48016841F001017B
:1007E0000160026802F0010200920022009900926A
:1007F000C021036843F0020303600222006800F096
:10080000020000900098104801910292002103918B
:10081000032202210591049201A900F0CFF90022E0
:10082000039203200221019002910490022205927A
:1008300001A9064800F0C2F907B030BD40380240B7
:100840000004004030380240000002400004024032
:10085000704770477047000010B500F0C3FA00F011
:1008600040F800F0DAF800F087F8002200210620B6
:1008700000F0ECFA062000F006FB00220021082020
:1008800000F0E4FA082000F0FEFA0022002109201E
:1008900000F0DCFA092000F0F6FA002200210A201C
:1008A00000F0D4FA0A2000F0EEFA002200211D2008
:1008B00000F0CCFA1D2000F0E6FAAE4C2046FFF71F
:1008C00082FC002100F00AF8042100F007F808215A
:1008D00000F004F80C2100F001F8FEE72046FFF7D5
:1008E00098BC80B592B006A8302100F063F901A849
:1008F000142100F05FF9002000904FF480339E48EF
:10090000016841F0805101600021006800F08050D2
:100910000090009899480091026842F440420260B9
:100920000122006800F44040009006A80099069259
:1009300002214FF480020C910D9208214FF4A8720D
:100940000E910F920221042207931091119200F050
:10095000C5FA02210291002203920F204FF4A05108
:10096000019004914FF480520592052101A800F0F6
:1009700047FC13B000BD0000D8B58DB009A8102108
:1009800000F018F987A402A8D4E90067CDE9006750
:100990001C2100F00FF9774C7948206042F2CF011A
:1009A00063200022E0606160A2602261A2612046B3
:1009B000FFF7FCFB4FF48050099009A92046FFF790
:1009C00021FD2046FFF70FFC0021009101912046F8
:1009D000694600F0D5FC30210291012203920021EA
:1009E00004910022069200F014F8192003900422CA
:1009F00000F00FF832200390082200F00AF863207C
:100A000003900C2200F005F82046FFF7D8FE0EB048
:100A1000D0BD02A92046FFF7D1BC38B586B06846E4
:100A2000142100F0C7F800245648574D059401687A
:100A3000564C41F010010160026802F0100205926C
:100A4000002205990592036843F080030360016862
:100A500001F0800100F052F843F0010303600168E7
:100A600001F0010100F04AF843F00203036001685D
:100A700001F0020100F042F843F00803036001684E
:100A800001F00801059105990592B021036843F032
:100A900040030360006800F0400005900598204680
:100AA00000F06FF900224FF4C041284600F069F9C8
:100AB0001C20374900F027F8364800F07FF8012065
:100AC000354900F020F8354800F078F8042000217E
:100AD0000090019102916946314800F06FF8B02111
:100AE00000F017F8204600F069F84FF4C04100F01C
:100AF00010F8284600F062F807B030BD059105995E
:100B000005920368704700900191002202926946A5
:100B10007047009101220192002102910322039269
:100B2000694670470128194A08BFB0210AD0042835
:100B300008BF102106D0082808BF202102D01028A5
:100B400003D18021104600F020B9704700680C4A9C
:100B5000904200D0704710B50B4C4FF40051204626
:100B600000F013F92046BDE810404FF4804100F03A
:100B70000CB9000010000020403802400070004016
:100B8000000400403038024000180240000C0240CF
:100B9000000021100010024000001110000002406F
:100BA0000004024000000000000000007047704791
:100BB00070477047002200F029BC00002DE9F84F73
:100BC0000D464FF0000879490F22012304462E6894
:100BD00003FA08F000EA0609814540F0CA804FEAAE
:100BE000480C032606FA0CF66FEA060E6E68012E14
:100BF00018BF022E03D0112E18BF122E11D1A668D5
:100C0000EF680EEA060607FA0CF73E43A660666830
:100C100026EA00006E68C6F3001606FA08F63043AE
:100C20006060E068AE680EEA000006FA0CF6304339
:100C3000E0604FEA88006E68022E18BF122E12D1B3
:100C40004FEAD80604EB860600F01C07D6F820A071
:100C500002FA07FB2AEA0B0AD5F810B00BFA07F7DD
:100C600047EA0A07376226680EEA06072E7906F079
:100C7000030606FA0CF63E4326606E68F60078D549
:100C8000002600964FEA980C0E68DFF824E146F43F
:100C900080460E6000F00C000E6806F48046009658
:100CA000009E5EF82C7002FA00F627EA0606414F15
:100CB000BC4208BF00272CD03F4FBC4208BF0127D1
:100CC00027D03E4FBC4208BF022722D03C4FBC4237
:100CD00008BF03271DD03B4FBC4208BF042718D0D4
:100CE000394FBC4208BF052713D0384FBC4208BF5C
:100CF00006270ED0364FBC4208BF072709D0354F14
:100D0000BC4208BF082704D0334FBC420CBF0927A0
:100D10000A2707FA00F030434EF82C006FEA090C5E
:100D20002E4806680CEA060E6E68F70348BF49EACB
:100D30000E0EC0F800E046680CEA060E6E68B703B7
:100D400048BF49EA0E0EC0F804E086680CEA060EB9
:100D50006E68F70248BF49EA0E0EC0F808E0C668A0
:100D60000CEA060E6E68B60248BF49EA0E0EC0F8DD
:100D70000CE008F10108B8F10F0F7FF628AFBDE8CD
:100D8000F18F02B909048161704742690A408A42C1
:100D900008BF090481617047114A136803421CBFF0
:100DA0001060FFF7BFBE70470000000044380240EB
:100DB00008380140000002400004024000080240E0
:100DC000000C0240001002400014024000180240D3
:100DD000001C02400020024000240240003C014070
:100DE000143C014080B50B48016841F4007101607A
:100DF000026842F480620260016841F4807101601F
:100E0000032000F016F8002000F01AFBFFF7AAFC00
:100E1000002002BD003C02400901020002D4294822
:100E200081547047284B02F00F021A4402F8041C48
:100E30007047264B19684FF6FF020002114000F47C
:100E4000E0600843224908431860704738B51F4BDB
:100E50001C68C4F30223C3F10704052C28BF042433
:100E60001D1D072D34BF0023DB1E012505FA04F4E8
:100E7000641E2140994005FA03F35B1E1A4011439A
:100E8000BDE83440C8E7010007D4012200F01F018B
:100E9000104B8A40400943F82020704710B5401E8F
:100EA000B0F1807F01D3012010BD0B4C60600F2199
:100EB0004FF0FF30FFF7B0FF0021A1600720206056
:100EC000002010BD00E400E018ED00E00CED00E0B3
:100ED0000000FA0500E100E010E000E02DE9F84331
:100EE000040016D02078DFF80863C10713D5B06876
:100EF00000F00C00042807D0B06800F00C000828AF
:100F00003ED1706841023BD53068810303D56068EB
:100F1000002800F0FF802078B64F810719D5B0680F
:100F200010F00C0F07D0B06800F00C0008285CD15E
:100F30007068410259D43068810703D5E068012800
:100F400040F0E8803168206921F0F80141EAC001F1
:100F50003160217808076CD56069A749002862D004
:100F600001220A6000F08CFA0546706F810700F1DB
:100F7000D38000F085FA401B0228F6D9032034E123
:100F80006068B0F5803F04D1306840F48030306054
:100F900011E0B0F5A02F306806D140F48020306019
:100FA000316841F4803105E020F4803030603168F0
:100FB00021F480213160606858B100F061FA054683
:100FC00030688103A7D400F05BFA401B6528F7D393
:100FD000D4E700F055FA0546306881039BD500F050
:100FE0004FFA401B6528F7D3C8E7E06870B10121CC
:100FF000396000F045FA05463068810700F1B88095
:1010000000F03EFA401B0228F6D9B7E7386000F03E
:1010100037FA0546316888079BD500F031FA401B46
:101020000228F7D9AAE7086000F02AFA0546706F8F
:10103000810771D500F024FA401B0228F7D99DE7FB
:101040000528306F06D140F004003067306F40F063
:10105000010005E0400840003067306F20F00400D8
:10106000306741F28938A06868B100F009FA81461A
:10107000306F810700F1898000F002FAA0EB0900CF
:101080004045F5D37AE700F0FBF98146306F8107E0
:101090007BD500F0F5F9A0EB09004045F6D36DE7EC
:1010A00000F0EEF9401B022840F2828066E700F073
:1010B000E7F9001B022840F293805FE700203866C2
:1010C00000F0DEF904463068810140F18D8000F0C7
:1010D000D7F9001B0228F6D950E701281AD070680A
:1010E000E26900F48001914202BF00F03F01226AF0
:1010F00091420FD147F6C071626A0140914202BF2E
:1011000000F44031A26A914202BF00F07060E16ACF
:10111000884269D0012068E0207841073AD5306CD8
:101120000025C1000AD400950125316C41F08051A1
:101130003164306C00F0805000900098DFF8BC8083
:10114000D8F80000C1051BD4D8F8000040F4807026
:10115000C8F8000000F094F98146D8F80000C105F5
:101160000ED400F08DF9A0EB09000228F5D905E7AF
:101170003068216920F0F80040EAC1003060E8E6FC
:10118000A06801287FF45CAF60E71DB1306C20F0EF
:1011900080503064A06938B3B16801F00C010829AF
:1011A0009BD002288AD10020386600F069F90546F4
:1011B000306881013FF574AFE269206A616A0243D9
:1011C000A06A400842EA8112401E42EA0042E06AF8
:1011D00042EA006272600121396600F051F904466A
:1011E000306881017FF563AF0020BDE8F28300BF66
:1011F0000038024000004742800E47420070004025
:101200002DE9F04104000F4678D0404E306800F0E0
:101210000F00B84202D200F073F86FD120683C4D45
:10122000810712D5400703D5A96841F4E051A960B0
:101230002078010703D5A86840F46040A860A96839
:10124000A06821F0F0010143A9602178C8074DD5BD
:101250006068012802D129688A0305E0022818BFC6
:10126000032803D129688A0103D447E029688A0743
:1012700044D5A968890840EA8100A86000F000F917
:101280008046A868616800F00C00B0EB810F2DD09B
:1012900000F0F6F8A0EB080041F289318842F0D363
:1012A000032021E02078410705D5AA68E06822F4F0
:1012B000E0520243AA602178080706D5A968206990
:1012C00021F4604141EAC001A96000F029F8AA6850
:1012D0001049114BC2F30312895CC84018600F48D3
:1012E000006800F0ADF80020BDE8F081306800F043
:1012F0000F008742D6D200F003F8D3D00120F3E7E5
:101300003770316801F00F01B9427047003C02406C
:1013100000380240341600080C00002008000020AD
:1013200030B5144C606800F00C00042802D0082886
:1013300002D01DE0104830BD226820680023410221
:1013400002F03F0204D525680B49C5F3881003E07D
:1013500020680A49C0F38810A1FB000100F096F84C
:101360002168C1F30141491C4900B0FBF1F030BDD7
:10137000024830BD0438024000127A000024F40014
:1013800070B500F13C031A78012A01D1022070BD2A
:1013900001221A7002245C7005686E68AC680A68E5
:1013A00026F0700616436E6002681148824218BF2C
:1013B000B2F1804F11D00F4882421CBF0E4DAA429D
:1013C0000BD00E4882421CBF0D4DAA4205D00D48DD
:1013D00082421CBF0C4DAA4204D1486824F080040C
:1013E00004439460012159700020187070BD000002
:1013F000000001400004004000080040000C0040D4
:1014000000040140004001400018004000B500BF4A
:10141000130096469446103928BFA0E80C50FAD81D
:101420005FEA417C28BF0CC048BF40F8042BC907C5
:1014300028BF20F8022B48BF00F8012B00BD000098
:1014400038B50D4D0D4B2A7804464FF47A71186863
:10145000B1FBF2F2B0FBF2F0FFF720FD50B9102C17
:1014600008D2002221464FF0FF30FFF7EFFCAC60BE
:10147000002032BD012032BD000000200C00002001
:1014800001484068704700BF00000020D3BBD9B1BD
:10149000B2F5803F5BD2022A1ED98C46B1FBF2F135
:1014A00002FB11C31B0443EA1043B3FBF2FC02FB33
:1014B0001C3380B240EA0343B3FBF2F002FB10326C
:1014C00040EA0C4000237047022A05D98446B0FB4D
:1014D000F2F002FB10C270474AB105D100F00102E0
:1014E00049085FEA3000704700220023704700F08F
:1014F00051B80B000200002100207047F7D30022F2
:1015000000237047904271EB030CF2D370B5B1FA2F
:1015100081F4B3FA83F52C1BA340C4F1200532FA01
:1015200005F63343A2405FF00046E64002E05B0868
:101530005FEA3202841A71EB030524BF2046294674
:101540007641F4D302000B003000002170BD70B56D
:10155000B1FA81F4B2FA82F5C4F120046419B4F14D
:101560002006DAD3B2405FF00044F440002502E0E8
:1015700052085FEA3303C61A71EB020E24BF3046ED
:10158000714664416D41F3D302000B002000290035
:1015900070BD0000704700007047FEE7FEE7FEE701
:1015A000FEE770477047704700F012B80120FFF760
:1015B000F3BB0420FFF7F0BB0820FFF7EDBB1020C2
:1015C000FFF7EABB0148FEF755BE000010000020FF
:1015D0000248416802788A18426070470000002083
:1015E00030B5016884684218416802EB5103C907AD
:1015F0000BD54C4409E012F9011B12F8015B0029DC
:1016000004F8015B05D5491CF9D19A42F3D10C309D
:1016100030BD491EF1D5F8E70448054A016841F498
:10162000700101604FF000601060704788ED00E0CD
:1016300008ED00E0000000000000000001020304CB
:101640000607080910B5074979441831064C7C444F
:10165000163404E00A68081D114488470146A14277
:10166000F8D110BD2C000000380000004EF6885163
:10167000CEF20001086840F470000860BFF34F8F9D
:10168000BFF36F8F4FF00070E1EE100A704700005B
:1016900051FFFFFFC40100001A00000000000020FD
:1016A00000F00DF8002801D0FFF7CCFFAFF3008069
:1016B0000020AFF30080FFF7CFF800F002F8012020
:1016C000704700F001B800000746384600F002F805
:1016D000FBE7000080B5AFF30080024A110018203C
:1016E000ABBEFBE7260002000148804701480047E7
:1016F00019160008F9160008AFF30080FFF7B6FFCF
:10170000FFF7CEFFFFF7FEBFFFF7FEBFFFF7FEBFFD
:10171000FFF7FEBFFFF7FEBFFFF7FEBFFFF7FEBFFD
:10172000FFF7FEBFFFF7FEBFFFF7FEBFFFF7FEBFED
:10173000FFF7FEBFFFF7FEBFFFF7FEBFFFF7FEBFDD
:10174000FFF7FEBFFFF7FEBFFFF7FEBFFFF7FEBFCD
:10175000FFF7FEBFFFF7FEBFFFF7FEBFFFF7FEBFBD
:10176000FFF7FEBFFFF7FEBFFFF7FEBFFFF7FEBFAD
:10177000FFF7FEBFFFF7FEBFFFF7FEBFFFF7FEBF9D
:10178000FFF7FEBFFFF7FEBFFFF7FEBFFFF7FEBF8D
:10179000FFF7FEBFFFF7FEBFFFF7FEBFFFF7FEBF7D
:1017A000FFF7FEBFFFF7FEBFFFF7FEBFFFF7FEBF6D
:1017B000FFF7FEBFFFF7FEBFFFF7FEBFFFF7FEBF5D
:1017C000FFF7FEBFFFF7FEBFFFF7FEBFFFF7FEBF4D
:1017D000FFF7FEBFFFF7FEBFFFF7FEBFFFF7FEBF3D
:1017E000FFF7FEBFFFF7FEBFFFF7FEBFFFF7FEBF2D
:1017F000FFF7FEBFFFF7FEBFFFF7FEBFFFF7FEBF1D
:10180000FFF7FEBFFFF7FEBFFFF7FEBFFFF7FEBF0C
:10181000FFF7FEBFFFF7FEBFFFF7FEBFFFF7FEBFFC
:10182000FFF7FEBFFFF7FEBFFFF7FEBFFFF7FEBFEC
:10183000FFF7FEBFFFF7FEBFFFF7FEBFFFF7FEBFDC
:10184000FFF7FEBFFFF7FEBFFFF7FEBFFFF7FEBFCC
:10185000FFF7FEBFFFF7FEBF0001F9000010FC001C
:051860000124F4BF00AB
:04000005080016F9E0
:00000001FF
