:020000040800F2
:10000000C80A0020912600081525000817250008B9
:10001000192500081B2500081D2500080000000008
:100020000000000000000000000000001F25000884
:1000300021250008000000002325000825250008D0
:10004000B5260008B9260008BD260008C12600080C
:10005000C5260008C9260008292500082F25000804
:10006000352500083B250008CD260008D1260008CC
:10007000D5260008D9260008DD260008E12600085C
:10008000E5260008E9260008ED260008F12600080C
:10009000F5260008F9260008FD26000801270008BB
:1000A00005270008092700080D2700081127000868
:1000B00015270008412500084725000819270008D2
:1000C0001D270008212700082527000829270008E8
:1000D0002D27000831270008352700084D25000886
:1000E000392700083D270008412700084527000858
:1000F000492700084D270008512700085527000808
:10010000592700085D2700086127000865270008B7
:1001100053250008692700086D270008712700088B
:1001200075270008792700087D2700088127000827
:1001300085270008892700088D27000891270008D7
:1001400095270008992700089D270008A127000887
:10015000A5270008A9270008AD270008B127000837
:10016000B5270008B9270008BD270008C1270008E7
:10017000C5270008C9270008CD2700080000000097
:10018000D1270008D5270008D9270008DD27000857
:10019000E1270008E5270008E9270008ED27000807
:1001A000F1270008F5270008F92700082DE9F84194
:1001B0008DB000F015FC00F0D8F800F01FF909A888
:1001C000102100F027FC0FF60800DFF8A467D0E943
:1001D0000045CDE9004502A81C2100F01BFCDFF81A
:1001E0009447DFF89407206040F2473140F2CF7027
:1001F0000022E0606160A2602261A261204600F0FE
:1002000029FC4FF48055099509A9204600F0C0FD4E
:10021000204600F056FC00210091019120466946DD
:1002200000F066FF602102914FF4E4620392002126
:1002300004910022069200F094F8042200F091F854
:10024000082200F08EF8204600F0DDFF06F58167F9
:10025000DFF82807386000210C2078614FF4E1387E
:10026000B960F9603961B961F961C7F8048038464D
:1002700001F0D0F84FF0A040306004210020306140
:1002800071600120F0610021316200200222706261
:1002900001213063F260B261F162304601F0A0FAF0
:1002A00002A8102100F0B6FB0FF22C72DFF8D03656
:1002B000D2E90001CDE900013B6442F2CF0078644D
:1002C000002142F20F70B964F8643965B96506F52A
:1002D0008967384600F0BEFB029502A9384600F057
:1002E00057FD0021009101913846694600F000FF5A
:1002F000DFF87856DFF88C06286000210C20686152
:10030000A960E9602961A961E961C5F8048028460E
:1003100001F080F8002200211D2001F0E3FA1D20E9
:1003200001F0FDFA204600F0A2FB384600F09FFBEA
:1003300000F049FB042100F047FB082100F044FBDA
:10034000E06DA066E0662067400000EBD0704010D2
:10035000C6F88804012206F28C41284601F095F87F
:10036000F8E702A9204600F09BBC80B592B006A831
:10037000302100F04FFB01A8142100F04BFB0020BE
:1003800000904FF4A023DFF80006016841F080518F
:1003900001600021006800F0805000900098DFF8B4
:1003A000EC050091026842F44042026001220068BC
:1003B00000F44040009006A80099069202214FF4F4
:1003C00080020C910D920421A8220E910F9202211D
:1003D000072207931091119201F0CCFA02210291A9
:1003E0000F204FF4A0510190002204910591039237
:1003F000052101A801F050FC13B000BD2DE9F84320
:1004000086B06846142100F005FB0024DFF8800563
:10041000DFF88055DFF88065DFF88085DFF88095AC
:10042000059444F28104016841F0040101604FF435
:100430000057026802F00402059200220599059215
:10044000036843F080030360016801F0800100F05D
:10045000BAF843F001030360016801F0010100F004
:10046000B2F843F002030360016801F0020100F0FA
:10047000AAF843F040030360016801F040010591D0
:10048000059905922146036843F00803036000685C
:1004900000F008000590059800F0B6F90022402110
:1004A000304601F0B2FD0022FF21404601F0ADFDD3
:1004B00000970022DFF8EC14019102926946484649
:1004C00001F0C0FC00F084F8322000F075F84846D6
:1004D00001F0B8FC00F07CF8062000F06DF8DFF8C1
:1004E000C80401F0AFFC01200190002202920392A7
:1004F00000946946284601F0A5FC0F20DFF8AC14F3
:10050000009000F066F800F068F8009700F060F8DE
:10051000032103910B2204926946284601F092FCC4
:10052000402100910122002102910391019200F0EB
:1005300054F88020002100900191029130466946D4
:1005400001F080FCFF210091012201920021029123
:10055000032203926946404601F074FC00F038F82B
:100560004FF420500321009003910B22049200F0DD
:1005700034F800220021062001F0B4F9062001F031
:10058000CEF900220021072001F0ACF9072001F08C
:10059000C6F900220021082001F0A4F9082001F08A
:1005A000BEF900220021092001F09CF9092001F088
:1005B000B6F907B0BDE8F0830321009003910B2248
:1005C0000492694670470591059905920368704742
:1005D000022101910022029270476946304601F0E3
:1005E00031BC0068DFF89013884200D07047F8B53E
:1005F000DFF8A853002200F006F90022022100F0E3
:1006000003F90022042100F0FFF8DFF86863706F3F
:10061000401C03287067C0F2F580306E012840F05E
:10062000EF80DFF88C73B87900F02D002D2840F2B0
:100630003A740DD1F26E706EB16EA24237DBB1F535
:10064000E16F05DD081A00F00AF9002100F0E0F87A
:10065000B87900F0310131291CBF00F03202322A92
:100660001AD000F0330133291CBF00F03402342AC1
:1006700012D000F0350135291CBF00F03602362AB1
:100680000AD000F0370137291FBF00F03802382A9E
:1006900000F0390039282AD1B26E706EF16EA24294
:1006A00012DBB1F5E16F1CDC00F0D4F81FE0B1F50E
:1006B000E16F04DDA31AA1F5E16C6345C2DB80188C
:1006C00000F0B1F80421C1E7B1F5E16F04DDA31A30
:1006D000A1F5E167BB4204DB801800F0C0F80021FF
:1006E00003E0081A00F09FF8042100F091F8B14FE0
:1006F000387900F02D002D2827D100F0ABF800F05C
:10070000A4F800F09DF8316F706EB1F5E16FD4BFC1
:100710004FF4E161091A3167B16EA142BCBFF26EBC
:10072000A24203DA41188018B166F06600F09FF823
:1007300000F06DF8F06E00F077F8042100F068F832
:1007400000F069F8082100F063F8387900F0300013
:10075000302807D100F06FF80122402100F054F852
:1007600000F06EF8387900F0310131291CBF00F03B
:100770003202322A1AD000F0330133291CBF00F0B4
:100780003402342A12D000F0350135291CBF00F0A4
:100790003602362A0AD000F0370137291FBF00F091
:1007A0003802382A00F03900392829D100F043F8FE
:1007B00000F04BF80122802100F026F8316F706EB6
:1007C000A142ACBF214641183167B16EB1F5E16F6E
:1007D000C4BFF26EB2F5E16F03DD091A101AB166FB
:1007E000F06600F044F800F012F8F06E00F01CF82B
:1007F000042100F00DF800F00EF8082100F008F8D0
:1008000000207067F1BD0121284601F0FEBB0021E8
:10081000304600F063B9306F7064082206F1400181
:10082000304600F03DBAF0667064042206F14001E3
:10083000304600F035BA00222021284601F0E5BB01
:1008400000228021284601F0E0BB002240212846FA
:1008500001F0DBBB01222021284601F0D6BBB066A7
:100860007064002206F14001304600F019BA0022FF
:10087000B06E706406F14001304600F011BA30B538
:100880004D484B4A0168936BC9B2D154D06B546B3D
:100890005B1C28B901F02E052E2D06D1012001E0A8
:1008A000012802D1434D2955641C01F052015229FF
:1008B00002D10023002400205463D063936330BD31
:1008C00038B50446354D207F012802D10122FFF7BB
:1008D0009AFF207F022803D101220221FFF794FF13
:1008E000207F042806D12846BDE838400122042193
:1008F00001F08BBB31BD38B501281E4C40F20775A5
:1009000004D0022804D0082805D011E020660FE0AA
:10091000002121660CE0E5656564002200F04EF8D8
:10092000042200F04BF8082200F048F80120A066ED
:1009300040F23971E06D8842C8BFE16504DC40F2E5
:1009400009718842B8BFE56500228021134801F093
:100950005CFB00F038F8042100F036F82046BDE8D2
:100960003440082100F0BAB800000000540600200E
:1009700088000020000000200004004000480040E3
:1009800000080040004C0040403802400070004029
:10099000303802400004024000180240000C0240BF
:1009A0000008024000001110000002400000211069
:1009B0001406002094060020044C004004F140017D
:1009C000204600F06DB90021204600F087B80000F5
:1009D0000000000000000000000000000000000017
:1009E00080B50B48016841F400710160026842F46F
:1009F00080620260016841F480710160032000F0B0
:100A000064FF002001F02AFB00F0B8FB002002BDCB
:100A1000003C0240002201F041BB30B4002513E04D
:100A200050F8042BD30744BFA9F101039A18091FFA
:100A3000042942F8045BFAD213468C0744BF1580A0
:100A40009B1CC90748BF1D7050F8041B0029E7D143
:100A500030BC704738B5040001D1012032BD00F030
:100A600072F818B900F06BF800F0A2FB0FE0006814
:100A7000C16841F00101C160816801F007010629E8
:100A800003D0016841F0010101600020704702209D
:100A90006870211D206800F0D8F9012068700020DE
:100AA00032BD03D1416C41F400414164816801F0E1
:100AB0000701062903D0016841F00101016000200F
:100AC00010BD38B5040001D1012032BD00F03BF863
:100AD00018B900F034F801F0FAFAD8E710B500F0D0
:100AE0000CF800F005F81CBFDFF864209042D8E74E
:100AF0002068DFF86010884270470446080006D07E
:100B0000042909D008290CD00C290FD013E0206843
:100B1000C26842F002020DE02068C26842F004029E
:100B200008E02068C26842F0080203E02068C2685A
:100B300042F01002C2602068012200F0CABA00210F
:100B400029702046704704F13C0568787047000022
:100B5000000401400000014010B50446206801690E
:100B60008A0715D5C1688A0712D56FF002010161A5
:100B700001222277806910F0030F204602D001F095
:100B8000A7FA03E001F0A5FA00F087F8002020772B
:100B9000206801694A0715D5C1684A0712D56FF068
:100BA0000401016102222277806910F4407F20460F
:100BB00002D001F08DFA03E001F08BFA00F06DF83D
:100BC00000202077206801690A0715D5C1680A0747
:100BD00012D56FF00801016104222277C06910F07C
:100BE000030F204602D001F073FA03E001F071FA1E
:100BF00000F053F80020207720680169CA0615D557
:100C0000C168CA0612D56FF010010161082222776F
:100C1000C06910F4407F204602D001F059FA03E089
:100C200001F057FA00F039F80020207720680169B8
:100C3000CA0708D5C168CA0705D56FF0010101616F
:100C40002046FFF7CEFC206801690A0608D5C16876
:100C50000A0605D56FF080010161204601F03AFADD
:100C6000206801694A0608D5C1684A0605D56FF0B3
:100C700040010161204601F02EFA206801698A06D0
:100C80000AD5C1688A0607D56FF0200101612046A8
:100C9000BDE8104001F020BA10BD2046FFF710BE9D
:100CA00070B500F063F801D1022070BD00F06BF860
:100CB00032B1042A17D0082A28D00C2A39D04AE0A9
:100CC0003068294600F00CF93068816941F008016C
:100CD00000F048F821F00401816131688A692869CF
:100CE00002438A6137E03068294600F025F9306810
:100CF000816941F4006100F035F821F4806100F071
:100D000031F82A6941EA0221816124E030682946EC
:100D100000F042F93068C16941F0080100F01EF8A6
:100D200021F00401C1613168CA6928690243CA61BE
:100D300011E03068294600F05EF93068C16941F47D
:100D4000006100F00BF821F4806100F007F82A69D7
:100D500041EA0221C16100F010F870BDC161306844
:100D6000C16970478161306881697047064606F144
:100D70003C040D4620780128704701206070002156
:100D8000217000207047012020700221617070479F
:100D900038B500F04EF801D1022032BD012020709C
:100DA00002226270DFF894022A689368034093601D
:100DB0000868020018BF10282DD0202818BF30283E
:100DC00029D0402823D0502816D0602818D0702869
:100DD00003D0B0F5005F07D021E000F025F82868C7
:100DE000816841F0770105E000F01EF8286881680D
:100DF00041F48041816012E000F012F850210BE0D4
:100E0000CA684968286800F040F9602104E000F0F1
:100E100007F8402100E00146286800F048F90EE09C
:100E2000CA684968286821E1CB684A6889682868E7
:100E300045E1054605F13C04207801287047012072
:100E4000607000212170002032BDF0B57C4C056837
:100E50007C4B7D4E7D4FDFF8F8C1A04218BFB0F14A
:100E6000804F07D0604518BFB84203D0B04218BFCA
:100E700098420DD14A6825F070051543A04218BF6D
:100E8000B0F1804F17D060451CBFB842B04212D0BD
:100E900098421CBF6F4A90420DD06F4EB0421CBFAB
:100EA0006E4A904207D06E4EB0421FBF6D4A9042CC
:100EB0006D4EB04203D1CA6825F4407515434A69A6
:100EC00025F0800515430560A0428D68C5620A685B
:100ED000826212BF98420969016301224261F0BD3A
:100EE000F0B5026A564F520852000262066A446820
:100EF00085690B688A6825F0730526F002061D4394
:100F00001643504BB84218BF984207D1CA6826F022
:100F100008061643B84226F0040601D0984205D1CF
:100F20004B698A6924F440741C431443446085610E
:100F3000496841630662F0BDF0B5026A404E22F096
:100F400010020262B042056A436884690A6824F4A8
:100F5000E64444EA02248A6825F0200545EA0215A1
:100F6000384A18BF904208D1CF6825F0800545EA7D
:100F70000715B04225F0400501D0904206D14E69D8
:100F80008A6923F44063164343EA8603436084611D
:100F9000496881630562F0BDF0B5026A22F480728F
:100FA0000262056A4368C4698E680A6825F40075A0
:100FB00024F0730445EA06251443214E214AB04229
:100FC00018BF904208D1CF6825F4006545EA07258F
:100FD000B04225F4806501D0904206D14E698A69FD
:100FE00023F44053164343EA06134360C46149683F
:100FF000C1630562F0BD70B5026A114E22F48052E1
:101000000262B042046A4268C3690D6823F4E64391
:1010100043EA05238D6824F4005444EA05341CBFD8
:10102000084DA84204D14D6922F4804242EA85125B
:101030004260C36149680164046270BD8800FFFFBB
:101040000000014000040140000C00400008004086
:1010500000040040004001400044014000480140BD
:1010600000180040001C00400020004010B5036A3A
:10107000046A64086400046223F00A03846924F0AB
:10108000F00444EA021484612EE010B5036A23F0F0
:10109000100303628369046A23F4704343EA023352
:1010A00024F0A004836144EA0114046210BD826844
:1010B00022F07002114341F007018160704710B5C2
:1010C000846824F47F442143114341EA0321816071
:1010D00010BD10B501F01F01036A01248C40A34329
:1010E000036202FA01F1036A1943016210BD0000B4
:1010F00070B500F13C031A78012A01D1022070BDBD
:1011000001221A7002245C7005686E68AC680A6877
:1011100026F0700616436E6002681148824218BFBE
:10112000B2F1804F11D00F4882421CBF0E4DAA422F
:101130000BD00E4882421CBF0D4DAA4205D00D486F
:1011400082421CBF0C4DAA4204D1486824F080049E
:1011500004439460012159700020187070BD000094
:10116000000001400004004000080040000C004066
:1011700000040140004001400018004081B0002000
:10118000009000229A48416841F4804141604168E2
:1011900001F48041009100990092036843F080536C
:1011A0000360006800F080500090009801B0704724
:1011B00080B500688F4A8E4990420BD10020009084
:1011C0000A6842F002020A60086800F0020000901B
:1011D000009801BD884A904214D1002000900A680E
:1011E00042F004020A600022086800F00400009047
:1011F000002100981E2000F075FBBDE802401E2073
:1012000000F08DBB01BD38B586B004466846142198
:10121000FFF700FC2468774DAC4232D100200590E6
:10122000764C7748016841F001010160026802F0E4
:1012300001020592002205990592402100F087F8ED
:10124000059005980091019200210291032202214C
:10125000049103926946204600F0F4FD00220292B8
:101260000392802000F00FF8204600F0EBFD0022F2
:10127000029203924FF4807000F005F8614800F08C
:10128000E1FD07B030BD02210090019102220492DD
:101290006946704710B586B000F0A4F821685A4C32
:1012A0005748A14222D100210091026942F4002254
:1012B00002610022016901F400210091009900926D
:1012C0004FF4406100F043F8009000984D480191C0
:1012D0000292012103910322082100F033F8002239
:1012E0000021342000F0FEFA342027E0474A9142E2
:1012F00026D100210091026942F48022026100227D
:10130000016901F480210091009900924FF440712D
:10131000036843F0080303600222006800F008003D
:10132000009000983A4800F057F8072100F00AF8BA
:1013300000220021272000F0D5FA272000F0EFFA44
:1013400006B010BD0591049201A900F07BBD0368B1
:1013500043F0040303600222006800F004007047B9
:1013600038B586B000F03EF82468B4F1A04F31D112
:101370000020234C214D00900222216841F0010100
:1013800021604FF4E851206800F0010000900098BF
:1013900000F022F80A210591049201A9284600F0E4
:1013A00051FD4FF4007000210190029103912846F5
:1013B00001A900F047FD606840F0800060600021F6
:1013C0000091606940F480406061606900F4804091
:1013D0000090009807B030BD019102920021039166
:1013E00003227047044601A81421FFF713BB000035
:1013F0004038024000040040000800400000024065
:101400003038024000080240004C004000480040D4
:10141000000C024038B5040001D1012032BD00F0BB
:1014200021F808B900F022F800F012F800F023F8D3
:10143000FFE7416100F001F832BD2068C16841F466
:101440000051C1600020686020216970A970704758
:10145000242068702068C16821F40051C1602046D2
:1014600000F04BB904F13805687870470021297005
:101470002046FFF70FBF2068016921F49041016108
:101480002068416921F02A01704710B500F1380346
:101490009C78202C22D109B1140001D1012010BD6B
:1014A0001C78012C1AD001241C7081628285C285AF
:1014B0000021596022229A7019700168CA6842F4AA
:1014C0008072CA6001684A6942F001024A6100689C
:1014D000C16841F02001C160002010BD022010BD94
:1014E000416921F040014161606B704738B50446A5
:1014F00025682968EA686B6911F00F0007D1880632
:101500005FD593065DD52046BDE83240ACE0D807F4
:1015100002D412F4907F54D0C80705D5D50503D561
:10152000E06B40F00100E063480705D5DD0703D517
:10153000E06B40F00200E063880705D5DD0703D5C6
:10154000E06B40F00400E063080707D5950601D47E
:10155000D80703D5E36B43F00803E363E06B00288F
:101560006CD0880604D5910644BF204600F07CF874
:1015700020684069E16B0A0701D440061BD520466C
:1015800000F05DF8206841694A060FD5FFF7A8FF13
:1015900060B10FF2C9010165606B00F09FFD00288A
:1015A0004CD0606B016DBDE8344008472046BDE873
:1015B000324000F0A5BD204600F0A2FD0020E0630F
:1015C00031BD08062AD5130628D594F839002128FC
:1015D00034D1A068B0F5805F206A0BD10188C1F3D7
:1015E0000801696020690028206A0CBF811C411C29
:1015F000216203E0411C216200786860E08C401E9B
:10160000E08480B2D0B92068C16821F08001C16057
:101610002068C16841F04001C16031BD48060DD568
:1016200051060BD5E86820F04000E860202184F8DE
:1016300039102046BDE8324000F063BD31BD01687D
:10164000CA6822F49072CA6001684A69520852005E
:101650004A61202180F83A1070470000806B002119
:10166000C185C18400F04CBD80B590F83A102229A4
:1016700041D18168B1F5805F12D101690368826A46
:101680000029596805D1C1F308011180826A911CB3
:1016900004E001F0FF011180826A511C81620FE0B9
:1016A00001690029816A04D14A1C826203685A6870
:1016B00005E04A1C826203685A6802F07F020A70E1
:1016C000C18D491EC18589B299B90168CA6822F0E5
:1016D0002002CA600168CA6822F48072CA60016888
:1016E0004A69520852004A61202180F83A10FFF7F7
:1016F000C6F8002002BD022002BDD0B50646642710
:1017000032681169F06821F44051014311611924D4
:10171000D3682D48B168034030690B4371690343B6
:10172000F0690B430343D3605169B06921F4407100
:1017300001435161F36925482549B3F5004F1FD195
:101740008A4218BF824202D100F034FB01E000F06F
:1017500029FB0246A4FB02017268D30F520000F07D
:10176000D1FC00F037F8FF0032376420B7FBF0F00F
:10177000420002F4F87202EB011200F007001DE0D3
:101780008A4218BF824202D100F014FB01E000F04F
:1017900009FB0246A4FB02017268930F920000F05D
:1017A000B1FC00F017F83F0132376420B7FBF0F0CE
:1017B00000F0F00202EB011200F00F003168801817
:1017C0008860D0BD00000000F369FFFF00140140F5
:1017D000001001406421B0FBF1F107FB11077047D5
:1017E00070B504008AB04BD0266804F56F75687830
:1017F00020B9002129702046FFF7B2FD0320687050
:10180000F16BC8055CBF00212161206800F03AFD42
:1018100083B000F048F80EBC206800F0F7FC002808
:101820002CD12068002100F033FD00211C2000266F
:101830000AE010FB01F222443C3201235370117084
:10184000D180002300F028F862689142F1D3002192
:1018500009E010FB01F2224402F5FE720023117030
:10186000537000F019F862689142F2D383B000F02F
:101870001AF80EBC206800F01FFD18B10220687035
:10188000012007E084F8380001216970206800F029
:10189000E1FD00200AB070BD491CD6709360D6608F
:1018A0005361C9B27047211D6846342200F00ABE58
:1018B0000901020002D4294881547047284B02F0E4
:1018C0000F021A4402F8041C7047264B19684FF6A1
:1018D000FF020002114000F4E0600843224908437F
:1018E0001860704738B51F4B1C68C4F30223C3F15E
:1018F0000704052C28BF04241D1D072D34BF002319
:10190000DB1E012505FA04F4641E2140994005FA06
:1019100003F35B1E1A401143BDE83440C8E70100E1
:1019200007D4012200F01F01104B8A40400943F800
:101930002020704710B5401EB0F1807F01D30120F8
:1019400010BD0B4C60600F214FF0FF30FFF7B0FF70
:101950000021A16007202060002010BD00E400E00D
:1019600018ED00E00CED00E00000FA0500E100E0F9
:1019700010E000E02DE9F843040016D02078DFF8ED
:101980000863C10713D5B06800F00C00042807D025
:10199000B06800F00C0008283ED1706841023BD5C9
:1019A0003068810303D56068002800F0FF8020784C
:1019B000B64F810719D5B06810F00C0F07D0B0688A
:1019C00000F00C0008285CD17068410259D43068DE
:1019D000810703D5E068012840F0E880316820697C
:1019E00021F0F80141EAC0013160217808076CD587
:1019F0006069A749002862D001220A6000F06EFDEC
:101A00000546706F810700F1D38000F067FD401B31
:101A10000228F6D9032034E16068B0F5803F04D194
:101A2000306840F48030306011E0B0F5A02F3068AD
:101A300006D140F480203060316841F4803105E007
:101A400020F480303060316821F48021316060689A
:101A500058B100F043FD054630688103A7D400F07B
:101A60003DFD401B6528F7D3D4E700F037FD054660
:101A7000306881039BD500F031FD401B6528F7D30A
:101A8000C8E7E06870B10121396000F027FD054624
:101A90003068810700F1B88000F020FD401B02286B
:101AA000F6D9B7E7386000F019FD054631688807B8
:101AB0009BD500F013FD401B0228F7D9AAE7086068
:101AC00000F00CFD0546706F810771D500F006FD32
:101AD000401B0228F7D99DE70528306F06D140F05A
:101AE00004003067306F40F0010005E0400840001E
:101AF0003067306F20F00400306741F28938A06809
:101B000068B100F0EBFC8146306F810700F18980FD
:101B100000F0E4FCA0EB09004045F5D37AE700F0C3
:101B2000DDFC8146306F81077BD500F0D7FCA0EB50
:101B300009004045F6D36DE700F0D0FC401B0228B9
:101B400040F2828066E700F0C9FC001B022840F2E8
:101B500093805FE70020386600F0C0FC04463068E0
:101B6000810140F18D8000F0B9FC001B0228F6D9FC
:101B700050E701281AD07068E26900F480019142B0
:101B800002BF00F03F01226A91420FD147F6C071B7
:101B9000626A0140914202BF00F44031A26A914260
:101BA00002BF00F07060E16A884269D0012068E0FD
:101BB000207841073AD5306C0025C1000AD4009541
:101BC0000125316C41F080513164306C00F080505F
:101BD00000900098DFF8BC80D8F80000C1051BD445
:101BE000D8F8000040F48070C8F8000000F076FCDF
:101BF0008146D8F80000C1050ED400F06FFCA0EBC0
:101C000009000228F5D905E73068216920F0F800BD
:101C100040EAC1003060E8E6A06801287FF45CAFCC
:101C200060E71DB1306C20F080503064A06938B39B
:101C3000B16801F00C0108299BD002288AD100204C
:101C4000386600F04BFC0546306881013FF574AF03
:101C5000E269206A616A0243A06A400842EA81128E
:101C6000401E42EA0042E06A42EA006272600121DC
:101C7000396600F033FC0446306881017FF563AFBC
:101C80000020BDE8F28300BF003802400000474258
:101C9000800E4742007000402DE9F04104000F46DD
:101CA00078D0494E306800F00F00B84202D200F000
:101CB00073F86FD12068454D810712D5400703D5D1
:101CC000A96841F4E051A9602078010703D5A8680C
:101CD00040F46040A860A968A06821F0F0010143C9
:101CE000A9602178C8074DD56068012802D129680C
:101CF0008A0305E0022818BF032803D129688A0156
:101D000003D447E029688A0744D5A968890840EACE
:101D10008100A86000F0E2FB8046A868616800F0DE
:101D20000C00B0EB810F2DD000F0D8FBA0EB080029
:101D300041F289318842F0D3032021E02078410725
:101D400005D5AA68E06822F4E0520243AA6021782F
:101D5000080706D5A968206921F4604141EAC0015D
:101D6000A96000F03FF8AA6819491A4BC2F30312A0
:101D7000895CC84018601848006800F06FF90020BE
:101D8000BDE8F081306800F00F008742D6D200F045
:101D900003F8D3D00120F3E73770316801F00F0169
:101DA000B94270470B480D4A006813680C49C3F3E9
:101DB000822206E00748094A006813680849C3F30D
:101DC0004232895CC8407047003C02400038024003
:101DD000CC25000884000020800000200838024044
:101DE000AC26000830B5144C606800F00C000428E4
:101DF00002D0082802D01DE0104830BD22682068BB
:101E00000023410202F03F0204D525680B49C5F3C7
:101E1000881003E020680A49C0F38810A1FB000184
:101E200000F070F92168C1F30141491C4900B0FB81
:101E3000F1F030BD024830BD0438024000127A0093
:101E40000024F4002DE9F84F0D464FF000087549C5
:101E50000F22012304462E6803FA08F000EA06095F
:101E6000814540F0CA804FEA480C032606FA0CF67A
:101E70006FEA060E6E68012E18BF022E03D0112ED7
:101E800018BF122E11D1A668EF680EEA060607FAEF
:101E90000CF73E43A660666826EA00006E68C6F34B
:101EA000001606FA08F630436060E068AE680EEA95
:101EB000000006FA0CF63043E0604FEA88006E68D6
:101EC000022E18BF122E12D14FEAD80604EB860656
:101ED00000F01C07D6F820A002FA07FB2AEA0B0A3A
:101EE000D5F810B00BFA07F747EA0A0737622668F9
:101EF0000EEA06072E7906F0030606FA0CF63E43B4
:101F000026606E68F60078D5002600964FEA980C99
:101F10000E68DFF814E146F480460E6000F00C0015
:101F20000E6806F480460096009E5EF82C7002FA59
:101F300000F627EA06063D4FBC4208BF00272CD01A
:101F40003B4FBC4208BF012727D03A4FBC4208BFD5
:101F5000022722D0384FBC4208BF03271DD0374F7D
:101F6000BC4208BF042718D0354FBC4208BF052724
:101F700013D0344FBC4208BF06270ED0324FBC42AC
:101F800008BF072709D0314FBC4208BF082704D03B
:101F90002F4FBC420CBF09270A2707FA00F0304335
:101FA0004EF82C006FEA090C2A4806680CEA060E67
:101FB0006E68F70348BF49EA0E0EC0F800E04668B5
:101FC0000CEA060E6E68B70348BF49EA0E0EC0F869
:101FD00004E086680CEA060E6E68F70248BF49EA1C
:101FE0000E0EC0F808E0C6680CEA060E6E68B6026F
:101FF00048BF49EA0E0EC0F80CE008F10108B8F13C
:102000000F0F7FF628AFBDE8F18F02B90904816197
:102010007047114A136803421CBF1060FEF76BBC87
:102020007047000044380240083801400000024078
:102030000004024000080240000C02400010024070
:102040000014024000180240001C02400020024020
:1020500000240240003C0140143C014038B50D4DC5
:102060000D4B2A7804464FF47A711868B1FBF2F2EE
:10207000B0FBF2F0FFF75EFC50B9102C08D2002242
:1020800021464FF0FF30FFF72DFCAC60002032BD41
:10209000012032BD780000208400002000B500BF80
:1020A000130096469446103928BFA0E80C50FAD881
:1020B0005FEA417C28BF0CC048BF40F8042BC90729
:1020C00028BF20F8022B48BF00F8012B00BD704745
:1020D00070477047704770477047000090F83510A0
:1020E000022903D08022426501207047052180F833
:1020F00035100068026852085200026000207047E4
:1021000070477047D3BBD9B1B2F5803F5BD2022A8A
:102110001ED98C46B1FBF2F102FB11C31B0443EA4A
:102120001043B3FBF2FC02FB1C3380B240EA0343D2
:10213000B3FBF2F002FB103240EA0C400023704780
:10214000022A05D98446B0FBF2F002FB10C27047A8
:102150004AB105D100F0010249085FEA300070473A
:1021600000220023704700F0BFB90B0002000021DD
:1021700000207047F7D3002200237047904271EB94
:10218000030CF2D370B5B1FA81F4B3FA83F52C1BCA
:10219000A340C4F1200532FA05F63343A2405FF0B4
:1021A0000046E64002E05B085FEA3202841A71EB07
:1021B000030524BF204629467641F4D302000B00D4
:1021C0003000002170BD70B5B1FA81F4B2FA82F529
:1021D000C4F120046419B4F12006DAD3B2405FF0F0
:1021E0000044F440002502E052085FEA3303C61AB7
:1021F00071EB020E24BF3046714664416D41F3D34A
:1022000002000B002000290070BD00000EB418B5BC
:1022100004460898012817D1A06B20F48030A063F1
:10222000E168DFF874020140E160E16821F44011E7
:10223000E1600F98012803D1E06840F48010E0606D
:10224000204600F013F90FE0E06840F04000E06045
:10225000204600F00BF90C990029A16B0CBF41F44A
:10226000803121F48031A1630699012907D1A16849
:1022700041F00601A160A16841F02001A16012BCFB
:102280005DF810FB816849084900816000207047B3
:1022900080B5C26822F0C0420129C26005D1C16880
:1022A00041F00051C1603220DCE019B9C16841F051
:1022B0008041F7E7012002BD0EB42DE9F043054649
:1022C000044600260021002004EB8102491C0F294E
:1022D000C2F80401F8D3DDF84490B9F1000F05F518
:1022E00000670AD1786840F002007860A06B40F483
:1022F0000010A06300F0D9F806E0A06B20F40010F5
:10230000A063A06B40F4002005F56061A0630E603F
:102310003A683A600C98012805D1099A002A14BF3E
:102320000121002100E00321204600F08BF810215C
:10233000204600F06BF800B10126204600F075F849
:1023400000B101260020386178612A46F8614FF615
:102350007F334FF0904C4FF0006E002503E00D608E
:102360000D618B60401C079988422AD202EB401114
:1023700001F51061D1F80080B8F1000FEFD5002809
:1023800006BF02F51068C8F800E0C1F800C0E7E732
:102390000D600D618B60401C0799884213D202EBDF
:1023A000401101F53061D1F80080B8F1000FEFD590
:1023B000002806BF02F53068C8F800E0C1F800C088
:1023C000E7E70020E8E7386920F480703861A5610C
:1023D0006FF0804060610A9800F060F8DFF8DC0080
:1023E0000143A1610D9818B1A06940F00800A061F7
:1023F000B9F1010F05D1A06940F0804040F0040020
:10240000A0613046BDE8F0035DF810FB890141F0A2
:1024100020010161DFF8A810491E04D0026993066B
:10242000FAD4002070470320704710210161DFF8C3
:102430009010491E04D00269D306FAD400207047D8
:102440000320704700F5006002681143FFE7016058
:102450000020704780B500F50060416841F002013E
:102460004160032000F042F8002002BDDFF8502058
:102470001146491E0DD00369002BFAD5016941F0C0
:1024800001010161521E04D00169CB07FAD400207A
:102490007047032070470000BFFFBDFF18B9A06957
:1024A00040F01000A061A1697047A06B20F40020EB
:1024B000A063A06B20F480207047000000383C80AF
:1024C000410D03004AB1000011F8013B521E00F813
:1024D000013B1CBF11F8013BF8E770470148406819
:1024E000704700BF780000207047000038B50446F0
:1024F000FFF7F4FF14F1010F054602D004480178FC
:102500006418FFF7EBFF401BA042FAD331BD00BFB8
:10251000780000207047FEE7FEE7FEE7FEE7704721
:102520007047704700F020B80120FFF772BD02200D
:10253000FFF76FBD0420FFF76CBD0820FFF769BDF2
:102540000548FEF709BB0548FEF706BB0448FEF741
:10255000CDBF0448FEF7CABF00000020D004002011
:1025600090040020540600200248416802788A182E
:10257000426070477800002030B5016884684218D6
:10258000416802EB5103C9070BD54C4409E012F92D
:10259000011B12F8015B002904F8015B05D5491CF9
:1025A000F9D19A42F3D10C3030BD491EF1D5F8E78C
:1025B0000448054A016841F4700101604FF0006071
:1025C0001060704788ED00E008ED00E000000000BA
:1025D00000000000010203040607080910B50749BE
:1025E00079441831064C7C44163404E00A68081D0E
:1025F000114488470146A142F8D110BD2C000000CB
:10260000480000004EF68851CEF20001086840F400
:1026100070000860BFF34F8FBFF36F8F4FF00070F3
:10262000E1EE100A70470000F3E3FFFF40060000F0
:10263000880000200000000041FFFFFFC0010000F3
:102640002E0000000000002000F00DF8002801D04E
:10265000FFF7C4FFAFF300800020AFF30080FDF769
:10266000A5FD00F002F80120704700F001B800005D
:102670000746384600F002F8FBE7000080B5AFF3EC
:102680000080024A11001820ABBEFBE726000200C2
:102690000148804701480047B1250008A1260008ED
:1026A000AFF30080FFF7AEFFFFF7CEFF00000000A2
:1026B00001020304FFF7FEBFFFF7FEBFFFF7FEBFF7
:1026C000FFF7FEBFFFF7FEBFFFF7FEBFFFF7FEBF3E
:1026D000FFF7FEBFFFF7FEBFFFF7FEBFFFF7FEBF2E
:1026E000FFF7FEBFFFF7FEBFFFF7FEBFFFF7FEBF1E
:1026F000FFF7FEBFFFF7FEBFFFF7FEBFFFF7FEBF0E
:10270000FFF7FEBFFFF7FEBFFFF7FEBFFFF7FEBFFD
:10271000FFF7FEBFFFF7FEBFFFF7FEBFFFF7FEBFED
:10272000FFF7FEBFFFF7FEBFFFF7FEBFFFF7FEBFDD
:10273000FFF7FEBFFFF7FEBFFFF7FEBFFFF7FEBFCD
:10274000FFF7FEBFFFF7FEBFFFF7FEBFFFF7FEBFBD
:10275000FFF7FEBFFFF7FEBFFFF7FEBFFFF7FEBFAD
:10276000FFF7FEBFFFF7FEBFFFF7FEBFFFF7FEBF9D
:10277000FFF7FEBFFFF7FEBFFFF7FEBFFFF7FEBF8D
:10278000FFF7FEBFFFF7FEBFFFF7FEBFFFF7FEBF7D
:10279000FFF7FEBFFFF7FEBFFFF7FEBFFFF7FEBF6D
:1027A000FFF7FEBFFFF7FEBFFFF7FEBFFFF7FEBF5D
:1027B000FFF7FEBFFFF7FEBFFFF7FEBFFFF7FEBF4D
:1027C000FFF7FEBFFFF7FEBFFFF7FEBFFFF7FEBF3D
:1027D000FFF7FEBFFFF7FEBFFFF7FEBFFFF7FEBF2D
:1027E000FFF7FEBFFFF7FEBFFFF7FEBFFFF7FEBF1D
:1027F000FFF7FEBFFFF7FEBFFFF7FEBFA4000121FA
:1028000007FA000001ED000001F9000010FC0002D1
:0328100024F400AD
:04000005080026A128
:00000001FF
