:020000040800F2
:1000000098730020AD3D0008053D0008073D00083D
:10001000093D00080B3D00080D3D000800000000F0
:100020000000000000000000000000000F3D00087C
:10003000113D000800000000133D0008153D0008B8
:10004000D73D0008DB3D0008DF3D0008E33D000828
:10005000E73D0008EB3D0008193D0008EF3D0008B2
:10006000F33D0008F73D0008FB3D0008FF3D000898
:10007000033E0008073E00080B3E00080F3E000844
:10008000133E0008173E00081B3E00081F3E0008F4
:10009000233E0008273E00082B3E00082F3E0008A4
:1000A000333E0008373E00083B3E00083F3E000854
:1000B000433E0008473E00084B3E00084F3E000804
:1000C000533E0008573E00085B3E00085F3E0008B4
:1000D000633E0008673E00086B3E00086F3E000864
:1000E000733E0008773E00087B3E00087F3E000814
:1000F000833E0008873E00088B3E00088F3E0008C4
:10010000933E0008973E00089B3E00089F3E000873
:10011000A33E0008A73E00081F3D0008AB3E0008B4
:10012000AF3E0008B33E0008B73E0008BB3E0008E3
:10013000BF3E0008C33E0008C73E0008CB3E000893
:10014000CF3E0008D33E0008D73E0008DB3E000843
:10015000DF3E0008E33E0008E73E0008EB3E0008F3
:10016000EF3E0008F33E0008F73E0008FB3E0008A3
:10017000FF3E0008033F0008073F000800000000A2
:100180000B3F00080F3F0008133F0008173F00080F
:100190001B3F00081F3F0008233F0008273F0008BF
:1001A0002B3F00082F3F0008333F00082DE9F04F98
:1001B0000FF2A41CA1B0DCE90089CDE900892A9DD9
:1001C000DFF8DC9B049100248DF843500D944FF030
:1001D000FF38824616461F460FE0B3462C461BF8F2
:1001E000011B0498D0470028049000F0A2800D98CD
:1001F000401C641E0D90F2D176193078252808D164
:10020000002100220791089209910A920B910C9209
:100210000DE06A464146304600F0DAFF050001D1A4
:100220000D98A1E0D9D50125E6E741F0010116F8C6
:10023000010F2028F9D023280CD02B2804D02D28FA
:1002400005D0302809D076E041F00201EFE741F017
:100250000401ECE741F00801E9E741F01001E6E7AD
:100260000F9209E00F98484505DA00EB800402EB95
:100270004402303A0F92761C3278A2F130000A28FC
:10028000F0D330782E2818BFCDF8388022D116F858
:10029000010F2A2807D138683860761C50F8042BE3
:1002A00038600E9216E02D280CBF761C002000222C
:1002B0000E920AE040B90E9A4A4505DA02EB820432
:1002C00003EB4403303B0E93761C3378A3F13002EA
:1002D0000A2AEFD3ADF8401021A0317800F082FF58
:1002E00008B116F8010B8DF842009DF8420068280D
:1002F00004D1307868280AD1622105E06C2804BF57
:1003000030786C2803D171218DF84210761C12A828
:1003100006903A4616F8013B02A9504600F064F8F0
:1003200038B912AA02A9504600F0C8F900287FF592
:1003300064AF404618E02A2892D13A683A6052F8F1
:10034000040B3A6000280F9003D540420F9041F013
:100350000401761C95E7000000000000000000008A
:10036000686A6C747A4C000021B0BDE8F08F622896
:1003700020D0682811D06A2803D06C2827D0712893
:1003800025D10868C01D20F007000860D0E90023CF
:1003900008300860194610467047002A0A680A604B
:1003A000106803D0121D0A6000B217E0121D0A6027
:1003B00080B217E0002A0A680A60106803D0121D94
:1003C0000A6040B20AE0121D0A60C0B20AE0002AC8
:1003D0000A680A60106803D0121D0A60C1177047CE
:1003E000121D0A60002170477CB50D4611461C465F
:1003F0002E69B4F1250200F04F811C3A00F0848090
:10040000121F022A40F280800E3A00F00981521F2A
:1004100059D0093A78D0921E16D0521E35D0521EAD
:10042000022A71D9121F30D0521F00F09880521E3C
:1004300049D0521E00F0E280D21E00F0FF80921ED2
:1004400041D0D21E3FD02DE195F83A406C2C09D016
:100450006869421C6A610A680A6052F8043B0A60D3
:10046000335429E10A680A6052F8043B0A60009399
:10047000002201924FF0FF332B636A46294600F0B9
:1004800098F9002840F1188103E195F83A0001221B
:10049000FFF76DFFC5E90001002904D56869411C1B
:1004A00069612D220DE0288F810704D56869411C00
:1004B00069612B2205E0C00721D56869411C69618B
:1004C000202232541BE095F83A000022FFF74FFF3C
:1004D000C5E9000195F83800010710D5D5E90023DA
:1004E000002B08BF002A0AD044F02000782806D14B
:1004F000686930213154401C421C6A6134542146E1
:1005000068693044E86087E00868C01D20F0070093
:100510000860D0E9002308300860C5E90023D5E968
:100520000001C80F04D06869411C69612D220DE0EB
:10053000288F810704D56869411C69612B2205E079
:10054000C00704D56869411C69612022325468697A
:100550003044E8602146284600F036FAACE005F168
:100560003A02507820B14FF0FF340FF6043074E0B7
:100570001078622808D0682824D06A2812D06C2805
:100580002ED071280ED02BE00A680A6052F8040BB6
:100590000A6020B94FF0FF340FF6EC205DE0E96A05
:1005A000017089E00A680A6052F8040B0A6020B9F9
:1005B0004FF0FF340FF6D0204FE0EA6AD317C0E9BE
:1005C000002379E00A680A6052F8040B0A6020B937
:1005D0004FF0FF340FF6B0203FE0E96A01806BE096
:1005E0000A680A6052F8040B0A6020B94FF0FF3421
:1005F0000FF6942031E0E96A01605DE00A680A6064
:1006000052F8040B0A60002120F0000221F0FF33B1
:10061000C5E90023EE607821284600F02DF94BE073
:100620006C2285F83A200B680B6053F8042B0B60A2
:1006300052BB4FF0FF340FF684200EE095F83A20BD
:100640006C2AF0D00868086050F8044B0860EC6031
:100650003CB94FF0FF340FF6482000F0EBFD201AB4
:1006600076BD2E6B002E04D5204600F003FE044616
:1006700008E032460021204600F006FE002814BFA4
:10068000041B3446AC6117E0294600F092F80028BC
:1006900012D54FF0FF3076BD6869411C6961252293
:1006A000325409E06969481C6861252272542100AE
:1006B00002D0431C6B613454002076BD2DE9F0411B
:1006C0000E4605469046726B7069316AB46A121A1A
:1006D000B069521A716A121AF069521A121A96F80F
:1006E0003800141B41070DD4002C0BDD2746B068E1
:1006F0002021A8470028B06057D0F06A401C7F1E18
:10070000F062F4D1736942463146284600F098FC05
:1007100000284AD1376A002F0ADDB0683021A84787
:100720000028B06041D0F06A401C7F1EF062F4D116
:10073000B369F2683146284600F082FCA8BB776AAC
:10074000002F09DDB0683021A847B06068B3F06AB7
:10075000401C7F1EF062F5D1F068B169F369421860
:100760003146284600F06CFCF8B9B76A002F09DD65
:10077000B0683021A847B060B8B1F06A401C7F1E55
:10078000F062F5D196F8380041070BD5002C09DD51
:10079000B0682021A847B06038B1F06A401C641EE0
:1007A000F062F5D10020BDE8F0814FF0FF30BDE8E8
:1007B000F0812DE9F8470D46A3B02F6B002F0646B8
:1007C000904648BF6FF000470FF60C1400F088FD0C
:1007D000D4E90023696B4018CDE90123812828BFA3
:1007E0004FF0FF3042D20024002F33DDD8F8001044
:1007F00001AA684600F0EEFC8146B9F1000F38D43A
:10080000D8F8000010B9B9F1010932D44F4521DB05
:100810006869484481280AD30021696303AA2946EC
:100820003046FFF74BFF040014D40020686103AB8F
:10083000D5F814A04A46694603EB0A0000F064FDAF
:10084000CA44C5F814A058F8040B002818BFA7EB39
:100850000907C9D14CB903AA29463046FFF72EFF34
:10086000044614B9002068616863204624B0BDE8DE
:10087000F0874FF0FF34F8E72DE9FC4307466F2976
:100880003E6908BF082405D041F02000782814BF35
:100890000A2410243C25D7E90023642918BF6929BC
:1008A0009046994605D1002B03D5D8F1000869EB95
:1008B0004909B9F1000F08BFB8F1000F1FD1386B1B
:1008C000E8B9082C4CD197F83800010748D53020FA
:1008D0003B2586F83B0043E000280ED597F838000A
:1008E00000F01400102808D17B6B7969386A5B1A14
:1008F0001B1A9A1A002AC8BF3A62BDE8F3838DF822
:100900000010404649462246E31700F055FD3032BC
:10091000D0B26D1E3A28019504DB9DF80000A0F1CD
:1009200051018A187255404649462246E31700F0A5
:1009300043FD80465FEA010908BFB8F1000F03D00C
:10094000F86871198842DCD3082C09D197F838006F
:10095000010705D5705D302802D06D1E302070551E
:10096000C5F13C02BA617119F960386B8242B3DAA1
:10097000821A3A624FF6EF70398F01403987BDE82D
:10098000F3832DE9D04306460F4614464FF0000886
:10099000DFF8109412E0E00707D542464B46304698
:1009A000394600F08DFD06460F4640464946424610
:1009B0004B4600F085FD641080468946002CEAD144
:1009C00030463946BDE8D0832DE9F84F05468A46C2
:1009D0004AF020048EB0D5E90089612C02AE09D01E
:1009E000286B002848BF062003D408BF672C01D11C
:1009F00001202863D5E900014A005215521C0DD18F
:100A00000B030BD0AAF1610103201A29A86102D2BD
:100A10000FF2CC6110E00FF2CC610DE04A005215EC
:100A2000521C0ED10B030CD1AAF1610103201A292B
:100A3000A86116D30FF2B461E868032200F064FCE9
:100A4000C0E1CDE90C01DDE90C2323F00043B3F54F
:100A5000801F0DD20027002B08BF002A019703D169
:100A600011E00FF28461E7E701AA00F0FBFD0AE064
:100A7000CD48CE4900EB1350DDE90C2301900B402B
:100A8000CB4910461943C5E90001612C0DD1E86836
:100A900030210170821CBAF1610FEA600CBF78212D
:100AA000582141706869801C6861D5E90001CDE971
:100AB0000C01DDE90C2333F0004104BF00280023C2
:100AC00000F04881612C40F0A080286B4946002846
:100AD0004CBF4FF0210B00F1010B404600220023D8
:100AE000DDE90C8900F0F6FD01990BF1010738BF33
:100AF00089F00049091F002F01918DF808200DF1A0
:100B0000090040F33581A94900910646404649460F
:100B10000022002300F0F6FD80F029814800400DFE
:100B200000F11C0211D0002A0FDD40F2FF739A423F
:100B300005DBA04909F000400143002011E0009BC3
:100B4000194041EA025140460BE028F0000039F01C
:100B5000004108BF00280FBF49461C22494600F04B
:100B6000E9FD8046894600F083FEFF1F002F044602
:100B700009DD00F09BFE02460B464046494600F068
:100B8000A7FE80468946F01D072104E004F00F020D
:100B900000F8012D2411002C01DD491EF6D5491E57
:100BA0005CBF002200F8012DF9D5DCE000201946D9
:100BB00002AA0A4400E05B1E12F80149491E844261
:100BC000F9D00F2804D10DF10900425C521C4254A7
:100BD000002904D50198001D02AE5B1C0190581E2F
:100BE0000CD43118AAF13A040A783032D7B23A2F2D
:100BF000A8BFA218401E01F80129F5D5286B0028CE
:100C000040F1A780591E2963A3E001996A4A47F27F
:100C10009750414391FBF2F2019229F00046D2F144
:100C2000070204DD40463146FFF7ABFE0AE05242C0
:100C300000206249FFF7A5FE02460B4640463146BA
:100C400000F0B8FE8046662C286B06BF019F0A376D
:100C500006273F18142FC8BF142730208DF808002E
:100C600089460DF1090000E03046002F34DD0646CC
:100C70004046494600F0C2FF01460A4606F1080315
:100C800004200A26B2FBF6F606EB860EA2EB4E0215
:100C9000303203F8012C0A22B6FBF2F202EB820E8C
:100CA000A6EB4E063036401E03F8026DE9D1083F30
:100CB000002F03F10806D7DD084600F0B3FF024617
:100CC0000B464046494600F003FE00223C4B00F034
:100CD000F7FB80468946CBE70DF10901401A0DF17B
:100CE000090604E00199491E401E0191761C3178E5
:100CF0003029F7D0662C02D10199491C03E0652CFC
:100D00000CBF012100212B6BCB189842B8BF431EAA
:100D1000002B1ED4834204DAF05C3528A8BF3920AA
:100D200000DA30201946721E02EB010800E05B1E5B
:100D300018F80199491E8145F9D0392802D1705C13
:100D4000401C7054002904D50198401C16465B1CB9
:100D50000190019800B200901BB2324651462846DD
:100D600000F034F82EE0C61D002F3FF7CFAE30461E
:100D70000DF10901401A03465845C8BF5B46002BD8
:100D80000DF109063FF53AAF8342BFF60FAF0DF103
:100D90000900C15C07297FF709AF0F2007E70000B2
:100DA000CBCCCC0C0000244002FCFFFFFFFF0F80E7
:100DB0000000E03F0000F07FA08601000000F03F4F
:100DC00084D797410FB0BDE8F08F00002DE9F847B8
:100DD00083B006468A461746984600F0FDF9B8F1FA
:100DE000000F406A356B90F8009002DC4FF001086C
:100DF000BFA74AF02000BDF93040662808BF641C38
:100E000015D0672840F0848014F1040FC0F286806A
:100E1000AC4280F2838096F83800641C010702D44B
:100E2000A845B8BF454620B22D1A48BF00250FFA85
:100E300084FAF068B169BAF1000F25DC4A1C30234E
:100E40004354002D03DC96F83800010703D5F06801
:100E500000F80290521C15EB0A0FB8BF6C4220B28A
:100E6000441941424445B8BFA046B26171620FFACD
:100E700088F5F561F068B3692A463946184400F0F0
:100E800043FA641BB462C4E022B29045084417DA06
:100E90004246394600F038FAB0694044B061AAEBE6
:100EA0000801002D716203DC96F838100A0705D599
:100EB000F16801F80090F069401CF061B562A8E0AB
:100EC000394600F021FAB069002D5044A8EB04081F
:100ED00003DC96F838100A0703D5F16801F8009092
:100EE000401CB0610FFA88F08542F368B069B8BF62
:100EF000A8460FFA88F207EB0A01184400F004FA3A
:100F0000B1690FFA88F00144B161281A706280E07B
:100F1000BAF1610F14D14FF0700A16E0A84504DA57
:100F200096F838100A0758BF45466D1E48BF002581
:100F3000BAF1670F14BF4FF0450A4FF0650A04E09D
:100F4000BAF1410F08BF4FF0500AB169F368481C6D
:100F5000B061002D17F8012B5A5403DC96F83810B5
:100F60000A071BD5F168431CB36101F80090002DFE
:100F700014DDA8F101080FFA88F039468542F768B8
:100F8000B8BFA8460FFA88F2F81800F0BDF9B069AA
:100F90000FFA88F108446D1AB0617562F068B169A2
:100FA0000844002C80F800A003D42B224270811C3E
:100FB00003E02D2141706442811C00206A460AE052
:100FC00023460A2493FBF4F404EB8405A3EB4503C6
:100FD00002F8013B401C24B2002CF1DC012806DCA5
:100FE0004AF02002652A04BF302201F8012B48B9DB
:100FF000302001F8010B07E0401E1DF800303033AF
:1010000001F8013B0028F7DCF268B0691044091AC6
:10101000F16196F8380000F0140010280DD17269C3
:10102000B169706A8A18F1698218B06A8A188218E0
:10103000706B8242BCBF821A326204B0BDE8F08796
:10104000F8B505460E4617461C46002074B117F841
:10105000011BB068A847B06030B1F06A401CF06274
:101060000020641EF3D1F2BD4FF0FF30F2BD00004E
:101070007072696E74665F733A20256E20646973BE
:10108000616C6C6F776564007072696E74663A208B
:1010900062616420256E20617267756D656E7400F3
:1010A0007072696E74665F733A20626164202573A2
:1010B00020617267756D656E740000007072696EF4
:1010C00074665F733A2062616420256C73206172DC
:1010D00067756D656E740000000000000000000080
:1010E0006E616E004E414E00696E6600494E4600CC
:1010F0003000F0B40246106895681318506803EB8E
:101100005004C0071DD54D441BE013F8017B05F8C2
:10111000017B491EF9D1A0B1B60813F8011B06F0F6
:101120000306032E08BF13F8016B01EB06214942A9
:10113000801C294405D011F8016B05F8016B401E95
:10114000F9D1A3420ED013F8016B16F0030104BFCE
:1011500013F8011BC91C30090F28DAD113F8010B51
:101160000F30D6E7F0BC02F10C0070471B48704707
:1011700070B45368D418042B09DA41B1057804F827
:10118000015B10F8016B16B15B1C491EF3E753605D
:1011900070BC704738B514461D4661B1FFF7E8FFD3
:1011A00061686A6B204690476FF00102811A02D095
:1011B000491E01D001E003E005E00021616032BD7D
:1011C0006FF0010032BD4FF0FF3032BDDA6B1047D7
:1011D000024BDFE7014BF9E701487047240100208B
:1011E000EC000020C9B202788A421AB11CBF10F884
:1011F000012FF9E718BF0020704730B4002513E035
:1012000050F8042BD30744BFA9F101039A18091F12
:10121000042942F8045BFAD213468C0744BF1580B8
:101220009B1CC90748BF1D7050F8041B0029E7D15B
:1012300030BC704780B500B906A005490B681BB1EA
:1012400022220021984701E000F0F9FC222002BD93
:10125000906F0020636F6E73747261696E742068A2
:10126000616E646C65723A20626164206D657373AF
:101270006167650000F1010310F8011B11B110F85E
:10128000011BFBE7C01A7047C9B2830706D0521E84
:1012900022D310F8013B9942F7D11FE0083A13D34B
:1012A00002F1040241EA012141EA014150F8043B04
:1012B000121F21BF4B40A3F1013C2CEA030C1CF090
:1012C000803FF3D0C9B2001F083210F8013B521E14
:1012D00028BF91EA030FF8D818BF0120401E7047BD
:1012E00080B5FFF743FF006C02BDB1F5807F02D3EC
:1012F0004FF0FF3070470170012070470078401EAA
:101300008041C043C00F704762B38B0708D0521EA4
:1013100011F8013B00F8013B00F024808B07F6D167
:10132000830740F0208000BF103A07D330B4B1E803
:101330003810103AA0E83810F9D230BC530724BF57
:10134000B1E80810A0E8081044BF51F8043B40F889
:10135000043BD20724BF31F8022B20F8022B44BFF4
:101360000B7803707047121F17D35B0009D151F837
:10137000043B20F8023B1B0C121F20F8023BF6D264
:101380000BE051F8043B00F8013B1B0A20F8023B3C
:101390001B0C121F00F8013BF3D238BF121D521E66
:1013A00024BF11F8013B00F8013BF8D870470268F0
:1013B000531C036011707047D3BBD9B1B2F5803FA5
:1013C0005BD2022A1ED98C46B1FBF2F102FB11C39B
:1013D0001B0443EA1043B3FBF2FC02FB1C3380B254
:1013E00040EA0343B3FBF2F002FB103240EA0C4048
:1013F00000237047022A05D98446B0FBF2F002FBB5
:1014000010C270474AB105D100F0010249085FEAF5
:101410003000704700220023704700F013BC0B001F
:101420000200002100207047F7D3002200237047FC
:10143000904271EB030CF2D370B5B1FA81F4B3FAB8
:1014400083F52C1BA340C4F1200532FA05F6334383
:10145000A2405FF00046E64002E05B085FEA32022D
:10146000841A71EB030524BF204629467641F4D344
:1014700002000B003000002170BD70B5B1FA81F49C
:10148000B2FA82F5C4F120046419B4F12006DAD36B
:10149000B2405FF00044F440002502E052085FEAE9
:1014A0003303C61A71EB020E24BF30467146644105
:1014B0006D41F3D302000B002000290070BD000035
:1014C000B0B581EA030C0CF0004C40F2FF7515EA50
:1014D00011541DBF15EA1357AC42AF4239E0E4196D
:1014E00023EA455343F48013C90241F0004141EA25
:1014F000505EC7021100A7FB020200284FF0000057
:10150000EEFB01204FF00001E3FB072118BF42F082
:101510000102401800214941E3FB0E01A4F580645B
:101520000F0302D252004041494154F101046CDDE5
:10153000470872F1004250F1000051EB0451A1F54F
:1015400080115CBF41EA0C01B0BD4CEA055100209E
:10155000B0BD05EA1357AC4214BFAF4241E050EAB8
:10156000410E1CBF52EA430E02E061460020B0BDAE
:1015700024423C441BD15FEA070EF6D0090302BFA8
:1015800001460020AEF1140EB1FA81F7AEEB07046C
:1015900001FA07FE0C37C7F1200100FA07F7C8402F
:1015A0004EEA000E23EA455343F48013A2E733F0DA
:1015B0000043B3FA83F704BFB2FA82FE77440B3FCD
:1015C000E41BB7F1200E2FBF02FA0EF3BB40C7F1A8
:1015D000200E22FA0EFE38BF43EA0E03BA40641C06
:1015E00082E750EA410E14BF52EA430E6FF0000149
:1015F0004FF4001717EB430F8ABF194617EB410F43
:10160000B5E74CEA05510020B0BDD4F10104B4F1B6
:1016100020070FDAC4F12007520828BF42F0010268
:1016200010FA07F501FA07F7E1BF2A43E040384313
:10163000E1400FE0352C98DCC7F1200452EA40026B
:1016400020FA07F218BF42F0010231FA07F0A14078
:101650000A43002172F1004250F1000051EB0C01ED
:10166000B0BD000010B5144600F002F8226010BDB5
:10167000C1F30A5343B14A0012F5001F28D2A3F266
:10168000FE32A1EB0251704750EA410C20D001F02C
:10169000004C31EA0C01B1FA81F204BFB0FA80F3D8
:1016A000D2180B3AB2F120032CBF00FA03F191409B
:1016B00041EA0C013EBFC2F1200C20FA0CF31943A1
:1016C0009040524240F2FD33D21A01EB0351704771
:1016D000002270474FF4001C1CEB410F94BF1CEB21
:1016E000430F09E041EA030C50EA4C0C52EA0C0C9F
:1016F00003D2994208BF9042704714BF8B42824286
:10170000704700004FF4001C1CEB410F94BF1CEB12
:10171000430F09E041EA030C50EA4C0C52EA0C0C6E
:1017200003D28B4208BF8242704714BF9942904255
:1017300070470000124254D440F2FF7C1CEA11535F
:101740000FD0634531D09B1863453CBF01EB02517C
:10175000704701F0004141EA0C510020AFF30080D6
:10176000704750EA410320D001F0004C91EA0C018F
:101770001CD0B1FA81F30B3B9A420DD9D21A994091
:1017800051EA0C01C3F1200C20FA0CFC6144984092
:10179000531C40F2FF7CD7E7914041EA0C01C2F1B3
:1017A000200C20FA0CF3194390407047B0FA80F3F4
:1017B0001533202BE0D3202AEED3203A203B9A4247
:1017C00009D9D21A00FA03F141EA0C010020531C96
:1017D00040F2FF7CB8E700FA02F141EA0C01002078
:1017E0007047524240F2FF7C1CEA11530DD0634512
:1017F000DBD0B2EB030C3CBFA1EB025170470CF104
:10180000010221EA035141F4801150EA410CCCD08D
:1018100001F0004C352A27DC30B481EA0C01B2F12A
:10182000200309DAC2F12003044601FA03F5D0408F
:101830002843D1409C400CE0C3F12002450020FA2F
:1018400003F418BF44F0010421FA03F091400C4363
:10185000002174F1004550F1000051EB0C012442CD
:1018600030BC7FF47BAF70476146002076E7000014
:10187000C1F30A5340F2FE329B1A14DDD3F1200368
:101880004FEAE17208DDC90241EA505141F00040DF
:10189000D84080185040704703F2E13010B1D24375
:1018A00082F000407047002070470000C11768B107
:1018B0004840401AB0FA80F29040D21CC907C2F5E5
:1018C000846241EA025202EBD021400570470000D9
:1018D00070B44FF0004591EA030F40F1B5816B40C1
:1018E000841A71EB030603D2001BB1411219734134
:1018F0004FF4001C1CEB410F34BF7CEB430442E06F
:101900000C0DA4EB1356352E4FDC45EAC323DB0A3E
:1019100045EAC121C912B6F120050DDD63FA05F6CD
:10192000EB4086EA0305124218BF45F00105C018D6
:1019300051F100010CD213E062FA06F5F240554075
:10194000F3415A40B340F3405A408018594107D3FD
:1019500049085FEA30005FEA350528BF45F0010518
:1019600001F58011420875F1004250F1000041EB91
:1019700004514E0016F5001F70BC38BF70470020A0
:10198000090D090570471CEB410F10D252EA4306BE
:101990000BD0BCEB410F05D80C0DAB43661E342EAB
:1019A000B6DD02E0AB438018594170BC704770BC93
:1019B00070470000F0B540F2FF7581EA030C0CF0AF
:1019C000004C15EA11541DBF15EA1357AC42AF4243
:1019D000E5E0BC41C1F31301C3F31303801A99413D
:1019E00043F4801304D2641E4000494180185941D9
:1019F000C90241EA5051B1FBF3F603FB1611A2FBF9
:101A00000675D7EBC020A94102D2761E8018594135
:101A1000C90241EA5051B1FBF3FE03FB1E11A2FBC8
:101A20000E75D7EBC020A94103D2AEF1010E80188C
:101A30005941890241EA9051760546EA8E2EB1FB62
:101A4000F3F603FB1611A2FB0675D7EB8020A94124
:101A500002D2761E80185941C90241EA50514EEA1D
:101A6000060EB1FBF3F603FB1611A2FB0675D7EBCE
:101A7000C020A94102D2761E80185941C90241EA0C
:101A80005051B1FBF3F703FB1711A2FB0735D3EB62
:101A9000C020A94167F100070CBF004247F00107D1
:101AA00066F3D5274FEA1E31B80814F5806412DDBD
:101AB000BD0775F1004250EB0E5051EB045111F58A
:101AC000801F5CBF41EA0C01F0BD4CF07F6141F02A
:101AD000E0410020F0BDBD076D0840EA0E5041F422
:101AE0008011D4F10104B4F120060ADAC4F1200611
:101AF0000200E04001FA06F3E1401843B24015430A
:101B00000EE0342C13DCC6F1200445EA40056D08D4
:101B100020FA06F2154321FA06F0A1400D430021F8
:101B200075F1004250F1000051EB0C01F0BD0020B6
:101B30005FEA0C01F0BDCFB992185B41B3FA83F7AD
:101B400004BFB2FA82F6BF190B3FB7F120062FBFD0
:101B500002FA06F3BB40C7F1200622FA06F638BFA8
:101B60003343BA401CB1E419641E33E77F4231F0BD
:101B70000041B1FA81F404BFB0FA80F6A4190B3C1D
:101B8000B4F120062FBF00FA06F1A140C4F12006EF
:101B900020FA06F638BF3143A0403C1B1AE7AC429E
:101BA0001ABF05EA1357AF4212E050EA41061CBFC4
:101BB00052EA4306BFE750EA4107304661461CBF80
:101BC00041EA0551F0BD52EA430C08BFC143F0BDE4
:101BD00000204FF4001616EB410F98BF16EB430F91
:101BE00008BF16EB410F24BFC14305E016EB430FBE
:101BF0000CBF61464CEA0551F0BD0000400D49188C
:101C000040EA81200CD2490DA1F58061491C40F0C9
:101C1000004005DBD1F11F0154BFC840C017704719
:101C200000207047014648B1B0FA80F18840C91CD5
:101C3000C1F58461090501EBD02140057047012001
:101C400000F0B8B870470000841A71EB030604D2A4
:101C50006E40001BB141121973414FF4001C1CEB84
:101C6000410F34BF7CEB430683E00C0DA4EB13560D
:101C7000362E00F37C80012E45EAC32341DC43EA83
:101C8000525312BFD20292025B08240545EAC121D9
:101C900041EA5051D2EBC020994125D407D1B0FA86
:101CA00080F610FA06F162D00020203608E0B1FA82
:101CB00081F6B140C6F1200220FA02F21143B04091
:101CC0004FEAF474B4EB465434F001064FEA74045E
:101CD0000AD8D6F50016760D04F00044F04061FAFB
:101CE00006F25040F1404840C00A40EA415021F01D
:101CF000004128BF5FEA500550F1000044EBD121BC
:101D000035E0DB0A45EAC121C90AB6F120050EDD3E
:101D100042EA0242120CC5F1200603FA06F6EB4035
:101D200042EA06056D42984161F100010DE062FA58
:101D300006F5F240554063FA06FC82EA0C02F340D5
:101D40005A406D42904161EB030111F4801F05D1AF
:101D5000641E620502D06D004041494121F48011AA
:101D6000430875F1004350F1000041EB045170BC91
:101D700070471CEB410F15D223F0004352EA430693
:101D80000BD04FEA4C0CBCEB410F04D80C0D661E77
:101D9000342EB7DDEBE7801A994150EA410608BFBF
:101DA0000021E4E708BF1CEB430F28BF6FF00001E0
:101DB000DDE7000080B5AFF30080024A1100182073
:101DC000ABBEFBE72600020038B5040001D10120BC
:101DD00032BD00F055F818B900F04EF800F0CBFB1A
:101DE0000FE00068C16841F00101C160816801F045
:101DF0000701062903D0016841F0010101600020BC
:101E0000704702206870211D206800F028FA012028
:101E10006870002032BD03D1416C41F4004141643F
:101E2000816801F00701062903D0016841F0010132
:101E30000160002010BD38B5040001D1012032BD81
:101E400000F01EF818B900F017F800F025FCD8E7EC
:101E500010B500F007F800F00AF81CBFDFF8B42056
:101E60009042D8E704460122206800F03CBB20687D
:101E7000DFF8A4108842704700212970204670477F
:101E800004F13C0568787047F8B504000E4601D1AE
:101E90000120F2BDFFF7F4FF18B9FFF7EDFF00F0E6
:101EA0004BFB022068702168DFF87C038A680240DF
:101EB0008A60211D206800F0D2F92268DFF86C13D7
:101EC00093689069176A0140B0680843B16940EAB5
:101ED0000120DFF85C130140F0680843F16940EA33
:101EE0000121306941EA0010316A40EA013C706822
:101EF000716927F0AA0707433068034347EA0117CF
:101F000093602168C1F818C00121206807626970D8
:101F10000020F2BD000401400000014010B504465D
:101F200009B1042901D1012203E000F013F80122D4
:101F30000421206800F0D7FAFFE7206800F005F8D8
:101F4000002010BDC16001223068016841F001012C
:101F50000160704720680122002100F0C4BA10B56A
:101F60000446206801698A0715D5C1688A0712D519
:101F70006FF00201016101222277806910F0030FE6
:101F8000204602D000F089FB03E000F087FB00F060
:101F900087F800202077206801694A0715D5C168B5
:101FA0004A0712D56FF0040101610222227780698D
:101FB00010F4407F204602D000F06FFB03E000F0F9
:101FC0006DFB00F06DF800202077206801690A079A
:101FD00015D5C1680A0712D56FF008010161042206
:101FE0002277C06910F0030F204602D000F055FBA5
:101FF00003E000F053FB00F053F800202077206846
:102000000169CA0615D5C168CA0612D56FF010015C
:10201000016108222277C06910F4407F204602D077
:1020200000F03BFB03E000F039FB00F039F8002042
:10203000207720680169CA0708D5C168CA0705D595
:102040006FF001010161204600F0D1FD20680169B7
:102050000A0608D5C1680A0605D56FF0800101613E
:10206000204600F01BFE206801694A0608D5C168B9
:102070004A0605D56FF040010161204600F00FFED1
:10208000206801698A060AD5C1688A0607D56FF0FB
:10209000200101612046BDE8104000F001BE10BDE6
:1020A000204600F0FEBD70B500F063F801D10220BB
:1020B00070BD00F06BF832B1042A17D0082A28D07E
:1020C0000C2A39D04AE03068294600F013F930680C
:1020D000816941F0080100F048F821F004018161B4
:1020E00031688A69286902438A6137E03068294685
:1020F00000F02CF93068816941F4006100F035F896
:1021000021F4806100F031F82A6941EA02218161FD
:1021100024E03068294600F049F93068C16941F08F
:10212000080100F01EF821F00401C1613168CA699C
:1021300028690243CA6111E03068294600F065F958
:102140003068C16941F4006100F00BF821F480614E
:1021500000F007F82A6941EA0221C16100F010F895
:1021600070BDC1613068C169704781613068816943
:102170007047064606F13C040D462078012870475A
:102180000120607000212170002070470120207024
:1021900002216170704738B500F055F801D1022076
:1021A00032BD0120207002226270DFF8A4022A688A
:1021B0009368034093600868020018BF10282DD070
:1021C000202818BF302829D0402823D0502816D0E6
:1021D000602818D0702803D0B0F5005F07D021E048
:1021E00000F02CF82868816841F0770105E000F0E4
:1021F00025F82868816841F48041816012E000F090
:1022000019F850210BE0CA684968286800F047F9BE
:10221000602104E000F00EF8402100E0014628684B
:1022200000F04FF915E00000F8BFFFFFFCFCFFFFD6
:102230000303FFFFCA684968286821E1CB684A6840
:102240008968286845E1054605F13C0420780128A5
:1022500070470120607000212170002032BDF0B570
:102260007C4C05687C4B7D4E7D4FDFF8F8C1A04269
:1022700018BFB0F1804F07D0604518BFB84203D0F7
:10228000B04218BF98420DD14A6825F07005154339
:10229000A04218BFB0F1804F17D060451CBFB842B4
:1022A000B04212D098421CBF6F4A90420DD06F4E80
:1022B000B0421CBF6E4A904207D06E4EB0421FBF64
:1022C0006D4A90426D4EB04203D1CA6825F4407504
:1022D00015434A6925F0800515430560A0428D68C5
:1022E000C5620A68826212BF9842096901630122CD
:1022F0004261F0BDF0B5026A564F520852000262C8
:10230000066A446885690B688A6825F0730526F0BB
:1023100002061D431643504BB84218BF984207D1DE
:10232000CA6826F008061643B84226F0040601D013
:10233000984205D14B698A6924F440741C431443C4
:1023400044608561496841630662F0BDF0B5026A88
:10235000404E22F010020262B042056A436884696E
:102360000A6824F4E64444EA02248A6825F0200539
:1023700045EA0215384A18BF904208D1CF6825F0C7
:10238000800545EA0715B04225F0400501D090428E
:1023900006D14E698A6923F44063164343EA8603F3
:1023A00043608461496881630562F0BDF0B5026AEB
:1023B00022F480720262056A4368C4698E680A6802
:1023C00025F4007524F0730445EA06251443214ED4
:1023D000214AB04218BF904208D1CF6825F4006569
:1023E00045EA0725B04225F4806501D0904206D128
:1023F0004E698A6923F44053164343EA0613436047
:10240000C4614968C1630562F0BD70B5026A114ECE
:1024100022F480520262B042046A4268C3690D68C5
:1024200023F4E64343EA05238D6824F4005444EA88
:1024300005341CBF084DA84204D14D6922F48042E6
:1024400042EA85124260C36149680164046270BD5A
:102450008800FFFF0000014000040140000C004024
:1024600000080040000400400040014000440140DA
:102470000048014000180040001C004000200040BF
:1024800010B5036A046A64086400046223F00A0356
:10249000846924F0F00444EA021484612EE010B54B
:1024A000036A23F0100303628369046A23F4704310
:1024B00043EA023324F0A004836144EA0114046275
:1024C00010BD826822F07002114341F00701816063
:1024D000704710B5846824F47F442143114341EAD6
:1024E0000321816010BD10B501F01F01036A0124B2
:1024F0008C40A343036202FA01F1036A19430162AB
:1025000010BD000081B00020009000225A484168B0
:1025100041F480414160416801F48041009100999B
:102520000092036843F080530360006800F080501D
:102530000090009801B0704738B586B000F05EF8A2
:1025400024684E4DAC4214D100F07DF8016941F091
:1025500002010161016901F00201009100990092FC
:10256000C02100F07AF8012103910322022100F03A
:102570006FF807B030BD81B00068414A3E499042D3
:1025800009D1002000900A6842F010020A60086831
:1025900000F010000BE03B4A90420AD1002000906E
:1025A0004A6842F480324A60486800F48030009003
:1025B000009801B0704738B586B000F01FF8246865
:1025C000304DAC4218D10020009002222E48016804
:1025D00041F0100101602021006800F0100000901F
:1025E00000982A480191029200210391032204924B
:1025F000059201A900F056FB07B030BD044601A8C2
:10260000142100F063BC38B586B0FFF7F7FF2468EB
:102610001F4DAC4215D100F016F8416941F0100190
:102620004161416901F010010091009900924FF45D
:10263000C06100F012F8002103910322072100F08D
:1026400007F807B030BD0020009000220E48704708
:102650000591049201A900F025BB036843F0010332
:1026600003600222006800F0010000900098094811
:10267000019102927047000040380240000400407F
:10268000001000400040014030380240001002407D
:102690000010014000000240704770477047000082
:1026A000DFF86C05DFF86C154268506A4A888B6861
:1026B0000880B1F900004880821A8A8003FA82F209
:1026C0008A60C868121A88680A61C860DFF848150D
:1026D0004860704780B5DFF83C050021418081608B
:1026E000C16001610020DFF830154FF4805248606E
:1026F0008A60C861886108600021DFF8200500F069
:10270000E9FBDFF80C0542680021516201BD2DE9AB
:10271000F041DFF80445A1686068A769DFF8FC5460
:10272000081AC7196061A761E669861B2662E06125
:1027300000F02EFC296C00F03DFC8046C5F84C8072
:10274000384600F025FC696C00F034FC00F09EFC7B
:10275000DFF8CC24DFF8CC34FEF7B2FE00F0BAFC90
:1027600007462F65304600F013FCA96C00F022FCF0
:1027700000F08CFCDFF8A824DFF8A834FFF71AF982
:1027800000F0A8FC06466E654046394600F0D6FCCF
:10279000314600F0D3FC2064642100F0C4FBA4F8AF
:1027A00044001622162100F0E5FBA4F8440001467F
:1027B0002846BDE8F04100F08DBB10B5DFF85804A5
:1027C000DFF864240168436842F8213002EB81019C
:1027D000B0F94420C1F8A02F01F5FA524369136003
:1027E00042F6E0638469CC5001F57A51006A0860D2
:1027F00010BDF0B5DFF834440FF26C41B3B04FF4C4
:102800007A730E22204600F046FD00250FF268463E
:10281000DFF8147407EB85002A46D0F8A01F00915A
:10282000314657F8253001A800F034FE01A8FEF724
:1028300021FD82B24FF47A7301A9204600F02BFDEE
:102840006D1CB5F57A7FE5DB33B0F0BDF0B58BB02C
:1028500000F040FE00F0F0F800F038F902A8242162
:1028600000F034FB0FF22440DFF8B063DFF8A87308
:10287000D0E90045CDE900450122E54DDFF8B00380
:10288000DFF8B043049200216860A9600522069237
:1028900000204FF6FF71E86029616861012208920B
:1028A00000210320E96102900391059107910991AC
:1028B00005220A9202A9281DFFF7E6FA00210091DD
:1028C0000191281D694600F01FFED848DA490160D1
:1028D0004FF4E13200230C2142608360C360036146
:1028E00041618361C36100F09BFC07A8102100F0E7
:1028F000EDFA68461C2100F0E9FAD0483060532117
:1029000063200022F0607160B2603261B2613046D3
:10291000FFF75AFA4FF48050079007A93046FFF7A7
:102920003AFC3046FFF787FA602100910A220192B3
:10293000002102910022049269463046FFF7B3FB62
:102940003046FFF738FE0FF24C30BD49D0E9002386
:102950005320A8646964CDE9002340F2E7300021E8
:102960002865E964E96505F14400FFF72DFA0021C7
:102970000091019105F14400694600F0C5FD002277
:102980000021062000F020FE062000F03AFE002282
:102990000021362000F018FE362000F032FEFFF74E
:1029A00099FE0421281DFFF7B9FA05F14400FFF74D
:1029B00018FA00213046FFF74BFA06E0FFF7A7FEB2
:1029C00000206870002200F032F868780128FCD1FD
:1029D000012200F02CF8FFF763FE2878012804D0CC
:1029E000EED30328EAD011D3EAE73968B1F57A7F4C
:1029F00007DAFFF78CFEFFF7E0FE3868401C38600E
:102A0000DEE70021396002202870D9E7362000F087
:102A100003FE0021304600F05DFAFFF7EAFE0020D9
:102A2000386003212970362000F0EBFDC8E74FF431
:102A30008041204600F019BA80B592B006A8302136
:102A400000F044FA01A8142100F040FA00200090A0
:102A50004FF4A0237B48016841F0805101600021C0
:102A6000006800F08050009000987748009102685C
:102A700042F4404202600122006800F440400090AD
:102A800006A80099069202214FF480020C910D9243
:102A900008214FF4A8720E910F920221042207938D
:102AA0001091119200F0EAFD02210291002203929E
:102AB0000F204FF4A051019004914FF480520592E1
:102AC000052101A800F06CFF13B000BD70B586B001
:102AD0006846142100F0FAF900245C485C4E554D1C
:102AE000059401685B4C41F010010160026802F03E
:102AF00010020592002205990592036843F08003B5
:102B00000360016801F0800100F05EF843F001030A
:102B10000360016801F0010100F056F843F0020380
:102B20000360016801F0020100F04EF843F0080371
:102B30000360016801F008010591059905920C21D7
:102B4000036843F040030360006800F04000059014
:102B50000598304600F089F90022B021204600F0A7
:102B600084F900224FF4C041284600F07EF90C2180
:102B700000F02FF8304600F095F80120364900901B
:102B80000191002202926946344800F08BF804203B
:102B900000210090019102916946314800F082F8CD
:102BA000B02100F016F8204600F07CF84FF4C04148
:102BB0000091012200210291039101926946284669
:102BC00000F070F806B070BD059105990592036894
:102BD0007047009101220192002102910322039289
:102BE00069467047012804BF1E490880704780B5B8
:102BF00000681349884204D14FF400510D4800F099
:102C000038F9034801214170BDE8014048E5000062
:102C100000000020546F0020CC6E002084000020B3
:102C2000FCA9F1D24D62503F6C010020146F0020CE
:102C30000004004000180240001001400040014024
:102C40000010004040380240007000403038024020
:102C500000100240000C0240000011100000024071
:102C600000040240946F00205265636F726420502C
:102C700072696E740D0A00002537642C20253564B6
:102C80002C20253664200D0A000000000000000002
:102C900000000000000000000000000070477047C6
:102CA000704770472DE9F84F0D464FF000087949FD
:102CB0000F22012304462E6803FA08F000EA0609F1
:102CC000814540F0CA804FEA480C032606FA0CF60C
:102CD0006FEA060E6E68012E18BF022E03D0112E69
:102CE00018BF122E11D1A668EF680EEA060607FA81
:102CF0000CF73E43A660666826EA00006E68C6F3DD
:102D0000001606FA08F630436060E068AE680EEA26
:102D1000000006FA0CF63043E0604FEA88006E6867
:102D2000022E18BF122E12D14FEAD80604EB8606E7
:102D300000F01C07D6F820A002FA07FB2AEA0B0ACB
:102D4000D5F810B00BFA07F747EA0A07376226688A
:102D50000EEA06072E7906F0030606FA0CF63E4345
:102D600026606E68F60078D5002600964FEA980C2B
:102D70000E68DFF824E146F480460E6000F00C0097
:102D80000E6806F480460096009E5EF82C7002FAEB
:102D900000F627EA0606414FBC4208BF00272CD0A8
:102DA0003F4FBC4208BF012727D03E4FBC4208BF5F
:102DB000022722D03C4FBC4208BF03271DD03B4F07
:102DC000BC4208BF042718D0394FBC4208BF0527B2
:102DD00013D0384FBC4208BF06270ED0364FBC4236
:102DE00008BF072709D0354FBC4208BF082704D0C9
:102DF000334FBC420CBF09270A2707FA00F03043C3
:102E00004EF82C006FEA090C2E4806680CEA060EF4
:102E10006E68F70348BF49EA0E0EC0F800E0466846
:102E20000CEA060E6E68B70348BF49EA0E0EC0F8FA
:102E300004E086680CEA060E6E68F70248BF49EAAD
:102E40000E0EC0F808E0C6680CEA060E6E68B60200
:102E500048BF49EA0E0EC0F80CE008F10108B8F1CD
:102E60000F0F7FF628AFBDE8F18F02B90904816129
:102E7000704742690A408A4208BF0904816170476D
:102E8000114A136803421CBF1060FFF7ABBE7047C6
:102E900000000000443802400838014000000240B1
:102EA0000004024000080240000C024000100240F2
:102EB0000014024000180240001C024000200240A2
:102EC00000240240003C0140143C0140002200F07C
:102ED0003DBE0000F8B50D46642D0446A8BF64252C
:102EE00004DA15F1640FB8BF6FF063051D4E0022C0
:102EF000042100F015F82F0005D4002200F00FF88F
:102F00002068456305E0012200F009F820687F424F
:102F100047632046BDE8F4400021FEF799BF082131
:102F20003046FFF7A2BF38B500F02AFE0E4D04462A
:102F30006C6000F039FE02462046002100F04AFE97
:102F400005D80A4900F058FE07D3642205E0084975
:102F500000F040FE88BF6FF063022A80B5F90000E0
:102F600032BD000000100240886F00200000C842FF
:102F7000FFFFC7C2002803DD884207DA0846704712
:102F800003D5904202DD10467047002070470000D4
:102F9000C2175040801AB0FA80F10AD08840D1F1AF
:102FA0009D01D20742EAC151020672F1004241EB93
:102FB00010207047FF2212EAD05C1DBF12EAD153E5
:102FC000944593422BE09C44D30780EA01021A40C7
:102FD00043EA002043EA0121A1FB0030C04238BF90
:102FE00040007CF17F010BDBFE294ADA5B0842EAF4
:102FF000C15153EA006373F1004C51EB102070474C
:10300000D1F1080CDCF120012FDB5B0810FA01F193
:103010000B4320FA0CF073F1004150417047944586
:103020001CBF02EAD153934280EA010202F000423F
:103030001DD0400019D0490017D05BB9634514D0AA
:103040000902B1FA81F39940BCEB030CC00140F0D6
:103050000040C1E70002B0FA80FC10FA0CF0B3EBBC
:103060000C0CC90141F00041B6E710007047400068
:103070000AD0490008D010F1807F94BF11F1807F01
:1030800002E042F0FF407047D0437047C0F3C751A1
:1030900081B1FF2906D0C110400721F0E04101F1C4
:1030A0006051704741020CBF40F4E0016FF00041F5
:1030B0000020704700F0004100020AD0B0FA80FC06
:1030C00000FA0CF001F16051A1EB0C5101EBD021A1
:1030D0004005704701F000428B1AA3F16051B1F531
:1030E000801F0ADBB1F17F6F1FD242EAC102C1002B
:1030F00071F1004142EB507070470B15C3F10903A9
:10310000212B10D2890241EA9051800201284941C5
:1031100041F0004121FA03F0C3F12003994071F11D
:10312000004150417047100070476FF0000013EBF2
:10313000103F5CBF000E42EAC050704790EA010F9A
:1031400040F16C8581F00041431A4FF000423EBFD0
:103150005340C01AC91800BFD3095FEAD05C13EB13
:10316000400F34BFB3EB410F40E07CEBD1530CD3A5
:1031700042EA012122D8D1EB402009D3400A28BFDE
:103180005FEA500140EBCC507047401A15D0400226
:10319000B0FA80F2521C9040400A4FEA3C23B3EB55
:1031A000026384BF00EB730007E040F400001A16CE
:1031B000DB07C2F10102D04018437047182BFCDC3A
:1031C00031FA03F202FA03F3591A38BF42F001024E
:1031D000D2EB40203CBF4000ACF1010C5FEACC5C7C
:1031E000C20572F100414CEB5020704713EB400FC9
:1031F0000FD2C94209D0ACEBD153022B03DB4902F9
:10320000172BDDDD70479143401AC042D5D1002015
:10321000704713EB410FD0D36FF0000070470000F0
:1032200038B5040001D1012032BD00F021F808B901
:1032300000F022F800F012F800F023F8FFE74161F7
:1032400000F001F832BD2068C16841F40051C1604E
:103250000020686020216970A97070472420687080
:103260002068C16821F40051C160204600F09FB879
:1032700004F1380568787047002129702046FFF76F
:10328000C2B92068016921F4904101612068416957
:1032900021F02A0170472DE9F843054605F138076A
:1032A0000C4678782028164698463DD1002C14BF4D
:1032B000002E012039D03878012835D0012139700D
:1032C0000020786021227A7000F0E2FC8146AE8412
:1032D000EE840020387003E02A6814F8011B516066
:1032E000E88C20B3E88C411EE9844B46A868CDF8F1
:1032F0000080B0F5805F0DD100F023F870B9208810
:103300002968C0F3080048602869002814BF641CBD
:10331000A41CE5E700F015F80028DDD0032004E048
:1033200020207870002000E00220BDE8F283CDF874
:1033300000804B460022402100F005F80028EFD025
:10334000ECE7002280212846FFE72DE9F041069CAA
:1033500005460E4690461F46286801683140B14236
:103360000CBF01200020404517D114F1010FF3D00C
:1033700024B100F08DFCC01B8442EDD22868C168E6
:1033800021F4D07100F00CF805F1380020214170D3
:10339000817000210170032000E00020BDE8F08171
:1033A000C160286841694908490041617047D0B54A
:1033B0000646642732681169F06821F440510143E0
:1033C00011611924D3682D48B168034030690B435B
:1033D00071690343F0690B430343D3605169B069DA
:1033E00021F4407101435161F36925482549B3F542
:1033F000004F1FD18A4218BF824202D100F05EFB0B
:1034000001E000F053FB0246A4FB02017268D30FF7
:103410005200FDF7D1FF00F037F8FF00323764208B
:10342000B7FBF0F0420002F4F87202EB011200F078
:1034300007001DE08A4218BF824202D100F03EFB25
:1034400001E000F033FB0246A4FB02017268930F17
:103450009200FDF7B1FF00F017F83F01323764200A
:10346000B7FBF0F000F0F00202EB011200F00F00E9
:10347000316880188860D0BD00000000F369FFFF4C
:1034800000140140001001406421B0FBF1F107FB82
:10349000110770470CB430B583B00A4606A90291F3
:1034A000044600250194009502AB01A90848784420
:1034B0001E30FCF77BFE019A157000284EBF0446B3
:1034C0000198041B204603B030BC5DF80CFB00BF24
:1034D000DFDEFFFF80B50B48016841F40071016039
:1034E000026842F480620260016841F48071016008
:1034F000032000F05CF8002000F0D0FBFFF702F89A
:10350000002002BD003C024070B500F13C031A7877
:10351000012A01D1022070BD01221A7002245C70C0
:1035200005686E68AC680A6826F0700616436E601F
:1035300002681148824218BFB2F1804F11D00F4883
:1035400082421CBF0E4DAA420BD00E4882421CBFC5
:103550000D4DAA4205D00D4882421CBF0C4DAA4217
:1035600004D1486824F08004044394600121597018
:103570000020187070BD00000000014000040040F1
:1035800000080040000C00400004014000400140E1
:10359000001800400901020002D4314881547047EC
:1035A000304B02F00F021A4402F8041C70472E4BF5
:1035B00019684FF6FF020002114000F4E060084372
:1035C0002A4908431860704738B5274B1C68C4F374
:1035D0000223C3F10704052C28BF04241D1D072D59
:1035E00034BF0023DB1E012505FA04F4641E2140CC
:1035F000994005FA03F35B1E1A401143BDE83440BD
:10360000C8E7010007D4012200F01F01184B8A40CF
:10361000400943F82020704701000BD4012200F03C
:103620001F01144B8A40400943F82020BFF34F8FFD
:10363000BFF36F8F704710B5401EB0F1807F01D38C
:10364000012010BD0C4C60600F214FF0FF30FFF7E0
:10365000A1FF0021A16007202060002010BD000014
:1036600000E400E018ED00E00CED00E00000FA05D9
:1036700000E100E080E100E010E000E02DE9F84327
:10368000040016D02078DFF80863C10713D5B068AE
:1036900000F00C00042807D0B06800F00C000828E7
:1036A0003ED1706841023BD53068810303D5606824
:1036B000002800F0FF802078B64F810719D5B06848
:1036C00010F00C0F07D0B06800F00C0008285CD197
:1036D0007068410259D43068810703D5E068012839
:1036E00040F0E8803168206921F0F80141EAC0012A
:1036F0003160217808076CD56069A749002862D03D
:1037000001220A6000F0C4FA0546706F810700F1DB
:10371000D38000F0BDFA401B0228F6D9032034E123
:103720006068B0F5803F04D1306840F4803030608C
:1037300011E0B0F5A02F306806D140F48020306051
:10374000316841F4803105E020F480303060316828
:1037500021F480213160606858B100F099FA054683
:1037600030688103A7D400F093FA401B6528F7D393
:10377000D4E700F08DFA0546306881039BD500F050
:1037800087FA401B6528F7D3C8E7E06870B10121CC
:10379000396000F07DFA05463068810700F1B88095
:1037A00000F076FA401B0228F6D9B7E7386000F03F
:1037B0006FFA0546316888079BD500F069FA401B0F
:1037C0000228F7D9AAE7086000F062FA0546706F90
:1037D000810771D500F05CFA401B0228F7D99DE7FC
:1037E0000528306F06D140F004003067306F40F09C
:1037F000010005E0400840003067306F20F0040011
:10380000306741F28938A06868B100F041FA81461A
:10381000306F810700F1898000F03AFAA0EB0900CF
:103820004045F5D37AE700F033FA8146306F8107DF
:103830007BD500F02DFAA0EB09004045F6D36DE7EB
:1038400000F026FA401B022840F2828066E700F072
:103850001FFA001B022840F293805FE700203866C1
:1038600000F016FA04463068810140F18D8000F0C6
:103870000FFA001B0228F6D950E701281AD0706809
:10388000E26900F48001914202BF00F03F01226A28
:1038900091420FD147F6C071626A0140914202BF66
:1038A00000F44031A26A914202BF00F07060E16A08
:1038B000884269D0012068E0207841073AD5306C11
:1038C0000025C1000AD400950125316C41F08051DA
:1038D0003164306C00F0805000900098DFF8BC80BC
:1038E000D8F80000C1051BD4D8F8000040F480705F
:1038F000C8F8000000F0CCF98146D8F80000C105F6
:103900000ED400F0C5F9A0EB09000228F5D905E7AF
:103910003068216920F0F80040EAC1003060E8E634
:10392000A06801287FF45CAF60E71DB1306C20F027
:1039300080503064A06938B3B16801F00C010829E7
:103940009BD002288AD10020386600F0A1F90546F4
:10395000306881013FF574AFE269206A616A024311
:10396000A06A400842EA8112401E42EA0042E06A30
:1039700042EA006272600121396600F089F904466A
:10398000306881017FF563AF0020BDE8F28300BF9E
:103990000038024000004742800E4742007000405D
:1039A0002DE9F04104000F4678D0494E306800F010
:1039B0000F00B84202D200F073F86FD12068454D75
:1039C000810712D5400703D5A96841F4E051A960E9
:1039D0002078010703D5A86840F46040A860A96872
:1039E000A06821F0F0010143A9602178C8074DD5F6
:1039F0006068012802D129688A0305E0022818BFFF
:103A0000032803D129688A0103D447E029688A077B
:103A100044D5A968890840EA8100A86000F038F917
:103A20008046A868616800F00C00B0EB810F2DD0D3
:103A300000F02EF9A0EB080041F289318842F0D362
:103A4000032021E02078410705D5AA68E06822F428
:103A5000E0520243AA602178080706D5A9682069C8
:103A600021F4604141EAC001A96000F03FF8AA6872
:103A700019491A4BC2F30312895CC84018601848F0
:103A8000006800F00BF90020BDE8F081306800F01C
:103A90000F008742D6D200F003F8D3D00120F3E71D
:103AA0003770316801F00F01B94270470B480D4A79
:103AB000006813680C49C3F3822206E00748094AEC
:103AC000006813680849C3F34232895CC8407047F4
:103AD000003C024000380240683D0008E800002039
:103AE000E400002008380240C83D000830B5144CFE
:103AF000606800F00C00042802D0082802D01DE005
:103B0000104830BD226820680023410202F03F02C5
:103B100004D525680B49C5F3881003E020680A49DD
:103B2000C0F38810A1FB0001FDF746FC2168C1F33A
:103B30000141491C4900B0FBF1F030BD024830BDE5
:103B40000438024000127A000024F40000B500BFDF
:103B5000130096469446103928BFA0E80C50FAD8B6
:103B60005FEA417C28BF0CC048BF40F8042BC9075E
:103B700028BF20F8022B48BF00F8012B00BD000031
:103B8000C0F3C7527E3A09DD182A0CDA6FF07F4184
:103B9000D14020EA510040188843704700F00040AF
:103BA00008BF40F07E507047C0F3C7517E390EDD2C
:103BB000C217D1F1200106DD000240F00040C840EC
:103BC000104450407047D04380F0004070470020C0
:103BD000704700004FF0807C1CEB400F94BF1CEB43
:103BE000410F05E040EA010C1CEB0C0F01D28142B1
:103BF000704718BF884270474FF0807C1CEB400F25
:103C000094BF1CEB410F05E040EA010C1CEB0C0FCC
:103C100001D28842704718BF81427047421A3CBFA8
:103C2000801A89184FF0004CC0F3C752FF2A24D0E5
:103C3000C1F3C75313B3D21AD2F1190327DD4CEAEB
:103C400001214CFA03F321EA0303D140C20D4CEAEF
:103C50000020401834BF20EA0C004CEA5000D20586
:103C600053EA006373EB0C0C52EB1020420012F18C
:103C7000807F38BF7047C00DC0057047490212BF32
:103C80009A4200EB5120F8E7D2F11703D9D57047DB
:103C900001484068704700BFDC00002038B50D4D7A
:103CA0000D4B2A7804464FF47A711868B1FBF2F292
:103CB000B0FBF2F0FFF7BFFC50B9102C08D2002285
:103CC00021464FF0FF30FFF77FFCAC60002032BD93
:103CD000012032BDDC000020E800002010B50749BB
:103CE00079441831064C7C44163404E00A68081DF7
:103CF000114488470146A142F8D110BD3C000000A4
:103D0000580000007047FEE7FEE7FEE7FEE7704759
:103D10007047704700F008B80120FFF7B1B80148BC
:103D2000FEF71DB9440000200248416802788A1855
:103D300042607047DC000020C3D4FFFF2C6E0000FF
:103D40006C01002000000000ABD3FFFFEA0100007F
:103D50008C0000000000002002494FF00060086065
:103D60007047000008ED00E00000000000000000C7
:103D7000010203040607080900F00DF8002801D02D
:103D8000FFF7ACFFAFF300800020AFF30080FEF739
:103D90005DFD00F002F80120704700F001B800005E
:103DA00007463846FEF706F8FBE700000148804763
:103DB00001480047593D0008BD3D0008AFF30080B1
:103DC000AFF30080FFF7D8FF0000000001020304FA
:103DD00000002E004300FFF7FEBFFFF7FEBFFFF716
:103DE000FEBFFFF7FEBFFFF7FEBFFFF7FEBFFFF707
:103DF000FEBFFFF7FEBFFFF7FEBFFFF7FEBFFFF7F7
:103E0000FEBFFFF7FEBFFFF7FEBFFFF7FEBFFFF7E6
:103E1000FEBFFFF7FEBFFFF7FEBFFFF7FEBFFFF7D6
:103E2000FEBFFFF7FEBFFFF7FEBFFFF7FEBFFFF7C6
:103E3000FEBFFFF7FEBFFFF7FEBFFFF7FEBFFFF7B6
:103E4000FEBFFFF7FEBFFFF7FEBFFFF7FEBFFFF7A6
:103E5000FEBFFFF7FEBFFFF7FEBFFFF7FEBFFFF796
:103E6000FEBFFFF7FEBFFFF7FEBFFFF7FEBFFFF786
:103E7000FEBFFFF7FEBFFFF7FEBFFFF7FEBFFFF776
:103E8000FEBFFFF7FEBFFFF7FEBFFFF7FEBFFFF766
:103E9000FEBFFFF7FEBFFFF7FEBFFFF7FEBFFFF756
:103EA000FEBFFFF7FEBFFFF7FEBFFFF7FEBFFFF746
:103EB000FEBFFFF7FEBFFFF7FEBFFFF7FEBFFFF736
:103EC000FEBFFFF7FEBFFFF7FEBFFFF7FEBFFFF726
:103ED000FEBFFFF7FEBFFFF7FEBFFFF7FEBFFFF716
:103EE000FEBFFFF7FEBFFFF7FEBFFFF7FEBFFFF706
:103EF000FEBFFFF7FEBFFFF7FEBFFFF7FEBFFFF7F6
:103F0000FEBFFFF7FEBFFFF7FEBFFFF7FEBFFFF7E5
:103F1000FEBFFFF7FEBFFFF7FEBFFFF7FEBFFFF7D5
:103F2000FEBFFFF7FEBFFFF7FEBFFFF7FEBFFFF7C5
:103F3000FEBFFFF7FEBFF3B3010001A00840406FD2
:103F400012833A0AD7A33BCF61DC221008F00507A1
:103F500024F400D03D00080452FF01F200D21410F6
:103F6000010000D40C214CF40217EC0000202F209B
:0C3F700002FD1200082C43EB123C210162
:0400000508003DBDF5
:00000001FF
