:020000040800F2
:1000000010040020B50E0008770D0008790D0008D7
:100010007B0D00087D0D00087F0D0008000000002A
:10002000000000000000000000000000810D00083A
:10003000830D000800000000850D0008870D0008F2
:10004000E10E0008E50E0008E90E0008ED0E0008BC
:10005000F10E0008F50E00088B0D0008F90E0008DF
:10006000910D0008970D00089D0D0008FD0E000879
:10007000010F0008050F0008090F00080D0F000808
:10008000110F0008150F0008190F00081D0F0008B8
:10009000210F0008250F0008290F00082D0F000868
:1000A000310F0008350F0008390F00083D0F000818
:1000B000410F0008450F0008490F00084D0F0008C8
:1000C000510F0008550F0008590F00085D0F000878
:1000D000610F0008650F0008690F00086D0F000828
:1000E000710F0008750F0008790F00087D0F0008D8
:1000F000810F0008850F0008890F00088D0F000888
:10010000910F0008950F0008990F00089D0F000837
:10011000A10F0008A50F0008A90F0008AD0F0008E7
:10012000B10F0008B50F0008B90F0008BD0F000897
:10013000C10F0008C50F0008C90F0008CD0F000847
:10014000D10F0008D50F0008D90F0008DD0F0008F7
:10015000E10F0008E50F0008E90F0008ED0F0008A7
:10016000F10F0008F50F0008F90F0008FD0F000857
:100170000110000805100008091000080000000028
:100180000D100008111000081510000819100008C3
:100190001D10000821100008251000082910000873
:1001A0002D10000831100008351000082DE9F84323
:1001B000040016D02078DFF80863C10713D5B068B3
:1001C00000F00C00042807D0B06800F00C000828EC
:1001D0003ED1706841023BD53068810303D5606829
:1001E000002800F0FF802078B64F810719D5B0684D
:1001F00010F00C0F07D0B06800F00C0008285CD19C
:100200007068410259D43068810703D5E06801283D
:1002100040F0E8803168206921F0F80141EAC0012E
:100220003160217808076CD56069A749002862D041
:1002300001220A6000F04CF90546706F810700F159
:10024000D38000F045F9401B0228F6D9032034E1A1
:100250006068B0F5803F04D1306840F48030306091
:1002600011E0B0F5A02F306806D140F48020306056
:10027000316841F4803105E020F48030306031682D
:1002800021F480213160606858B100F021F9054601
:1002900030688103A7D400F01BF9401B6528F7D311
:1002A000D4E700F015F90546306881039BD500F0CE
:1002B0000FF9401B6528F7D3C8E7E06870B101214A
:1002C000396000F005F905463068810700F1B88013
:1002D00000F0FEF8401B0228F6D9B7E7386000F0BE
:1002E000F7F80546316888079BD500F0F1F8401B08
:1002F0000228F7D9AAE7086000F0EAF80546706F0F
:10030000810771D500F0E4F8401B0228F7D99DE77A
:100310000528306F06D140F004003067306F40F0A0
:10032000010005E0400840003067306F20F0040015
:10033000306741F28938A06868B100F0C9F8814699
:10034000306F810700F1898000F0C2F8A0EB09004E
:100350004045F5D37AE700F0BBF88146306F81075E
:100360007BD500F0B5F8A0EB09004045F6D36DE76A
:1003700000F0AEF8401B022840F2828066E700F0F1
:10038000A7F8001B022840F293805FE70020386640
:1003900000F09EF804463068810140F18D8000F045
:1003A00097F8001B0228F6D950E701281AD0706888
:1003B000E26900F48001914202BF00F03F01226A2D
:1003C00091420FD147F6C071626A0140914202BF6B
:1003D00000F44031A26A914202BF00F07060E16A0D
:1003E000884269D0012068E0207841073AD5306C16
:1003F0000025C1000AD400950125316C41F08051DF
:100400003164306C00F0805000900098DFF8BC80C0
:10041000D8F80000C1051BD4D8F8000040F4807063
:10042000C8F8000000F054F88146D8F80000C10573
:100430000ED400F04DF8A0EB09000228F5D905E72D
:100440003068216920F0F80040EAC1003060E8E639
:10045000A06801287FF45CAF60E71DB1306C20F02C
:1004600080503064A06938B3B16801F00C010829EC
:100470009BD002288AD10020386600F029F8054672
:10048000306881013FF574AFE269206A616A024316
:10049000A06A400842EA8112401E42EA0042E06A35
:1004A00042EA006272600121396600F011F80446E8
:1004B000306881017FF563AF0020BDE8F28300BFA3
:1004C0000038024000004742800E47420070004062
:1004D00001484068704700BF0000002080B500F070
:1004E0001BF900F023F800F06BF800220021062031
:1004F00000F046F9062000F060F9002200210820F3
:1005000000F03EF9082000F058F9002200210920EF
:1005100000F036F9092000F050F9002200210A20ED
:1005200000F02EF90A2000F048F9FEE780B592B0FD
:1005300006A8302100F06CF901A8142100F068F938
:10054000002000904FF480336948016841F08051E9
:1005500001600021006800F080500090009865481C
:100560000091026842F4404202600122006800F4F7
:100570004040009006A80099069202214FF48002A4
:100580000C910D9208214FF4A8720E910F92022146
:100590000422079310911192FFF708FE02210291A5
:1005A000002203920F204FF4A051019004914FF4C8
:1005B00080520592052101A800F02EF913B000BD6C
:1005C00038B586B06846142100F022F900244A4864
:1005D0004A4D059401684A4C41F0100101600268DF
:1005E00002F010020592002200F05BF843F0800355
:1005F0000360016801F0800100F052F843F001034C
:100600000360016801F0010100F04AF843F00203C1
:100610000360016801F0020100F042F843F00803B2
:100620000360016801F00801059105990592B02168
:10063000036843F040030360006800F04000059049
:100640000598204600F08BFA00224FF4C04128465E
:1006500000F085FA1C202B4900F027F82A4800F00A
:100660009BF90120294900F020F8294800F094F96D
:10067000042000210090019102916946254800F074
:100680008BF9B02100F017F8204600F085F94FF4FF
:10069000C04100F010F8284600F07EF907B030BDE8
:1006A0000591059905920368704700900191002219
:1006B0000292694670470091012201920021029145
:1006C000032203926946704701280D4A08BFB021F2
:1006D0000AD0042808BF102106D0082808BF20210E
:1006E00002D0102803D18021104600F03CBA704798
:1006F000403802400070004030380240001802408C
:10070000000C0240000021100010024000001110F7
:10071000000002400004024080B50B48016841F42B
:1007200000710160026842F480620260016841F475
:1007300080710160032000F016F8002000F040FAFC
:1007400000F05EFA002002BD003C024009010200F8
:1007500002D4294881547047284B02F00F021A44F2
:1007600002F8041C7047264B19684FF6FF0200027E
:10077000114000F4E06008432249084318607047C4
:1007800038B51F4B1C68C4F30223C3F10704052CC2
:1007900028BF04241D1D072D34BF0023DB1E0125A7
:1007A00005FA04F4641E2140994005FA03F35B1E28
:1007B0001A401143BDE83440C8E7010007D40122C4
:1007C00000F01F01104B8A40400943F82020704779
:1007D00010B5401EB0F1807F01D3012010BD0B4C3D
:1007E00060600F214FF0FF30FFF7B0FF0021A160E4
:1007F00007202060002010BD00E400E018ED00E0BC
:100800000CED00E00000FA0500E100E010E000E07F
:10081000002200F011BA00002DE9F04104000F465B
:1008200078D0404E306800F00F00B84202D200F09D
:1008300073F86FD120683C4D810712D5400703D56E
:10084000A96841F4E051A9602078010703D5A868A0
:1008500040F46040A860A968A06821F0F00101435D
:10086000A9602178C8074DD56068012802D12968A0
:100870008A0305E0022818BF032803D129688A01EA
:1008800003D447E029688A0744D5A968890840EA63
:100890008100A860FFF71CFE8046A868616800F030
:1008A0000C00B0EB810F2DD0FFF712FEA0EB08007B
:1008B00041F289318842F0D3032021E020784107BA
:1008C00005D5AA68E06822F4E0520243AA602178C4
:1008D000080706D5A968206921F4604141EAC001F2
:1008E000A96000F029F8AA681049114BC2F303125D
:1008F000895CC84018600F48006800F061F900206A
:10090000BDE8F081306800F00F008742D6D200F0D9
:1009100003F8D3D00120F3E73770316801F00F01FD
:10092000B9427047003C024000380240D00D000838
:100930000C0000200800002030B5144C606800F066
:100940000C00042802D0082802D01DE0104830BD59
:10095000226820680023410202F03F0204D5256886
:100960000B49C5F3881003E020680A49C0F38810DA
:10097000A1FB000100F07AF92168C1F30141491C93
:100980004900B0FBF1F030BD024830BD04380240F0
:1009900000127A000024F4002DE9F84F0D464FF0C4
:1009A000000879490F22012304462E6803FA08F053
:1009B00000EA0609814540F0CA804FEA480C032648
:1009C00006FA0CF66FEA060E6E68012E18BF022EAC
:1009D00003D0112E18BF122E11D1A668EF680EEAAF
:1009E000060607FA0CF73E43A660666826EA000092
:1009F0006E68C6F3001606FA08F630436060E068D9
:100A0000AE680EEA000006FA0CF63043E0604FEAEA
:100A100088006E68022E18BF122E12D14FEAD80637
:100A200004EB860600F01C07D6F820A002FA07FBAC
:100A30002AEA0B0AD5F810B00BFA07F747EA0A07BB
:100A4000376226680EEA06072E7906F0030606FAD4
:100A50000CF63E4326606E68F60078D500260096B8
:100A60004FEA980C0E68DFF824E146F480460E60E9
:100A700000F00C000E6806F480460096009E5EF8BA
:100A80002C7002FA00F627EA0606414FBC4208BF66
:100A900000272CD03F4FBC4208BF012727D03E4F34
:100AA000BC4208BF022722D03C4FBC4208BF0327EC
:100AB0001DD03B4FBC4208BF042718D0394FBC4261
:100AC00008BF052713D0384FBC4208BF06270ED0F9
:100AD000364FBC4208BF072709D0354FBC4208BF7C
:100AE000082704D0334FBC420CBF09270A2707FA56
:100AF00000F030434EF82C006FEA090C2E480668CF
:100B00000CEA060E6E68F70348BF49EA0E0EC0F8FD
:100B100000E046680CEA060E6E68B70348BF49EA73
:100B20000E0EC0F804E086680CEA060E6E68F70246
:100B300048BF49EA0E0EC0F808E0C6680CEA060E87
:100B40006E68B60248BF49EA0E0EC0F80CE008F124
:100B50000108B8F10F0F7FF628AFBDE8F18F02B999
:100B600009048161704742690A408A4208BF09044A
:100B700081617047114A136803421CBF1060FFF780
:100B8000A3BD70470000000044380240083801400F
:100B9000000002400004024000080240000C024035
:100BA000001002400014024000180240001C0240E5
:100BB0000020024000240240003C0140143C01405F
:100BC00038B50D4D0D4B2A7804464FF47A711868EC
:100BD000B1FBF2F2B0FBF2F0FFF7FAFD50B9102CC6
:100BE00008D2002221464FF0FF30FFF7C9FDAC606C
:100BF000002032BD012032BD000000200C0000208A
:100C000081B00020009000220A48416841F48041F0
:100C10004160416801F480410091009900920368AD
:100C200043F080530360006800F08050009000980B
:100C300001B070474038024000B500BF130096462F
:100C40009446103928BFA0E80C50FAD85FEA417CDE
:100C500028BF0CC048BF40F8042BC90728BF20F8A4
:100C6000022B48BF00F8012B00BD0000D3BBD9B157
:100C7000B2F5803F5BD2022A1ED98C46B1FBF2F15D
:100C800002FB11C31B0443EA1043B3FBF2FC02FB5B
:100C90001C3380B240EA0343B3FBF2F002FB103294
:100CA00040EA0C4000237047022A05D98446B0FB75
:100CB000F2F002FB10C270474AB105D100F0010208
:100CC00049085FEA3000704700220023704700F0B7
:100CD00051B80B000200002100207047F7D300221A
:100CE00000237047904271EB030CF2D370B5B1FA58
:100CF00081F4B3FA83F52C1BA340C4F1200532FA2A
:100D000005F63343A2405FF00046E64002E05B0890
:100D10005FEA3202841A71EB030524BF204629469C
:100D20007641F4D302000B003000002170BD70B595
:100D3000B1FA81F4B2FA82F5C4F120046419B4F175
:100D40002006DAD3B2405FF00044F440002502E010
:100D500052085FEA3303C61A71EB020E24BF304615
:100D6000714664416D41F3D302000B00200029005D
:100D700070BD000070477047FEE7FEE7FEE7FEE744
:100D800070477047704700F00DB80120FFF7F2BEC2
:100D90000420FFF7EFBE0820FFF7ECBE1020FFF79E
:100DA000E9BE00000248416802788A184260704734
:100DB000000000200448054A016841F47001016008
:100DC0004FF000601060704788ED00E008ED00E033
:100DD00000000000000000000102030406070809EB
:100DE00030B450F8041B79B10268436802440830FB
:100DF000DC0744BFA9F10104E31852F8045B43F88F
:100E0000045B091FF9D1ECE730BC704710B5074906
:100E100079441831064C7C44163404E00A68081DF5
:100E2000114488470146A142F8D110BD2C000000B2
:100E30003C0000004EF68851CEF20001086840F4F4
:100E400070000860BFF34F8FBFF36F8F4FF00070DB
:100E5000E1EE100A7047000089FFFFFF100000005C
:100E600064000000000000200000000000F00DF809
:100E7000002801D0FFF7CAFFAFF300800020AFF3D6
:100E80000080FFF72BFB00F002F80120704700F014
:100E900001B800000746384600F002F8FBE7000002
:100EA00080B5AFF30080024A11001820ABBEFBE70B
:100EB000260002000148804701480047B50D0008A0
:100EC000D50E000801000000000000001000000026
:100ED0000024F400AFF30080FFF7ACFFFFF7C6FF7C
:100EE000FFF7FEBFFFF7FEBFFFF7FEBFFFF7FEBF36
:100EF000FFF7FEBFFFF7FEBFFFF7FEBFFFF7FEBF26
:100F0000FFF7FEBFFFF7FEBFFFF7FEBFFFF7FEBF15
:100F1000FFF7FEBFFFF7FEBFFFF7FEBFFFF7FEBF05
:100F2000FFF7FEBFFFF7FEBFFFF7FEBFFFF7FEBFF5
:100F3000FFF7FEBFFFF7FEBFFFF7FEBFFFF7FEBFE5
:100F4000FFF7FEBFFFF7FEBFFFF7FEBFFFF7FEBFD5
:100F5000FFF7FEBFFFF7FEBFFFF7FEBFFFF7FEBFC5
:100F6000FFF7FEBFFFF7FEBFFFF7FEBFFFF7FEBFB5
:100F7000FFF7FEBFFFF7FEBFFFF7FEBFFFF7FEBFA5
:100F8000FFF7FEBFFFF7FEBFFFF7FEBFFFF7FEBF95
:100F9000FFF7FEBFFFF7FEBFFFF7FEBFFFF7FEBF85
:100FA000FFF7FEBFFFF7FEBFFFF7FEBFFFF7FEBF75
:100FB000FFF7FEBFFFF7FEBFFFF7FEBFFFF7FEBF65
:100FC000FFF7FEBFFFF7FEBFFFF7FEBFFFF7FEBF55
:100FD000FFF7FEBFFFF7FEBFFFF7FEBFFFF7FEBF45
:100FE000FFF7FEBFFFF7FEBFFFF7FEBFFFF7FEBF35
:100FF000FFF7FEBFFFF7FEBFFFF7FEBFFFF7FEBF25
:10100000FFF7FEBFFFF7FEBFFFF7FEBFFFF7FEBF14
:10101000FFF7FEBFFFF7FEBFFFF7FEBFFFF7FEBF04
:10102000FFF7FEBFFFF7FEBFFFF7FEBFFFF7FEBFF4
:08103000FFF7FEBFFFF7FEBF52
:0400000508000ED50C
:00000001FF
