:020000040800F2
:10000000882B0020D97D00082D7D00082F7D000859
:10001000317D0008337D0008357D000800000000B8
:10002000000000000000000000000000377D000814
:10003000397D0008000000003B7D00083D7D000880
:10004000037E0008077E00080B7E00080F7E000874
:10005000137E0008177E0008417D00081B7E000803
:100060001F7E0008237E0008277E00082B7E0008E4
:100070002F7E0008337E0008377E00083B7E000894
:100080003F7E0008437E0008477E00084B7E000844
:100090004F7E0008537E0008577E00085B7E0008F4
:1000A0005F7E0008637E0008677E00086B7E0008A4
:1000B0006F7E0008737E0008777E00087B7E000854
:1000C0007F7E0008837E0008877E00088B7E000804
:1000D0008F7E0008937E0008977E00089B7E0008B4
:1000E0009F7E0008A37E0008A77E0008AB7E000864
:1000F000AF7E0008B37E0008B77E0008BB7E000814
:10010000BF7E0008C37E0008C77E0008CB7E0008C3
:10011000CF7E0008D37E0008477D0008D77E000808
:10012000DB7E0008DF7E0008E37E0008E77E000833
:10013000EB7E0008EF7E0008F37E0008F77E0008E3
:10014000FB7E0008FF7E0008037F0008077F000891
:100150000B7F00080F7F0008137F0008177F00083F
:100160001B7F00081F7F0008237F0008277F0008EF
:100170002B7F00082F7F0008337F0008000000005D
:10018000377F00083B7F00083F7F0008437F00085F
:10019000477F00084B7F00084F7F0008537F00080F
:1001A000577F00085B7F00085F7F000800000000A9
:1001B000000000000000000000000000000000003F
:1001C000000000000000000000000000000000002F
:1001D000000000000000000000000000000000001F
:1001E000000000000000000000000000000000000F
:1001F00000000000000000000000038000038000F9
:10020000038000038000038000038000038000035C
:1002100080000380000100000100000000000000D9
:1002200000038000038000000000000000000000C8
:1002300000000000000000000000000000000000BE
:1002400000000000000E70000E70000E7000042010
:100250000004200004200004200000000000000032
:10026000000000000000000000000000000000008E
:10027000000000000000000000000000000000007E
:1002800000000000000000000000066000066000A2
:100290000660000660000660003FF8003FF80006B8
:1002A00060000CC0003FF8003FF8000CC0000CC01C
:1002B000000CC0000CC0000CC000000000000000DA
:1002C000000000000000000000000000000000012D
:1002D000800001800007B0000FF000187000187057
:1002E000001C00000F800007E00000F00018300044
:1002F0001C30001C70001FE0001BC00001800001CA
:10030000800001800001800000000000000000006B
:10031000000000000000000000000780000FC00087
:100320001CE0001860001860001CE0000FF80007D7
:10033000E0001FF000073800061800061800073814
:100340000003F00001E000000000000000000000D9
:10035000000000000000000000000000000000009D
:10036000000000000000000003F00007F0000C6037
:10037000000C00000C00000600000700000F9C00AD
:100380001DFC0018F0001870000FFC0007DC0000D6
:10039000000000000000000000000000000000005D
:1003A00000000000000000000000000000038000CA
:1003B0000380000380000100000100000100000133
:1003C000000000000000000000000000000000002D
:1003D000000000000000000000000000000000001D
:1003E000000000000000000000000000000000000D
:1003F000000000180000380000700000F00000E06D
:100400000000E00001C00001C00001C00001C00008
:1004100001C00001C00000E00000E000007000002A
:10042000700000380000180000000000000000000C
:10043000000000000000000000001800001C000088
:100440000E00000E000007000007000003800003FC
:100450008000038000038000038000038000070009
:10046000000700000F00000E00001C000018000034
:10047000000000000000000000000000000000007C
:1004800000000180000180000180001DB8001FF8FD
:100490000007E00003C00003C00006600006600023
:1004A000000000000000000000000000000000004C
:1004B000000000000000000000000000000000003C
:1004C000000000000000000000000000000000002C
:1004D0000180000180000180000180000180003F58
:1004E000FC003FFC000180000180000180000180D1
:1004F000000180000000000000000000000000007B
:1005000000000000000000000000000000000000EB
:1005100000000000000000000000000000000000DB
:1005200000000000000000000000000000000000CB
:1005300000000000000000E00000C00001C0000159
:1005400080000180000300000300000000000000A4
:10055000000000000000000000000000000000009B
:100560000000000000000000000000000000001F6C
:10057000F8001FF80000000000000000000000006C
:10058000000000000000000000000000000000006B
:10059000000000000000000000000000000000005B
:1005A000000000000000000000000000000000004B
:1005B000000000000000000000000000000000003B
:1005C00000000000000003C00003C00003C00000E2
:1005D000000000000000000000000000000000001B
:1005E0000000000000180000180000380000300073
:1005F00000700000600000600000C00000C000014A
:1006000080000180000300000300000600000600D7
:10061000000E00000C00001C000018000018000074
:1006200000000000000000000000000000000000CA
:10063000000003C00007E0000C30000C3000181868
:1006400000181800181800181800181800181800BA
:100650001818000C30000C300007E00003C0000048
:10066000000000000000000000000000000000008A
:100670000000000000000000000000800007800073
:100680001F80001D800001800001800001800001AA
:100690008000018000018000018000018000018055
:1006A000001FF8001FF8000000000000000000001C
:1006B000000000000000000000000000000000003A
:1006C000000007C0001FF00038300030180030185C
:1006D0000000180000300000600001C0000380002E
:1006E0000600000C00001800003FF8003FF8000072
:1006F00000000000000000000000000000000000FA
:100700000000000000000000000003C0000FE00037
:100710000C700000300000300000600003C00003D7
:10072000E0000070000018000018000018001838E1
:10073000001FF0000FC000000000000000000000DB
:1007400000000000000000000000000000000000A9
:10075000000000E00001E00001E00003600006602E
:10076000000660000C60000C600018600030600043
:100770003FF8003FF80000600003F80003F80000B5
:100780000000000000000000000000000000000069
:10079000000000000000000000001FF0001FF0003B
:1007A0001800001800001800001BC0001FF0001CFB
:1007B0003000001800001800001800001800303049
:1007C000003FF0000FC0000000000000000000002B
:1007D0000000000000000000000000000000000019
:1007E000000000F80003F8000700000E00000C00F5
:1007F000001800001BC0001FF0001C30001818007B
:100800001818001818000C38000FF00003E0000062
:1008100000000000000000000000000000000000D8
:10082000000000000000000000001FF8001FF8009A
:100830001818001838000030000030000070000068
:10084000600000600000E00000C00000C00001C0C7
:100850000001800001800000000000000000000096
:100860000000000000000000000000000000000088
:10087000000007E0000FF0001C38001818001818DE
:10088000000C300007E00007E0000C3000181800F2
:100890001818001818001C38000FF00007E00000BE
:1008A0000000000000000000000000000000000048
:1008B0000000000000000000000007C0000FF00072
:1008C0001C30001818001818001818000C38000FF9
:1008D000F80003D80000180000300000700000E0AD
:1008E000001FC0001F00000000000000000000000A
:1008F00000000000000000000000000000000000F8
:10090000000000000000000000000000000003C024
:100910000003C00003C00000000000000000000051
:1009200000000000000003C00003C00003C000007E
:1009300000000000000000000000000000000000B7
:1009400000000000000000000000000000000000A7
:1009500000000000000000F00000F00000F00000C7
:10096000000000000000000000000000E00001C0E6
:100970000001800001800003000002000000000070
:100980000000000000000000000000000000000067
:100990000000000000000000001C00003C0000F00F
:1009A0000003C0000F00003C0000F000003C00000D
:1009B0000F000003C00000F000003C00001C00001D
:1009C0000000000000000000000000000000000027
:1009D0000000000000000000000000000000000017
:1009E0000000000000000000007FFC007FFC000011
:1009F00000000000007FFC007FFC00000000000001
:100A000000000000000000000000000000000000E6
:100A100000000000000000000000000000000000D6
:100A200000000000000000007000007800001E00C0
:100A30000007800001E000007800001E0000780040
:100A400001E0000780001E00007800007000000038
:100A50000000000000000000000000000000000096
:100A60000000000000000000000000000007C000BF
:100A70000FE00018700018300018300000700000FF
:100A8000E00003C00003800003000000000000003D
:100A90000007000007000000000000000000000048
:100AA0000000000000000000000000000000000046
:100AB000000003E00007F0000E38000C1800187862
:100AC0000018F80019D80019980019980019980012
:100AD00018F8001878001800000C00000E18000725
:100AE000F80003E00000000000000000000000002B
:100AF000000000000000000000000000001F800057
:100B00001FC00001C0000360000360000630000643
:100B100030000C30000FF8001FF800180C00300CEB
:100B200000FC7F00FC7F00000000000000000000CF
:100B300000000000000000000000000000000000B5
:100B400000000000007FE0007FF000183800181857
:100B5000001818001838001FF0001FF800181C00BB
:100B6000180C00180C00180C007FF8007FF0000033
:100B70000000000000000000000000000000000075
:100B80000000000000000000000000000003EC0076
:100B90000FFC001C1C00180C00300C003000003052
:100BA0000000300000300000300000180C001C1C59
:100BB000000FF80003F0000000000000000000003B
:100BC0000000000000000000000000000000000025
:100BD00000000000007FC0007FF0001838001818E7
:100BE00000180C00180C00180C00180C00180C0051
:100BF000180C001818001838007FF0007FE0000083
:100C000000000000000000000000000000000000E4
:100C1000000000000000000000000000007FF8005D
:100C20007FF8001818001818001998001980001F84
:100C300080001F80001980001998001818001818EB
:100C4000007FF8007FF800000000000000000000B6
:100C50000000000000000000000000000000000094
:100C600000000000003FFC003FFC000C0C000C0CDE
:100C7000000CCC000CC0000FC0000FC0000CC00066
:100C80000CC0000C00000C00003FC0003FC0000082
:100C90000000000000000000000000000000000054
:100CA0000000000000000000000000000003EC0055
:100CB0000FFC001C1C00180C00300C003000003031
:100CC000000030FE0030FE00300C00380C001C1C10
:100CD000000FFC0003F00000000000000000000016
:100CE0000000000000000000000000000000000004
:100CF00000000000007E7E007E7E0018180018189C
:100D0000001818001818001FF8001FF80018180025
:100D10001818001818001818007E7E007E7E00004B
:100D200000000000000000000000000000000000C3
:100D3000000000000000000000000000001FF8009C
:100D40001FF8000180000180000180000180000187
:100D5000800001800001800001800001800001808E
:100D6000001FF8001FF80000000000000000000055
:100D70000000000000000000000000000000000073
:100D8000000000000007FE0007FE000030000030F9
:100D90000000300000300000300030300030300003
:100DA0003030003030003060003FE0000F80000045
:100DB0000000000000000000000000000000000033
:100DC000000000000000000000000000007F3E0066
:100DD0007F3E0018300018600018C0001980001B0A
:100DE00080001FC0001CE000187000183000183888
:100DF000007F1F007F1F00000000000000000000B7
:100E000000000000000000000000000000000000E2
:100E100000000000007F80007F80000C00000C00BC
:100E2000000C00000C00000C00000C00000C0C007A
:100E30000C0C000C0C000C0C007FFC007FFC000074
:100E400000000000000000000000000000000000A2
:100E500000000000000000000000000000F00F0093
:100E6000F81F00381C003C3C003C3C00366C00364F
:100E70006C0033CC0033CC00318C00300C00300CD3
:100E800000FE7F00FE7F0000000000000000000068
:100E90000000000000000000000000000000000052
:100EA000000000000078FE0078FE001C18001E18EC
:100EB000001F18001B18001B980019D80018D80034
:100EC00018F8001878001838007F18007F18000004
:100ED0000000000000000000000000000000000012
:100EE0000000000000000000000000000003C0003F
:100EF0000FF0001C3800181800381C00300C0030AF
:100F00000C00300C00300C00381C001818001C3885
:100F1000000FF00003C0000000000000000000000F
:100F200000000000000000000000000000000000C1
:100F300000000000003FF0003FF8000C1C000C0C0B
:100F4000000C0C000C0C000C18000FF8000FE00057
:100F50000C00000C00000C00003FC0003FC000006F
:100F60000000000000000000000000000000000081
:100F70000000000000000000000000000003C000AE
:100F80000FF0001C3800181800381C00300C00301E
:100F90000C00300C00300C00381C001818001C38F5
:100FA000000FF00007C00007CC000FFC000C380059
:100FB0000000000000000000000000000000000031
:100FC00000000000007FE0007FF0001838001818D3
:100FD000001818001838001FF0001FC00018E000AB
:100FE0001870001830001838007F1E007F0E0000B7
:100FF00000000000000000000000000000000000F1
:101000000000000000000000000000000007D80001
:101010000FF8001C38001818001818001E00000FE8
:10102000C00003F0000078001818001818001C38E1
:10103000001FF0001BE000000000000000000000A6
:1010400000000000000000000000000000000000A0
:1010500000000000003FFC003FFC00318C00318CA0
:1010600000318C00318C0001800001800001800083
:101070000180000180000180000FF0000FF00000EF
:101080000000000000000000000000000000000060
:10109000000000000000000000000000007E7E0054
:1010A0007E7E00181800181800181800181800186C
:1010B00018001818001818001818001818000C301C
:1010C000000FF00003C0000000000000000000005E
:1010D0000000000000000000000000000000000010
:1010E00000000000007F7F007F7F00180C000C18BC
:1010F000000C18000C1800063000063000036000D9
:1011000003600003600001C00001C0000080000017
:1011100000000000000000000000000000000000CF
:1011200000000000000000000000000000FE3F8002
:10113000FE3F8030060030060030860019CC0019D2
:10114000CC001B6C001B6C001E7C000E38000E389F
:10115000000C18000C180000000000000000000047
:10116000000000000000000000000000000000007F
:1011700000000000007E7E007E7E001818000C300B
:101180000006600003C00001800001800003C00071
:101190000660000C30001818007E7E007E7E000085
:1011A000000000000000000000000000000000003F
:1011B000000000000000000000000000007C7E0035
:1011C0007C7E001818000C300006600006600003EA
:1011D000C0000180000180000180000180000180CA
:1011E000000FF0000FF00000000000000000000001
:1011F00000000000000000000000000000000000EF
:1012000000000000001FF8001FF800181800183038
:101210000018600018C000018000030000061800DC
:101220000C18001818003018003FF8003FF80000B4
:1012300000000000000000000000000000000000AE
:101240000000000000000000000001F00001F000BC
:101250000180000180000180000180000180000108
:101260008000018000018000018000018000018079
:101270000001800001800001800001F00001F00009
:10128000000000000000000000000000180000182E
:1012900000001C00000C00000E000006000006000C
:1012A0000003000003000001800001800000C00076
:1012B00000C000006000006000007000003000000E
:1012C00038000018000018000000000000000000B6
:1012D000000000000000000000000F80000F8000F0
:1012E0000180000180000180000180000180000178
:1012F00080000180000180000180000180000180E9
:10130000000180000180000180000F80000F80003C
:1013100000000000000000000000000000000000CD
:10132000800001C00003E0000770000630000C18C8
:1013300000180C0010040000000000000000000075
:10134000000000000000000000000000000000009D
:10135000000000000000000000000000000000008D
:10136000000000000000000000000000000000007D
:10137000000000000000000000000000000000006D
:10138000000000000000000000000000000000005D
:10139000000000000000000000000000000000004D
:1013A000000000000000FFFF00FFFF00000000033E
:1013B000000003800000E00000600000000000006A
:1013C000000000000000000000000000000000001D
:1013D000000000000000000000000000000000000D
:1013E00000000000000000000000000000000000FD
:1013F00000000000000000000000000000000000ED
:101400000000000000000FC0001FE00000300000DE
:10141000300007F0001FF00038300030300030702E
:10142000001FFC000FBC00000000000000000000D6
:1014300000000000000000000000000000000000AC
:1014400000007800007800001800001800001BE081
:10145000001FF8001C1800180C00180C00180C00D5
:10146000180C00180C001C18007FF8007BE000002E
:10147000000000000000000000000000000000006C
:10148000000000000000000000000000000000005C
:1014900000000000000003EC000FFC001C1C0038E2
:1014A0000C00300C00300000300000380C001C1C18
:1014B000000FF80003F00000000000000000000032
:1014C000000000000000000000000000000000001C
:1014D000000000780000780000180000180007D80D
:1014E000001FF800183800301800301800301800BD
:1014F0003018003018001838001FFE0007DE00000A
:1015000000000000000000000000000000000000DB
:1015100000000000000000000000000000000000CB
:1015200000000000000007E0001FF800181800305D
:101530000C003FFC003FFC00300000300000180CA5
:10154000001FFC0007F00000000000000000000089
:10155000000000000000000000000000000000008B
:10156000000001FC0003FC000600000600003FF83C
:10157000003FF8000600000600000600000600001C
:101580000600000600000600003FF0003FF00000EB
:10159000000000000000000000000000000000004B
:1015A000000000000000000000000000000000003B
:1015B00000000000000007DE001FFE0018380030A9
:1015C0001800301800301800301800301800183893
:1015D000001FF80007D800001800001800003800AD
:1015E0000FF0000FC000000000000000000000002D
:1015F00000007800007800001800001800001BE0D0
:10160000001FF0001C3800181800181800181800E7
:101610001818001818001818007E7E007E7E000042
:1016200000000000000000000000000000000000BA
:1016300000000000000000000000018000018000A8
:101640000000000000001F80001F800001800001DA
:101650008000018000018000018000018000018085
:10166000003FFC003FFC0000000000000000000004
:10167000000000000000000000000000000000006A
:10168000000000C00000C0000000000000001FF0CB
:10169000001FF0000030000030000030000030007B
:1016A000003000003000003000003000003000004A
:1016B00030000030000070001FE0001F80000000BC
:1016C000000000000000000000003C00003C0000A2
:1016D0000C00000C00000CF8000CF8000CC0000D11
:1016E00080000F80000F00000F80000DC0000CE094
:1016F000003C7C003C7C000000000000000000007A
:1017000000000000000000000000000000000000D9
:1017100000001F80001F8000018000018000018008
:101720000001800001800001800001800001800034
:101730000180000180000180003FFC003FFC0000B0
:101740000000000000000000000000000000000099
:101750000000000000000000000000000000000089
:10176000000000000000F77800FFFC0039CC0031D9
:101770008C00318C00318C00318C00318C00318C2C
:1017800000FDEF00FDEF0000000000000000000081
:101790000000000000000000000000000000000049
:1017A00000000000000000000000000000007BE0DE
:1017B000007FF0001C3800181800181800181800D6
:1017C0001818001818001818007E7E007E7E000091
:1017D0000000000000000000000000000000000009
:1017E00000000000000000000000000000000000F9
:1017F00000000000000003C0000FF0001C3800389B
:101800001C00300C00300C00300C00381C001C3860
:10181000000FF00003C00000000000000000000006
:1018200000000000000000000000000000000000B8
:1018300000000000000000000000000000007BE04D
:10184000007FF8001C1800180C00180C00180C0081
:10185000180C00180C001C18001FF8001BE00018E2
:1018600000001800001800007F00007F000000004A
:101870000000000000000000000000000000000068
:1018800000000000000007DE001FFE0018380030D6
:1018900018003018003018003018003018001838C0
:1018A000001FF80007D800001800001800001800FA
:1018B00000FE0000FE00000000000000000000002C
:1018C00000000000000000000000000000003E7862
:1018D000003EFC0007CC00070000060000060000E8
:1018E0000600000600000600003FF0003FF0000088
:1018F00000000000000000000000000000000000E8
:1019000000000000000000000000000000000000D7
:1019100000000000000007F8000FF8001818001879
:1019200018001F80000FF00000F800181800183889
:10193000001FF0001FE00000000000000000000099
:101940000000000000000000000000000000000097
:1019500000000C00000C00000C00000C00003FF028
:10196000003FF0000C00000C00000C00000C000018
:101970000C00000C00000C1C0007FC0003F0000031
:101980000000000000000000000000000000000057
:101990000000000000000000000000000000000047
:1019A000000000000000787800787800181800180F
:1019B00018001818001818001818001818001838FF
:1019C000000FFE0007DE0000000000000000000025
:1019D0000000000000000000000000000000000007
:1019E00000000000000000000000000000007C3E3D
:1019F000007C3E001818001818000C30000C300055
:101A000006600006600007E00003C00003C000009D
:101A100000000000000000000000000000000000C6
:101A200000000000000000000000000000000000B6
:101A3000000000000000783C00783C0031180033C2
:101A400098003398001AB0001EF0001EF0001C60D1
:101A5000000C60000C6000000000000000000000AE
:101A60000000000000000000000000000000000076
:101A700000000000000000000000000000003E7CAC
:101A8000003E7C000C300006600003C000018000B6
:101A900003C0000660000C30003E7C003E7C00006D
:101AA0000000000000000000000000000000000036
:101AB0000000000000000000000000000000000026
:101AC0000000000000007E1F007E1F00180C000CAC
:101AD00018000C180006300006300003600003E018
:101AE0000001C00000C00001800001800003000070
:101AF0003FC0003FC00000000000000000000000E8
:101B000000000000000000000000000000001FF8BE
:101B1000001FF80018300018600000C000018000AD
:101B20000300000618000C18001FF8001FF8000042
:101B300000000000000000000000000000000000A5
:101B40000000000000000000000000E00001E000D4
:101B500001800001800001800001800001800001FF
:101B600080000380000700000380000180000180E6
:101B70000001800001800001800001E00000E00021
:101B80000000000000000000000000000000000055
:101B900000000180000180000180000180000180C0
:101BA00000018000018000018000018000018000B0
:101BB000018000018000018000018000018000019F
:101BC0008000018000018000000000000000000093
:101BD0000000000000000000000007000007800077
:101BE000018000018000018000018000018000016F
:101BF000800001C00000E00001C000018000018001
:101C000000018000018000018000078000070000C3
:101C100000000000000000000000000000000000C4
:101C200000000000000000000000000000000000B4
:101C3000000000000E00001F18003BB80031F0004B
:101C400000E00000000000000000000000000000B4
:101C50000000000000000000000000000000000084
:101C6000000000002DE9F04F0FF2A41CA1B0DCE948
:101C70000089CDE900892A9DDFF8DC9B04910024CE
:101C80008DF843500D944FF0FF38824616461F469C
:101C90000FE0B3462C461BF8011B0498D0470028E0
:101CA000049000F0A2800D98401C641E0D90F2D1AB
:101CB00076193078252808D1002100220791089252
:101CC00009910A920B910C920DE06A46414630460A
:101CD00000F0DAFF050001D10D98A1E0D9D501256A
:101CE000E6E741F0010116F8010F2028F9D023287A
:101CF0000CD02B2804D02D2805D0302809D076E030
:101D000041F00201EFE741F00401ECE741F0080186
:101D1000E9E741F01001E6E70F9209E00F98484526
:101D200005DA00EB800402EB4402303A0F92761C95
:101D30003278A2F130000A28F0D330782E2818BF6C
:101D4000CDF8388022D116F8010F2A2807D138683B
:101D50003860761C50F8042B38600E9216E02D285F
:101D60000CBF761C002000220E920AE040B90E9AA9
:101D70004A4505DA02EB820403EB4403303B0E9341
:101D8000761C3378A3F130020A2AEFD3ADF8401065
:101D900021A0317800F082FF08B116F8010B8DF810
:101DA00042009DF84200682804D1307868280AD1A2
:101DB000622105E06C2804BF30786C2803D17121C2
:101DC0008DF84210761C12A806903A4616F8013B90
:101DD00002A9504600F064F838B912AA02A9504688
:101DE00000F0C8F900287FF564AF404618E02A28C3
:101DF00092D13A683A6052F8040B3A6000280F908A
:101E000003D540420F9041F00401761C95E7000095
:101E10000000000000000000686A6C747A4C00004A
:101E200021B0BDE8F08F622820D0682811D06A2840
:101E300003D06C2827D0712825D10868C01D20F058
:101E400007000860D0E900230830086019461046F2
:101E50007047002A0A680A60106803D0121D0A60E1
:101E600000B217E0121D0A6080B217E0002A0A686B
:101E70000A60106803D0121D0A6040B20AE0121D09
:101E80000A60C0B20AE0002A0A680A60106803D03B
:101E9000121D0A60C1177047121D0A6000217047A9
:101EA0007CB50D4611461C462E69B4F1250200F0A2
:101EB0004F811C3A00F08480121F022A40F2808079
:101EC0000E3A00F00981521F59D0093A78D0921E7B
:101ED00016D0521E35D0521E022A71D9121F30D090
:101EE000521F00F09880521E49D0521E00F0E2802E
:101EF000D21E00F0FF80921E41D0D21E3FD02DE1B5
:101F000095F83A406C2C09D06869421C6A610A68ED
:101F10000A6052F8043B0A60335429E10A680A60F7
:101F200052F8043B0A600093002201924FF0FF3305
:101F30002B636A46294600F098F9002840F1188181
:101F400003E195F83A000122FFF76DFFC5E90001B2
:101F5000002904D56869411C69612D220DE0288F94
:101F6000810704D56869411C69612B2205E0C0071F
:101F700021D56869411C6961202232541BE095F823
:101F80003A000022FFF74FFFC5E9000195F838003D
:101F9000010710D5D5E90023002B08BF002A0AD07D
:101FA00044F02000782806D1686930213154401C63
:101FB000421C6A613454214668693044E86087E015
:101FC0000868C01D20F007000860D0E90023083031
:101FD0000860C5E90023D5E90001C80F04D068698D
:101FE000411C69612D220DE0288F810704D56869A5
:101FF000411C69612B2205E0C00704D56869411CBA
:1020000069612022325468693044E86021462846DC
:1020100000F036FAACE005F13A02507820B14FF00A
:10202000FF340FF6043074E01078622808D0682876
:1020300024D06A2812D06C282ED071280ED02BE024
:102040000A680A6052F8040B0A6020B94FF0FF34A6
:102050000FF6EC205DE0E96A017089E00A680A6029
:1020600052F8040B0A6020B94FF0FF340FF6D0206D
:102070004FE0EA6AD317C0E9002379E00A680A60F2
:1020800052F8040B0A6020B94FF0FF340FF6B0206D
:102090003FE0E96A01806BE00A680A6052F8040BCD
:1020A0000A6020B94FF0FF340FF6942031E0E96A5E
:1020B00001605DE00A680A6052F8040B0A600021C2
:1020C00020F0000221F0FF33C5E90023EE60782103
:1020D000284600F02DF94BE06C2285F83A200B6879
:1020E0000B6053F8042B0B6052BB4FF0FF340FF61C
:1020F00084200EE095F83A206C2AF0D00868086039
:1021000050F8044B0860EC603CB94FF0FF340FF618
:10211000482000F0EBFD201A76BD2E6B002E04D572
:10212000204600F003FE044608E032460021204627
:1021300000F006FE002814BF041B3446AC6117E013
:10214000294600F092F8002812D54FF0FF3076BDF6
:102150006869411C69612522325409E06969481C9B
:10216000686125227254210002D0431C6B613454F3
:10217000002076BD2DE9F0410E4605469046726B73
:102180007069316AB46A121AB069521A716A121A05
:10219000F069521A121A96F83800141B41070DD430
:1021A000002C0BDD2746B0682021A8470028B0602E
:1021B00057D0F06A401C7F1EF062F4D1736942462A
:1021C0003146284600F098FC00284AD1376A002F93
:1021D0000ADDB0683021A8470028B06041D0F06A1D
:1021E000401C7F1EF062F4D1B369F2683146284684
:1021F00000F082FCA8BB776A002F09DDB0683021AF
:10220000A847B06068B3F06A401C7F1EF062F5D149
:10221000F068B169F36942183146284600F06CFC59
:10222000F8B9B76A002F09DDB0683021A847B0605F
:10223000B8B1F06A401C7F1EF062F5D196F8380004
:1022400041070BD5002C09DDB0682021A847B060FC
:1022500038B1F06A401C641EF062F5D10020BDE880
:10226000F0814FF0FF30BDE8F0812DE9F8470D46D1
:10227000A3B02F6B002F0646904648BF6FF0004773
:102280000FF60C1400F088FDD4E90023696B4018A8
:10229000CDE90123812828BF4FF0FF3042D200242E
:1022A000002F33DDD8F8001001AA684600F0EEFCDC
:1022B0008146B9F1000F38D4D8F8000010B9B9F14F
:1022C000010932D44F4521DB6869484481280AD38B
:1022D0000021696303AA29463046FFF74BFF04003B
:1022E00014D40020686103ABD5F814A04A466946AF
:1022F00003EB0A0000F064FDCA44C5F814A058F8C6
:10230000040B002818BFA7EB0907C9D14CB903AAD1
:1023100029463046FFF72EFF044614B900206861B5
:102320006863204624B0BDE8F0874FF0FF34F8E73B
:102330002DE9FC4307466F293E6908BF082405D0F4
:1023400041F02000782814BF0A2410243C25D7E946
:102350000023642918BF69299046994605D1002BAE
:1023600003D5D8F1000869EB4909B9F1000F08BF9E
:10237000B8F1000F1FD1386BE8B9082C4CD197F891
:102380003800010748D530203B2586F83B0043E064
:1023900000280ED597F8380000F01400102808D156
:1023A0007B6B7969386A5B1A1B1A9A1A002AC8BFB4
:1023B0003A62BDE8F3838DF8001040464946224654
:1023C000E31700F009FD3032D0B26D1E3A280195B6
:1023D00004DB9DF80000A0F151018A1872554046B7
:1023E00049462246E31700F0F7FC80465FEA010900
:1023F00008BFB8F1000F03D0F86871198842DCD328
:10240000082C09D197F83800010705D5705D3028F0
:1024100002D06D1E30207055C5F13C02BA617119B1
:10242000F960386B8242B3DA821A3A624FF6EF7083
:10243000398F01403987BDE8F3832DE9D043064643
:102440000F4614464FF00008DFF8109412E0E00742
:1024500007D542464B463046394600F045FD064614
:102460000F464046494642464B4600F03DFD64104B
:1024700080468946002CEAD130463946BDE8D083F3
:102480002DE9F84F05468A464AF020048EB0D5E97A
:102490000089612C02AE09D0286B002848BF0620B5
:1024A00003D408BF672C01D101202863D5E90001BE
:1024B0004A005215521C0DD10B030BD0AAF1610139
:1024C00003201A29A86102D20FF2CC6110E00FF2AA
:1024D000CC610DE04A005215521C0ED10B030CD1F9
:1024E000AAF1610103201A29A86116D30FF2B46181
:1024F000E868032200F064FCC0E1CDE90C01DDE9ED
:102500000C2323F00043B3F5801F0DD20027002BCE
:1025100008BF002A019703D111E00FF28461E7E7B9
:1025200001AA00F0B3FD0AE0CD48CE4900EB1350FC
:10253000DDE90C2301900B40CB4910461943C5E956
:102540000001612C0DD1E86830210170821CBAF1C4
:10255000610FEA600CBF7821582141706869801CC6
:102560006861D5E90001CDE90C01DDE90C2333F008
:10257000004104BF0028002300F04881612C40F096
:10258000A080286B494600284CBF4FF0210B00F17A
:10259000010B404600220023DDE90C8900F0AEFD6E
:1025A00001990BF1010738BF89F00049091F002F7D
:1025B00001918DF808200DF1090040F33581A949FA
:1025C00000910646404649460022002300F0AEFD39
:1025D00080F029814800400D00F11C0211D0002A32
:1025E0000FDD40F2FF739A4205DBA04909F000407D
:1025F0000143002011E0009B194041EA025140468E
:102600000BE028F0000039F0004108BF00280FBFA0
:1026100049461C22494600F0A1FD8046894600F04B
:102620003BFEFF1F002F044609DD00F053FE02466B
:102630000B464046494600F05FFE80468946F01D45
:10264000072104E004F00F0200F8012D2411002CF2
:1026500001DD491EF6D5491E5CBF002200F8012DA0
:10266000F9D5DCE00020194602AA0A4400E05B1E0E
:1026700012F80149491E8442F9D00F2804D10DF106
:102680000900425C521C4254002904D50198001DE7
:1026900002AE5B1C0190581E0CD43118AAF13A040A
:1026A0000A783032D7B23A2FA8BFA218401E01F8DC
:1026B0000129F5D5286B002840F1A780591E296310
:1026C000A3E001996A4A47F29750414391FBF2F225
:1026D000019229F00046D2F1070204DD404631465E
:1026E000FFF7ABFE0AE0524200206249FFF7A5FE69
:1026F00002460B464046314600F070FE8046662C8E
:10270000286B06BF019F0A3706273F18142FC8BF42
:10271000142730208DF8080089460DF1090000E0EB
:102720003046002F34DD06464046494600F07AFF29
:1027300001460A4606F1080304200A26B2FBF6F613
:1027400006EB860EA2EB4E02303203F8012C0A2271
:10275000B6FBF2F202EB820EA6EB4E063036401EBE
:1027600003F8026DE9D1083F002F03F10806D7DD19
:10277000084600F06BFF02460B464046494600F013
:10278000BBFD00223C4B00F0AFFB80468946CBE707
:102790000DF10901401A0DF1090604E00199491EE5
:1027A000401E0191761C31783029F7D0662C02D179
:1027B0000199491C03E0652C0CBF012100212B6B02
:1027C000CB189842B8BF431E002B1ED4834204DAB4
:1027D000F05C3528A8BF392000DA30201946721E77
:1027E00002EB010800E05B1E18F80199491E8145C3
:1027F000F9D0392802D1705C401C7054002904D5EE
:102800000198401C16465B1C0190019800B2009094
:102810001BB232465146284600F034F82EE0C61D61
:10282000002F3FF7CFAE30460DF10901401A0346A5
:102830005845C8BF5B46002B0DF109063FF53AAF7E
:102840008342BFF60FAF0DF10900C15C07297FF786
:1028500009AF0F2007E70000CBCCCC0C00002440D0
:1028600002FCFFFFFFFF0F800000E03F0000F07F51
:10287000A08601000000F03F84D797410FB0BDE86B
:10288000F08F00002DE9F84783B006468A461746C8
:10289000984600F0FDF9B8F1000F406A356B90F8EA
:1028A000009002DC4FF00108BFA74AF02000BDF9FC
:1028B0003040662808BF641C15D0672840F084802B
:1028C00014F1040FC0F28680AC4280F2838096F847
:1028D0003800641C010702D4A845B8BF454620B2A1
:1028E0002D1A48BF00250FFA84FAF068B169BAF1D1
:1028F000000F25DC4A1C30234354002D03DC96F8DE
:102900003800010703D5F06800F80290521C15EB5F
:102910000A0FB8BF6C4220B2441941424445B8BFC7
:10292000A046B26171620FFA88F5F561F068B3698B
:102930002A463946184400F043FA641BB462C4E0E6
:1029400022B29045084417DA4246394600F038FA78
:10295000B0694044B061AAEB0801002D716203DC4C
:1029600096F838100A0705D5F16801F80090F0696B
:10297000401CF061B562A8E0394600F021FAB06968
:10298000002D5044A8EB040803DC96F838100A0721
:1029900003D5F16801F80090401CB0610FFA88F08F
:1029A0008542F368B069B8BFA8460FFA88F207EB12
:1029B0000A01184400F004FAB1690FFA88F00144E2
:1029C000B161281A706280E0BAF1610F14D14FF042
:1029D000700A16E0A84504DA96F838100A0758BFBE
:1029E00045466D1E48BF0025BAF1670F14BF4FF072
:1029F000450A4FF0650A04E0BAF1410F08BF4FF0F5
:102A0000500AB169F368481CB061002D17F8012B1A
:102A10005A5403DC96F838100A071BD5F168431C9A
:102A2000B36101F80090002D14DDA8F101080FFA40
:102A300088F039468542F768B8BFA8460FFA88F291
:102A4000F81800F0BDF9B0690FFA88F108446D1A62
:102A5000B0617562F068B1690844002C80F800A08C
:102A600003D42B224270811C03E02D21417064426B
:102A7000811C00206A460AE023460A2493FBF4F4F2
:102A800004EB8405A3EB450302F8013B401C24B290
:102A9000002CF1DC012806DC4AF02002652A04BF84
:102AA000302201F8012B48B9302001F8010B07E072
:102AB000401E1DF80030303301F8013B0028F7DCE0
:102AC000F268B0691044091AF16196F8380000F014
:102AD000140010280DD17269B169706A8A18F16901
:102AE0008218B06A8A188218706B8242BCBF821A40
:102AF000326204B0BDE8F087F8B505460E461746C9
:102B00001C46002074B117F8011BB068A847B060DC
:102B100030B1F06A401CF0620020641EF3D1F2BDB7
:102B20004FF0FF30F2BD00007072696E74665F7323
:102B30003A20256E20646973616C6C6F7765640060
:102B40007072696E74663A2062616420256E20613D
:102B50007267756D656E74007072696E74665F730E
:102B60003A2062616420257320617267756D656E1D
:102B7000740000007072696E74665F733A2062615F
:102B80006420256C7320617267756D656E7400003A
:102B900000000000000000006E616E004E414E001B
:102BA000696E6600494E46003000F0B40246106877
:102BB00095681318506803EB5004C0071DD54D44A9
:102BC0001BE013F8017B05F8017B491EF9D1A0B188
:102BD000B60813F8011B06F00306032E08BF13F80E
:102BE000016B01EB06214942801C294405D011F8F4
:102BF000016B05F8016B401EF9D1A3420ED013F80A
:102C0000016B16F0030104BF13F8011BC91C300946
:102C10000F28DAD113F8010B0F30D6E7F0BC02F120
:102C20000C0070471B48704770B45368D418042BCD
:102C300009DA41B1057804F8015B10F8016B16B1AF
:102C40005B1C491EF3E7536070BC704738B51446EF
:102C50001D4661B1FFF7E8FF61686A6B2046904747
:102C60006FF00102811A02D0491E01D001E003E099
:102C700005E00021616032BD6FF0010032BD4FF010
:102C8000FF3032BDDA6B1047024BDFE7014BF9E74B
:102C900001487047C803002090030020C9B20278A1
:102CA0008A421AB11CBF10F8012FF9E718BF0020A3
:102CB000704730B4002513E050F8042BD30744BF0D
:102CC000A9F101039A18091F042942F8045BFAD2FA
:102CD00013468C0744BF15809B1CC90748BF1D7055
:102CE00050F8041B0029E7D130BC704780B500B90B
:102CF00006A005490B681BB122220021984701E07C
:102D000000F0B1FC222002BD80270020636F6E73AB
:102D1000747261696E742068616E646C65723A20C9
:102D2000626164206D6573736167650000F1010382
:102D300010F8011B11B110F8011BFBE7C01A704716
:102D4000C9B2830706D0521E22D310F8013B994224
:102D5000F7D11FE0083A13D302F1040241EA01213E
:102D600041EA014150F8043B121F21BF4B40A3F13F
:102D7000013C2CEA030C1CF0803FF3D0C9B2001FC9
:102D8000083210F8013B521E28BF91EA030FF8D811
:102D900018BF0120401E704780B5FFF743FF006C4D
:102DA00002BDB1F5807F02D34FF0FF307047017054
:102DB000012070470078401E8041C043C00F70471B
:102DC0004AB1000011F8013B521E00F8013B1CBF44
:102DD00011F8013BF8E77047D3BBD9B1B2F5803F9A
:102DE0005BD2022A1ED98C46B1FBF2F102FB11C361
:102DF0001B0443EA1043B3FBF2FC02FB1C3380B21A
:102E000040EA0343B3FBF2F002FB103240EA0C400D
:102E100000237047022A05D98446B0FBF2F002FB7A
:102E200010C270474AB105D100F0010249085FEABB
:102E30003000704700220023704700F017BC0B00E1
:102E40000200002100207047F7D3002200237047C2
:102E5000904271EB030CF2D370B5B1FA81F4B3FA7E
:102E600083F52C1BA340C4F1200532FA05F6334349
:102E7000A2405FF00046E64002E05B085FEA3202F3
:102E8000841A71EB030524BF204629467641F4D30A
:102E900002000B003000002170BD70B5B1FA81F462
:102EA000B2FA82F5C4F120046419B4F12006DAD331
:102EB000B2405FF00044F440002502E052085FEAAF
:102EC0003303C61A71EB020E24BF304671466441CB
:102ED0006D41F3D302000B002000290070BD026891
:102EE000531C036011707047B0B581EA030C0CF0FD
:102EF000004C40F2FF7515EA11541DBF15EA135737
:102F0000AC42AF4239E0E41923EA455343F480135D
:102F1000C90241F0004141EA505EC7021100A7FB1F
:102F2000020200284FF00000EEFB01204FF00001EC
:102F3000E3FB072118BF42F001024018002149417C
:102F4000E3FB0E01A4F580640F0302D2520040415E
:102F5000494154F101046CDD470872F1004250F11F
:102F6000000051EB0451A1F580115CBF41EA0C0156
:102F7000B0BD4CEA05510020B0BD05EA1357AC4284
:102F800014BFAF4241E050EA410E1CBF52EA430E6B
:102F900002E061460020B0BD24423C441BD15FEA00
:102FA000070EF6D0090302BF01460020AEF1140E51
:102FB000B1FA81F7AEEB070401FA07FE0C37C7F14F
:102FC000200100FA07F7C8404EEA000E23EA4553F5
:102FD00043F48013A2E733F00043B3FA83F704BF4E
:102FE000B2FA82FE77440B3FE41BB7F1200E2FBFED
:102FF00002FA0EF3BB40C7F1200E22FA0EFE38BFD4
:1030000043EA0E03BA40641C82E750EA410E14BF43
:1030100052EA430E6FF000014FF4001717EB430F15
:103020008ABF194617EB410FB5E74CEA055100205E
:10303000B0BDD4F10104B4F120070FDAC4F12007C8
:10304000520828BF42F0010210FA07F501FA07F70B
:10305000E1BF2A43E0403843E1400FE0352C98DCE3
:10306000C7F1200452EA400220FA07F218BF42F0EA
:10307000010231FA07F0A1400A43002172F1004237
:1030800050F1000051EB0C01B0BD000010B514462A
:1030900000F002F8226010BDC1F30A5343B14A00A8
:1030A00012F5001F28D2A3F2FE32A1EB02517047A5
:1030B00050EA410C20D001F0004C31EA0C01B1FA89
:1030C00081F204BFB0FA80F3D2180B3AB2F12003B8
:1030D0002CBF00FA03F1914041EA0C013EBFC2F15E
:1030E000200C20FA0CF319439040524240F2FD3379
:1030F000D21A01EB03517047002270474FF4001CB5
:103100001CEB410F94BF1CEB430F09E041EA030C99
:1031100050EA4C0C52EA0C0C03D2994208BF904280
:10312000704714BF8B428242704700004FF4001C6E
:103130001CEB410F94BF1CEB430F09E041EA030C69
:1031400050EA4C0C52EA0C0C03D28B4208BF82426C
:10315000704714BF9942904270470000124254D405
:1031600040F2FF7C1CEA11530FD0634531D09B180D
:1031700063453CBF01EB0251704701F0004141EA59
:103180000C510020AFF30080704750EA410320D07B
:1031900001F0004C91EA0C011CD0B1FA81F30B3B19
:1031A0009A420DD9D21A994051EA0C01C3F1200C70
:1031B00020FA0CFC61449840531C40F2FF7CD7E796
:1031C000914041EA0C01C2F1200C20FA0CF31943A2
:1031D00090407047B0FA80F31533202BE0D3202ABB
:1031E000EED3203A203B9A4209D9D21A00FA03F1D1
:1031F00041EA0C010020531C40F2FF7CB8E700FAC2
:1032000002F141EA0C0100207047524240F2FF7C7B
:103210001CEA11530DD06345DBD0B2EB030C3CBF6D
:10322000A1EB025170470CF1010221EA035141F474
:10323000801150EA410CCCD001F0004C352A27DC3B
:1032400030B481EA0C01B2F1200309DAC2F12003A3
:10325000044601FA03F5D0402843D1409C400CE0DD
:10326000C3F12002450020FA03F418BF44F0010422
:1032700021FA03F091400C43002174F1004550F114
:10328000000051EB0C01244230BC7FF47BAF70474F
:103290006146002076E70000C1F30A5340F2FE3297
:1032A0009B1A14DDD3F120034FEAE17208DDC90255
:1032B00041EA505141F00040D840801850407047DA
:1032C00003F2E13010B1D24382F000407047002099
:1032D00070470000C11768B14840401AB0FA80F248
:1032E0009040D21CC907C2F5846241EA025202EB47
:1032F000D02140057047000070B44FF0004591EABE
:10330000030F40F1B5816B40841A71EB030603D2C1
:10331000001BB141121973414FF4001C1CEB410F0B
:1033200034BF7CEB430442E00C0DA4EB1356352E66
:103330004FDC45EAC323DB0A45EAC121C912B6F1D5
:1033400020050DDD63FA05F6EB4086EA030512421F
:1033500018BF45F00105C01851F100010CD213E06F
:1033600062FA06F5F2405540F3415A40B340F3404B
:103370005A408018594107D349085FEA30005FEA94
:10338000350528BF45F0010501F58011420875F1AA
:10339000004250F1000041EB04514E0016F5001FB1
:1033A00070BC38BF70470020090D090570471CEB41
:1033B000410F10D252EA43060BD0BCEB410F05D8A7
:1033C0000C0DAB43661E342EB6DD02E0AB43801815
:1033D000594170BC704770BC70470000F0B540F2B6
:1033E000FF7581EA030C0CF0004C15EA11541DBF67
:1033F00015EA1357AC42AF42E5E0BC41C1F31301FB
:10340000C3F31303801A994143F4801304D2641E5A
:103410004000494180185941C90241EA5051B1FB6D
:10342000F3F603FB1611A2FB0675D7EBC020A941EA
:1034300002D2761E80185941C90241EA5051B1FBAF
:10344000F3FE03FB1E11A2FB0E75D7EBC020A941B2
:1034500003D2AEF1010E80185941890241EA905120
:10346000760546EA8E2EB1FBF3F603FB1611A2FB9E
:103470000675D7EB8020A94102D2761E80185941EB
:10348000C90241EA50514EEA060EB1FBF3F603FBC6
:103490001611A2FB0675D7EBC020A94102D2761EF9
:1034A00080185941C90241EA5051B1FBF3F703FBBF
:1034B0001711A2FB0735D3EBC020A94167F1000724
:1034C0000CBF004247F0010766F3D5274FEA1E31D3
:1034D000B80814F5806412DDBD0775F1004250EBA9
:1034E0000E5051EB045111F5801F5CBF41EA0C01F5
:1034F000F0BD4CF07F6141F0E0410020F0BDBD0720
:103500006D0840EA0E5041F48011D4F10104B4F189
:1035100020060ADAC4F120060200E04001FA06F3B0
:10352000E1401843B24015430EE0342C13DCC6F1E1
:10353000200445EA40056D0820FA06F2154321FAF9
:1035400006F0A1400D43002175F1004250F100004A
:1035500051EB0C01F0BD00205FEA0C01F0BDCFB9CA
:1035600092185B41B3FA83F704BFB2FA82F6BF192F
:103570000B3FB7F120062FBF02FA06F3BB40C7F19D
:10358000200622FA06F638BF3343BA401CB1E419CC
:10359000641E33E77F4231F00041B1FA81F404BF89
:1035A000B0FA80F6A4190B3CB4F120062FBF00FA44
:1035B00006F1A140C4F1200620FA06F638BF3143D7
:1035C000A0403C1B1AE7AC421ABF05EA1357AF42B2
:1035D00012E050EA41061CBF52EA4306BFE750EA38
:1035E0004107304661461CBF41EA0551F0BD52EA31
:1035F000430C08BFC143F0BD00204FF4001616EB8A
:10360000410F98BF16EB430F08BF16EB410F24BFC5
:10361000C14305E016EB430F0CBF61464CEA055170
:10362000F0BD0000400D491840EA81200CD2490D40
:10363000A1F58061491C40F0004005DBD1F11F017C
:1036400054BFC840C017704700207047014648B1BA
:10365000B0FA80F18840C91CC1F58461090501EB0D
:10366000D02140057047012000F0B8B87047000035
:10367000841A71EB030604D26E40001BB14112198B
:1036800073414FF4001C1CEB410F34BF7CEB43062D
:1036900083E00C0DA4EB1356362E00F37C80012E34
:1036A00045EAC32341DC43EA525312BFD2029202DD
:1036B0005B08240545EAC12141EA5051D2EBC02004
:1036C000994125D407D1B0FA80F610FA06F162D0FC
:1036D0000020203608E0B1FA81F6B140C6F12002A0
:1036E00020FA02F21143B0404FEAF474B4EB4654AE
:1036F00034F001064FEA74040AD8D6F50016760DA8
:1037000004F00044F04061FA06F25040F1404840B5
:10371000C00A40EA415021F0004128BF5FEA50054D
:1037200050F1000044EBD12135E0DB0A45EAC1212C
:10373000C90AB6F120050EDD42EA0242120CC5F1BB
:10374000200603FA06F6EB4042EA06056D42984170
:1037500061F100010DE062FA06F5F240554063FAAE
:1037600006FC82EA0C02F3405A406D42904161EB44
:10377000030111F4801F05D1641E620502D06D00A3
:103780004041494121F48011430875F1004350F153
:10379000000041EB045170BC70471CEB410F15D287
:1037A00023F0004352EA43060BD04FEA4C0CBCEB2B
:1037B000410F04D80C0D661E342EB7DDEBE7801ADE
:1037C000994150EA410608BF0021E4E708BF1CEB1D
:1037D000430F28BF6FF00001DDE7000080B5AFF3B5
:1037E0000080024A11001820ABBEFBE72600020051
:1037F000DFF82408DFF824180268536A4A880B802F
:10380000B1F900008B684880821A8A8003FA82F23C
:103810008A60C868121A88680A61C860DFF80018F0
:103820004860704780B5DFF8F4070021418081606F
:10383000C16001610020DFF8E8174FF47A62486048
:103840008A60C8618861086000F0CFFBDFF8C807B4
:1038500002680021516201BD38B5DFF8C447DFF8C6
:10386000C4572DED048BE269A1686068081AA1694C
:103870004118821A00EE101A08EE102A606184EDD9
:10388000060A84ED088AE06100EE900AB8EEC09A5C
:10389000F8EEE00AD5ED118A95ED120A60EEA88ADD
:1038A00029EE000AC5ED148A10EE100A00F00CFC97
:1038B000DFF87427DFF87437FFF716FB00F028FCF9
:1038C000B8EEC88A95ED130A09EE100A28EE000A30
:1038D00085ED159A10EE100A00F0F6FBDFF8482788
:1038E000DFF84837FFF77AFD00F012FC00EE100A0F
:1038F00085ED160A78EE890A30EE800A84ED100A0A
:10390000642000F063FCA4F844000D220D2100F0B7
:103910008BFCA4F844000146BDEC048B281DBDE8D7
:10392000344000F029BCDFF8F806DFF8042701680E
:10393000436842F8213002EB8101B0F94420C1F81C
:10394000B0244369C1F860398269C1F8102E01F5CD
:103950009651006A08607047F0B50FF23875B3B041
:103960002846FFF7E3F9DFF8AC460FF23876DFF8C8
:10397000C07682B24FF47A732946204600F09DFC4F
:10398000002507EB85002A46D0F8B0140091314697
:1039900057F8253001A800F08FFD01A8FFF7C6F900
:1039A00082B24FF47A7301A9204600F086FC6D1CA8
:1039B000B5F5967FE5DB33B0F0BD00002DE9F84F9B
:1039C0002DED028BA4B000F097FD00F0ABF900F0F4
:1039D00071FADFF86046DFF86006DFF83C6604F550
:1039E000927704F19C05386404F5B27000F09EFDF6
:1039F000DFF84806606000210220E060A1602161DC
:103A00000020E06202216063A0632163201D00F0BA
:103A10009DFD0121201D00F059FE68461C2100F08B
:103A2000EBFEDFF81C062860012108206960E860D1
:103A30001021402029616861802110200022A961A5
:103A40000090019002900390049005900690AA6067
:103A5000EA612A626A62AA626946284600F0D0FEDC
:103A6000DFF8E005DFF8E0156863A9630020E8638C
:103A700000214FF4804029646864A964E9642965E1
:103A8000696504F1D005284600F008FF00212846AA
:103A900000F0ACFF0021284600F0C0FF00F0A0F9C4
:103AA000DFF8A80560644FF48271A1640020E0642F
:103AB000002160652165A16521666166A166E166F8
:103AC0004FF40070E0650A21216704F1440000F022
:103AD000CBFF02A8242100F08FFE0FF2DC50002162
:103AE000D0E90023DFF868053060CDE900234FF608
:103AF000FF707160F0603161002200200121B2602E
:103B0000B061029103920491069008910A90059287
:103B10000792099202A9304601F036FB002100917C
:103B200001913046694601F0DBFD0FF29450DFF859
:103B30002415DFF8F054DFF8E894DFF8F4A4D0E9B6
:103B40000023CDE900233960532078600022BA6059
:103B500040F2E730F860BA61384601F0B5FA00216A
:103B6000009101913846694601F0BAFD68461C2172
:103B700000F042FEDFF8E00468605321A9600020F5
:103B8000E86063216861E8612961281D01F0D3FACA
:103B9000602100911E2201920021029100220492D4
:103BA0006946281D01F0FFFB281D01F0CEFFDFF85C
:103BB0006404DFF8A81401604FF4E13200230C2103
:103BC00042608360C360036141618361C3619FEDB3
:103BD000B68B00F037FB00220021362002F0B4F84B
:103BE000362002F0CEF800220021062002F0ACF8C8
:103BF000062002F0C6F802F001F94FF05041002013
:103C000002F04AF94FF05041012002F045F9FFF768
:103C100009FE0421304601F001FB384601F061FA4B
:103C20000021281D01F094FA012002F073F94FF0F1
:103C30007F4002F07BF94FF07F4002F087F94FF0B0
:103C4000FF3002F06BF902F01DF9B86440F22B1658
:103C500002F01DF9F8643346EF220021002002F043
:103C600099FA3346DC220021DC2002F037FA0FF209
:103C7000402BDFF8EC6313E0FFF7EEFDDAF8AC243D
:103C800059460BA800F018FC03230BAA4FF49671B9
:103C9000322002F08BF900202870002200F03DF85D
:103CA00028780128FCD1012200F037F8FFF7A0FDA9
:103CB0002078012802D00328DED0ECE7D9F80010E4
:103CC000B1F5967F23DAFFF7C7FDFFF72CFED9F891
:103CD00000805AF82800411000EB91708010FFF727
:103CE000F9FA53EC182BFFF7FFF8FFF7D5FA386510
:103CF000C7F854806FF47F421FFA88F180B202F057
:103D000071FAD9F80000401CC9F80000C3E700218F
:103D1000C9F8001003202070BDE74FF48041304601
:103D200002F011BD10B59EB0CE4C12A82146302233
:103D3000FFF746F801A8142100F05EFD06A804F183
:103D400030013022FFF73CF8002000904FF4A02310
:103D5000C548016841F0805101600021006800F011
:103D6000805000900098C1480091026842F440429F
:103D700002600122006800F44040009012A80099FF
:103D8000129202214FF480021891199208214FF4E7
:103D9000A8721A911B920221042213931C911D9266
:103DA00002F002FD02210291002203920F204FF443
:103DB000A051019004914FF480520592052101A871
:103DC00002F084FE08214FF4D87206910A92022173
:103DD00000220C910F9206A802F04EFF1EB010BDFB
:103DE00038B59AB0A24C0DA821463422FEF7E8FF60
:103DF000684604F134013422FEF7E2FF9D4C9E48F0
:103E000020600021072060616160E16021610E2077
:103E10000321E061A1614FF4A77005216062216276
:103E20004FF4AA70F521E062A16204F1340000228F
:103E3000F721A260216302808270204603F036F8E9
:103E400000200D900E90109012900521159119A848
:103E50000021002217918DF8641041700F92119289
:103E600013924FF4806516921892827014950DA9E2
:103E7000204603F08EF80CA8002105220091019144
:103E800002910391049105910691089209910A917A
:103E90000B91ADF8301081700795012269462046DC
:103EA00003F077F81BB030BD295C8FC2F528CC3FFA
:103EB0002535640038B586B06846142100F09CFCB6
:103EC00000246E486E4D05940168654C41F0100168
:103ED0000160026802F01002059200220599059225
:103EE000036843F004030360016801F0040100F07B
:103EF0005EF843F020030360016801F0200100F048
:103F000056F843F080030360016801F0800100F07F
:103F10004EF843F001030360016801F0010100F075
:103F200046F843F002030360016801F0020100F06B
:103F30003EF843F040030360016801F04001059141
:103F4000059905920C21036843F00803036000689B
:103F500000F0080005900598284602F0F4FB0022C6
:103F60004FF4C041204602F0EEFB0C2100F024F893
:103F7000284602F07DFA012042490090019100227A
:103F800002926946404802F073FA04200021009032
:103F90000191029169463D4802F06AFA4FF4C0412E
:103FA00000F00AF8204602F063FA07B030BD059130
:103FB0000599059203687047009101220192002142
:103FC00002910322039269467047012800D070478E
:103FD00080B5362001F0E0FE00F007F8FFF7BCFCEA
:103FE000BDE80240362001F0CCBE0021284800F098
:103FF000C3B880B500681749884204D14FF4005116
:10400000174802F0A4FB074801210170BDE80140F8
:10401000FFF7EEBBCC2600208C2600200C270020CA
:1040200044260020B4010020FCA9F1D24D62503F8B
:1040300010040020380000200030024000B0024090
:10404000400100A0005C0040A0860100005001403B
:1040500000040040001000400040014000100140FA
:1040600000180240787C0008403802400070004090
:10407000107C0008E0240020006801403038024035
:104080000010024000001110000002400004024035
:10409000B80100205265636F7264205072696E74BB
:1040A0000D0A00002537642C202535642C20253688
:1040B00064200D0A00000000000000000000000065
:1040C0000000000000000000C0F3C75181B1FF29CB
:1040D00006D0C110400721F0E04101F16051704766
:1040E00041020CBF40F4E0016FF000410020704736
:1040F00000F0004100020AD0B0FA80FC00FA0CF097
:1041000001F16051A1EB0C5101EBD021400570474A
:1041100001F000428B1AA3F16051B1F5801F0ADB58
:10412000B1F17F6F1FD242EAC102C10071F10041BB
:1041300042EB507070470B15C3F10903212B10D2CD
:10414000890241EA905180020128494141F0004131
:1041500021FA03F0C3F12003994071F1004150416D
:104160007047100070476FF0000013EB103F5CBF0A
:10417000000E42EAC0507047F8B50D46642D044663
:10418000A8BF642504DA15F1640FB8BF6FF06305AA
:10419000234E0022042100F015F82F0005D4002240
:1041A00000F00FF82068456305E0012200F009F8EF
:1041B00020687F4247632046BDE8F440002100F0BC
:1041C000C7BF0821304602F0BEBA000080B502F039
:1041D000A5FF1448B5EE400AFDEEC00AF1EE10FA54
:1041E00080ED010A10EE901A08DB9FED0B1AB4EE79
:1041F000410AF1EE10FA0AD4642108E0DFED070A63
:10420000B4EE600AF1EE10FAB8BF6FF063010180FE
:10421000B0F9000002BD00000000C842FFFFC7C2A5
:104220000010024074270020002803DD884207DACE
:104230000846704703D5904202DD104670470020C3
:104240007047000038B5040001D1012032BD00F0F4
:1042500021F808B900F022F800F012F800F023F875
:10426000FFE7416100F001F832BD2068C16841F408
:104270000051C1600020686020216970A9707047FA
:10428000242068702068C16821F40051C160204674
:1042900000F09FB804F13805687870470021297054
:1042A000204601F078BC2068016921F49041016149
:1042B0002068416921F02A0170472DE9F84305463D
:1042C00005F138070C4678782028164698463DD1E7
:1042D000002C14BF002E012039D03878012835D0A9
:1042E000012139700020786021227A7002F032FFBB
:1042F0008146AE84EE840020387003E02A6814F80A
:10430000011B5160E88C20B3E88C411EE9844B46C8
:10431000A868CDF80080B0F5805F0DD100F023F8DB
:1043200070B920882968C0F308004860286900280F
:1043300014BF641CA41CE5E700F015F80028DDD0CC
:10434000032004E020207870002000E00220BDE877
:10435000F283CDF800804B460022402100F005F8A2
:104360000028EFD0ECE7002280212846FFE72DE966
:10437000F041069C05460E4690461F462868016897
:104380003140B1420CBF01200020404517D114F14B
:10439000010FF3D024B102F0DDFEC01B8442EDD248
:1043A0002868C16821F4D07100F00CF805F13800DC
:1043B00020214170817000210170032000E0002065
:1043C000BDE8F081C1602868416949084900416140
:1043D0007047D0B50646642732681169F06821F449
:1043E0004051014311611924D3682D48B16803403D
:1043F00030690B4371690343F0690B430343D36096
:104400005169B06921F4407101435161F369254854
:104410002549B3F5004F1FD18A4218BF824202D10D
:1044200002F0E2FB01E002F0D7FB0246A4FB02012E
:104430007268D30F5200FEF7CFFC00F037F8FF0090
:1044400032376420B7FBF0F0420002F4F87202EB5E
:10445000011200F007001DE08A4218BF824202D11B
:1044600002F0C2FB01E002F0B7FB0246A4FB02012E
:104470007268930F9200FEF7AFFC00F017F83F014F
:1044800032376420B7FBF0F000F0F00202EB0112CB
:1044900000F00F00316880188860D0BD0000000077
:1044A000F369FFFF00140140001001406421B0FBDC
:1044B000F1F107FB110770470CB430B583B00A4621
:1044C00006A90291044600250194009502AB01A9BA
:1044D000084878441E30FDF7C5FB019A1570002886
:1044E0004EBF04460198041B204603B030BC5DF863
:1044F0000CFB00BFEBE9FFFF80B50B48016841F4FE
:1045000000710160026842F480620260016841F457
:1045100080710160032001F00AFC002002F020FEFF
:1045200001F024F9002002BD003C024010B5040057
:1045300001D1012010BD607920B9002121712046F0
:1045400001F02FF901206071002010BD38B5040082
:1045500001D1012032BD04F13805687820B900216D
:104560002970204601F032F90220687021680A683B
:10457000606822F4403202430A6021684A6BA068F6
:10458000D20840EAC2024A6321680A6CE068920BD2
:1045900040EA82320A6400216960012068700020CC
:1045A00032BDF8B500F00DF801D10220F2BD00F0E7
:1045B00001F80CE0069801262E7002276F7000901B
:1045C0007047044604F138052878012870472046D2
:1045D00000F0CDF82068016841F001010160002081
:1045E000F2BDF8B5054600200C46009005F13806EE
:1045F00029680868C20745D502F0ACFD074628685F
:1046000041688A073ED441680091009A12F0210F58
:1046100003D000F04CF821211AE014F1010FEED084
:1046200002F098FDC01B844222D3002CE7D11FE08A
:1046300041680091009A12F0290F10D000990A07E2
:1046400003D5716841F00401716000F030F8292150
:10465000816004207070002131700120F2BD14F1DE
:10466000010F18D002F076FDC01B844200D394B92C
:10467000706840F02000706003217170002030707D
:104680000320F2BD2868C169406A0143880606D547
:1046900002F060FD074628684168CA06C8D5296847
:1046A000122088600122727000203070F2BD0099E3
:1046B0008A0603D5716841F0020171600099CA074A
:1046C00003D5716841F001017160704770B500F069
:1046D00049F801D1022070BD01231370022400EBC0
:1046E0000115547005F118035C689D680A2C18BF09
:1046F000092C44EA054504D1DC6804F07F442543D5
:1047000002E0DC6845EA04650468154E89B9616A0F
:104710000E403543656205681C68AC6159680A291A
:1047200018BF092916D1D968006821F07F4181623C
:1047300010E0E1690E403543E56105681C682C61B5
:1047400059680A2918BF092904D1D968006821F0DD
:104750007F410162012151700020107070BD000086
:10476000F0FFFC0000F138021378012B7047F0B520
:104770000468059D666C06F0404645EA03453543EE
:104780006564E2634268B2F5403F32D101F07F4296
:1047900001F47F0301F47F45806801F0FF0143EAE3
:1047A000050610B93243114321E0012808BF314307
:1047B0001DD0CE08DF0C022804D1AD0AF90241EA6F
:1047C000451108E0032808D1ED0AB90241EA451174
:1047D000D20F41EAC231314309E01B0D2D0B1B0200
:1047E00043EA0513120F43EA023343EA1111A163AE
:1047F000F0BDE160F0BD0000002202F0D1BC00007D
:1048000070B504000D4601D1012070BD04F12C06E5
:10481000307820B900217170204601F04FFA022053
:104820003070211D206802F0D5FC6268206829469E
:1048300002F00BFD01203070002070BD38B5044639
:104840000D4694F82C0002280DD000F018F802F064
:104850003DFD2868022807BF052184F82C1001209F
:1048600084F82C00002032BD10B500F012F805D0FD
:1048700000F005F802F04FFD00F006F810BD022030
:1048800084F82C0020687047012084F82C00002058
:104890007047044694F82C0002287047F8B50400CD
:1048A00025D004F13C05697821B900202870204604
:1048B00000F0A1FF242169702068026852085200AC
:1048C00002602068016841F40041016020680268CC
:1048D00022F40042026002F07FF901466068DFF8CE
:1048E000F420904205D2DFF8F030994205D2012041
:1048F000F2BDDFF8E8008142F9D32068DFF8E0304C
:104900004668B1FBF3F3B60943EA861646602668AB
:10491000376A6068904206D34FF4967043434FF471
:104920007A70B3FBF0F35B1CBF0943EA8713336271
:10493000491E2368DE696768974206D27F0000F04F
:1049400043F8042913D2042111E0A06820B907EB31
:10495000470700F039F805E01920474300F034F824
:1049600041F4804108050CBF012141F40041DFF80A
:10497000740006400E43DE6122681368E169206A14
:1049800023F0C0030B43034313602268DFF8580091
:10499000936821690340E0680B43034393602168F7
:1049A000CA68A3696069120A034343EA0222CA6023
:1049B0002068016841F00101016000206860202149
:1049C00069702063A870F2BDB1FBF7F1491CC1F317
:1049D0000B017047A186010080841E0000093D0084
:1049E00040420F000030FFFF007CFFFF10B590F841
:1049F0003D20202A10D100F028F80268536A23F0E5
:104A0000100353620268536A1943516201680A68CD
:104A100042F001020A6021E0022010BD10B590F8BA
:104A20003D20202A0FD100F010F84FF6F0720368F5
:104A30005C6A1440214389B2596201680B6843F0F3
:104A400001030B600AE0022010BD242380F83D30F2
:104A5000026814686408640014607047202180F8BC
:104A60003D10002010BD000038B5040001D1012028
:104A700032BD0020A06204F15005687820B9002101
:104A80002970204600F0B1FF0220687000F071FA32
:104A90006268A168E06823680A432169024360698B
:104AA0000A43A169024301F40071E0690A43216AE3
:104AB0000243A06A0A4302431A60A169606A22683D
:104AC000090C01F00401014351602068C16921F41F
:104AD0000061C161002068600121697032BD10B5BC
:104AE00008B9012010BD00F1500402216170016875
:104AF0000A6822F040020A6000F09EFF0020606019
:104B00006070207010BD2DE9F84300F00EFA984651
:104B100008BF022000F088800120387002F01AFBE4
:104B20007978012918BF02267CD1002C18BFB9F171
:104B3000000F76D0032179707E602C63A5F8349045
:104B4000A5F83690AE63AE87EE876E642E64AB68D0
:104B5000B3F5004F04D129680B6843F480430B6020
:104B600029680B685C0603D40B6843F040030B60B4
:104B70004446E968B1F5006F696821D1002918BF82
:104B8000B9F1010F00F0E6F9804604E0296B0A88CC
:104B9000C26000F0BCF9E88E002833D02868816834
:104BA0008A07F3D402F0D6FAA0EB0800A04204D39F
:104BB00014F1010FEFD0032634E0002CEBD1FAE71B
:104BC000002918BFB9F1010F00F0B8F9804606E0DE
:104BD000296B0A780273286B411C00F09AF9E88E61
:104BE00080B1286881688A07F2D402F0B3FAA0EB9A
:104BF0000800A04203D314F1010FF0D0DBE7002C32
:104C0000EDD1D8E742462146284600F02BFA08B1FC
:104C100020207860A86810B900F080F9009A7868C0
:104C200000B1012600F09AF8BDE8F2832DE9F843BF
:104C3000002604460D466068B0F5827F04BFA06878
:104C400000289146984604F1500709D104267E7049
:104C5000CDF800804B462A46204600F085F87BE0E0
:104C60003878012808BF022076D00120387002F081
:104C700071FA7978012918BF02266BD1002D18BF6F
:104C8000B9F1000F65D0042179707E60A563A4F8A6
:104C90003C90A4F83E902663A686E6862664666469
:104CA000A268B2F5004F04D121680A6822F480425C
:104CB0000A6021680A68530603D40A6842F0400279
:104CC0000A600546E168002926D108E0007BA16B57
:104CD0000870A06B421CA263E08F411EE187E08F49
:104CE00068B320688168CA07F0D402F033FA401B29
:104CF000404504D318F1010FF1D003262AE0B8F1A2
:104D0000000FECD1F9E7C068A16B0880A06B821C92
:104D1000A263E08F411EE187E08F80B12068816847
:104D2000CA07F0D402F016FA401B404503D318F12D
:104D3000010FF1D0E1E7B8F1000FEDD1DDE72A4630
:104D40004146204600F066F908B120207860786876
:104D500000B1012600F002F8BDE8F283012078706E
:104D600000213970304670472DE9FC4700F0DDF82E
:104D70004FF0010808BF022000F0BC809A4687F877
:104D8000008002F0E7F97B78012B09D06968B1F562
:104D9000827F02BFA9680029042B01D00226A4E06B
:104DA000002C1CBFB9F1000FBAF1000F01D1012690
:104DB0009BE07B78042B1CBF052179707E60C5F8D1
:104DC0003890A5F83EA0A5F83CA02C63A5F836A025
:104DD000A5F834A02E646E6429680C68630603D4B9
:104DE0000C6844F040040C60E9680A9CB1F5006F5F
:104DF000696838D1002918BFBAF1010F00F0AAF88C
:104E00008146E88E002804BFE88F002874D0296806
:104E1000886882070BD5E88E002818BFB8F1000F0C
:104E200005D0286B0288CA60B04600F070F8296887
:104E30008868C2070CD5E88F50B1C868A96B088094
:104E40004FF00108A86B821CAA63E88F411EE98716
:104E500002F080F9A0EB0900A042D2D314F1010FB7
:104E6000CFD0032641E0002918BFBAF1010F00F0AE
:104E700065F88146E88E002804BFE88F00283BD003
:104E80002968886882070DD5E88E002818BFB8F118
:104E9000000F07D0286B02780A73B046286B411CBC
:104EA00000F037F829688868C2070CD5E88F50B140
:104EB000C868A96B08704FF00108A86B421CAA6370
:104EC000E88F411EE98702F045F9A0EB0900A042F6
:104ED00003D314F1010FCDD0C3E7002CCAD1C0E732
:104EE000A86810B900F01AF8009801217970002024
:104EF00038703046BDE8F68721464A46284600F01D
:104F0000B1F80028ECD0202101267960EDE7286B6C
:104F1000811C2963E88E411EE98670470096296846
:104F2000CA680092896800917047054605F15007EC
:104F30000026387801280C469146704709D1296B24
:104F40002B680A781A73296B4A1C2A63E98E4A1E59
:104F5000EA86704709D1296B2B680A88DA60296BC9
:104F60008A1C2A63E98E4A1EEA86704790F851002F
:104F700070472068016821F04001016070472DE909
:104F8000F041069F05460E4690461C4628688168FB
:104F90003140B1420CBF01200020404531D014F116
:104FA000010FF3D002F0D6F8C01BA04201D2002CB2
:104FB000ECD12868416821F0E00141606868B0F5F3
:104FC000827F08D1A868B0F5004F18BFB0F5806F98
:104FD00001D100F019F8A86AB0F5005F09D128687E
:104FE000016821F4005101602868026842F400520F
:104FF000026005F15000012141700022027003207F
:1050000000E00020BDE8F0812868016821F040013F
:10501000016070471CB504460B466068B0F5827F9E
:1050200008D1A068B0F5004F18BFB0F5806F05D16A
:10503000FFF79FFF6068B0F5827F07D1A0680092FC
:10504000B0F5806F03D00022802102E000920022A0
:1050500001212046FFF793FF10B100F02BF816BD99
:10506000002016BD7CB504461548164E0B46016857
:105070001825B1FBF5F5B5FBF6F64FF47A7046430B
:1050800000966168B1F5827F09D1009280210022EB
:105090002046FFF774FF58B100F00CF876BD009879
:1050A00030B10098401E0090216888680106F6D44F
:1050B000002076BD606D40F02000606503207047E1
:1050C0008C03002040420F0038B5040001D10120BC
:1050D00032BD00F055F818B900F04EF800F00FFDA1
:1050E0000FE00068C16841F00101C160816801F012
:1050F0000701062903D0016841F001010160002089
:10510000704702206870211D206800F0CBF9012053
:105110006870002032BD03D1416C41F4004141640C
:10512000816801F00701062903D0016841F00101FF
:105130000160002010BD38B5040001D1012032BD4E
:1051400000F01EF818B900F017F800F0EBFCD8E7F3
:1051500010B500F007F800F00AF81CBFDFF8B42023
:105160009042D8E704460122206800F0ABBA2068DC
:10517000DFF8A4108842704700212970204670474C
:1051800004F13C0568787047F8B504000E4601D17B
:105190000120F2BDFFF7F4FF18B9FFF7EDFF00F0B3
:1051A0005DFC022068702168DFF8EC028A6802402A
:1051B0008A60211D206800F075F92268DFF8DC1292
:1051C00093689069176A0140B0680843B16940EA82
:1051D0000120DFF8CC120140F0680843F16940EA91
:1051E0000121306941EA0010316A40EA013C7068EF
:1051F000716927F0AA0707433068034347EA01179C
:1052000093602168C1F818C00121206807626970A5
:105210000020F2BD000401400000014010B504462A
:1052200009B1042901D1012203E000F013F80122A1
:105230000421206800F046FAFFE7206800F005F836
:10524000002010BDC16001223068016841F00101F9
:105250000160704720680122002100F033BA10B5C8
:105260000446206801698A0715D5C1688A0712D5E6
:105270006FF00201016101222277806910F0030FB3
:10528000204602D002F04DF803E002F04BF800F0A7
:1052900087F800202077206801694A0715D5C16882
:1052A0004A0712D56FF0040101610222227780695A
:1052B00010F4407F204602D002F033F803E002F001
:1052C00031F800F06DF800202077206801690A07A6
:1052D00015D5C1680A0712D56FF0080101610422D3
:1052E0002277C06910F0030F204602D002F019F8AF
:1052F00003E002F017F800F053F800202077206850
:105300000169CA0615D5C168CA0612D56FF0100129
:10531000016108222277C06910F4407F204602D044
:1053200001F0FFFF03E001F0FDFF00F039F800207D
:10533000207720680169CA0708D5C168CA0705D562
:105340006FF0010101612046FEF753FE20680169FC
:105350000A0608D5C1680A0605D56FF0800101610B
:10536000204601F0E0FF206801694A0608D5C168BF
:105370004A0605D56FF040010161204601F0D4FFD7
:10538000206801698A060AD5C1688A0607D56FF0C8
:10539000200101612046BDE8104001F0C6BF10BDEC
:1053A000204601F0C3BF70B500F063F801D10220C0
:1053B00070BD00F06BF832B1042A17D0082A28D04B
:1053C0000C2A39D04AE03068294600F0B6F8306837
:1053D000816941F0080100F048F821F00401816181
:1053E00031688A69286902438A6137E03068294652
:1053F00000F0CFF83068816941F4006100F035F8C1
:1054000021F4806100F031F82A6941EA02218161CA
:1054100024E03068294600F0ECF83068C16941F0BA
:10542000080100F01EF821F00401C1613168CA6969
:1054300028690243CA6111E03068294600F008F982
:105440003068C16941F4006100F00BF821F480611B
:1054500000F007F82A6941EA0221C16100F010F862
:1054600070BDC1613068C169704781613068816910
:105470007047064606F13C040D4620780128704727
:1054800001206070002121700020704701202070F1
:105490000221617070470000F8BFFFFFFCFCFFFFB6
:1054A0000303FFFFF0B57C4C05687C4B7C4E7D4FC1
:1054B000DFF8F4C1A04218BFB0F1804F07D06045BB
:1054C00018BFB84203D0B04218BF98420DD14A6805
:1054D00025F070051543A04218BFB0F1804F17D0DA
:1054E00060451CBFB842B04212D098421CBF6F4A00
:1054F00090420DD06E4EB0421CBF6E4A904207D013
:105500006D4EB0421FBF6D4A90426D4EB04203D106
:10551000CA6825F4407515434A6925F0800515438E
:105520000560A0428D68C5620A68826212BF984217
:105530000969016301224261F0BDF0B5026A564F6C
:10554000520852000262066A446885690B688A68DC
:1055500025F0730526F002061D4316434F4BB84253
:1055600018BF984207D1CA6826F008061643B84209
:1055700026F0040601D0984205D14B698A6924F4CB
:1055800040741C431443446085614968416306626A
:10559000F0BDF0B5026A404E22F010020262B04245
:1055A000056A436884690A6824F4E64444EA0224EC
:1055B0008A6825F0200545EA0215384A18BF90424E
:1055C00008D1CF6825F0800545EA0715B04225F0DF
:1055D000400501D0904206D14E698A6923F44063A8
:1055E000164343EA86034360846149688163056228
:1055F000F0BDF0B5026A22F480720262056A436867
:10560000C4698E680A6825F4007524F0730445EABD
:1056100006251443204E214AB04218BF904208D1BB
:10562000CF6825F4006545EA0725B04225F480657A
:1056300001D0904206D14E698A6923F44053164343
:1056400043EA06134360C4614968C1630562F0BD63
:1056500070B5026A104E22F480520262B042046AAF
:105660004268C3690D6823F4E64343EA05238D6865
:1056700024F4005444EA05341CBF084DA84204D168
:105680004D6922F4804242EA85124260C361496852
:105690000164046270BD000000000140000401408C
:1056A000000C0040000800400004004000400140A1
:1056B000004401400048014000180040001C004028
:1056C0000020004010B501F01F01036A01248C4046
:1056D000A343036202FA01F1036A1943016210BD98
:1056E00070B500F13C031A78012A01D1022070BD87
:1056F00001221A7002245C7005686E68AC680A6842
:1057000026F0700616436E6002681148824218BF88
:10571000B2F1804F11D00F4882421CBF0E4DAA42F9
:105720000BD00E4882421CBF0D4DAA4205D00D4839
:1057300082421CBF0C4DAA4204D1486824F0800468
:1057400004439460012159700020187070BD00005E
:10575000000001400004004000080040000C004030
:1057600000040140004001400018004081B00020CA
:1057700000900022DFF84805416841F48041416013
:10578000416801F48041009100990092036843F060
:1057900080530360006800F080500090009801B0D2
:1057A000704781B00068DFF81C1588420CD10022D8
:1057B000DFF814050092016841F48051016000682F
:1057C00000F480500090009801B0704781B00068EC
:1057D000DFF8F81488420CD10022DFF8EC040092C4
:1057E000016841F400010160006800F400000090CD
:1057F000009801B0704738B586B000F07BF9246896
:10580000DFF8CC54AC423FD10020DFF8BC4400901C
:10581000216841F0040121600021206800F00400AB
:105820000090009800914FF40071226842F001024C
:1058300022601222206800F0010000900098DFF83A
:10584000940401910292012103910322042100F0AA
:1058500048F912210291012203924FF48070032132
:10586000019004910422059201A9DFF86C0400F074
:10587000FFFD00200090216941F4000121612069B1
:1058800000F400000090009807B030BD38B586B035
:10589000044668461421FEF7AFFF2468DFF83C5445
:1058A000AC4240F08780002005900022DFF8180409
:1058B000DFF82C44416941F080614161416901F0A8
:1058C000806100F07DF843F020030360016801F07F
:1058D000200100F075F800F0FDF800F071F843F0D9
:1058E00002030360016801F0020100F069F843F06F
:1058F00040030360016801F0400100F061F843F0EB
:1059000004030360016801F0040105910599059203
:105910004FF48061036843F0080300F0D7F800F00B
:10592000080000F0B7F903910E210491694600F0D8
:105930009FFD00F041F841F6580000F04FF8DFF805
:10594000980300F095FD00F037F8032000F03DF8D3
:1059500000F032F84FF4706000F040F8204600F09C
:1059600087FD00F029F84FF40C6000F037F8DFF8FD
:105970007443204600F07CFD4FF498600221002221
:1059800000900191029203920E2204926946DFF880
:10599000440300F06DFD00F00FF8482000F01EF801
:1059A000DFF8440300F064FD00F006F84FF4A05067
:1059B00000F00BF807B030BD00220292039270474E
:1059C00005910599059203687047022100900191A5
:1059D000092204926946204600F04ABD0221009047
:1059E00001910E2204926946704738B586B000F0E6
:1059F00081F82468DFF8FC52AC421BD100F0EDF8CE
:105A000041F480114161416901F4801100F06EF8A8
:105A10004FF46071036843F0200300F057F800F082
:105A2000200000900098DFF8C80200F0AEF80521D1
:105A300000F057F807B030BD0068DFF8B8128842B0
:105A40000BD1DFF8A802026822F4801202604FF442
:105A50006071DFF89C0200F0EEBD704738B586B08B
:105A600000F048F82468DFF89052AC422CD10020B6
:105A7000009000229448016941F00201016101692E
:105A800001F0020100F032F8036800F023F800F0A2
:105A90002DF88021036843F0020300F017F800F0AE
:105AA000020000F0A0F8022100F01BF80221029190
:105AB00000220392102003210190049102220592FA
:105AC00001A9874800F0D4FC07B030BD0360022272
:105AD0000068704743F001030360016801F00101B1
